:020000040800F2
:10000000002000205D0200089F92010889830108FA
:100010009D9201080D41010841AB0108000000005C
:100020000000000000000000000000009D0100082A
:10003000C543010800000000F90100083DA10108C6
:1000400077020008770200087702000877020008AC
:10005000770200087702000877020008770200089C
:10006000770200087702000877020008770200088C
:10007000770200087702000877020008770200087C
:10008000770200087702000877020008770200086C
:10009000770200087702000877020008770200085C
:1000A0007702000805A2010877020008770200081D
:1000B000770200087702000877020008770200083C
:1000C000770200087702000877020008770200082C
:1000D00077020008770200087702000811A80108DB
:1000E000770200087702000877020008770200080C
:1000F00077020008770200087702000877020008FC
:1001000077020008A193010877020008770200082F
:1001100077020008770200087702000877020008DB
:1001200077020008770200087702000809430108F7
:1001300077020008414C01087702000877020008A6
:1001400077020008770200087702000877020008AB
:1001500077020008154301087702000877020008BB
:10016000770200087702000877020008770200088B
:1001700077020008770200087702000800000000FC
:100180007702000877020008DFF80CD000F094FE38
:100190000048004749920208002000202C4B1968B3
:1001A0000868B0E8F04F80F30988BFF36F8F4FF015
:1001B000000080F3118870470000000008480068C4
:1001C000006880F308884FF0000080F3148862B65E
:1001D00061B6BFF34F8FBFF36F8F00DF00BF00BF6B
:1001E00008ED00E0DFF80C00016841F470010160E7
:1001F000704700BF88ED00E0EFF30980BFF36F8F19
:10020000134B1A681EF0100F08BF20ED108A20E96A
:10021000F04F106009B44FF0500080F31188BFF325
:100220004F8FBFF36F8F36F081FC4FF0000080F3EB
:10023000118809BC19680868B0E8F04F1EF0100F6B
:1002400008BFB0EC108A80F30988BFF36F8F704746
:10025000CC010020EFF3058070470000064880477E
:1002600006480047FEE7FEE7FEE7FEE7FEE7FEE79B
:10027000FEE7FEE7FEE7FEE7F1A1010889010008BD
:100280002DE9F05F0546002092469B4688460646CB
:10029000814640241BE0284641464746224600F05E
:1002A000A4FC53465A46C01A914110D31146184631
:1002B000224600F08BFC2D1A67EB01084F462246C0
:1002C0000120002100F082FC17EB00094E41201EA6
:1002D000A4F10104DFDC484631462A464346BDE826
:1002E000F09F00000048704788A0030810B504463E
:1002F000FFF7F8FF0068005D00F0010010BD00008E
:100300000649074A0868504343F23902104408601E
:1003100040087047014908607047000090050020C0
:100320006D4EC64110B5441A0346944209D2841852
:10033000114403E011F8013D04F8013D521EF9D2C9
:1003400010BD40EA0104A40703D009E010C9121F40
:1003500010C3042AFAD203E011F8014B03F8014B51
:10036000521EF9D210BDD2B201E000F8012B491E95
:10037000FBD270470022F6E710B513460A46044642
:100380001946FFF7F0FF204610BD30B505462A4656
:100390000B4612F8010B13F8014B08B1A042F8D03C
:1003A0001CB1002802D06D1CF1E7284630BD10B505
:1003B000044604E00B7800F8013B03B1491C521ECF
:1003C000F8D2204610BDCAB2401E10F8011F8A4262
:1003D00002D00029F9D100207047421C10F8011BFF
:1003E0000029FBD1801A704710B5002200E0521C92
:1003F000835C8C5CA34201D1002BF8D1D8B2E1B26E
:10040000401A10BD30B504460020034600E05B1CD6
:10041000934203D2E05CCD5C401BF8D030BD034674
:1004200011F8012B00F8012B002AF9D1184670476A
:1004300030B505460020034600E05B1C934205D220
:10044000EC5CC85C201A01D1002CF6D130BD000054
:100450000FB400B58DB010A909900B9000914FF02A
:10046000FF300A9000200C90054806900548079040
:100470006A4609A80F9900F053FC0DB05DF814FB13
:100480003D0D00085B0D00082DE9FF4F087881B095
:100490009946FF2805D0491C2D2804D000240023AC
:1004A00008E000230BE00124F9E703EB830300EBF2
:1004B0004303491C0878FF28F7D104B15B420020B0
:1004C0000090147801462D2C01D02B2C04D1521C05
:1004D0002D2C12D00024009400251678FF2E0ED06B
:1004E0000A24A0FB04C801FB0481002700FB0711BC
:1004F000521C16EB0C006941EFE70124EBE799442D
:1005000050EA01020ED00024AA4D2646DFF8A88248
:1005100000F091FC82468B46B9F1000009DAC9F17E
:1005200000071BE001980021C0E9001105B0BDE8FB
:10053000F08F074612E0F80707D022462B463046D8
:10054000414600F0E4F90646884622462B4610460E
:10055000194600F0DCF904460D467F10002FEAD161
:10056000B9F1000F324643465046594602DA00F0D0
:1005700040FA01E000F0CBF9009A0AB181F00041A5
:10058000019AC2E90001D1E72DE9FF4F1F468DB066
:10059000D7E901464FF0FF382E2045464FF00009BD
:1005A0000B90B9696D1C0E988847396A8246884756
:1005B0000028F6D1BAF1FF3F0AD024F4D064002E0F
:1005C00011DDBAF12B0F08D0BAF12D0F0BD102E0DB
:1005D000404611B0ABE744F48064B9696D1C0E98D5
:1005E00088478246761E6946600501D52D2000E0C9
:1005F0002B208DF8000001F1010B0DF1200809E01E
:10060000B9696D1C0E98884782460F9844F40074AF
:10061000761E0560002E02DDBAF1300FF0D00B9986
:100620008A453ED144F0800406E00F99681CA9F188
:10063000010944F400740860B9696D1C761E0E98B7
:10064000884782463028F0D02BE00B998A4505D1A7
:10065000200603D444F08004761E18E050461CF0B7
:10066000E1FD08B30DF11301761E44F400748B45CF
:1006700008D2AAF130000BF8010B200607D5A9F12A
:10068000010003E0200602D409F101008146A00523
:1006900002D50F99681C0860B9696D1C0E988847CF
:1006A0008246002ED1DC53E0002E51DDBAF1650FF9
:1006B00002D0BAF1450F4BD1A00549D5B9696D1CDF
:1006C00024F44074761E0E9888478246002E0CDD76
:1006D0002B2804D0BAF12D0F07D144F48074B969E6
:1006E0006D1C0E9888478246761EE00501D52D21A7
:1006F00000E02B2108F8011BCDF82C8021E00DF142
:100700002901761E44F4007488450CD2AAF1300009
:1007100010F0FF0088F8000002D10B99884509D934
:1007200008F1010806E0E00501D5244801E042F2A5
:100730000F708146B9696D1C0E98884782460F98E4
:100740000560002E04DD50461CF06CFD0028D6D15B
:10075000F9690E988847FF208BF8000088F80000A0
:100760000020069007904B466A4608A906A8FFF7A6
:100770008BFEA00502D46FF001002AE714F0240FCD
:100780000AD0E00714D1DDE906123868031D3B608A
:100790000068C0E900120BE0DDE9060100F06FFB24
:1007A0000146E00704D13868021D3A600068016024
:1007B00028460EE7000024400000F03FF1D8FFFF7C
:1007C0002DE9FE4F804681EA0300C00F0C460090E1
:1007D00021F0004123F00045B8EB0200A94105D209
:1007E0004046214690461C460B46024623F00040F8
:1007F000104347D0270DC7F30A00C3F30A510290F4
:10080000401A019040286BDAC3F3130040F4801BB8
:100810000098924620B10023D2EB030A63EB0B0B46
:1008200001985946C0F14002504600F0CFF9064603
:100830000D4650465946019A00F0E7F910EB0800C2
:100840006141002487EA115284EAE7731A4340D0D9
:10085000009A62B3019A012A4FEA075215DC001B85
:1008600061EB02014FF0004202EA0752CDE900427B
:10087000001C41F5801132462B4600F08EFA03B081
:10088000BDE8F08F40462146F9E7001B61EB02010D
:10089000001C41F5801300185B412018A2F50017D9
:1008A00047EB030140EAD570B6196D4111E06D08C0
:1008B0004FEA360645EAC0754FEA0752001B61EB66
:1008C0000201001C41F5801149084FEA300000196F
:1008D000514132462B4603B0BDE8F04F00F04EBA0E
:1008E0000098012240000023D0EB020263EBE0738A
:1008F000009821464FEAE074B8EB000061EB040178
:10090000E9E783F000435BE781F0004158E72DE918
:10091000FE4F81EA030404F0004421F000410094FA
:100920004FF0000B23F0004350EA01045ED052EA7E
:1009300003045BD0C3F30A54C1F30A552C44A4F258
:10094000F3340194A0FB0254C1F3130141F480116C
:10095000C3F3130343F4801301FB024400FB034E73
:10096000840A970A44EA815447EA8357A4FB07683C
:1009700002958D0A05FB07854FEA932C04FB0C5466
:100980002705029D4FEA065847EA1637B5EB0805DA
:100990006EEB070C870E920E47EA811742EA83122C
:1009A000A7FB0201B6EB0B0164EB00042B0D43EA3D
:1009B0000C335E1844EB1C50DA465146E7FB02014B
:1009C000C5F313044FEA0B3343EA14534FEA0432DE
:1009D000019C43EA0603A4F10C040294009CCDE9B7
:1009E00000B400F0DAF903B0BDE8F08F0020014652
:1009F000F9E72DE9F04D81EA030404F0004B21F002
:100A0000004514464FF0000A23F0004150EA050269
:100A100020D054EA01021DD0C5F30A570246C5F39F
:100A20001303C1F31300C1F30A5640F4801543F4D5
:100A30008013A7EB0608101BD64608F2FD3873EBAF
:100A4000050002D308F1010801E092185B41B8F1FA
:100A5000000F03DA00200146BDE8F08D00204FF4BE
:100A60008011064684460EE0171B73EB050705D37D
:100A7000121B63EB050306434CEA010C49084FEADD
:100A8000300092185B4150EA0107EDD152EA0300B1
:100A900012D082EA040083EA0501084305D0101B46
:100AA000AB4106D20122002306E000224FF00043B2
:100AB00002E06FF0010253101AEB06004CEB0851F4
:100AC00010EB0A0041EB0B01BDE8F04D00F056B908
:100AD0000EB5C10F80EAE0700844CA07002140F259
:100AE00033438DE80E000A460B4600F056F903B07A
:100AF00000BD0EB540F2334102910021CDE9001155
:100B00000A460B4600F049F903B000BDC1F30A5292
:100B100010B5C1F3130140F2FF3341F480119A4242
:100B200001DA002010BD40F233439A42A2F2334270
:100B300003DC524200F059F810BD904010BD000097
:100B400030B5041E71F1000404DB4FF00044404254
:100B500064EB0101141E73F1000405DB1C464FF029
:100B60000043524263EB04038B4208BF824230BD14
:100B700030B5041E71F1000404DB4FF00044404224
:100B800064EB0101141E73F1000405DB1C464FF0F9
:100B90000043524263EB0403994208BF904230BDC8
:100BA00030B50B46014600202022012409E021FA3D
:100BB00002F59D4205D303FA02F5491B04FA02F53A
:100BC0002844151EA2F10102F1DC30BD202A04DB0D
:100BD000203A00FA02F1002070479140C2F1200350
:100BE00020FA03F3194390407047202A04DB203A8F
:100BF00021FA02F00021704721FA02F3D040C2F13D
:100C000020029140084319467047202A06DBCB1783
:100C1000203A41FA02F043EAE07306E041FA02F3B7
:100C2000D040C2F1200291400843194670470000AD
:100C300007280FD2DFE800F00406080E0E0C0A00A9
:100C400005A070470AA0704713A070471DA0704709
:100C500022A070472BA070474E6F206572726F7292
:100C600020286572726E6F203D2030290000000040
:100C700045444F4D202D2066756E6374696F6E205C
:100C8000617267756D656E74206F7574206F662074
:100C900072616E67650000004552414E4745202D48
:100CA0002066756E6374696F6E20726573756C74FF
:100CB000206E6F7420726570726573656E74616208
:100CC0006C650000454E4F4D454D202D206F7574CD
:100CD000206F66206D656D6F7279000045494E5634
:100CE000414C202D20696E76616C696420617267C9
:100CF000756D656E7420746F2066756E6374696FB0
:100D00006E000000556E6B6E6F776E206572726FAD
:100D100072000000026811441378016018467047A1
:100D2000D1600449516104491162002111611146E9
:100D300000F0D4B8150D0008ED020008426842B179
:100D4000016811F8013B23B1521EC0E90012184698
:100D500070470121C160881E704742685AB1C3685C
:100D6000016843B983688B4205D0491E521CC0E913
:100D70000012002070474FF0FF30704710B5141E6E
:100D800073F1000408DA401C41F1000192185B4144
:100D90001A4301D120F0010010BD2DE9F04D92461B
:100DA0009B4611B1B1FA81F202E0B0FA80F2203232
:100DB0009046FFF70BFF04460F4640EA0A0041EA5F
:100DC0000B0153465A46084313D0114653EA01001B
:100DD00019D0C8F140025046FFF707FF05460E46FE
:100DE000504659464246FFF7F1FE084305D0012020
:100DF00004E020463946BDE8F08D0020054346EA70
:100E0000E0762C4337430A986305E40AA0EB080018
:100E10000022FD0A44EA47540A3002D50020014668
:100E2000E9E7010510196941DDE908450019694143
:100E3000BDE8F04DA2E70EB540F233420292002227
:100E4000CDE900221346FFF7A8FF03B000BDC1F3B0
:100E50000A52C1F3130140F2FF3341F480119A4268
:100E600002DA00200146704740F233439A42A2F270
:100E7000334202DC5242FFF7B8BEFFF7A7BE01F0D3
:100E8000004330B421F0004150EA010206D00A0DBF
:100E9000A2F56072C1F31301002A02DC30BC00200D
:100EA0007047440F44EAC104C100E01830BC00EBB5
:100EB000C25000F0A9B90000064C074D06E0E068FA
:100EC00040F0010394E8070098471034AC42F6D391
:100ED000FFF75EF9C0F10308F0F103082DE9F34FC5
:100EE0008BB04FF0000801F10C000C464FF0010BE5
:100EF00046460DF1080A0190626901210198904768
:100F0000051E2DD0252D2CD0216A8847C0B16269DD
:100F1000012101989047216A88470028F7D1411E96
:100F200062690198904700E0761CA1690B98884798
:100F3000216A88470028F7D1E1690B988847DBE7E9
:100F4000A1690B9888470746A84201D1761CD3E7D0
:100F5000E1690B9888477F1C02D1B8F1000F6FD070
:100F600046E1002762693D463946019890472A28A4
:100F700004D162690121019890470125DFF884922C
:100F80006269012101989047A0F130010A290AD233
:100F90004F45E5DC07EB870100EB4107303FDFD42D
:100FA00045F01005ECE7E90601D46FF000476C2826
:100FB0000AD04C2814D0682815D06A280DD074287F
:100FC0001CD07A281AD01DE062690121019890474F
:100FD0006C2802D045F0040514E045F002050DE050
:100FE00045F020050AE062690121019890476828D0
:100FF00002D045F0080505E045F40065626901216D
:1010000001989047C4E9015765283DD019DC58285C
:101010007AD00CDC452837D004DC252826D041289E
:1010200031D131E046282FD047282CD12CE05B2845
:1010300077D0612828D063287CD0642823D15AE057
:10104000D0E06F2848D008DC66281DD067281BD068
:10105000692821D06E2816D127E0702845D0732842
:1010600068D0752847D078280DD14DE0A1690B983C
:101070008847054625283FF469AFE1690B98884702
:101080006D1C3FF46AAFB3E023466A466FF001007F
:101090000B99FFF779FA9EE045F040006060A807E1
:1010A00023464FF0000236D43EE0E8077FF447AF16
:1010B0002068011D21600068290501D506701BE725
:1010C000290701D5068017E7A90703D5F117C0E95D
:1010D000006111E706600FE745F040006060A80777
:1010E00023464FF0080216D41EE040F60E0125EA12
:1010F0000100606016E045F040006060A8072346EC
:101100004FF00A0207D40FE045F040006060A807E6
:1011100008D5234610226FF001000B99AFF3008031
:1011200059E007E0234610226FF001000B99AFF35E
:10113000008050E04FF000094F464B46632802D034
:101140005B2806D040E0E80601D40120A06001271A
:101150003AE062690121019890475E2805D14FF07D
:1011600001096269494601989047216939B900210E
:101170000A46534643F82120491C0829FADBB0B33C
:10118000216969B9C11700EBD16253110AEB8301E0
:1011900022F01F02821A01200B68904003430B606B
:1011A00062690121019890475D28E8D1B9F1000FEB
:1011B00009D00020514651F82020D24341F8202088
:1011C000401C0828F7DB02AB224600976FF00100B5
:1011D0000B99AFF3008000280CDA401C08D1BBF15A
:1011E000000F05D04FF0FF300DB0BDE8F08FFFE7E6
:1011F0004046F9E7E90701D108F1010806444FF03C
:10120000000B79E6CCCCCC0C0029A8BF7047401C61
:10121000490008BF20F00100704710B4B0FA80FC0C
:1012200000FA0CF050EA010404BF10BC704749B149
:10123000CCF1200421FA04F411FA0CF118BF0121B9
:1012400021430843A3EB0C01CB1D4FEA00614FEA99
:10125000102042BF002010BC704700EBC350104468
:101260000029A4BF10BC7047401C490008BF20F0F3
:10127000010010BC704770B58C1810F8015B15F0B8
:10128000070301D110F8013B2A1106D110F8012BF8
:1012900003E010F8016B01F8016B5B1EF9D12B071D
:1012A00005D40023521E0DD401F8013BFAE710F8D3
:1012B000013BCB1A921C03E013F8015B01F8015BC0
:1012C000521EF9D5A142D8D3002070BD70B5456833
:1012D00082B004460146284609F0CAFB68B123687B
:1012E0000F2B59D00BDD282B45D0B3F5107F3CD008
:1012F000112B49D0204609F083FF02B070BD0B2BA3
:1013000020D00E2BF6D1E3681A6859680D2A53D005
:10131000202A31D1002928464FF480717DDD09F063
:1013200093FC284601F0D6FC02AB846A43F8040D16
:10133000184601F0A1FDA207DFD5284601210BF0D8
:10134000C5FADAE7284601F0C5FC02AD034668306D
:10135000019301F0A1FA55F8040D03216C3001F05E
:10136000C1FA284601F088FDC4E7324B21462846E1
:101370001B689847C1E7E368002BBBD128464FF4B0
:10138000807109F059FBB5E72B4B1B68002BB4D0DB
:10139000214628469847B0E7284601F09BFC02AB5F
:1013A00043F8040D426E1468184601F065FD002CE8
:1013B000A3D02846A047A0E70029DDDD4FF48071C7
:1013C000284609F041FC284601F084FC02AC866AFC
:1013D00044F8040D204601F04FFDB10703D501216B
:1013E00028460BF073FA4FF48071284609F024FB6D
:1013F000284601F06FFC034620461E8E9C6A01932E
:1014000001F03AFD304605F03FFAA3077FF575AFCE
:10141000284602210BF05AFA6FE709F00DFB284627
:1014200001F058FC02AB846A43F8040D068E18469E
:10143000E6E700BFAC0300200C6C00202DE9F04F64
:10144000B0F90A60B0F90C708569B0F90E80B0F996
:101450001090B0F908A087B08B4616441F4404468C
:101460004C3503F047F9DFF8CCC0CDF800B04FF0B1
:10147000000E42463946304603954B46CDF808C02B
:10148000CDF804E009F0BEFD804628B905F0FEFE67
:10149000404607B0BDE8F08F01F01CFC244F0590DA
:1014A000514610223E1D09F003FC0DF118090FCE24
:1014B00059F804ED0EF134050FC50FCE0FC596E8AF
:1014C0000F0085E80F007B6BCEF86430484601F0D2
:1014D000D3FC7B6B40465B68984705F0D7FE656898
:1014E00003F008F9404601F0F5FB846E049004A86F
:1014F000059401F0C1FC2946484607F00DF9002883
:10150000C4D0059B9C4209D0404601F0E3FB059AFC
:101510008266034604A8049301F0AEFC40460AF03C
:101520004FFE05F0B3FE404607B0BDE8F08F00BFA8
:10153000AC030020CD120008F0B5954A81684368DD
:1015400052F8216089B00446122B3FD8DFE803F03F
:10155000AE3E3E3E3E0A963E3E3E3E3E3E3E3E3E17
:101560003E3E4100F569002D40F0B280371F57F82C
:10157000040F05F013F904F110000FC85B1B521B98
:1015800029442844013502F041FE022DEFD1326991
:101590006169E3690192A2692069F76800970B44C9
:1015A0005B100231521B284402F0B8FBE369616909
:1015B000B2690192A26920697469009419444910C2
:1015C0000131023B521B284402F0A8FB002009B065
:1015D000F0BD006801F07EFB856E0490002D00F0E8
:1015E000CF80A368B0F95C70002B00F0C780032B9C
:1015F00014BF0023022300EB8303406D1C6C05F035
:10160000EBF8204605F0CAF808AC06A802F076FF11
:10161000B6F81CE0BDF81810BDF81C20BDF81A0083
:1016200054F8106DBDF81E307144CEEB020202304A
:10163000023BADF81810ADF81C20B6F95E10B6F9F3
:101640006020ADF81A0006A8ADF81E3004F0B4FB17
:10165000204601F011FC022005F0FEF8284601F0BA
:1016600039FB08AC06A944F80C0D3A4602F0A6F87E
:10167000204601F001FC002009B0F0BD006801F037
:1016800029FB049020680CF0B9FBA8B9049B5D6F9E
:1016900005B9DD6E04A801F0EFFB002328462168A0
:1016A0001A4602F02FF8002009B0F0BD00680BF0D8
:1016B000A9FB002009B0F0BDA368002B64D1049AF7
:1016C000136F002B14BF6C23682313445D68E1E79C
:1016D000B368039373680293374600F1140157F817
:1016E00004090EC901902069009506F0A3FB0025AE
:1016F00057F8040F05F052F8F369A269216960698F
:10170000D21A1944284402F0DDFBF369A269216969
:10171000E069D21A1944401B02F0D4FBF369E26974
:1017200061692069D21A1944284402F0B7FDF369AF
:10173000E2696169A069D21A401B1944013502F0BF
:10174000ADFD022DD4D1B06805F028F8F16920690B
:101750006569E36942185B1A013A2944023002F0D4
:1017600011FEF169A2696569E369501A5B1A0130DB
:101770002944023A02F006FEF56908E701233AE738
:1017800004A801F079FB21E7049BDD6E82E700BF2E
:10179000D0E7030838B51346002204460D46184624
:1017A000114601F085FF294602462046BDE8384033
:1017B000AFF3008000B9704770B5054682B00C46A3
:1017C000164602F097FF284601F084FA022C019099
:1017D00006D901A801F050FB05F058FD02B070BD1C
:1017E0001A34A4002044043001F056F8019B1C4434
:1017F000284666600AF0E4FCEBE700BF2DE9F04FF5
:10180000161A85B05D1A9E4656EA0503DDF838B013
:1018100078D086EAE67385EAE574A3EBE673A4EB79
:10182000E5749C420746894632DC1C46A6424FF0CE
:10183000000301933AD06D4239464FF0FF33002D3B
:101840001746C6F100040A46F1460393DBF8001080
:1018500032D1DFF80883019BD8F800E00846002B5E
:1018600000F0CF809EF81A30002B00F0C181002CD0
:10187000C0F2C581B54EAA467246013B451C032BFA
:1018800000F23281DFE813F04A013F0156011F01E7
:101890003B4630462E4611464F46A64299464FF0EB
:1018A0000103724605468E460193C4D10123002DE3
:1018B0000393DBF80010CCD0DFF8A082D8F800004A
:1018C00004EBD476827E4FEA6606B8BF7642F2B960
:1018D000002C14DB019B002B00F05181924601E0AB
:1018E000D8F80000436E96FBF4F00AEB07015B6842
:1018F00048440AF1010A984754452E44F0DA05B0ED
:10190000BDE8F08F05B0BDE8F04F00F07BB95A1C80
:1019100000F02D81002C53DBCDF808904FF0000A29
:10192000C14698464144CBF80010827E013A032A12
:1019300015D8DFE802F0574B2C02854B4FEAE17EC9
:1019400083FB0132CEEBA20202EB4202A1EBC20208
:101950000B2A12DD22F00402103A012A0DD996FB5F
:10196000F4F1029B426E1944019B002B40F0F88079
:10197000526838469047DBF800100AF1010A5445D6
:1019800007F101072E4416DBD9F80000CAE76F4BB8
:101990004FEAE17E83FB0132CEEBE20202EB8202F0
:1019A000A1EB82020B2AD7DC0AF1010A544507F1A8
:1019B00001072E44E8DA039A0132434600F0DD8045
:1019C000CB1ACBF8003005B0BDE8F08F614A0A4071
:1019D000002AC0F2E680012ACCBF00220122002AA0
:1019E000CBD1BCE75C4A01F1060E0EEA0202002AE6
:1019F000C0F2DC800B2ACCBF00220122002ABCD11D
:101A0000ADE79EF81A30002B00F0E980002CC0F200
:101A1000F680DDF804A04E4E7246013B451C032BB8
:101A200013D8DFE803F04337210286FB0031C317E8
:101A3000C3EBA10303EB4303A0EBC3030B2B0ADDB2
:101A400023F00403103B012B05D9536E49465B6814
:101A500007EB0A0098470AF1010A544514DBD8F84D
:101A600000202846937ED8E7384B83FB0031C3170C
:101A7000C3EBE10303EB8303A0EB83030B2BE1DC5C
:101A80000AF1010A5445EADA691ECBF8001005B0E4
:101A9000BDE8F08F2F4B0340002BC0F29680012B46
:101AA000CCBF00230123002BD5D1CEE72A4B691DE3
:101AB0000B40002BC0F28E800B2BCCBF00230123E8
:101AC000002BC8D1C1E7224B83FB0031C317C3EB06
:101AD000A10303EB4303A0EBC3030B2B0ADD23F0AD
:101AE0000403103B012B05D9536E0AEB07015B6819
:101AF000484698470AF1010A5445C5DBD8F800204A
:101B00002846937EB9E6134B0340002B53DB012B91
:101B1000CCBF00230123002BECD1E5E70E4B691D60
:101B20000B40002B4CDB0B2BCCBF00230123002BE5
:101B3000E0D1D9E786FB0031C317C3EBE10303EB28
:101B40008303A0EB83030B2BCBDCD3E767666666CE
:101B5000ABAAAA2A030000800F0000809C0300208B
:101B60000846526839469047DBF8001005E72144E3
:101B7000002CCBF80010BFF6CFAE214420E79A46E8
:101B800001E0D8F80000436E96FBF4F10AEB070081
:101B90005B6849440AF1010A984754452E44F0DA3B
:101BA000ADE6013A62F00302013214E7013A62F055
:101BB0000F0201321EE7013B63F003030133A6E786
:101BC000013B63F00F030133ADE7013B63F0030317
:101BD000013364E7013B63F00F0301336CE7DEF888
:101BE00064301B684946384605B0BDE8F04F1847D9
:101BF0003946484605B0BDE8F04F07F099BB0D46A1
:101C000042E700BF064B1B681A7E012A05D0013A45
:101C100002EBD272521000F005B85B6E5B68184799
:101C20009C0300202DE9F04FDFF8DCB0354EDBF8E7
:101C30000040154640F2C32202FB05F2034685B080
:101C400086FB0209606E0293D217C2EBA919EF1846
:101C5000C5EB030805EBD57E05FB05F6046806EB2E
:101C60006E0309F101093A46404601938A46A047AE
:101C7000B9F1000F42DD029A012413190293531E99
:101C80000393334616461AE0013DAF19C5EB06082B
:101C9000DBF800305B6E0AEB04013A461B684046F5
:101CA0009847DBF800305B6EC4EB0A013A461B68CC
:101CB000404601349847A14520DB05FB05F3019A16
:101CC00004FB04339A42E3DAA945DDDA029ADBF831
:101CD0000030171B039A5B6E02EB0408384642463D
:101CE0000AEB05011B689847DBF800305B6E424643
:101CF00038461B68C5EB0A019847C5E705B0BDE843
:101D0000F08F00BFD34D62109C0300202DE9F04FEF
:101D1000002987B01F4C40F3D5822746054600EBCB
:101D2000810E43F6FF74B5F90260B44205F1040573
:101D3000A8BF3446B742B8BF3746AE45F3D1049783
:101D4000154D2D686D696DB1B5F90660049FB5F943
:101D50000250F61AED1AB742A8BF3746AC420497B4
:101D6000B8BF2C46049DAC4200F38E81DFF82C8076
:101D70000593934606464D1E8A460020074B824532
:101D8000186040F37C81059BCDF80CB0234402938E
:101D900019E000BF01C0FFFF9C030020A46E0020DB
:101DA000A6450CD0C0F27381A44500F38581F445AB
:101DB00040F37881A64502DCA44580F28281BA45D1
:101DC000384640F3EC8006EB8001A84200F10107A1
:101DD000ACBF0023BB00B1F902C03344A4450246A6
:101DE000B3F902E0DCD1A64500F03E82002DC8BF69
:101DF0000021E4DD5AB1013A06EB82030131B3F967
:101E00000230A3420BD1A942D9D0002AF3D12A46ED
:101E100006EB82030131B3F90230A342F3D01B1B5E
:101E2000C4EB0E0E93EA0E0F36F9202040F1128219
:101E30009F4B1B680B2BC2DC002B40F32B82581EE0
:101E4000410008EB010CBCF904E0724500F331825B
:101E500008EB4309A9F804E0002800F01B82981E53
:101E60004FEA400908EB090EBEF904B05A4500F3E9
:101E70008D80ACF804B0002800F00C82D81E410020
:101E800008EB010CBCF904C0624500F31482AEF803
:101E900004C0002800F0FE81A3F1040984484FEA41
:101EA000490B00EB0B0EBEF904C062456EDC4144E9
:101EB000A1F804C0B9F1000F00F0EC81581F4100F7
:101EC00008EB010CBCF904904A4500F3E781AEF839
:101ED0000490002800F0DE81981F4FEA400B08EBC9
:101EE0000B0EBEF904904A4550DCACF80490002873
:101EF00000F0D081D81F410008EB0109B9F904C0F6
:101F0000624500F3CB81AEF804C0002800F0C28126
:101F1000A3F1080C4FEA4C0E08EB0E00B0F90400D8
:101F2000824233DCA9F80400BCF1000F00F0B2815A
:101F3000A3F10900410001905D4800EB0109B9F9E6
:101F400004B05A4500F3BB81C6440198AEF804B012
:101F5000002800F09F81A3F10A004FEA400C08EB33
:101F60000C0EBEF904B05A4510DCA9F804B00028E4
:101F700000F09081A3F10B01490008EB0100B0F9DA
:101F80000400824200F39981AEF8040048480144FD
:101F90000133BA4503608A8038463FF714AF444B9B
:101FA000DDF80CB01B68002B69DD012BB8F90400CB
:101FB00065D0404BB8F906201B68029F5B6E584401
:101FC0001B685A4439469847D8F80030022B56DD32
:101FD000032BB8F9080052D0364BB8F90A201B6819
:101FE0005B6E58441B685A4439469847D8F800300D
:101FF000042B44DD052BB8F90C0040D02D4BB8F96B
:102000000E201B685B6E58441B685A44394698473B
:10201000D8F80030062B32DD072BB8F910002ED08F
:10202000244BB8F912201B685B6E58441B685A4455
:1020300039469847D8F80030082B20DD1C4A092B78
:10204000B2F914001BD01B4BB8F916201B685B6E4D
:1020500058441B685A4439469847D8F800300A2B30
:102060000DDD0B2BB8F9180009D0124BB8F91A2066
:102070001B685B6E394658441B685A449847049B5A
:102080000134A342BFF679AE07B0BDE8F08FA44596
:10209000FFF695AEF44514DCA4453FF790AEA64597
:1020A000FFF68DAE36F92020B3F9003010E000BF06
:1020B000A46E00209C030020A6453FF780AEF445A7
:1020C000EADD6146B3F9002036F92030F4468E4649
:1020D000991ACCEB040303FB01F3002BCCEB0E0E9F
:1020E000DBBF4FEA6E0101F1FF3103EB6E01591ABC
:1020F000764B1B680B2B3FF762AE91FBFEF1002B7A
:102100000A44019240F3C480581E1146420008EB75
:10211000020EBEF904C0614500F3C28008EB43091A
:10212000A9F804C0002800F0B380981E4FEA400BC5
:1021300008EB0B0CBCF90490494500F38380AEF822
:102140000490002800F0A480D81E420008EB020989
:10215000B9F904E0714500F39F80ACF804E0002871
:1021600000F09680A3F1040C4FEA4C0E08EB0E0031
:10217000B0F90400814265DCA9F80400BCF1000F4D
:1021800000F086805149581F420001EB0209019975
:10219000B9F904B0594500F38780C644AEF804B0DD
:1021A000002875D0981F4FEA400B08EB0B0EBEF9C4
:1021B00004C0614546DCA9F804C0002868D0D81FD7
:1021C000420008EB020CBCF90490494564DCAEF80F
:1021D000049000285CD0A3F108004FEA400908EB06
:1021E000090EBEF904B059452CDCACF804B0002847
:1021F0004ED0A3F10900420008EB020CBCF904C068
:10220000614554DCAEF804C0002841D02F49A3F149
:102210000A004FEA400C01EB0C0E0199BEF9049044
:1022200049450FDC4244A2F80490002830D0A3F1C5
:102230000B00420008EB0200B0F90400814231DCDF
:10224000AEF804002148BDF8041002440133918027
:102250000360B4E51E4B03991B685B6E0A441B6860
:10226000029910469847AAE536F92010B3F90030D4
:102270000398014402461818154B1B685B6E814297
:10228000B6BF02460A4608461B680299984796E57B
:102290000022D7E7002179E65A46D3E7594675E68A
:1022A0005A00CFE76246CDE74FEA4C02CAE74A46FA
:1022B000C8E759006AE6494668E6614666E64FEABD
:1022C0004C0163E6049443F6FF7439E5A46E0020E4
:1022D0009C03002038B5204B204C1D6802F00AFA00
:1022E000284607F0F5FB04F0D1FF1D4B1D6802F0F6
:1022F00001FA284607F026FC04F0C8FF02F0FAF9BC
:10230000236801221A7604F0C1FF02F0F3F9236872
:1023100000259D8504F0BAFF02F0ECF923685D8585
:1023200004F0B4FF02F0E6F9284607F023FC04F0BD
:10233000ADFF0C4B1D6802F0DDF9236805B1DD61CE
:1023400004F0A4FF02F0D6F9236800229A76BDE8D3
:10235000384004F09BBF00BFF06A00209C030020BF
:1023600098030020940300202DE9F04F4F4E33686E
:10237000DA69B3F92250D469B4F80CB083458BB054
:102380007DD8E18981427AD3216808914FF0FF31ED
:10239000CBEB000B0791BBF1FF3F6AD0177EB3F97F
:1023A0002A80A27CB3F9249094F810A017FB02F3C2
:1023B0004046069307F0DEFB3368069A08990990B9
:1023C00002FB0B109A6BDB6904900592A27C0392CE
:1023D0004FF0010BCDF808B0DA7E01929B7E00939E
:1023E00028463B465246494606F0BCFD0798013058
:1023F0001CD048F0020007F0BDFB2C4A0798126879
:102400000899069B03FB0013916BD2690591049315
:10241000A37C0393CDF808B0D37E0193937E009301
:1024200052463B464946284606F09CFD33681F4FFE
:10243000DB695A7E1B7E9A4214D9B8F1020F11D083
:1024400088F0040007F096FB3B68DB69187ED97EB4
:102450009A7E5B7E00FB01910AFB02524B442846A8
:1024600006F090FF9DF8240007F084FB3368B3F971
:102470002250627C15445D840BB0BDE8F08FA168EA
:102480000029F6D00F88B842F3D3B1F802E08645B0
:10249000EFD34968C01B80B26768089701EB8007DB
:1024A00031F920B0B7F90210079174E79C030020BE
:1024B000044B1B68DB69DB6909B11A7C0A60587C34
:1024C000704700BF9C03002002230B80704700BFB1
:1024D000C3699A898A4202D8DA898A4211D29868F5
:1024E00018B10388994201D20020704742888A427D
:1024F000FAD3C91A436833F82100C043C0F3C0308F
:1025000070470120704700BF2DE9F04F3E4D2B680A
:10251000DA69B3F92A60D36989B043B11A88904265
:1025200002D35988814205D29B68002BF6D109B0AD
:10253000BDE8F08FD3F80480DFF8CC90841A08EB64
:10254000C407304697F802B007F014FB82462868AB
:1025500018F83420D0F81CE0D0F838C09EF81830B5
:10256000B0F92410B0F92200CDF814C006934FF052
:10257000010C7B680493CDF80CB0CDF808C09EF830
:102580001BC0CDF804C09EF81AE0069BCDF800E011
:1025900006F0E8FC2B68DA69537E92F818B05B45C8
:1025A00023D9022E069320D0D17E079101F0AAFFF5
:1025B000064601F071FF04F0F1F8D9F8002018F890
:1025C00034C0D469B2F9220094F81BE00799B2F93B
:1025D0002440069B0CFB0E0201FB034301FB0B4155
:1025E00006F0D0FE304604F0D9F8504607F0C2FAA3
:1025F0002B687978D8695A8C807E00FB01225A8436
:1026000009B0BDE8F08F00BF9C030020114B70B4EF
:102610001B68DD69EB6943B11A88904202D35C887C
:10262000844205D29B68002BF6D1184670BC7047D7
:102630005E68AC7E821A06EBC2035B7813FB04F083
:102640000029F3D016F8323014FB03F30B6070BC92
:10265000704700BF9C03002001230B80704700BF20
:10266000C06950B103888B4202D843888B4203D2A1
:1026700080680028F6D17047012070472DE9F047A7
:10268000234E3368002B3FDD224D234F2C68D7F8B3
:102690000090C3EB431804EB880808F10C080C34D5
:1026A0004FF0000AA4F10803742218464946FDF7CA
:1026B00039FE221F2063A06344F80CAC6263E4601F
:1026C0007C34A045EED10024A04603E092B13268EC
:1026D000904514DA12F088FC2B681A59904203EBEB
:1026E000040108F1010804F17C04EFD104313960E0
:1026F000BDE8F087086004313960BDE8F08719460D
:1027000004313960BDE8F087024B034F1968EDE7EB
:1027100040040020606D00209C030020F8B5194F94
:10272000194B1A4E384640F80C3F05F0E1FF34686B
:10273000C4EB4414A400204600F006F9144B3860A2
:1027400022461B68002198474FF0FF33736012F058
:1027500051FC3368002B11DD0024254603E072B1E3
:1027600033689D420ADA12F03FFC3B681A599042E6
:10277000234405F1010504F17C04F0D1F8BD186093
:10278000F8BD00BF606D00205D2C010840040020F2
:102790004C04002000B9704710B5044601F0AAFFB0
:1027A00020460BF009FF044604F070FD204610BDE2
:1027B00070B5054601F09EFF25B9002404F066FDC2
:1027C000204670BD01F096FF28460BF0F5FE04464A
:1027D00004F05CFD002CF0D0144E1549F269736BC7
:1027E0000132F26113F83420013203F8342003EB94
:1027F000C4032A465D680B6805F10800002198476C
:102800002968726B12F83130012B01D9F06930B9A7
:10281000013B02F8313004F039FD204670BD01382B
:10282000013BF06102F83130F5E700BFC46E0020D3
:102830004C040020024B21F0030183E803007047A1
:10284000DC6A002000B9704770B50D4C054601F0F8
:1028500051FF636BEE003344596848680BF0FEFC8F
:10286000626B6368616A16440133002063607160C3
:1028700002F835006562BDE8704004F007BD00BF96
:10288000C46E002028B1034AD36B036003B15860C3
:10289000D0637047C46E0020F8B5054601F02AFFEA
:1028A0002C68B4B10E4E01F025FF736BE7003B447A
:1028B000596848680BF0D2FC716B7368726A0F44F8
:1028C0000133002073607A6001F83400746204F010
:1028D000DDFC00232B60BDE8F84004F0D7BC00BF4E
:1028E000C46E002000292BDD2DE9F0470025154F8F
:1028F0008A46041FA94601F0FDFE54F8046F013515
:10290000B6B101F0F7FE7B6B4FEAC6084344596845
:1029100048680BF0A3FC796B7B687A6A88440133C2
:102920007B60C8F8042001F836907E6204F0AEFCAB
:10293000C4F8009004F0AAFCAA45DCD1BDE8F087F9
:10294000704700BFC46E0020F8B5894E96F8283055
:102950000446002B2FD00334356CF26B24F00304B3
:102960000434A54238BF254662B152F8043C9D426A
:10297000144604D114E054F8043C9D4210D024685D
:10298000002CF8D1F368B46B1C4454F8041C611A91
:102990000B68002B65D14B689D426CDD002408E07C
:1029A00023680BB161685960616801B10B60A24294
:1029B00053D02046F8BD6F4B9A685868012186F8BD
:1029C00028100AB982089A605A25356210272022F9
:1029D000402519683764B264356580274FF48072EA
:1029E0004FF40075B7653266B5664FF480674FF4F3
:1029F00000624FF48055A1F114033767B267C6F83F
:102A000080504FF400574FF480424FF40045034488
:102A1000C6F88870C6F89020C6F898504FF48037F2
:102A20004FF400324FF48025C6F8A070C6F8A820F5
:102A3000C6F8B050022201254FF40027B16373633A
:102A40003261F060C6F8B8705D60756275600BF059
:102A500005FC0EF02FFC35637DE72368F363204609
:102A6000F8BD002010F07CFC54F8041C611A0B68BF
:102A7000002B93D18FE7D6F8B8703D4A581B041D40
:102A8000BB420C4472D2D2F8B070BB426CD2D2F8C6
:102A9000A870BB4266D2D2F8A070BB4260D2D2F816
:102AA00098709F425AD9D2F89070BB4254D2D2F853
:102AB0008870BB424ED2D2F88070BB4248D2926F2F
:102AC000934243D2376F2A4ABB423DD2976EBB42F4
:102AD00038D2176EBB4233D2976DBB422ED2176DE0
:102AE000BB4229D2976CBB4224D2126C93420CD2C7
:102AF000F2687369521B2B44F260736110B944F899
:102B0000045C56E70BF0AAFBF9E700223768D1F81E
:102B100008E0FB1A3360CB68BEF1000F01D0CEF89D
:102B2000043013B1C3F800E0E2E706EBC202C2F8DA
:102B300044E0DDE70122E9E70222E7E70322E5E7D7
:102B40000422E3E70522E1E70622DFE70722DDE7CB
:102B50000822DBE70922D9E70A22D7E70B22D5E7CB
:102B60000C22D3E70D22D1E70E22CFE70F22CDE7CB
:102B7000C46E0020DC6A0020F8B54A4C94F8283076
:102B8000002B3DD0D4F8BC30464A3BBBD2F8B43021
:102B900023BBD2F8AC300BBBD2F8A430F3B9D2F8D7
:102BA0009C30DBB9D2F89430C3B9D2F88C30ABB9D1
:102BB000D2F8843093B9D36F83B9536F73B9E36E8E
:102BC00063B9536E53B9D36D43B9536D33B9D36CF5
:102BD00023B9536C13B96FF00B00F8BD9B68002B41
:102BE000F9D0002201E09B6843B159689B6891428B
:102BF000104684BF0A461046002BF4D10C38F8BDAD
:102C0000294B9A685868012184F828100AB982086B
:102C10009A601968A1635A26102220252662226430
:102C2000A564402780264FF480724FF40075A1F10F
:102C300014032765A6652266A5664FF480674FF4E6
:102C400000664FF480524FF4005503442767A6678F
:102C5000C4F88020C4F888504FF480474FF40046F1
:102C60004FF480324FF40035C4F89070C4F8986087
:102C7000C4F8A020C4F8A850022201254FF48027F0
:102C80004FF4002663632261E060C4F8B070C4F8BA
:102C9000B8605D60656265600BF0E0FA0EF00AFBFB
:102CA00025636FE7C46E0020DC6A002030B1044B5E
:102CB0005B6B03EBC000436858680C38704700BF7B
:102CC000C46E0020024A936901339361704700BFCC
:102CD000C46E0020074AD169536B0131D16113F8EA
:102CE0003020013203F8302003EBC003586808306D
:102CF000704700BFC46E0020F8B5584C01F0FAFCD4
:102D000094F82830002B57D0D4F8BC30534A9BBBE2
:102D1000D2F8B43083BBD2F8AC306BBBD2F8A4305D
:102D200053BBD2F89C303BBBD2F8943023BBD2F8D3
:102D30008C300BBBD2F88430F3B9D36FE3B9536F47
:102D4000D3B9E36EC3B9536EB3B9D36DA3B9536DA1
:102D500093B9D36C83B9536C73B96FF00B034049CB
:102D6000DA1781FB0313C2EB6313246A04FB03F439
:102D700004F08CFA2046F8BD9B68002BF5D00022A9
:102D800001E09B6843B159689B689142104684BF3B
:102D90000A461046002BF4D10C38B0F5800F0346DC
:102DA000DDD8226A2E4B02FB00F0A3FB00235C0956
:102DB00004F06CFA2046F8BD2A4B9A685868012145
:102DC00084F828100AB982089A601968A1635A2603
:102DD0001022202526622264A564402780264FF415
:102DE00080724FF40075A1F114032765A665226671
:102DF000A5664FF480674FF400664FF480524FF49D
:102E0000005503442767A667C4F88020C4F888509B
:102E10004FF480474FF400464FF480324FF40035B2
:102E2000C4F89070C4F89860C4F8A020C4F8A85002
:102E3000022201254FF480274FF4002663632261AC
:102E4000E060C4F8B070C4F8B8605D606562656049
:102E50000BF004FA0EF02EFA256355E7C46E00203D
:102E60001F85EB51DC6A0020024A9369013B9361A4
:102E7000704700BFC46E002030B403680A4A53F89C
:102E8000085C0446506B10F83530012B03D9D1692A
:102E900009B10139D161013B00F8353000221046FB
:102EA000226030BC704700BFC46E0020034B5B6BD8
:102EB00003EBC00040680830704700BFC46E0020BC
:102EC00000B585B00B461146054A009001921846A0
:102ED00001AACDF80CD00BF0BDFE05B05DF804FBE7
:102EE0001D2F000800B583B002AB123043F8040D6B
:102EF000184605F0E7FB03B05DF804FB00B583B0AE
:102F000002AB163043F8040D184605F0DBFB002831
:102F1000B8BF404203B05DF804FB00BF0068034443
:102F20000B601046704700BF2DE9F043044683B0A4
:102F300000206060894690461E4625680346694623
:102F4000A0683622A847362803D0012003B0BDE888
:102F5000F083636836336360684605F0ADFB009B21
:102F600005460C336846009305F0ACFB07466846FF
:102F700005F0A8FBC9F80000684605F0A3FB009B1C
:102F8000C8F8000002336846009305F095FB3080D6
:102F9000684605F097FB009B0B9A0C33106068465F
:102FA000009305F08FFB3388013B1F2BCDD801A286
:102FB00052F823F07F3000084B2F00084B2F0008F9
:102FC000773000084B2F00084B2F00084B2F0008CC
:102FD000353000084B2F00084B2F00084B2F0008FE
:102FE0004B2F00084B2F00084B2F00084B2F0008D9
:102FF000873000084B2F00084B2F00084B2F00088C
:103000004B2F00084B2F00084B2F00084B2F0008B8
:10301000873000084B2F00084B2F00084B2F00086B
:103020004B2F00084B2F00084B2F00084B2F000898
:10303000873000080A9A4FF48073136008B10A9B26
:1030400018600B9B1B68032B21D06068283838441C
:1030500060600A9B1B68B3F5807F3FF776AF44F64C
:1030600042539D427FF471AF0B9B1868032894BFB5
:10307000002001206AE70A9A10231360DEE70A9A0B
:1030800002231360DAE70A9A00231360D9E701A943
:1030900026686368A0681022B047102805D06368CE
:1030A000A3F1380038446060D3E76368284E1033DA
:1030B000636001A805F006FB306001A805F002FB83
:1030C000706001A805F0FEFA3368B0600022F2607B
:1030D000DA0708D401225B0813F0010F114602F150
:1030E0000102F8D0F16001225B0813F0010196465D
:1030F00002F10102F8D17368C6F818E0DA0731610D
:1031000008D401225B0813F0010F114602F10102FD
:10311000F8D0316101225B0813F00101964602F1FB
:103120000102F8D1C307C6F81CE0716107D401237E
:103130004008C1071A4603F10103F9D57261012362
:103140004008C1071A4603F10103F9D43262A6E729
:103150001C6C00202DE9F04114460646884601F01B
:10316000C9FA204601F0DAF9E8B9A7001B4D3B196E
:1031700005EB8303DA68B24206D11B69434503D1EC
:10318000BDE8F04104F082B83B1905EB83035869B0
:10319000D0B93C4405EB8404E660C4F81080BDE877
:1031A000F04104F073B80D4B04EB840403EB84048A
:1031B00063689A685968C2EB0802711A03F01CFB35
:1031C000BDE8F04104F062B85B689A685968C2EBE8
:1031D0000802711A02F02AFFDBE700BFE46D00204D
:1031E000C3B2CAB29A1A92B230B415B2002DBCBFA3
:1031F000524215B2C0F30723C1F307229B1A9BB2B8
:10320000090C1AB2C1EB1041002A89B20CB2BCBF42
:103210005B421AB2002CBCBF49420CB202FB02F264
:1032200005FB0520A1B201FB010030BC704700BFC7
:103230002DE9F041002182B0084601F0CDF901F0FE
:1032400059FA042006F096FC174BDB68DD6C1C6D08
:10325000A5F57F57A4F57F5605F57F5504F57F54F6
:1032600080463F3F3F353F3E3F346846ADF80070F3
:10327000ADF80450ADF80260ADF806400AF0C4F9AC
:1032800048B123462A463146384606F07BF80AF014
:103290004FF80028F5D1404606F06CFC03F0F6FF2D
:1032A00002B0BDE8F08100BF900300202DE9F04797
:1032B000044682B00D461646002B38D09A4600963A
:1032C00026680B9B0A9A51462046B047074618B914
:1032D000384602B0BDE8F08708F06EFA618A804691
:1032E000384607F0B1FC384609F0F8FD013D40468C
:1032F00009F0F4FD002DC8BF4FF0000904DC1AE00E
:1033000009F0ECFD013D16D054F81C6FCDF800908B
:10331000002320461A464146B04706460028EFD112
:10332000384607F09DFF304602B0BDE8F08708F050
:1033300051FA8246C3E740461D2109F021FCBAF14B
:10334000FF3FC5D001F0D6F908F0CAFA60B9BA4516
:1033500002D0384609F0D6FC03F098FF384602B098
:10336000BDE8F0870028F4D0FFF7A0FD8069874210
:10337000F8D1F1E7012B12DCF8B506461C20174600
:103380000C461D46FFF7E0FAB8B154B104610023C2
:10339000836085618782C66003604360F8BD00205A
:1033A0007047074B53F825200AB9F0E71A4613680F
:1033B000002BFBD113690361E9E70020F8BD00BFD2
:1033C0009C6F0020012B3BDC2DE9F84381461C203B
:1033D00090460F461E46FFF7B7FA054600287FD0F5
:1033E000414A002F31D00023DFF804E152F8264093
:1033F00003609EF8001007618E428661A0F8148079
:10340000C0F80C904360836002DB731C8EF80030C0
:10341000002C5DD021464C68002CFBD1D9F800006F
:10342000CB681B6883422CDD09680029F8D148B9B4
:103430002E4B16361A68284642F82650BDE8F88307
:10344000002070472846BDE8F88352F8261000296E
:1034500030D0084600E018460368002BFBD1DFF8A7
:1034600090E000692B6028619EF80000AE61864202
:10347000A5F81480C5F80C906B60AB60CBDB0C46F4
:10348000C3E70AD04B6843B31D606B608D4214BF25
:103490000B4600234D602B60C9E7B8F1010FF1D155
:1034A00004E0D9680C6884421946EBDB0B68002BFA
:1034B000F7D1E7E7DFF838E001609EF80030866179
:1034C0009E42A0F81480C0F80C9041608160D6DA6A
:1034D00042F82650D9F80000A9E742F82650D5E76F
:1034E0000020BDE8F88300BF9C6F00209C030020F3
:1034F000956F0020FFF7C6B900283CD070B48469EE
:10350000012C03DD0123184670BC70471E4B1F4D74
:103510001A789442A4BF621C1A7055F824300BB973
:103520002FE013465A68002AFBD1C268116802E0F6
:103530001B68002BE6D0DA6812689142F8DB0DD0E8
:103540005A68DAB110604260984214BF1A460022ED
:1035500058600023026070BC18467047828A012AB6
:10356000EED104E0D3681E68B1421346E8DC1A6865
:10357000002AF7D1E4E701231846704745F82400F4
:10358000E2E745F82400BEE7956F00209C6F00201D
:1035900000284DD02DE9F041DFF89CE0254F9EF842
:1035A0000060BC4602E02846002D27D084690568EB
:1035B000012CF8DCB44257F82430A4BF661CF6B2E4
:1035C0000BB932E013465A68002AFBD1C268116871
:1035D00002E01B68002BE6D0DA6812688A42F8DC49
:1035E00010D05A68A2B110604260984214BF1A46C7
:1035F0000022586002602846002DD7D18EF8006066
:10360000BDE8F081828A012A0BD05A68002AEAD1EB
:1036100047F82400E9E7D368D3F8008088451346CB
:10362000DFDB1A68002AF6D1DBE74CF82400BAE7A2
:10363000704700BF9C6F0020956F00200F4A816982
:1036400052F8213098420AD042680AB103681360E8
:10365000036803B15A600023036043607047036846
:1036600042F821302BB100225A604268002AEED184
:10367000F0E74268002AEAD1EDE700BF9C6F002026
:103680000020704701280EDC084B53F8200058B189
:10369000C3681B681BB908E0C3681B6823B10068D6
:1036A0000028F9D170470020704770479C6F0020B8
:1036B000F0B583B0F8B104460C2016460F46FFF76C
:1036C00077F8054610B9284603B0F0BD01F012F8AE
:1036D0002846FFF7FFFA034602A8094A40F8043DCE
:1036E0005C601F815E811A60FFF7C6FB03F0CEFDB0
:1036F000284603B0F0BD0546284603B0F0BD00BF24
:10370000E0E7030800B970472DE9F04182B01E469A
:1037100015460C460746FFF7DDFA02AB026843F890
:10372000040D1846D2F80080FFF7A6FB33462A4660
:1037300021463846C04702B0BDE8F0812DE9F84384
:10374000074611F053FC074411F050FC3E1A002EBE
:10375000DFF86090DFF8608022DD00F0E5FDD9F849
:1037600000309E42A8BF1E4600F0C4FFD8F80040BB
:10377000FFF7A8FAB4B1254603F088FD013DFBD15F
:10378000304611F02FFC00F0B5FF013CFBD1FFF7F4
:103790006BFB03F07BFD11F029FC3E1A002EDCDCF4
:1037A000BDE8F883304611F01DFCFFF75DFB03F028
:1037B0006DFDF0E7A8030020646D002020B3F0B594
:1037C0000C4683B00546164600F094FFD4B120465F
:1037D00009F074FB074638B168463A46214604F0C2
:1037E00047FE684609F06AFB3246214647F6FF73FA
:1037F000284603F0E3FF384609F060FB03F046FD7E
:1038000003B0F0BD2746EFE7704700BF08B100F0F6
:1038100001B870472DE9F04F89468BB01546044634
:1038200003921F4600F066FFB9F90030B9F90410A1
:10383000B9F906000193CE1A0291B9F902B00590C8
:1038400000F076FE15F00C0806F10106049076D122
:103850001FFA80FA484609F031FB02460490A8B1ED
:10386000019800210B4660F30F01029860F30F03EB
:1038700005986BF31F4160F31F43069106A8494664
:10388000079304F0F5FD06A809F018FB039B03F06D
:1038900003080AF1FF33039343461FFA8BF5B04642
:1038A0001E4615E0022E34D01EB9B9F80030ADF82E
:1038B00020302046594608AA03F026FF20463A4603
:1038C000414604F095FF044455442378ADB273B3E8
:1038D0003A464146204604F0F5FF039BBDF804201C
:1038E000ADF820200146EB18BDF80820ADF82250B5
:1038F00083462046ADF82420ADF8263004F016FDAE
:10390000012ECFD1B9F804300133181AADF82000D8
:10391000CFE7B9F90010B9F904305B1A181A013071
:1039200000EBD07001EB6000ADF82000C1E7049817
:1039300009F0C4FA03F0AAFC0BB0BDE8F08FA24670
:1039400000F0D8FE3A4631465046002504F050FFBC
:1039500040B182443A4631465046013504F048FFB2
:103960000028F6D103F092FCB8F1080F08D0B8F1A6
:103970000C0F0FD0B8F1040F02D0BDF810A069E70A
:10398000BDF810A0059B15FB0AF501335D1B0FFA6E
:1039900085FB5FE7059B0499CBEB0303013305FB34
:1039A000113505EBD5750BEB65050FFA85FB1FFA95
:1039B00081FA4FE72DE9F04FDFF8F49089B0044623
:1039C00090460F4600F096FED9F800302088DA6C59
:1039D0001D6D63881744A844421E013B3A4443448A
:1039E00006A8ADF81870ADF81A80ADF81C20ADF837
:1039F0001E3009F009FE00284ED0DFF8B8A0CB46F3
:103A00001AE040F0020002F0DBFE216921B3D4F895
:103A10000CE0A668638822888DE84040012003906E
:103A200002900E6838464146B047284602F0C8FE6C
:103A300009F07EFC00282FD00020E66802F0C0FECE
:103A4000054616B13379002BDBD125F0020002F0D8
:103A5000B7FE21690029DAD1D9F80020DAF8003060
:103A6000527CE06821469847E188D0B1638822887B
:103A7000A6680590A0880291012103900191009110
:103A800038464146049605F06DFA284602F098FE45
:103A900009F04EFC0028CFD103F0F8FB09B0BDE8D7
:103AA000F08F012904BFDBF80030986BDEE700BF20
:103AB0009C0300209003002070B582B00A460146A6
:103AC000684604F005FE00F015FE284BBDF80040E6
:103AD0001B68BDF80410B3F84C60B3F85050BDF843
:103AE0000220BDF80630344431442A442B44684651
:103AF000ADF80040ADF80410ADF80220ADF8063086
:103B000009F082FD68B3BDF90040BDF904309C4264
:103B10000EDC2046BDF9021005F0D4FB2046BDF9AD
:103B2000061005F0CFFBBDF9043002349C42F0DDF5
:103B3000BDF90240BDF906309C420EDC2146BDF9BC
:103B4000000005F0BFFB2146BDF9040005F0BAFBFB
:103B5000BDF9063002349C42F0DD09F0E9FB002893
:103B6000D1D103F093FB02B070BD00BF9C030020D5
:103B70002DE9F04F91B081461E460F46904600F069
:103B8000B9FD654B1C68E56C246DA019E11905EBC6
:103B9000090305EB0802044608900EA8029301925F
:103BA0000791ADF83830ADF83C20ADF83A10ADF8DB
:103BB0003E4009F029FD002800F09180019B029A07
:103BC0009DF868409DF86C70C2EB030B1A9AC2F323
:103BD00007201B9AC2F307261A9AC2F307411B9AC1
:103BE0000BEBDB735B10C2F3074E1A9A0BFB043529
:103BF0003C1B120E06940BFB0034301A03900BFB97
:103C000001300BFB02330D931B9B0A95C1EB0E0198
:103C1000C2EB13630B940C90049105935E4600F085
:103C200071FC1A9B1B9A099093426AD0002E52D0C5
:103C3000029D019A95425CDC0AAF024697E8800734
:103C40004FF0010B06E00BF1010B019B0135AB427C
:103C500022462FDB9AFBF6F399FBF6F41B0697FB43
:103C6000F6F143EA044398FBF6F441EA042405998B
:103C70001C43039B8A4404999844029B89440699F7
:103C8000AB4210460F44E0DA9442DCD005F05AFF14
:103C9000BBF1010FCBEB0500089B079905F1FF3243
:103CA00022D005F06FFB019B0135AB424FF0010BB9
:103CB0002246CFDA204605F045FFBBF1010F1AD0AE
:103CC000019A089B0799CBEB0200013005F05AFBE3
:103CD000099805F037FF09F02BFB00289FD103F06E
:103CE000D5FA11B0BDE8F08F1A46681E05F020FB2A
:103CF000ABE705F027FF089A0799019805F018FB34
:103D0000E6E7184605F01EFF089B019A07990298FE
:103D100005F038FBDCE700BF9C0300202DE9F04FE5
:103D200091B081461E460F46904600F0E3FC644B7E
:103D30001C68E56C246DA019E11905EB090305EB7E
:103D40000802044601900EA8079308920291ADF86C
:103D50003830ADF83C20ADF83A10ADF83E4009F0EF
:103D600053FC002800F09180019B029A9DF8684066
:103D70009DF86C70C2EB030B1A9AC2F307201B9AD2
:103D8000C2F307261A9AC2F307411B9A0BEBDB73A7
:103D90005B10C2F3074E1A9A0BFB04353C1B120E44
:103DA00006940BFB0034301A03900BFB01300BFB25
:103DB00002330D931B9B0A95C1EB0E01C2EB1363FB
:103DC0000B940C90049105935E4600F09BFB1A9BAC
:103DD0001B9A0990934269D0002E52D0029D019AFD
:103DE00095425BDC0AAF024697E880074FF0010B73
:103DF00006E00BF1010B019B0135AB4222462FDBA4
:103E00009AFBF6F399FBF6F41B0697FBF6F143EAEF
:103E1000044398FBF6F441EA042405991C43039BF0
:103E20008A4404999844029B89440699AB421046FF
:103E30000F44E0DA9442DCD005F084FEBBF1010FC0
:103E4000CBEB050105F1FF33089A079822D005F066
:103E500099FA019B0135AB424FF0010B2246CFDAB4
:103E6000204605F06FFEBBF1010F19D0019B089AA7
:103E70000798CBEB0301013105F084FA099805F0AE
:103E800061FE09F055FA00289FD103F0FFF911B047
:103E9000BDE8F08F691E05F0EBF9ACE705F052FEC6
:103EA000089A0199079805F0E3F9E7E7184605F045
:103EB00049FE019B089A0299079805F063FADDE72D
:103EC0009C030020F0B5144F83B006460D461446FF
:103ED00000F010FC3B68196DDA6C0E4433B21544E7
:103EE00014446846ADF80050ADF80440ADF8023017
:103EF000ADF8063009F088FB50B13B685B6E224696
:103F00001B6831462846984709F012FA0028F4D178
:103F100003F0BCF903B0F0BD9C0300202DE9F04F85
:103F2000B84D8DB08046894617469A4600F0E2FBB0
:103F30002C680020E66C246D09F066FB002800F078
:103F4000268104EB0A03A144C3EB090B06EB08022C
:103F5000F119CBF10008C1EB020A18EA2B0838BFAF
:103F6000D8464AEA0B07CDF814B004930391A64E45
:103F7000934604E009F0DCF9002800F008812B6882
:103F80001C7E0023012C079300F03281002FF1D01A
:103F9000BAF1000F04F1FF34C0F22581504602222D
:103FA000059933EA210328BF1346404580F2F48087
:103FB00043F004030246DBB24046411001EB82228B
:103FC00092FBF0F2911106EB4100C2F3830CCCF1AD
:103FD000100EB0F92400BEF1100F0EFB00F006D059
:103FE000894A02EB4101B1F926100CFB010010F1E6
:103FF000080148BF00F117010911580748BFC1F572
:104000008061DA0748BFC1F500619B0748BFC1F571
:10401000805101F50062C2F30B02B2F5006FC6BF1A
:10402000A2F5006201200020B2F5806FC8BFC2F582
:10403000006201F58063911102F03F02C2F140027B
:1040400092B236F811E0402A02FB0EFE08D0102989
:1040500006D00131C2F1400236F8111002FB01EE28
:104060000EF1200E4FEA9E1E002840F09780704609
:10407000C3F30B03B3F5006FC6BFA3F500630122C2
:104080000022B3F5806FC8BFC3F5006303F03F0E95
:104090009911CEF1400E1FFA8EFE36F81130BEF1A6
:1040A000400F00FB04F00EFB03F308D0102906D0EC
:1040B0000131CEF1400E36F811100EFB01332033E2
:1040C0009B0902B15B42002803FB04F469DB00F5A5
:1040D0000070002C4FEAA0206ADB04F50074002871
:1040E0004FEAA4246BDD00F1010C002C4FEA6C0CAC
:1040F0004FEA60006EDD04F1010E4FEA6E0E6410AF
:104100001FFA8CFC1FFA8BF21FFA8EF302EB0C0ED7
:10411000ADF820E0BDF80CE080B2121AF444C0EB18
:104120000E00BDF810E0ADF82420A4B21FFA89F10A
:10413000CA18091BC4EB0E049E440023ADF82220CC
:10414000ADF826101A46ADF82800042108A8ADF8ED
:104150002CC0ADF82A40ADF82EE0FDF7D7FD2B6856
:104160005B7E002B7FF406AF49465846FDF74AFDBB
:10417000244B1B685B7E002B7FF4FCAE04990398F4
:10418000FDF740FD09F0D4F800287FF4F8AE03F005
:104190007DF80DB0BDE8F08F42460EE7CEF100008D
:1041A00066E7C0F500708012002CC0F1000094DAC0
:1041B000C4F50074A4120028C4F1000493DC431E6B
:1041C00000EBD07C03EBD373002C4FEA63004FEA83
:1041D0006C0C90DC631E04EBD47E03EBD3735C1099
:1041E0004FEA6E0E8CE7CAF1000003220123D7E6E6
:1041F00007AB0093039A049B49465846FDF7FEFA25
:10420000B8E600BF9C03002004E803082DE9F0474E
:1042100082B0044689469246984600F06BFA1E4BDF
:104220001F683E7EFD6C3F6D013EB6B22C44B94422
:104230005544B844A11B7219C6EB090368464644AD
:10424000ADF80010ADF80420ADF80230ADF806600E
:1042500009F0DAF9D8B109F1010708F1FF362A4669
:104260004946204605F004F82A464146204604F017
:10427000FFFF32463946204605F05AF832463946A5
:10428000284605F055F809F053F80028E7D102F068
:10429000FDFF02B0BDE8F0879C03002070B582B03E
:1042A000064614460D4600F025FA104B1A68D36CEA
:1042B000126D1E4433B2154414446846ADF80250E2
:1042C000ADF80640ADF80030ADF8043009F09CF9C7
:1042D00040B122462946304605F02AF809F028F870
:1042E0000028F6D102F0D2FF02B070BD9C0300207E
:1042F00030B585B000232A220D466946019302930A
:1043000003930092044608F02BFC039B13B1012297
:1043100083E8240000F0EEF9204608F0F7FE02F0F2
:10432000B5FF05B030BD00BF2DE9F041124F134E6F
:10433000DFF84C8000253C681CB1A047041C18BF66
:10434000012407F0ADF83368002818BF01244BB1F1
:10435000984738B1D8F8003013B1012498473CB1E0
:104360000125E8E7D8F80030002BF7D1002CF7D171
:104370002846BDE8F08100BFB86F0020BC6F002068
:10438000B46F0020F0B583B0074616461C460D46B4
:1043900000F0B0F9104B1B68DA6C1B6D1744164423
:1043A0001D441C446846ADF80070ADF80460ADF8DB
:1043B0000250ADF8064009F027F948B123463246CD
:1043C0002946384604F0DEFF08F0B2FF0028F5D198
:1043D00002F05CFF03B0F0BD9C030020002850D029
:1043E000C388013B10B5848880681F2B47D8DFE85D
:1043F00003F0162346314646463C46464646464668
:104400004640464646464646464646464646464652
:104410004610A31002FB031150F8210010BD02FB4F
:1044200004F200EBD104C843A35C00F0070023FAB8
:1044300000F000F0010010BD02FB04F200EB91045B
:104440006FEA4100A35C00F0060023FA00F000F0E0
:10445000030010BD02FB04F200EB5104CB07A05C8B
:104460004CBF00F00F00000910BD02FB0404605CAB
:1044700010BD631002FB031130F8110010BD0020C5
:1044800010BD7047034B53F82000C36808219B6A96
:10449000184700BF9C6F002010B500F02BF904F006
:1044A000B1FF05F045F9044602F0F0FE204610BDCC
:1044B00010B5044600F01EF9054B1B68DB690021AE
:1044C0005B6820469847044602F0E0FE204610BD97
:1044D0009C03002038B504460D4600F00BF9064B4E
:1044E0001B68DB6929465B6820469847044602F052
:1044F000CDFE204638BD00BF9C03002008B107F068
:1045000033B9704710B500F0F5F804F083FF05F0FB
:104510000FF9044602F0BAFE204610BD01289ABFEA
:10452000024B53F820000020704700BF286D002088
:1045300010B500F0DFF8044B1B68DB695C7E02F00D
:10454000A5FE204610BD00BF9C03002070B50446A8
:104550000E46154600F0CEF820462A46314604F0B5
:10456000C5FF044610B1002333602B6002F08EFEBD
:10457000204670BD38B505460C4600F0BBF8064A2B
:10458000064BB2F90020B3F900302A602360BDE881
:10459000384002F07BBE00BF8A6F00208C6F002085
:1045A0000448342335216122017002718370C37085
:1045B000704700BF28040020024B53F820301B69CD
:1045C000186870479C6F0020024B53F820301B691D
:1045D000586870479C6F002038B505460C4600F0BF
:1045E00089F8044B1B685D849C8402F04FFE002018
:1045F00038BD00BF9C03002090B583B000AF344AA3
:10460000334B1B6823F001031360324B01221A6005
:1046100000BF304B1B68002BFBD12F4B2F4A1A6079
:104620002D4B1B682E4A934200D0FEE703F02AF878
:104630002C4B2E221A7010F0DBFC2B480DF002FEE2
:104640000FF0EAFB786004F0BBFF0346002B0CBFC1
:1046500001230023DCB204F0F9FF0346002B0CBF5A
:1046600001230023DBB22343DBB2002B09D004F08B
:10467000BDFF044605F000F803461946204605F044
:1046800073FA0021002002F0C7F807F07DFCFDF767
:10469000F5FF164B1B68002B12D00DE0134B1B6867
:1046A0001B68002B03D0114B1B681B6898470F4BEE
:1046B0001B685B680D4A13600C4B1B68002BEDD127
:1046C0000B4B01221A707B6818460C37BD4690BD13
:1046D000002000E00830024000300240C2A507F48C
:1046E000CDB5E8B5886F0020F46A00206C6B00201F
:1046F000946F00202DE9F041234D6B6823B110F039
:1047000073FCAB68984204D010F086FC10F06CFC8F
:10471000A8606B680133012B6B6001D0BDE8F081AC
:104720001A4F3B68002B29DD0024264606E042B3E1
:104730003B6801369E4204F17C041FDA10F054FC01
:104740002B681A5990422344F1D17B68B342E5D0DB
:10475000002B10DB2A68C3EB431302EB8308FEF740
:104760008FFF2B68C8F878001C44094BA06F0434F5
:104770001C60FEF70DFF7E60BDE8F0810024264638
:10478000E3E71860E1E700BF606D0020400400200F
:104790009C03002010B582B028B9134B1B681C6E17
:1047A00014B902B010BD0446FFF7A4FF2046FEF77F
:1047B00091FA02AB446943F8080D1846FEF75CFB1A
:1047C0001CB902F063FD02B010BD2046FEF782FA6C
:1047D00002AC826844F8040D936898472046FEF7BF
:1047E0004BFB02F053FDEEE79C03002000B970473D
:1047F000014A114600F002B801F0FFFF2DE9F04731
:1048000084B00C4615460646FFF774FF002001F001
:10481000D7FFDFF8E480D8F80030814630461F6EBD
:10482000FEF758FA03680090986901F08BFF314B4E
:104830009C42009B04BFB3F90440B3F906501A89A7
:104840005B89ADF80840013A013B22442B44824683
:10485000ADF80C20ADF80E30ADF80A5006F02EFB86
:104860006846FEF709FB02A808F0CEFE48BB50469A
:1048700001F068FFFFF73EFF002F38D0D8F8003076
:104880001B6E8BBB06F0ACFC3846FEF723FA04AC7B
:10489000D8F8003044F80C0D1F660068FEF72CFEB7
:1048A0002046FEF7E9FA05F0D3F905F03DF902F0EC
:1048B000EDFC484601F084FF02F0E8FC04B0BDE8DE
:1048C000F0872A462146304600F08AFD08F030FD88
:1048D0000028CCD02A462146304600F081FD08F061
:1048E00027FD0028EDD1C2E701F01EFFCAE701F065
:1048F0001BFFDCE701F0FFFF9C0300202DE9F043E4
:1049000085B00646904699460F46FFF7F3FE1B4AD0
:104910001B4B1268507C53F8204001E0246814B30C
:10492000E3681A68042AF9D1DB6A01212046984716
:104930000546F0B12469A3689847124B01950130F0
:1049400006BF1C460125002502944B4642463946C7
:104950003046009500F0C0FB044602F097FC20466C
:1049600005B0BDE8F083FEF78DFE044618B1C368BC
:10497000DAE70446F1E72046F2E700BF9C03002097
:104980009C6F002034D903082DE9F04385B006461A
:10499000904699460F46FFF7ADFE1C4A1C4B126825
:1049A000507C53F8204001E02468FCB1E3681A68A9
:1049B000042AF9D1DB6A0121204698470546D8B17F
:1049C0002469A3689847013018D00C9B0294009387
:1049D00001954B4642463946304600F07DFB044681
:1049E00002F054FC204605B0BDE8F083FEF74AFE15
:1049F000044648B1C368DDE70446F1E70C9B054C6B
:104A000043F001030C93E0E72046ECE79C03002011
:104A10009C6F002034D903082DE9F04184B00C9C30
:104A20009CB1984617460E460546FFF763FE0B9B62
:104A300001930A9B029400933A4643463146284626
:104A400000F04AFB044602F021FC204604B0BDE819
:104A5000F08100BF00B9704710B582B00446FFF77F
:104A600049FE104B1B681B6E9C4217D02046FEF778
:104A700031F94369019063B90068FEF73BFD01A875
:104A8000FEF7FAF92046FDF7DDFE02F0FFFB02B06B
:104A900010BD184602F0E0FB0198EDE701F044FE7E
:104AA000E4E700BF9C0300202DE9F04F87B00646E5
:104AB00092461C468946FFF71DFE564B1A68564B18
:104AC000577CDB57012B384640F3978004F07EFD7E
:104AD0000546384604F0C0FD0746002E00F08A80E7
:104AE00005A904A8FFF746FD049A059BB6F900C086
:104AF000B6F90200B6F904E0B6F9061015441F44F1
:104B0000013D2CEAEC73013F20EAE072029303922C
:104B10007545D4BFC3EB0503C3EB0E038F42D4BF6F
:104B2000C2EB0702C2EB01021D46174601350137F1
:104B300004B97C42002D4FDD002F4DDD109B00930A
:104B40002A46234603990298FFF71EFF8046002855
:104B500048D000F0DDF88742064604D02D4B1B6894
:104B6000986C002851D1404600F0E0F9DFF8ACB075
:104B70003D4600240EE0AD1BACB95046C847DBF8FB
:104B800000303444002003B198474046FFF72EFE22
:104B9000A74212DDAE42EEDD2946404600F0A6F9FE
:104BA000AD1B002CE9D0039B029940461A1900F076
:104BB000EDF94046FFF7EEFDDFE74046FFF74AFF1D
:104BC000002000F0B3F9B74206D0124B1B68986C76
:104BD00010B1332109F064FA02F058FB002007B04D
:104BE000BDE8F08F5046C84702F050FB012007B0E7
:104BF000BDE8F08F039602969AE704F091FC054613
:104C0000384604F0B7FC074667E7322109F048FA56
:104C1000A9E700BF9C030020986F0020B46D00201E
:104C200030B5044683B098B1FFF764FD2046FEF727
:104C300051F8036802AD1B6945F8040D9B6898475D
:104C400005F066F904462846FEF716F902F01EFB49
:104C5000204603B030BD00BFA0B110B5044682B0FD
:104C6000FFF748FD2046FEF735F802AB00F11804C7
:104C700043F8040D1846FEF7FFF802F007FB204644
:104C800002B010BD704700BF10B5044682B0FFF7F8
:104C900031FD7CB12046FEF71DF802ABB0F90440AF
:104CA00043F8040D1846FEF7E7F802F0EFFA204645
:104CB00002B010BD044B1B681C6E002CEAD102F040
:104CC000E5FA204602B010BD9C03002010B5044652
:104CD00082B0FFF70FFD7CB12046FDF7FBFF02AB72
:104CE000B0F9064043F8040D1846FEF7C5F802F087
:104CF000CDFA204602B010BD044B1B681C6E002C80
:104D0000EAD102F0C3FA204602B010BD9C03002095
:104D100010B5044682B0FFF7EDFC7CB12046FDF7EC
:104D2000D9FF02ABB0F90A4043F8040D1846FEF76C
:104D3000A3F802F0ABFA204602B010BD044B1B688A
:104D40001C6E002CEAD102F0A1FA204602B010BD80
:104D50009C0300202DE9F04FDFF888B189B00646AA
:104D600005273046FDF7B6FF034607A8B3F90080D4
:104D7000B3F90440B3F90290B3F906500793C8EBB6
:104D800004040134D3F824A0C9EB0505FEF774F838
:104D9000002C05F1010555DD002D53DDBAF1000FA2
:104DA00055D106F017FD86427FD04A4B01934FF054
:104DB000010A494640462B462246CDF808B0CDF8B8
:104DC00000A000F089F980463046FDF783FF079088
:104DD000C0F82480B8F1000F60D0836ADFF8089132
:104DE00043F48033836207A8FEF746F8404600F09C
:104DF0009DF80590504602F0A1FA4046FFF72CFFBF
:104E0000354A364B1978136805FB04F29200344C8E
:104E1000984730462568C9F8006006F09FFD20607D
:104E2000304609F00DF8002210462560C9F8002030
:104E300002F084FA059800F079F83046FEF736F86B
:104E4000406AF0B9013F8CD109B0BDE8F08F5046FF
:104E5000FDF740FF034608A8B3F9045040F8083DA9
:104E6000B3F90640FEF708F8A8450FD04A46414678
:104E7000504600F08BF83046FEF718F8406A0028DC
:104E8000E0D000F0BFF809B0BDE8F08FA145D4D064
:104E90004A464146504600F079F8ECE707A8FDF78E
:104EA000EBFF304608F0CCFFCCE704F073FB824602
:104EB00004F0B6FB544503DC85427FF776AFA2468B
:104EC0008542A8BF05462A465146304607F0C4FF32
:104ED00054466AE75CE703084C04002058040020AD
:104EE000C06E002034D903083C74002030B50D4654
:104EF00083B028B90C4B1B681C6E14B903B030BDCD
:104F00000446FFF7F7FB2046FDF7E4FEB0F90A3050
:104F10000190AB42C8BF458101A8FDF7ADFF02F08B
:104F2000B5F903B030BD00BF9C030020F0B5164FAB
:104F300083B00446FFF7DEFB3B681E6EE4B1C6B9E2
:104F400006F04EF92046FDF7C5FE02AD3B6845F878
:104F5000040D1C660068FEF7CFFA2846FDF78CFFAB
:104F600004F076FE04F0E0FD02F090F9304603B064
:104F7000F0BD01F0D9FBE3E701F0D6FB02F086F9C2
:104F8000304603B0F0BD00BF9C03002070B50D4655
:104F900082B0164628B91A4B1B681C6E14B902B0B1
:104FA00070BD0446FFF7A6FB2046FDF793FE36B220
:104FB0002DB2C6808580009004F0B6FD009B586934
:104FC00030B96846FDF758FF02F060F902B070BDD5
:104FD000FDF780FE009A0190B2F90830B2F90A207C
:104FE000C280838013B10AB10580468001A8FDF715
:104FF00043FF6846FDF740FF02F048F9E6E700BFCF
:105000009C03002000B9704770B5044684B0FFF7D8
:1050100071FB2046FDF75EFE014601A8B1F9046070
:10502000B1F906500A894B89019132442B44013A67
:10503000013BADF80860ADF80C20ADF80E30ADF8CE
:105040000A50FDF719FF02A808F0DEFA40B12A461F
:105050003146204600F0A6F908F06AF90028F6D19A
:1050600002F014F904B070BD00B9704770B5044681
:1050700084B00D461646FFF73DFB2046FDF72AFE9D
:10508000144B028901909D42438904BFB0F904503A
:10509000B0F90660ADF80850013A013B2A443344A8
:1050A00001A8ADF80A60ADF80C20ADF80E30FDF7A0
:1050B000E3FE02A808F0A8FA40B13246294620468D
:1050C00000F070F908F034F90028F6D102F0DEF8AB
:1050D00004B070BD01F0FFFF2DE9F04FDFF82C8127
:1050E00087B0D8F8004081468A4617461E46129976
:1050F000637C11980022FEF73DF900284DD003692A
:105100009B680546984704F003FF00FB07F48346BD
:10511000FDF7F2FD109B073413F001034FEAD404AE
:105120003FD0002E2CDD002B42D004FB06F01830BF
:10513000FDF730FB034668B3002202921846039342
:10514000FDF7C8FD024606A8029BA2F8049040F8AD
:10515000042DA2F806A017815681D460C2F810B0C1
:1051600053611560FDF788FE129B2B61D8F8002073
:10517000039BAB60527CAA61184607B0BDE8F08F74
:10518000002C34D1204676428642A8BF064693B30F
:10519000002ECADC2846FEF7ADF9002007B0BDE8B6
:1051A000F08F0028B8BF0330801000EB4000B8E754
:1051B00000933A4633465146484601F0B9FF029003
:1051C00004FB06F01830FDF7F3FA03460028B5D1CA
:1051D00028460393FEF78EF9029B002BDDD018467C
:1051E000FDF730FB039B184607B0BDE8F08F183879
:1051F000B0FBF4F0C7E700933A46334651464846C1
:1052000001F096FF002E0290DADCC3E79C03002039
:105210002DE9F04F604D614E2B685B7C91B056F8E4
:105220002330089088461446D3F81090FDF752FDBD
:10523000034610A81A68B3F90810126940F8083D2F
:10524000526806910792B3F90AA0FDF715FE2B6884
:105250005B7C56F82300C36808219B6A984717288F
:1052600010D80328064608BF0826D9F80430099349
:105270000020D9F800300C9302F012F820B111B0E0
:10528000BDE8F08F2026F0E706992A6808EB0103B5
:10529000B2F90C50013B5D1B002DC4BF0B465D1BDA
:1052A000B2F90830D8BF0D469845BDBFC8EB030121
:1052B0006D1A98460021002DE1DD04EB0A03B2F9D6
:1052C0000E00013B1B1A002BC8BFC3EB0A0AB2F940
:1052D0000A309C42BDBF1F1BC7EB0A0A1C460027B1
:1052E000BAF1000FCBDD069BCDF82C9007FB03171E
:1052F00004EB0A03BF000A93B24619E00423069A9E
:1053000031463046D8470123002205920496039285
:10531000019300932146CDF808A02A4640461C443C
:10532000069E03F01FFE0A9BA34207EB8607A6D04A
:105330000898FFF791FC0FAB0193079B0093C219EC
:105340002B462146404602F001FB0646002896D037
:10535000099B1A46124B9A42D5D0DDF82C90524642
:105360004B46294602F0C8F80028CCD1D9F810B035
:10537000BBF1000FC2D1DDF818B00D955D46A34614
:105380000C9CB146D9F80000A047013D49F8040B38
:10539000F8D10D9D5C46B6E79C0300209C6F002071
:1053A000819700082DE9F04182B00F4690460646ED
:1053B000FDF790FC036802ACDB6844F8040D16218D
:1053C0005B6A0020984705462046FDF755FD1DB154
:1053D000424639463046A84702B0BDE8F08100BFDA
:1053E0002DE9F04FA1B00D9110B921B0BDE8F08FBB
:1053F00092460746FDF76EFC20AB446943F81C0D4E
:105400001846FDF739FD3846FFF70AFC082805461F
:1054100002DD002C00F0D98001234FF0000B38464C
:105420001F930A93CDF878B0FDF754FC0168DFF8BC
:10543000688409690446D8F80000E3684D68B4F947
:1054400008100F9320AE23691491407CB4F90A1020
:10545000099346F8144DD4F814901691FFF712F8FA
:10546000D8F800100890487CFFF7AEF804463046A4
:10547000FDF702FD099A0A9B082A40F2A080102A33
:1054800013468CBF04230223CDF828B00E93A54207
:1054900000F0AC81D8F80030587CFFF78DF8149BF1
:1054A00006469800FDF776F9129000289DD0384600
:1054B000FFF7D2FB0746B9F1000F00F0F580484630
:1054C000FDF708FC169B1C90002B40F38B810023FA
:1054D0000C930F9BCDF840A0FB1815931DAB1193B7
:1054E0004FF001081946836800221D925B690C9AEF
:1054F0009847159B0F9A9B1A0B93149B8342044663
:1055000000F03181099B012B00F0F280002845D08A
:105510001AAB13931298FDF7DDFB099B1A90082B29
:1055200007461D9A40F2D4800E9B0B99A34602FBBE
:10553000031A81463AF8020BA847B047BBF1010BAA
:1055400049F8040BF6D1089B1F2B04D838461A469D
:10555000214601F009FF0A9A059200220392089A57
:105560001D9802920D9A1A9B1099049310440123DE
:105570002246CDF80480CDF8008003F0F3FC1398A8
:10558000FDF77AFC1C981D9B8268119957690C9A4B
:105590001C441D94B84704460028BBD1159A0F99A6
:1055A0000C9B0A441592109A01321092169A0133FC
:1055B0009A420C9300F016811C98119993E7012AE6
:1055C0006ED11EAB0E920A9361E73846FDF782FB5F
:1055D00020ABB0F9088043F8100D02460168B0F91D
:1055E0000A00089018460E69D2F80CB009920E9382
:1055F000FDF742FCA848A94900687368407C0C93F9
:1056000051F820100C6923680A93FEF73BFF082825
:10561000099A40D910288CBF2023102309938CBFEE
:105620004FF004094FF00209A64200F02D82202D10
:1056300000F09E81102D7FF4D8AE08FB09F0FDF735
:10564000A9F8109000283FF4D0AEFDF743FB1E9060
:105650003846FDF73FFB1C90236900F118020B92BE
:10566000002B00F022827369002B00F01E82B0F93B
:1056700008008000FDF78EF80F90002840F0698246
:105680001D900E98FDF7F8FB1EA8FDF7F5FB10988E
:10569000FDF7D8F8A9E6082309934FF00109C3E7FD
:1056A0000E93CDF828B0F2E60A9B05930F9B039367
:1056B0000124099B04900293149A169B0D9801945F
:1056C0005146009403F04EFC1298FDF7BBF88CE6AF
:1056D0000E9B0B99A14602FB031B82461BF8010B94
:1056E000A847B047B9F101094AF8040BF6D12AE7F7
:1056F00000283FF453AF17960C9F0A9EDDF84090A8
:10570000DDF834A0DDF844B01395DDF874E00B9DAE
:1057100005960EF0070006900AEB0E00BEF1000F92
:10572000B8BF0EF1070E05EBEE0E0F9DCDF810E0A1
:105730002246012349460395CDF80880CDF8048020
:10574000CDF8008004F096FA1C981D9B82681C44DA
:10575000594653691D943A46984704460028D4D1C7
:10576000139D179E1AE71298FDF7B4FA099B1A9039
:10577000082B8146149FDDF82CA0044629D93AF85D
:10578000020BA847B047013F44F8040BF7D1089B30
:105790001F2B04D848461A46149901F0E5FD0A9AD1
:1057A000059220AB1A460D9852F8183D0493144602
:1057B00000220392089A0292CDF80480CDF800806E
:1057C0000123149A109903F0CDFB2046FDF754FBFA
:1057D000E4E61AF8010BA847B047013F44F8040B70
:1057E000F7D1D4E71CA8FDF747FB6DE73846FFF774
:1057F00033FA0746B9F1000F00F0A9804846FDF7DB
:1058000069FA169B1C90002B40F39D8000261DAB6F
:10581000CDF82CA0DDF834A0B14601259846836868
:10582000CDF874905B69324641469847149B834299
:1058300004462DD0099B012B55D008B30B9B03EBDD
:10584000060B0A9B1D9805930E9B0F9A039203FB70
:105850000073099A02920493224650440123594648
:105860000195009503F07EFB1C981D9B82681C44EB
:10587000414653691D943246984704460028E0D1BA
:105880000F9B01361F44169BB3425CDD1C98C6E794
:105890000897B3461F4604E09C0300209C6F00203D
:1058A000A3461C9883680BF101045B6922464146BC
:1058B00098478742F4D0099902910B990A9A089F58
:1058C0000592C6EB0B030F9A049731440F9E039287
:1058D000013301950095149A504606FB037726463E
:1058E00003F040FBCFE70028CAD00B9B089603EBE0
:1058F000060BDDF874E00A9805900EF0070006909C
:105900000AEB0E00BEF1000FB8BF0EF1070E07EB59
:10591000EE0E0F9ECDF810E0224601235946039665
:1059200002950195009504F0A5F91C981D9B8268CD
:105930001C44414653691D94089A98470446002820
:10594000D7D1089E9CE71CA8FDF796FA4DE50A9B67
:1059500005930F9B03930124099B04900293149ACF
:10596000169B0D9801945146009403F0FBFA3CE518
:1059700009FB08F0FCF70EFF0B9000283FF435AD53
:10598000FDF7A8F91E903846FDF7A4F91C9025698B
:1059900000F1180745B34FEA880B012619E0B9F169
:1059A000040F19D0B9F1010F16D000221E990998E1
:1059B00002900123059203920491019651460096AC
:1059C00042460D989A4403F0CDFA089B013B089398
:1059D00050D0B9F1020FE2D138461E9925694B46E5
:1059E0004246A8475F44E0E70C950126089C14E076
:1059F000B9F1040F00F08D81994500F035810C9DBF
:105A000005950395099D02951E9D019600960495A6
:105A100003F0A8FA013C2DD0DA460123B9F1020FB8
:105A2000514642460D980AEB030BE1D108944FEA28
:105A300088050124DDF87890BB4646465BF8040BE8
:105A40000A9B9847013E29F8020BF7D11E9B099A41
:105A50000292049351460123059603960194009403
:105A600042460D989A4403F07DFA089B013B2F446F
:105A70000893DFD10E98FDF7FFF91EA8FDF7FCF99A
:105A80000B98FCF7DFFEB0E40124183200260492E4
:105A9000CDF80CB00295089B0D98059642465146EC
:105AA0000194009403F05EFA9FE400250126089C0F
:105AB00016E0B9F1040F00F0FC80994500F0A480D5
:105AC0001E9F0897099F0297089F059503950196C9
:105AD0000096049703F046FA013C3FF4D2ADDA4653
