:020000040800F2
:10000000483501205D020008EF2F0008C1270008D5
:10001000ED2F00085B090008D13200080000000045
:100020000000000000000000000000009D0100082A
:100030005D09000800000000F9010008F12F000828
:1000400077020008770200087702000877020008AC
:10005000770200087702000877020008770200089C
:10006000E10A0008E70A0008ED0A00087702000824
:10007000770200087702000877020008770200087C
:10008000770200087702000877020008770200086C
:10009000770200087702000877020008770200085C
:1000A00077020008B53000087702000877020008E0
:1000B000770200087702000877020008770200083C
:1000C000770200087702000877020008770200082C
:1000D000770200087702000877020008770200081C
:1000E000770200087702000877020008770200080C
:1000F00077020008770200087702000877020008FC
:1001000077020008770200087702000877020008EB
:1001100077020008770200087702000877020008DB
:1001200077020008770200087702000877020008CB
:1001300077020008B109000877020008770200087A
:1001400077020008770200087702000877020008AB
:10015000770200087702000877020008770200089B
:10016000770200087702000877020008770200088B
:1001700077020008770200087702000800000000FC
:100180007702000877020008DFF80CD000F0A4FB2B
:10019000004800477B9D0008483501202C4B19681A
:1001A0000868B0E8F04F80F30988BFF36F8F4FF015
:1001B000000080F3118870470000000008480068C4
:1001C000006880F308884FF0000080F3148862B65E
:1001D00061B6BFF34F8FBFF36F8F00DF00BF00BF6B
:1001E00008ED00E0DFF80C00016841F470010160E7
:1001F000704700BF88ED00E0EFF30980BFF36F8F19
:10020000134B1A681EF0100F08BF20ED108A20E96A
:10021000F04F106009B44FF0500080F31188BFF325
:100220004F8FBFF36F8F12F0D7FB4FF0000080F3BA
:10023000118809BC19680868B0E8F04F1EF0100F6B
:1002400008BFB0EC108A80F30988BFF36F8F704746
:1002500070010020EFF305807047000006488047DA
:1002600006480047FEE7FEE7FEE7FEE7FEE7FEE79B
:10027000FEE7FEE7FEE7FEE7A5300008890100087B
:100280002DE9F05F0546002092469B4688460646CB
:10029000814640241BE0284641464746224600F05E
:1002A000EEF953465A46C01A914110D311461846EA
:1002B000224600F0D5F92D1A67EB01084F46224679
:1002C0000120002100F0CCF917EB00094E41201E5F
:1002D000A4F10104DFDC484631462A464346BDE826
:1002E000F09F00000649074A0868504343F239026C
:1002F00010440860400870470149086070470000DA
:10030000D80100206D4EC64110B5431A934209D260
:100310008318881803E010F8011D03F8011D521E10
:10032000F9D210BD40EA01039B0703D009E008C9D8
:10033000121F08C0042AFAD203E011F8013B00F8AA
:10034000013B521EF9D210BDD2B201E000F8012BE0
:10035000491EFBD270470022F6E710B513460A4645
:1003600004461946FFF7F0FF204610BD10B50022E5
:1003700000E0521C835C8C5CA34201D1002BF8D1BD
:10038000D8B2E1B2401A10BD30B504460020034691
:1003900000E05B1C934203D2E05CCD5C401BF8D0D4
:1003A00030BD2DE9FE4F81EA030404F0004421F042
:1003B000004100944FF0000B23F0004350EA010489
:1003C0005ED052EA03045BD0C3F30A54C1F30A556A
:1003D0002C44A4F2F3340194A0FB0254C1F31301A2
:1003E00041F48011C3F3130343F4801301FB02446F
:1003F00000FB034E840A970A44EA815447EA835774
:10040000A4FB076802958D0A05FB07854FEA932C2C
:1004100004FB0C542705029D4FEA065847EA16379D
:10042000B5EB08056EEB070C870E920E47EA8117B5
:1004300042EA8312A7FB0201B6EB0B0164EB000456
:100440002B0D43EA0C335E1844EB1C50DA46514640
:10045000E7FB0201C5F313044FEA0B3343EA1453DD
:100460004FEA0432019C43EA0603A4F10C0402940F
:10047000009CCDE900B400F021F903B0BDE8F08F95
:1004800000200146F9E72DE9F04D81EA030404F06C
:10049000004B21F0004514464FF0000A23F00041C4
:1004A00050EA050220D054EA01021DD0C5F30A57D4
:1004B0000246C5F31303C1F31300C1F30A5640F417
:1004C000801543F48013A7EB0608101BD64608F2EC
:1004D000FD3873EB050002D308F1010801E0921822
:1004E0005B41B8F1000F03DA00200146BDE8F08D52
:1004F00000204FF48011064684460EE0171B73EB74
:10050000050705D3121B63EB050306434CEA010CF8
:1005100049084FEA300092185B4150EA0107EDD1DB
:1005200052EA030012D082EA040083EA050108437C
:1005300005D0101BAB4106D20122002306E00022A9
:100540004FF0004302E06FF0010253101AEB060077
:100550004CEB085110EB0A0041EB0B01BDE8F04DEC
:1005600000F09DB80EB5C10F80EAE0700844CA07DC
:10057000002140F233438DE80E000A460B4600F09E
:100580009DF803B000BD0EB540F233410291002149
:10059000CDE900110A460B4600F090F803B000BD0B
:1005A000C1F30A5210B5C1F3130140F2FF3341F415
:1005B00080119A4201DA002010BD40F233439A4282
:1005C000A2F2334203DC524200F059F810BD9040D1
:1005D00010BD000030B5041E71F1000404DB4FF0C3
:1005E0000044404264EB0101141E73F1000405DB7A
:1005F0001C464FF00043524263EB04038B4208BF9A
:10060000824230BD30B5041E71F1000404DB4FF0AE
:100610000044404264EB0101141E73F1000405DB49
:100620001C464FF00043524263EB0403994208BF5B
:10063000904230BD30B50B460146002020220124F7
:1006400009E021FA02F59D4205D303FA02F5491BA0
:1006500004FA02F52844151EA2F10102F1DC30BDB6
:10066000202A04DB203A00FA02F100207047914072
:10067000C2F1200320FA03F3194390407047202A67
:1006800004DB203A21FA02F00021704721FA02F33C
:10069000D040C2F12002914008431946704710B57E
:1006A000141E73F1000408DA401C41F10001921895
:1006B0005B411A4301D120F0010010BD2DE9F04D3E
:1006C00092469B4611B1B1FA81F202E0B0FA80F293
:1006D00020329046FFF7C4FF04460F4640EA0A0066
:1006E00041EA0B0153465A46084313D0114653EAD8
:1006F000010019D0C8F140025046FFF7C0FF05467F
:100700000E46504659464246FFF7AAFF084305D019
:10071000012004E020463946BDE8F08D0020054365
:1007200046EAE0762C4337430A986305E40AA0EBD7
:1007300008000022FD0A44EA47540A3002D500208E
:100740000146E9E7010510196941DDE9084500198D
:100750006941BDE8F04DA2E72DE9FE4F804681EAF0
:100760000300C00F0C46009021F0004123F000452B
:10077000B8EB0200A94105D24046214690461C46EE
:100780000B46024623F00040104347D0270DC7F325
:100790000A00C3F30A510290401A019040286BDA14
:1007A000C3F3130040F4801B0098924620B100234D
:1007B000D2EB030A63EB0B0B01985946C0F14002E0
:1007C0005046FFF74DFF06460D4650465946019AE2
:1007D00000F094F810EB08006141002487EA115200
:1007E00084EAE7731A4340D0009A62B3019A012A5F
:1007F0004FEA075215DC001B61EB02014FF000428B
:1008000002EA0752CDE90042001C41F58011324650
:100810002B46FFF753FF03B0BDE8F08F404621465B
:10082000F9E7001B61EB0201001C41F58013001881
:100830005B412018A2F5001747EB030140EAD57091
:10084000B6196D4111E06D084FEA360645EAC075EC
:100850004FEA0752001B61EB0201001C41F58011B9
:1008600049084FEA30000019514132462B4603B087
:10087000BDE8F04FFFF713BF0098012240000023AE
:10088000D0EB020263EBE073009821464FEAE0747C
:10089000B8EB000061EB0401E9E783F000435BE79C
:1008A00081F0004158E7C1F30A52C1F3130140F24D
:1008B000FF3341F480119A4202DA0020014670476A
:1008C00040F233439A42A2F2334202DC5242FFF733
:1008D000D6BEFFF7C5BE0000064C074D06E0E06837
:1008E00040F0010394E8070098471034AC42F6D377
:1008F000FFF74EFC986A0108B86A0108202A06DB57
:10090000CB17203A41FA02F043EAE07306E041FADD
:1009100002F3D040C2F120029140084319467047CB
:1009200030B58C1810F8012B12F00F0301D110F81C
:10093000013B120906D110F8012B03E010F8015B0E
:1009400001F8015B5B1EF9D101E001F8013B521E89
:10095000FBD1A142E6D3002030BDFEE77047000086
:10096000064908B509684FF4FA52B1FBF2F1414368
:10097000009100BF491E0091FBD208BDA0000020DD
:1009800038B50446006800F58050816941F4801153
:100990008161206800F58050806900900120FFF798
:1009A000DFFF2068009900F58050816138BD0000AC
:1009B000014800F09CBA0000C83500202DE9F04144
:1009C000044621B14FF40060E060C000A060E0691F
:1009D0000025002861D028462368402619683A4A35
:1009E0001140D4E902273A43024342F4007008431D
:1009F000186020680768012000F022F9206807606D
:100A00002068466020684668012000F019F92068D7
:100A10004660206885602068C560216888694FF657
:100A20004172104040F08000886120688669012092
:100A300000F006F9206886612068C5612068C569F4
:100A4000012000F0FDF82068C561226802F580529F
:100A500090691E4908401E4901439161206800F5D4
:100A600080508569012000F0EBF8206800F5805087
:100A700085612068174900F580500160206800F505
:100A800080500568012000F0DBF8206800F58050F8
:100A90000560A069012803D009E04FF480609BE75E
:100AA000206800F58050C1690B4A1143C16160693B
:100AB0000A4982880A640278D0F8010042EA0020DC
:100AC0004864BDE8F08100000F8120FF233FDEF87D
:100AD000040020028020C10240000100008002408A
:100AE000042000F08DBD082000F08ABD102000F029
:100AF00087BD0000FEB514460D4607466426CDE9C5
:100B0000005401233A46A1210348029600F04EFF0B
:100B10000028F4D1FEBD0000A00400202DE9FE4312
:100B2000642614460D46804601270FE0CDE90057A4
:100B300001234246A0210848029601F033F800281C
:100B4000F4D108F101001FFA80F86D1C641EA4B2F4
:100B5000ECD2BDE8FE830000A00400207047000036
:100B600070B5B3F5804F05D06FF0704140F822109A
:100B7000002070BD50F82240084B8E891C40D1E9FE
:100B8000003543EA05138D6889692D0245EA06455B
:100B90002B430B43234340F82230E9E70000F0CF1A
:100BA000F0B50C6850F82430114A1340D1E9012502
:100BB000D1E903672A433E4332434E6932438E698B
:100BC0003243CE6932430E6A32434E6A32438E6AF2
:100BD0003243CE6A3243CE6B096B32430A431A4327
:100BE000082D01D142F0400240F824200020F0BD41
:100BF0008000F0FF30B500EB820250688D8900F074
:100C00004043D1E9000440EA04108C68240244EA1D
:100C1000054420430C8A074D05EB045420430C7D0A
:100C20006D0105EB04648969204308431843506053
:100C3000002030BD0000F0FF01200AF061F8FBE762
:100C400080B203F013B900002DE9F041054690F899
:100C500045000C46012875D0012685F84560022024
:100C600085F84400002C70D02A6811684148014082
:100C7000D4E900031843D4E902373B431843AB6877
:100C800018432369184363691843EB681843A36941
:100C90001843E3691843236A1843636A1843A36A35
:100CA000184308431060286807680120FFF7C8FF51
:100CB00028680760D4E90B010843D4E90D121143F9
:100CC0000843E16B0843216C0843616C0843A16C45
:100CD000084329684860286847680120FFF7B0FF8B
:100CE000286847602968E06C88602968206DC860C2
:100CF0002A6891694FF641700140D4E91603184300
:100D0000B4F85470236E43EA07431843636E1843E4
:100D1000A36E184308439061286887690120FFF794
:100D20008FFF28688761D4E91B0108432968C861DF
:100D30002868C4690120FFF783FF2868C46114E0B4
:100D400000E002E00220BDE8F0812968086820F494
:100D50009042D5E9020318431043086028680468EC
:100D60000120FFF76DFF2868046005F8446F00203C
:100D70006870E8E70F8120FF2DE9F04390F84540C7
:100D80000025012C0DD04FF0010C80F845C0022445
:100D900080F8444044F2F4574FF000495E1E8162EF
:100DA00017E00220BDE8F08301EB4514C4F8009081
:100DB000C5EBC51808EB480802EB8808C4E90178C0
:100DC000B54204D204F12008C4F80C8000E0E160D0
:100DD0006D1C9D42E8D3026802F58052D16080F814
:100DE00044C0002180F845100846DBE72DE9F043B8
:100DF000914690F845200024012A0AD0012680F867
:100E00004560022280F844204FF4801C5D1EC162C0
:100E10001BE00220BDE8F08301EB4412C2F800C0E1
:100E2000C4EBC41707EB470809EB88079760C7694D
:100E30001FB9176847F440071760AC4203D202F1AC
:100E40002007D76000E0D160641C9C42E4D30268B4
:100E500002F58052116180F84460002180F845104D
:100E60000846D7E7704730B590F8451000230129B0
:100E700008D0012280F84520022180F84410002487
:100E8000816A1AE0022030BD0D685B1CC5F30125A4
:100E9000022D0AD00D6815F4407F09D04163836BA1
:100EA0005B1C8363012B12D012E08263016302E0BA
:100EB000856B6D1C8563C96881620D68002D01DB3F
:100EC000042BE1D300F8442F4470012030BD0163AE
:100ED0000B68C3F30D431B1FC363036B9B68036461
:100EE000C96840F8281F02774477002030BD70B5EC
:100EF0000446006800F5805041694FF0000549063E
:100F00004FF0010608D5204600F0DCF920684021AA
:100F100000F58050416109E04069C0070AD02046D1
:100F200000F0DEFA206800F58050466184F84460E5
:100F300084F8455020684FF4803100F580504161BD
:100F4000206800F58050406900040CD52046FFF76A
:100F500089FF20684FF4004100F58050416184F81A
:100F6000446084F8455070BD2DE9FC474FF0000601
:100F70000400B146009603D094F8440018B107E08D
:100F80000120BDE8FC8784F84560204600F0E4F8C5
:100F90006748016841F480410160006800F48040C6
:100FA00001906448016821F4000101600168226A2F
:100FB00011430160206800F58050016841F0010193
:100FC000016000F029FC05464FF4FA7709E000BF04
:100FD00000F022FC401BB84203D9032004F8440F60
:100FE00067E0206800F580500068C007F0D12068F5
:100FF000006920F01C0501F013F84F494F4A0144E5
:10100000914202D245F0080516E04D494D4A01448F
:10101000914202D245F00C050EE04B494B4A014487
:10102000914209D34A4908444A49884202D245F0CC
:10103000040501E045F01005206805614FF4004209
:101040000021204600F04EFA0125A8BBFF20FFF743
:10105000F7FD606888B300F0DFFB804641F2883717
:101060006A460121204600F0EBF800F0D5FBA0EB2A
:101070000800B84217D800984007F1D54FF48052C5
:101080000021204600F02EFAB0B900F0C5FB8046E2
:101090006A460121204600F0D3F800F0BDFBA0EB2A
:1010A0000800B8420AD901212046FFF787FC04F85E
:1010B000445F0320667064E726E01AE0009880062B
:1010C000E6D56A461121204600F0BAF8E0B900984A
:1010D000810403D54FF40061E16000E0E66044F272
:1010E0001001814303D04FF48040A06017E0A66058
:1010F00015E0E068A168C00840EA510082B2002112
:10110000204600F0EFF930B101212046FFF756FCF0
:1011100084F8445034E740F6FF70FFF791FD4946EC
:101120002046FFF74BFC84F84450002029E70000DC
:10113000443802400438014000D3CEFEC0E1E40050
:1011400040F1E9FD40787D0100796CFC005A6202B3
:10115000001F0AFA80F0FA02F0B587B004461421A5
:101160006846FFF7F8F83149206888425BD130487B
:101170000024016841F000710160016801F0007114
:101180000591016841F080610160016801F08061B2
:101190000591016841F000610160016801F00061A2
:1011A0000591016841F004010160016801F004014A
:1011B0000591016841F001010160016801F0010140
:1011C0000591016841F0400101600068022500F0CE
:1011D000400005903220CDE9000502AA03260B2726
:1011E00082E8D0006946134800F016FA8620CDE95F
:1011F000000502AA694682E8D0000F4800F00CFA08
:101200004FF4D040CDE9000502AA694682E8D0003B
:101210000A4800F001FA002206213D2000F014FEE9
:101220003D2000F003FE07B0F0BD0000008002404A
:10123000303802400008024000000240001802401E
:101240002DE9F047044690F84400914682281DD0CD
:10125000822084F84400226810694FF6FF7500F080
:101260001C03208A05EAC02018434FF4F86303EA00
:101270008111014321F0020040F00105156100F0E9
:10128000CBFA064601274FF4803810E00220BDE873
:10129000F08700BF00F0C0FA801B404505D304F87A
:1012A000447F002060700320F1E720680569E807AB
:1012B000F0D12068406981B2C9F8001084F8447008
:1012C0000020E4E70148006809F040BE90000020DB
:1012D000F8B5044690F84500012839D0012584F876
:1012E0004550022084F8440020680026016841F03F
:1012F000080101602068006800902846FFF730FB75
:101300002168009808602068016841F004010160CC
:101310002068006800900120FFF722FB21680098F8
:1013200008602046FFF72CFB206800F5805081699B
:1013300041F400518161206800F58050816941F0DD
:101340000201816184F8445084F845600020F8BDB2
:101350000220F8BDF8B5044690F84500012839D0C0
:10136000012584F84550022084F84400206800F5E7
:101370008050816921F400518161206800F580501E
:10138000816921F00201816120680026016821F055
:10139000040101602068006800900120FFF7E0FA76
:1013A0002168009808602046FFF7EAFA2068016883
:1013B00021F0080101602068006800900120FFF71B
:1013C000CFFA21680098086084F8445084F845609A
:1013D0000020F8BD0220F8BDF0B590F845200023AC
:1013E000012A11D0012780F84570022280F844209C
:1013F000002459B1C66A3268002A0ADA122100F8BC
:10140000441F44700120F0BD0220F0BD00F8447F6D
:10141000F7E740F2F455A9420BD9B1FBF5FCB1FB5B
:10142000F5F205FB1C1CBCF1000F00D0521C012A78
:1014300043D1326842F040523260C26AC1F30C01BB
:101440005160C16A0A6842F000420A60C16AC96814
:10145000C16234E0D6F800C02CF0405CC6F800C091
:1014600033B9C66AD6F800C04CF0805CC6F800C03C
:10147000C66A7560561EB34214D1C66AD6F800C05B
:101480004CF0005CC6F800C0C2F10106C6EBC616FF
:1014900006EB4606D0F82CC001EB8606C6F30C0618
:1014A000CCF80460C66AD6F800C04CF0004CC6F810
:1014B00000C0C66A5B1CF668C6629342CAD3016864
:1014C00001F580514A69520705D504224A61016835
:1014D00001F580514C6000F8447F44700020F0BD5D
:1014E000704700002DE9F041044690F8440042287E
:1014F0001ED0422084F84400236818694FF6FF7616
:1015000000F01C05208A06EAC02028434FF4F86545
:1015100005EA8111014390B241F00305586120684A
:10152000056100F079F9064601274FF4803810E094
:101530000220BDE8F08100BF00F06EF9801B40453D
:1015400005D304F8447F002060700320F1E7206891
:101550000569E807F0D184F84470EAE72DE9F04125
:1015600086B014216846FEF7F6FE1F480168002980
:1015700037D1012707601D488846016841F0010105
:1015800001600068022400F00100059041F20100B2
:101590008DE8910003250C26CDE9035669461448D1
:1015A00000F03AF84FF680708DE81101CDE903564E
:1015B0006946104800F030F84CF203708DE81101D4
:1015C000DFF83480CDE903566946404600F024F840
:1015D00030208DE89100CDE903566946404600F081
:1015E0001BF806B0BDE8F0816400002038380240E6
:1015F0000018024000100240000C0240704700003A
:10160000044910B50A68024202D00860FFF7F6FFED
:1016100010BD0000143C01402DE9F84FDFF8B8A1DF
:10162000002201250AF1040B03264FF00F090BF1EC
:10163000040E00BF0B6805FA02F42340A3426FD1E9
:101640000F7907F00307012F01D0022F16D1876809
:101650004FEA420806FA08FC27EA0C07D1F80CC04A
:101660000CFA08FC4CEA070CC0F808C04768A7430E
:101670000C79C4F3001494403C4344600C79E44377
:10168000A4070AD0C4684FEA420C06FA0CF7BC4320
:101690008F6807FA0CF72743C7600C7904F003043E
:1016A000022C12D1D40800EB840CDCF82040570740
:1016B000FF0E09FA07F824EA0804D1F8108008FAA6
:1016C00007F848EA0408CCF8208004684FEA420C86
:1016D00006FA0CF7BC430F7907F0030707FA0CF77B
:1016E000274307604C68E40070D53C4C276847F4FA
:1016F00080472760246822F0030704F480440094A4
:10170000374C07EB040CDCF8084897074FEA1778CA
:1017100009FA08F7BC43334FB84202D1002724E04E
:1017200054E0314FB84201D101271EE02F4FB8429B
:1017300001D1022719E02E4FB84201D1032714E04E
:101740002C4FB84201D104270FE02B4FB84201D1F2
:1017500005270AE0294FB84201D1062705E0284FA6
:10176000B84201D1072700E0082707FA08F7274306
:10177000CCF80878DAF800405746D1F804C09C430A
:101780005FEACC3C00D51C433C60DBF800405F4680
:10179000D1F804C09C435FEA8C3C00D51C433C60FC
:1017A000DEF800407746D1F804C09C435FEACC2CB9
:1017B00000D51C433C60084F0C373C68D1F804C08E
:1017C0009C435FEA8C2C00D51C433C60521C102AC1
:1017D000FFF430AFBDE8F88F003C014044380240D0
:1017E00000300140000002400004024000080240B6
:1017F000000C024000100240001402400018024099
:10180000001C02400069084000D0012070470AB166
:10181000816170470904FBE7014880687047000058
:101820009400002070B5040025D094F83D000025F8
:1018300020B984F83C50204600F04CFA242084F86B
:101840003D002068016821F0010101602068016805
:1018500041F4004101602068016821F40041016009
:1018600000F0E4FB4D4A6168914201D84C4900E028
:101870004C49884201D2012070BD4B492368B0FB1E
:10188000F1F15E6826F03F060E435E6063689342A6
:1018900006D94FF4967359434FF47A73B1FBF3F1C1
:1018A0002368491C1E6A26F03F06314319626168AD
:1018B000914210D84900401EB0FBF1F2521CC2F315
:1018C0000B02042A01D2042022E0B0FBF1F0401CFC
:1018D000C0F30B001CE0A268F2B301EBC10303EB01
:1018E0000116431EB3FBF6F35B1C43F480431B0558
:1018F00049D092B301EBC10202EB0111401EB0FBD3
:10190000F1F0401CC0F30B0040F4804040F4004074
:101910002168CA694CF6FF739A431043C861D4E941
:10192000071001432068026822F0C00211430160E1
:10193000D4E9030101432068826848F2FF339A43E7
:1019400011438160D4E9050108432168CA6822F087
:10195000FF021043C86001E00EE016E02068016855
:1019600041F0010101602564202084F83D002563D9
:1019700084F83E50002070BD01EB4106431EB3FBCE
:10198000F6F35B1CB3E70120C2E701EB4101401E07
:10199000B0FBF1F0401CC0F30B00B7E7A0860100DC
:1019A00080841E0000093D0040420F002DE9FF4FDA
:1019B00083B09A46DDE9119793460446DDF84080EE
:1019C000FFF72AFF054694F83D00202870D119231F
:1019D000012271492046009501F002F80028F5D156
:1019E00094F83C00012863D0012084F83C00206872
:1019F0000168C90703D1016841F001010160206855
:101A0000016821F400610160222084F83D0040203B
:101A100084F83E0000262664C4F82480A4F82A90A6
:101A2000608D20855D48E062CDE9007553465A46D9
:101A30002046049900F0DCFE00287CD1208DD0B136
:101A4000012821D00228206824D0416980690090B3
:101A5000208D032869D801282BD0514902283B4604
:101A60004FF00002009559D08846204600F0B8FF9C
:101A7000002860D13CE020684169816900910168DB
:101A800041F40071016077E02068016821F4806111
:101A90000160F0E7016821F480610160206801685D
:101AA00041F400610160206841698069009063E051
:101AB0006FE02A463946204601F011F898BB2068AD
:101AC0000069616A08704EE02068016841F40071A5
:101AD000016020680069616A0870606A401C606289
:101AE000218D491E2185618D491E6185216838E05F
:101AF0002068016821F48061016020680069616AE2
:101B00000870606A401C6062208D401E2085608DD8
:101B1000401E60853B46002241460095204600F06D
:101B20005FFF00B9D0E706E0FFE72A4639462046C6
:101B300000F0D5FF18B1012007B0BDE8F08F206894
:101B40000069616A0870606A401C6062218D491EEC
:101B50002185618D491E618521684A69D2435207FA
:101B60000AD409690170606A401C6062208D401EC1
:101B70002085608D401E6085208D00287FF468AF31
:101B8000202084F83D0084F83E6084F83C6000200A
:101B9000D2E70220D0E70000020010000000FFFFA3
:101BA000040001002DE9FF4F83B09A46DDE911974B
:101BB00093460446DDF84080FFF72EFE054694F874
:101BC0003D0020287FD1192301224049204600955D
:101BD00000F006FF002876D194F83C00012872D06E
:101BE000012084F83C0020680168C90703D101681E
:101BF00041F0010101602068016821F40061016089
:101C0000212084F83D00402084F83E000026266410
:101C1000C4F82480A4F82A90608D20852C48E062C6
:101C2000CDE9007553465A462046049900F05EFE01
:101C300070B930E02A463946204600F083FF58B19B
:101C4000206C042804D12068016841F4007101600F
:101C5000012007B0BDE8F08F606A21680078086154
:101C6000606A401C6062218D491E89B22185628DA7
:101C7000521E628522685369DB435B070BD469B14E
:101C800000781061606A401C6062208D401E2085D3
:101C9000608D401E6085208D0028CBD12A463946B4
:101CA000204600F077FE0028CAD154F83D0B0168A9
:101CB00041F400710160202004F81E09E677667780
:101CC0000020C6E7FFE70220C3E700000200100083
:101CD0000000FFFF10B586B0044614216846FEF7E9
:101CE0003AFB13492068884220D11248016841F02C
:101CF000800101600068694600F080000590302096
:101D000000901220019001200290032003900420F3
:101D100004900948FFF780FC06481030016841F440
:101D200080010160006800F48000059006B010BDDD
:101D30000058004030380240001C024002488168D0
:101D40000278114481607047940000200B4810B560
:101D5000016841F400710160016841F48061016033
:101D6000016841F480710160032000F08DF80020CB
:101D700000F006F800F03EF8002010BD003C0240E4
:101D800010B5014688B00022192000F05DF8192036
:101D900000F04CF813480024016841F00101016093
:101DA000006805A900F001000690684600F018F9E7
:101DB00000F04CF90C494000B0FBF1F10C480B4A23
:101DC000491E026040F2E732C0E90324C0E9011471
:101DD00000F061FB10B1012008B010BD044800F014
:101DE00089FBF9E74438024040420F0000000140FF
:101DF000543600200C4882B0016841F480410160F3
:101E0000006800F4804000900748001F016841F01E
:101E1000805101600068002200F0805000900F2186
:101E2000901E02B000F010B844380240002809DBD0
:101E300000F01F02012191404009800000F1E020E4
:101E4000C0F8001170470000F0B40E4B1B680C4640
:101E5000C3F30223C3F10705042D00D90425191D7E
:101E6000072901D2002300E0DB1E012606FA05F156
:101E7000491E214099409E40761E16403143F0BCD9
:101E800001F052BA0CED00E0064900F007020868C4
:101E90004FF6FF03184040EA0220034A104308604F
:101EA000704700000CED00E00000FA052DE9F04756
:101EB0000E46050065D0DFF81481D8F80000F7B2AF
:101EC00000F00700B04207D288F80070D8F8000090
:101ED00000F00700B04254D128683D4C810712D56C
:101EE000400703D5206840F4E050206028780007C0
:101EF00003D5206840F4604020602068A96820F085
:101F0000F000084320602878C0072DD03049686869
:101F10000839012812D0022813D0032811D00968EB
:101F2000890700292DDA216821F00301014321608E
:101F3000FFF772FC814641F2883A0EE00968890396
:101F4000EFE709688901ECE7FFF766FCA0EB090100
:101F5000514502D90320BDE8F0872068696800F088
:101F60000C00B0EB810FEFD1D8F80010404601F023
:101F70000701B14207D90770006800F00700B042BE
:101F800001D00120E7E72878400705D52068E968F7
:101F900020F4E050084320602878000706D5206828
:101FA000296920F4604040EAC100206000F05EF83A
:101FB0002168084AC1F30311515CC8400649086012
:101FC00006480068FFF7DCFE0020C4E7003C024042
:101FD0000838024060670108A00000209800002037
:101FE0000F2202600C4A136803F003034360136876
:101FF00003F0F0038360136803F4E053C3601268D6
:102000004FF4E05303EAD20202610448006800F092
:10201000070008607047000008380240003C02409A
:102020000148006870470000A000002004480549EE
:1020300000680968044AC1F38221515CC8407047B6
:10204000A0000020083802407067010804480549D4
:1020500000680968044AC1F34231515CC8407047C6
:10206000A00000200838024070670108154810B52C
:10207000006810F00C02144813D04110042A0FD04D
:10208000082A0ED10F4C241F2268236802F03F0259
:102090005B0207D52068C0F38810A0FB010106E0B1
:1020A000084610BD2168C1F38811A1FB000100237F
:1020B000FEF7E6F82168C1F30141491C4900B0FB75
:1020C000F1F010BD083802400024F4002DE9F84F6B
:1020D00004006ED02078DFF84C93C007A9F1040506
:1020E0004AD009F104000168C1F38101012908D037
:1020F0000068C0F3810002280AD1D9F8000040022C
:1021000006D52868800337D560680028E1D033E021
:102110006068B0F5803F10D0B0F5A02F286810D0CF
:1021200020F480302860286820F4802028606068CF
:10213000A8B1FFF771FB06460DE0286840F4803037
:10214000F4E740F480202860F7E700BFFFF764FB66
:10215000801B642873D828688003F7D50CE0FFF74C
:102160005BFB064605E000BFFFF756FB801B6428BB
:10217000F0D828688003F7D42078DFF8AC82800795
:102180004FF0000A3ED5A748001D016811F00C0F62
:1021900008D00068C0F3810002280BD1D9F80000F4
:1021A000400207D42868800716D5E068012800D1CE
:1021B00012E033E1E068B8B10120C8F80000FFF791
:1021C0002BFB064605E000BFFFF726FB801B02281D
:1021D000C0D828688007F7D52868216920F0F80062
:1021E00040EAC10028600DE0C8F800A0FFF714FB2A
:1021F000064604E0FFF710FB801B02281FD8286862
:102200008007F7D42078000722D5864F8748616978
:10221000703771B101210160FFF7FEFA064604E054
:10222000FFF7FAFA801B022809D838688007F7D52B
:102230000EE0C0F800A0FFF7EFFA064605E082E0E6
:10224000FFF7EAFA801B02287DD838688007F7D4A8
:102250002078400768D5DFF8CCB100270BF13C0BA4
:10226000DBF80000C0000BD4DBF8001041F0805117
:10227000CBF80010DBF80000012700F08050009040
:102280006B4E3068C00510D4306840F48070306008
:10229000FFF7C2FA009005E0FFF7BEFA0099401A76
:1022A000022850D83068C005F6D55E4EA0686C365E
:1022B00001280FD00528306810D020F001003060D0
:1022C000306820F004003060A068B8B1FFF7A4FACD
:1022D00000900FE0306840F00100F4E740F00400A7
:1022E0003060F7E7FFF798FA0099411A41F2883019
:1022F000814266D830688007F4D50EE0FFF78CFA8B
:10230000009007E0FFF788FA0099411A41F28830FF
:10231000814256D830688007F4D42FB1DBF8001022
:1023200021F08051CBF80010A069C8B33D49091DC8
:102330000968C1F3810102294AD00228504607D01A
:10234000C8F8600000E03CE0FFF766FA04463BE0B6
:102350004746C8F86000FFF75FFA064605E000BF91
:10236000FFF75AFA801B02282BD828688001F7D47F
:10237000D4E907010843A16A2E4A490802EB01414A
:10238000626A41EA8211084394F82C1040EA016124
:10239000C9F8001001203866FFF73EFA044606E04F
:1023A0003EE000BFFFF738FA001B022809D8286872
:1023B0008001F7D534E000BFFFF72EFA001B02289A
:1023C00002D90320BDE8F88F28688001F4D427E003
:1023D0000128F7D0D9F80000E26900F480019142A9
:1023E0001CD1226A00F03F01914217D147F6C0711B
:1023F000626A0140B1EB821F10D1A26A4FF0FF3335
:1024000000F4403103EB5202B1EB024F06D194F8D5
:102410002C1000F07060B0EB016F01D00120D1E70B
:102420000020CFE70438024000004742800E4742B8
:10243000007000400000FFFF70B515460E46040016
:1024400003D094F8490010B107E0012070BD0020CE
:1024500084F84800204600F01AF804F108012068CA
:10246000FEF79EFB3146A2682068FEF7C3FBD4E965
:1024700001022946236BFEF773FBA168206850F820
:10248000212042F0010240F82120002070BDFFF71A
:1024900065B87047704710B5040003D094F83D004C
:1024A00010B107E0012010BD002084F83C00204658
:1024B00000F01EF8022084F83D00211D206800F085
:1024C000FFFD012084F8460084F83E0084F83F00B8
:1024D00084F8400084F8410084F8420084F8430006
:1024E00084F8440084F8450084F83D00002010BDC5
:1024F0007047000090F83D10012901D0012070477D
:10250000022180F83D100168CA6842F00102CA60E9
:1025100000681149884214D0B0F1804F11D00F49A2
:1025200088420ED00E4988420BD00E49884208D00E
:102530000D49884205D00D49884202D00C49884295
:1025400004D1816801F00701062903D0016841F038
:1025500001010160002070470000014000040040BC
:1025600000080040000C0040000401400040014011
:1025700000180040704770B50446006801694FF0CC
:102580000005C943890715D4C168C943890711D417
:10259000E91E0161012020772068806980072046BC
:1025A00002D0FFF7E7FF04E000F098F8204600F0C3
:1025B00096F8257720680169C943490717D4C1688F
:1025C000C943490713D46FF0040101610220207749
:1025D0002068806910F4407F204602D0FFF7CAFFD0
:1025E00004E000F07BF8204600F079F825772068B9
:1025F0000169C943090716D4C168C943090712D440
:102600006FF008010161042020772068C06980070D
:10261000204602D0FFF7AEFF04E000F05FF820464E
:1026200000F05DF8257720680169C943C90617D411
:10263000C168C943C90613D46FF0100101610820B5
:1026400020772068C06910F4407F204602D0FFF751
:1026500091FF04E000F042F8204600F040F82577B2
:1026600020680169C943C90708D1C168C943C907BE
:1026700004D1891E0161204600F032F8206801690A
:10268000C943090609D4C168C943090605D46FF0D6
:10269000800101612046FFF7FCFE20680169C94303
:1026A000490609D4C168C943490605D46FF0400101
:1026B0000161204600F01EF820680169C9438906BF
:1026C0000BD4C168C943890607D46FF020010161AA
:1026D0002046BDE87040FFF7DDBE70BD7047704713
:1026E00000680349884201D1FFF728BB704700000A
:1026F00000000140704770B5040004D094F83D001C
:10270000002510B106E0012070BD84F83C50204641
:1027100000F022F8242084F83D002068C16821F4EC
:102720000051C160204600F04DFD2068016921F490
:10273000904101612068416921F02A0141612068CE
:10274000C16841F40051C1602564202084F83D0037
:1027500084F83E00002070BD10B586B004461421F8
:102760006846FDF7F8FD13492068884220D11248D9
:10277000016841F010010160006800F01000059050
:102780000D481438016841F0020101600068694693
:1027900000F002000590C02000900220019001206E
:1027A000029003200390072004900448FEF734FFB2
:1027B00006B010BD00100140443802400004024041
:1027C000FEE701684A69D24352050FD46FF4806274
:1027D0004A61002140F8301F202242738173026950
:1027E00042F004020261017301207047002070472B
:1027F0002DE9F84F0446006889460B9D016898460C
:10280000174641F4806101602068016841F48071DD
:10281000016000954FF0011B0022594620460A9B9B
:1028200000F0DEF84FF4007A40B120680068C0057F
:1028300001D5C4F840A00320BDE8F88F216809F055
:10284000FE0008612B46284920460A9A00F0FCF851
:10285000F0BB20684169806900902A4620460A99A9
:1028600000F070F940B1206C04283AD1206801686A
:1028700041F40071016034E0FEB2B8F1010F09D0FB
:102880002168380A08612A4620460A9900F05AF958
:102890000028E8D1206806612A4620460A9900F0FF
:1028A00051F90028DFD12068016841F4807101608E
:1028B00000950022594620460A9B00F091F8002816
:1028C000B3D1216809F0FF0040F00100086100E089
:1028D00007E02B46044920460A9A00F0B5F8002884
:1028E000AAD00120A8E70000020001002DE9F8436A
:1028F000044600680D46DDE90897016898461646CB
:1029000041F4807101604B4600224FF001112046D6
:10291000009700F065F848B120680068C00502D54E
:102920004FF4007020640320BDE8F883216805F0AF
:10293000FE0008613B464A461549204600F084F8EF
:1029400088B920684169806900903A464946204626
:1029500000F0F8F848B1206C042804D12068016820
:1029600041F4007101600120DEE7F5B2B8F1010F1A
:1029700009D02168300A08613A464946204600F0ED
:10298000E1F80028E7D1206805610020CCE70000CD
:102990000200010070B516460D4604460DE02046C3
:1029A000FFF70FFF08B1012070BD681C05D0FEF7CE
:1029B00033FF801BA84207D835B120684069C04367
:1029C0004007ECD4002070BD002044F8300F2021D7
:1029D0006173A073216941F0200121612073E2E756
:1029E0002DE9F0471E4690460D460446C1F30747C1
:1029F000DDF8209008E0701C06D0FEF70DFFA0EB7C
:102A00000900B0420FD876B12068012F18D0806934
:102A100025EA00000004000C14D000214145EAD052
:102A20000020BDE8F087002044F8300F20216173BA
:102A3000A073216941F02001216120730120F0E79A
:102A40004069E5E70121E9E72DE9F0479A4691461B
:102A50000E46044600254FF02008C1F3074725E045
:102A600020684069C043400514D42068016841F4DF
:102A70000071016021686FF480604861256384F80B
:102A80003D8084F83E50206C40F00400206484F8BF
:102A90003C501FE0B9F1FF3F08D0FEF7BDFEA0EBB0
:102AA0000A0149450CD8B9F1000F09D02068012F5F
:102AB00013D0806926EA00000004000C0BD0CFE799
:102AC00044F8305F84F80D80A573206940F0200041
:102AD000206125730120BDE8F0874069EAE72DE910
:102AE000F041002590460E460446202717E0406935
:102AF000C043C0060CD454F8301B6FF0100048617E
:102B000044F810596777A577206A2062257717E087
:102B1000FEF782FEA0EB0800B04208D83EB1206864
:102B20004169C9434906E2D40020BDE8F08144F878
:102B3000305F6773A573206940F020002061257322
:102B40000120F2E770B516460D4604460DE020461A
:102B5000FFF737FE08B1012070BD681C05D0FEF7F5
:102B60005BFE801BA84207D835B120684069C0438E
:102B70000006ECD4002070BD002044F8300F202166
:102B80006173A073216941F0200121612073E2E7A4
:102B9000012008F0B5F8FBE710B59CB01C221649DF
:102BA0006846FDF7B1FB0021684608F029FA134C8E
:102BB00011491C2220601C3107A8FDF7A5FB00214C
:102BC00007A808F01DFA0C4960601C2238310EA8D5
:102BD000FDF79AFB00210EA808F012FA0649A06042
:102BE0001C22543115A8FDF78FFB002115A808F011
:102BF00007FAE0601CB010BDB86601085400002060
:102C000010B58EB01C216846FDF7A5FB1C2107A856
:102C1000FDF7A1FB1B484FF02041102201601A492B
:102C20004160062181600021C160C0E90412816118
:102C3000C16113020162C0E909139302C0E90B13D9
:102C40004163816341640F203C230090CDE901037F
:102C50000DF10C0C112306918CE80D000924CDE92F
:102C600007400DF1280C0D9109948CE80D0007AA7E
:102C700069460448FFF7E0FB002801D0FDF76EFF2E
:102C80000EB010BD50040020040100A02DE9F04F4B
:102C900087B014216846FDF75EFB64480025016893
:102CA00041F010010160016801F010010591016817
:102CB00041F480710160016801F48071059101683F
:102CC00041F080010160016801F080010591016817
:102CD00041F004010160016801F0040105910168FF
:102CE00041F001010160016801F0010105910168F5
:102CF00041F040010160016801F040010591016867
:102D000041F008010160016801F0080105910168C6
:102D100041F0020101600068454F00F002004FF4ED
:102D200080780590012241463846FEF770FDDFF8B5
:102D300004A1002202215046FEF769FDDFF8F8B039
:102D400000224FF4A0715846FEF761FD4FF4007960
:102D5000012249465846FEF75AFD01220321374811
:102D6000FEF755FD1C20009035480124CDE90104F3
:102D700069463248FEF750FC01AA0326CDF80080D0
:102D800082E8700069463846FEF746FC0227CDE926
:102D90000074CDE9024669465046FEF73DFC4020EE
:102DA000CDE90004CDE9024669465846FEF734FCF9
:102DB0008020CDE90005694658460295FEF72CFCB7
:102DC00001AA1120CDF8008082E8510069465846DA
:102DD000FEF722FC01AACDF8009082E8B000694617
:102DE0005846FEF719FC01AA009682E8B000694631
:102DF0001248FEF711FC002206210820FFF724F8F4
:102E00000820FFF713F8002206210920FFF71CF81D
:102E10000920FFF70BF8002206210A20FFF714F81B
:102E20000A20FFF703F807B0BDE8F08F3038024002
:102E30000020024000180240001C02400010024026
:102E4000000021100D4810B50B4901600C4941608C
:102E500000214FF480428160C0E903124161816129
:102E6000C1610162FEF7DEFC002803D0BDE810401E
:102E7000FDF774BE10BD000000580040A004002003
:102E8000A0860100F0B5454C8DB00A20207060701E
:102E90000121A1701622E270251DFF222A706A709E
:102EA000AA7000272E1DEF700B2232707070B17067
:102EB000F170394638460EF061FA2068E17803BABD
:102EC0000A0603F47F4342EA032203BA00BA03F47A
:102ED0007F03084342EA1322A4F10C0142EA106086
:102EE00008602868E97803BA0A0603F47F4342EAD7
:102EF000032203BA00BA03F47F03084342EA132211
:102F0000A4F1080142EA106008603068F17803BA61
:102F10000A0603F47F4342EA032203BA03F47F0361
:102F200000BA42EA1322084342EA1060211F231F1D
:102F300008601B481B490097CDE901101A1F111F9B
:102F4000194807F05FFB184807F076FD164C94F817
:102F50002D004007204602D507F082FE01E007F071
:102F600071FD1249104807F0C1FD0A9701210AA816
:102F70000B9707F0CBFF09491C22103908601C3160
:102F8000C1E900400A4903A8FDF7BEF9034903A8B7
:102F90000C3108F035F80DB0F0BD00007C000020C9
:102FA0004D150108214D0008F4040020894E000849
:102FB000286701080C4810B50A4901604FF4E13157
:102FC0004160002181600C22C160C0E9041281616E
:102FD000C161FFF790FB002803D0BDE81040FDF76A
:102FE000BDBD10BD0010014010360020FEE7704747
:102FF00010B5502080F31188BFF34F8FBFF36F8F50
:1030000010F0F4F918B104494FF080500860002026
:1030100080F3118810BD000004ED00E030B593B0DE
:1030200030216846FDF797F914210CA8FDF793F9B4
:103030001A480025016841F080510160006800F0E5
:10304000805011901648016841F480410160006889
:10305000022400F4804011900120009000040190AF
:103060008001CDE90640082008904FF4A870CDE912
:10307000090404200B906846FFF728F80CA90F20DC
:1030800081E831004FF4A0500F90E002109005212C
:103090000CA8FEF70BFF13B030BD00004038024013
:1030A000007000400248016841F4700101607047FF
:1030B00088ED00E00148FFF75EBA000054360020BA
:1030C000F0B50268254C264D264E274F274B4FF072
:1030D000804CA04209D0604507D0A84205D0B0423C
:1030E00003D0B84201D0984204D122F0700E4A6851
:1030F00042EA0E02A0421BD0604519D0A84217D068
:10310000B04215D0B84213D0984211D0184DA84201
:103110000ED0184DA8420BD0174DA84208D0174D1D
:10312000A84205D0164DA84202D0164DA84203D1A0
:1031300022F44075CA682A434D6922F080022A436E
:1031400002608A68C2620A688262A04201D0984224
:1031500001D10969016301214161F0BD0000014015
:103160000004004000080040000C00400004014042
:103170000040014000440140004801400018004068
:10318000001C004000200040A82000F069FE06F06E
:10319000F1F8064806A18288084800F0B1F808480E
:1031A00000688047012007F0ABFDFBE7E00100204D
:1031B0004C43442049443A2530345800EE01002065
:1031C0000C00002070B5044600680169E26821F433
:1031D0004051114301612169A068E26908436169B6
:1031E000114308432168CA6849F20C639A430243B9
:1031F000CA6020684169A26921F4407111434161AC
:1032000031492068884202D03049884202D1FEF715
:103210001DFF01E0FEF70AFFE26900231921642582
:103220003226B2F5004F626828D0A0FB0101930F4F
:103230009200FDF725F80146B0FBF5F06FF018029B
:10324000504301EB800006EB0010B0FBF5F000F0FE
:10325000F002B1FBF5F002EB0012B1FBF5F06FF0FC
:103260001803584301EB800006EB0010B0FBF5F0AB
:1032700000F00F0021681044886070BDA0FB0101C0
:1032800092185B41FCF7FCFF0146B0FBF5F0020130
:10329000B1FBF5F06FF01803584301EB800006EB2B
:1032A000C000B0FBF5F000F0F80002EB4002B1FB0B
:1032B000F5F0584301EB800006EBC000B0FBF5F0E1
:1032C00000F00700D6E700000010014000140140A4
:1032D000FEE7FFF7D7FD012007F012FDFBE7000036
:1032E0000FB4054B10B503A9044A029800F0FEF88C
:1032F00010BC5DF814FB00003D4F0008DC0100200D
:103300000FB4084B10B504A902AA039800F0EEF818
:10331000044602A9002000F080FC204610BC5DF8A5
:1033200014FB00001B3C00080907090E002804DB01
:1033300000F1E02080F80014704700F00F0000F169
:10334000E02080F8141D704702E008C8121F08C171
:10335000002AFAD170477047002001E001C1121F16
:10336000002AFBD1704700002DE9FF5F82B00021E9
:10337000DDE90430020DDDF840B0034318D044F617
:103380001050A2F2FF3242431514119801281FD0A9
:10339000A5EB0B00401C5FEA000A4FF000064E4F01
:1033A000DFF83891B046504615D5CAF1000413E055
:1033B000119801244AA3012801D16FEA0B01029858
:1033C000119AC0E90031C0E9024206B0BDE8F09FA1
:1033D000CBF10000DFE704460021404A491842EBE8
:1033E0000450CDE9001012E0E00707D032463B461A
:1033F00040464946FCF7D5FF8046894632463B4663
:1034000010461946FCF7CDFF06460F466410002C07
:10341000EAD1DDE90401DDE90023BAF1000F06DAA3
:10342000FCF7BFFF42464B46FCF7BBFF05E0FDF74C
:103430002AF842464B46FDF726F804460E4600227F
:10344000284BFDF7DFF803D84FF0FF30014607E0C7
:103450000022254B20463146FDF77EF9FDF723FA81
:10346000102409E0002C0ADB0A220023FCF708FFE5
:10347000039B30321A55641E50EA0102F2D1641CDB
:10348000039AC4F111031444119A012A03D00122B2
:1034900008430DD10AE0084304D000204FF0110B7F
:1034A000119072E7A3EB0B056D1E0DE05B4504DD8B
:1034B0004FF0000205F1010504E003DA4FF00002CD
:1034C000A5F10105002AECD002981199C0E902315A
:1034D000C0E9004579E70000000014400000F03F1B
:1034E000300000000000F0430000E03F2DE9FF4FF6
:1034F00095B09B468946064600250FE2252877D1E0
:1035000000242746F84A0121059400E0044316F8F8
:10351000013F203B01FA03F01042F7D130782A280E
:1035200011D06FF02F033078A0F13002092A16D89D
:10353000059A44F0020402EB820203EB42021044BB
:10354000761C0590EFE759F8042B0592002A03DA60
:10355000504244F40054059044F00204761C307844
:103560002E2816D116F8010F44F004042A280DD095
:103570006FF02F023078A0F13003092B09D807EB48
:10358000870302EB4303C718761CF3E759F8047B63
:10359000761C30786C280FD006DC4C2817D06828B1
:1035A0000DD06A2814D104E0742810D07A280FD1E5
:1035B0000DE044F400140AE044F4801401E044F403
:1035C00040147278824202D104F58014761C761C75
:1035D000307866280BD013DC582877D009DC002817
:1035E00075D04528F6D04628F4D047281AD19DE159
:1035F00018E0632835D0642879D0652812D195E188
:10360000702873D008DC6728F1D069286FD06E2845
:103610000DD06F2806D1B5E073282CD0752875D051
:10362000782874D05A46179990476D1C75E1C4F3F9
:103630000250022809D003280DD0D9F80010042820
:103640000DD00D6009F1040967E1D9F80010EA17FF
:10365000C1E90052F6E7D9F800100D80F2E70D70CD
:10366000F0E719F8041B8DF8001000208DF8010018
:10367000EA46012003E059F804AB4FF0FF30610740
:103680004FF0000102D40DE008F101018846B94273
:103690000FDA8045F8DB1AF808100029F4D108E0A9
:1036A00008F1010188468142FADB1AF80810002966
:1036B000F6D105985B46A0EB080721463846179AD5
:1036C00000F094FA284400EB080507E04DE029E1FA
:1036D0000DE01AF8010B5A4617999047B8F1010806
:1036E000F7D25B4621463846179A13E142E00A2298
:1036F0000092C4F302524FF0000A022A08D059F88F
:1037000004CB032A4FEAEC710AD00DE029E02AE04D
:1037100009F1070121F00702F2E802C1914609E030
:103720000FFA8CFC4FEAEC71042A03D14FFA8CFC9F
:103730004FEAEC71002907DA0A460021DCF1000C9F
:1037400061EB02012D2202E0220504D52B228DF827
:103750000420012203E0E20701D02022F7E790468F
:1037600059E00A2102E010220DE010214FF0000A7A
:1037700000910BE010224FF0000A44F004040827E7
:10378000009203E008224FF0000A0092C4F30252B4
:10379000022A05D059F804CB0021032A08D009E0F9
:1037A00009F1070121F00702F2E802C1914605E0A4
:1037B0001FFA8CFC042A01D10CF0FF0C4FF000081A
:1037C000220728D5702806D0009B83F0100353EA07
:1037D0000A0305D00EE040228DF80420012208E003
:1037E0005CEA010206D030228DF804208DF8050035
:1037F00002229046009B83F0080353EA0A030AD191
:103800005CEA010201D1620705D530228DF804205F
:103810004FF001087F1E582804D034A003900EA852
:1038200002900DE036A0F9E753466046009AFCF797
:1038300027FD84460398825C0298401E0290027025
:103840005CEA0100F0D1029806A9081A00F1200AEA
:10385000600702D524F4803400E00127574502DDDB
:10386000A7EB0A0000E0002000EB0A010090059899
:103870004144401A0590E00306D45B462146179A5E
:10388000059800F0B3F90544002706E001A85A4660
:10389000C05D179990476D1C7F1C4745F6DBE00320
:1038A0000CD55B462146179A059800F09FF9054410
:1038B00004E030205A46179990476D1C0099481E25
:1038C00000900029F5DC08E0029802995A46007839
:1038D000491C0291179990476D1CBAF10001AAF199
:1038E000010AF1DC65E100000928010030313233C2
:1038F000343536373839616263646566000000002C
:103900003031323334353637383941424344454615
:103910000000000000F058F90544761C30780028BB
:103920007FF4ECAD19B02846BDE8F08F620700D4F3
:10393000062709F1070222F0070CFCE80223E14602
:1039400003F000485FEA080C02D00FF2702C0DE083
:103950005FEA045C02D50FF2682C07E05FEAC47CE2
:1039600002D00FF2602C01E0AFF2700C4FF0FF3884
:1039700023F00043CDF850C065280CD006DC452864
:1039800009D046281DD047283DD13DE0662818D0F3
:1039900067287ED138E00021112F01DB112000E0E3
:1039A000781CCDE9000106A90EA8FFF7DDFCDDE9D2
:1039B0000F010E9A03910021009207F1010A049170
:1039C0004DE04FF000400097CDE9011006A90EA888
:1039D000FFF7CAFCDDE90F0203920E9B119900224A
:1039E000DDF80CA00093049211B9791C00EB010AD8
:1039F000B7EB0A0004D4C0F1FF3007F1010A0490CC
:103A0000AAEB0700019044E0012F00DA0127002112
:103A1000112F01DD112000E03846CDE9000106A993
:103A20000EA8FFF7A1FCDDE90F010E9A039100211A
:103A300004910092BA4621070CD40399514500DA4B
:103A40008A46BAF1010F05DD009AAAF10101515C25
:103A5000302908D0B84202DA10F1040F06DA012149
:103A6000CDE9011015E0AAF10101E9E7002805DC24
:103A7000049901440491AAEB000102E0411C514564
:103A800000DD8A460499401A401C01904FF0004026
:103A90000290200704D40198504501DBCDF8048042
:103AA00000208DF84F0002980DF14F07B0F1004F44
:103AB00025D02B200E9002984FF0020800280CDA37
:103AC000404202902D200E9007E00A210298FCF758
:103AD000B1FD3031029007F8011DB8F10001A8F1E5
:103AE0000108F2DC02980028EFD1791E0E980870C8
:103AF000307800F0200040F0450007F8020D12A8D1
:103B0000C01B00F107081498007800B1012000EBF9
:103B10000A01019801EBE07105984144401A401EEA
:103B20000590E00306D45B462146179A059800F0FD
:103B30005DF805441498007818B15A4617999047D3
:103B40006D1CE00324D55B462146179A059800F0CA
:103B50004DF805441CE00498002807DBDDE903016B
:103B6000884203DD0098405C179901E017993020E6
:103B70005A469047049805F10105401C04900198AD
:103B8000401E019004D12E205A46179990476D1C73
:103B9000BAF10001AAF1010ADDDC05E017F8010B1A
:103BA0005A46179990476D1CB8F10001A8F1010819
:103BB000F4DC5B462146179A0598ABE62D00000021
:103BC0002B000000200000002DE9F04104460025F4
:103BD0001E461746880404D405E039462020B04725
:103BE0006D1C641EF9D52846BDE8F0812DE9F04131
:103BF000044600251E469046C80301D5302700E044
:103C00002027880404D505E041463846B0476D1C9E
:103C1000641EF9D52846BDE8F0810A68531C0B6084
:103C20001070704770B5124D4FF480740022214619
:103C30002846FDF7ECFD022000F01EF9012240218C
:103C40002846FDF7E4FD022000F016F9002240218D
:103C50002846FDF7DCFD022000F00EF90122214686
:103C60002846FDF7D4FDBDE87040022000F004B9FD
:103C7000001C024000F0A2B810B50D4C0122110248
:103C80002046FDF7C4FD022000F0F6F80122402195
:103C90002046FDF7BCFD022000F0EEF80022402196
:103CA0002046FDF7B4FDBDE81040022000F0E4B866
:103CB000001C02402DE9F0410024154E0746254620
:103CC0004FF480786006040E012240213046FDF753
:103CD0009EFD022000F0D0F841463046FDF792FDEF
:103CE00008B1641CE4B2002240213046FDF78FFD8C
:103CF000022000F0C1F86D1CEDB2082DE2D327B10F
:103D0000FFF790FF2046BDE8F081FFF7B5FFF9E728
:103D1000001C02402DE9F041154E054600244FF4E9
:103D20008077280601D5012200E00022394630467E
:103D3000FDF76DFD022000F09FF801224021304682
:103D4000FDF765FD022000F097F800224021304683
:103D5000FDF75DFD6806641C050EE4B2082CE0D397
:103D600039463046BDE8F0410122FDF750BD000064
:103D7000001C024070B501220F4D14022146284656
:103D8000FDF745FD012240212846FDF740FD0220B8
:103D900000F072F8002221462846FDF738FD022087
:103DA00000F06AF8002240212846FDF730FDBDE80A
:103DB0007040022000F060B8001C024070B50E4D4B
:103DC0004FF48074002221462846FDF720FD022092
:103DD00000F052F8012240212846FDF718FD02208C
:103DE00000F04AF8012221462846FDF710FDBDE803
:103DF0007040022000F040B8001C02402DE9F04164
:103E00000122164E00241702254639463046FDF79A
:103E1000FEFC022000F030F8012240213046FDF780
:103E2000F6FC07E0641CE4B2FA2C03D9FFF7C6FFE6
:103E3000012508E0022000F01FF839463046FDF762
:103E4000E1FC0028EED1002240213046FDF7DFFCE6
:103E5000022000F011F82846BDE8F081001C024065
:103E60000149086070470000040000204FF47A7197
:103E7000484300F001B8000070B54FF0E024002284
:103E800065690949A36909684843A1699942FCD059
:103E900002D2A3EB010302E0A5EB010633441A446E
:103EA0000B468242F1D370BD0400002070B5054678
:103EB0000C46880706D009A34FF4B67213A11BA0C5
:103EC000FFF70EFA08F03EFBA96809682160A968AF
:103ED0000C60BDE8704008F041BB00002E2E2F4D55
:103EE0006964646C6577617265732F546869726484
:103EF0005F50617274792F4C7749502F7372632F22
:103F0000636F72652F6D656D702E63006D656D70EA
:103F10005F667265653A206D656D2070726F7065C1
:103F2000726C7920616C69676E65640041737365BA
:103F30007274696F6E2022257322206661696C6538
:103F400064206174206C696E6520256420696E2090
:103F500025730A0070B5044608F0F4FA0546A06817
:103F60000468002C0FD021680160A00706D008A3C8
:103F70004FF48C7212A11BA0FFF7B2F9284608F08B
:103F8000EDFA204670BD284608F0E8FA002070BD22
:103F90002E2E2F4D6964646C6577617265732F54A2
:103FA000686972645F50617274792F4C7749502F41
:103FB0007372632F636F72652F6D656D702E630072
:103FC0006D656D705F6D616C6C6F633A206D656DD2
:103FD000702070726F7065726C7920616C69676EA9
:103FE00065640000417373657274696F6E202225E9
:103FF0007322206661696C6564206174206C696E4F
:104000006520256420696E2025730A0070B5094D6E
:104010000646002404EB440005EBC000017D29B1F5
:104020008068B04202D1204600F036F9641C0A2CA8
:10403000F0DB70BD648F00202DE9F74F84B04FF0A6
:104040000A0B00240646DA465F46D94602940194DC
:10405000CDF80040514904EB440001EBC008039047
:1040600098F814500A2F1DD0002D2AD0012D08D009
:10407000022D06D24AA340F2231257A166A0FFF7F1
:104080002FF99EB13168D8F8040081420ED106980C
:1040900020B1D8F808100698814207D1204607B011
:1040A000BDE8F08F002DE1D127460AE0012D16D0A2
:1040B000022D06D3B8F812000099884201D3A24617
:1040C0000090641C24B20A2CC4DB059881074FF0D1
:1040D000FF30E4D40A2F16D018DA3C463EE02F49D0
:1040E000039851F830000028B8F8120005D0029962
:1040F0008842E6D3A1460290E3E701998842E0D3E3
:10410000A3460190DDE70599C907C8D05146BAF129
:104110000A0F0EDA0C46214801EB440150F8310039
:1041200080B11FA340F26D1245A13BA0FFF7D8F864
:1041300008E05946BBF10A0F03DB4946B9F10A0F03
:10414000ADDA0C460A2C06DB15A340F27F1242A121
:1041500031A0FFF7C5F8204600F09EF80A2C06DBD8
:104160000FA340F283123CA12BA0FFF7B9F80B4834
:1041700004EB440100EBC105287D30B108A34FF4E6
:10418000C2723AA124A0FFF7ABF80EB130686860A4
:10419000002068820698A86080E70000648F0020F5
:1041A0002E2E2F4D6964646C6577617265732F5490
:1041B000686972645F50617274792F4C7749502F2F
:1041C0007372632F636F72652F697076342F657415
:1041D000686172702E6300007374617465203D3DE8
:1041E000204554484152505F53544154455F504517
:1041F0004E44494E47207C7C207374617465203E98
:104200003D204554484152505F53544154455F53FB
:104210005441424C45000000417373657274696FEC
:104220006E2022257322206661696C6564206174AA
:10423000206C696E6520256420696E2025730A0054
:104240006172705F7461626C655B695D2E71203DA7
:104250003D204E554C4C000069203C204152505F9F
:104260005441424C455F53495A4500006172705FAA
:104270007461626C655B695D2E7374617465203D69
:104280003D204554484152505F53544154455F4589
:104290004D5054590000000070B5074C00EB40052C
:1042A000002654F8350018B107F046FB44F8356095
:1042B00004EBC500067570BD648F00202DE9F04346
:1042C00085B00D00074609D07C684FF480782088BF
:1042D000404539D12079062836D109E01CA340F2A7
:1042E0008A2229A12CA0FEF7FBFF05B0BDE8F083D0
:1042F0006079042828D16088082825D1D4F80E00D8
:104300000490A169686820B1814202D10126334638
:1043100001E00026022304F10802914604A9284680
:1043200000F0A2FBE08840450ED16EB1022204AB42
:10433000CDE90232291DCDE9001905F12603194600
:104340004A46284600F090FA384607F0F5FACCE7DE
:104350002E2E2F4D6964646C6577617265732F54DE
:10436000686972645F50617274792F4C7749502F7D
:104370007372632F636F72652F697076342F657463
:10438000686172702E6300006E6574696620213D5D
:10439000204E554C4C000000417373657274696F78
:1043A0006E2022257322206661696C656420617429
:1043B000206C696E6520256420696E2025730A00D3
:1043C000FEB515460E46040006D143A340F21E3248
:1043D0004FA153A0FEF784FF36B93FA340F21F322E
:1043E00059A14FA0FEF77CFF35B93BA34FF44872AB
:1043F00058A14BA0FEF774FF2146286801F09CFAF3
:1044000008B1584B3FE02868C0F303110E2925D0AE
:10441000A168636800EA01020B409A4208D080B2AA
:10442000A0F57E41A93903D0E068B0B304F10C05D2
:104430004D4B4E481A7802EB420100EBC1010F7D53
:10444000022F2ED38F68A7422BD12F6849688F4245
:1044500027D13146204600F08BF8FEBD01208DF8B3
:10446000040000208DF805005E208DF806006878B5
:1044700001AB00F07F008DF80700A8788DF80800E8
:10448000E8788DF809004FF40060009004F12602EE
:104490003146204600F0C8FBFEBDFFE76FF0030089
:1044A000FAE7002202EB420100EBC1010F7D022F6F
:1044B00008D38F68A74205D12F6849688F4201D180
:1044C0001A70C6E7521CD2B20A2AEBD332462946EA
:1044D000204600F0D5F8DFE72E2E2F4D6964646C7E
:1044E0006577617265732F54686972645F50617299
:1044F00074792F4C7749502F7372632F636F7265F5
:104500002F697076342F6574686172702E630000B5
:104510006E6574696620213D204E554C4C000000AC
:10452000417373657274696F6E2022257322206651
:1045300061696C6564206174206C696E6520256416
:1045400020696E2025730A007120213D204E554CB4
:104550004C00000069706164647220213D204E555A
:104560004C4C00007867010860010020648F002037
:104570002DE9F8430646154688461C4802EB4501DE
:1045800000EBC104207D022806D219A340F2EE22DE
:1045900025A131A0FEF7A4FE144A05EB4501207DBC
:1045A00002EBC1050C35022813D1608A0327B0F550
:1045B0008E7F04D9211D304600F010FA07E0B0F5D7
:1045C000877F06D32A46211D304600F00DFA00B938
:1045D00027754FF4006000902B4606F126024146F5
:1045E000304600F021FBBDE8F8830000648F002016
:1045F0002E2E2F4D6964646C6577617265732F543C
:10460000686972645F50617274792F4C7749502FDA
:104610007372632F636F72652F697076342F6574C0
:10462000686172702E6300006172705F7461626C09
:10463000655B6172705F6964785D2E737461746527
:10464000203E3D204554484152505F53544154450B
:104650005F535441424C4500417373657274696FF6
:104660006E2022257322206661696C656420617466
:10467000206C696E6520256420696E2025730A0010
:104680002DE9FC5F8246263001900E4608681446EC
:104690004FF0FF374FF0000B514601F04DF980B954
:1046A0003068C0F303110E290BD056B148B1524601
:1046B00001213046FFF7C0FC050005D540B2BDE83A
:1046C000FC9F6FF00F00FAE77F2D06D337A340F26F
:1046D000C13244A147A0FEF703FE05F0FF094F4990
:1046E00009EB490801EBC805287D00280ED00128F8
:1046F00008D0022806D22DA340F2CD3248A13DA019
:10470000FEF7EEFDBBF1000F06D104E00120287595
:10471000C5F808A000E034B93146504600F05EF913
:104720000746002CCBD0287D3C4E02280ED34649AC
:104730004FF4006005F10C0381F8009000902146D1
:104740005046019A00F070FA07462DE001282BD15F
:10475000254640F2F13768892989884207D12868BF
:1047600028B112A33A4639A122A0FEF7B9FD287B51
:10477000400607D522464FF420710E2006F012FFA6
:10478000044605E02D68002DE5D1204607F052FAD9
:1047900044B156F8380008B107F0CEF846F8384072
:1047A000002701E04FF0FF37384688E72E2E2F4DC7
:1047B0006964646C6577617265732F5468697264AB
:1047C0005F50617274792F4C7749502F7372632F49
:1047D000636F72652F697076342F657468617270CB
:1047E0002E63000074797065206F766572666C6F59
:1047F00077000000417373657274696F6E20222523
:104800007322206661696C6564206174206C696E36
:104810006520256420696E2025730A00648F0020BE
:104820006172705F7461626C655B695D2E73746147
:104830007465203D3D2050454E44494E47206F72DF
:1048400020535441424C4500600100206E6F20709F
:1048500061636B65742071756575657320616C6C3F
:104860006F776564210000002DE9FF4F81B0984605
:10487000DDE90FA9DDF838B006004FF0000706D1DA
:104880002CA340F2574239A13CA0FEF729FD4FF47A
:1048900020721C210E2006F041FC050046D06889DC
:1048A0001C2806D223A340F262423EA133A0FEF7A9
:1048B00017FD6C68119805F04DFAE08096F82C0011
:1048C000062806D01BA340F2694243492BA0FEF7FD
:1048D00007FDD8F80010A160B8F80400A081DAF84C
:1048E0000010C4F81210BAF80400E082DBF80000EF
:1048F000C4F80E00D9F80000A0614FF48070208049
:1049000008206080062020710420607140F60600B7
:10491000DDE9022300902946304600F085F928465B
:1049200007F00AF8384605B0BDE8F08F4FF0FF30C9
:10493000F9E700002E2E2F4D6964646C6577617273
:1049400065732F54686972645F50617274792F4C7B
:104950007749502F7372632F636F72652F6970767A
:10496000342F6574686172702E6300006E6574691F
:104970006620213D204E554C4C000000417373656C
:104980007274696F6E2022257322206661696C65DE
:1049900064206174206C696E6520256420696E2036
:1049A00025730A00636865636B2074686174206610
:1049B0006972737420706275662063616E20686F1F
:1049C0006C642073747275637420657468617270AE
:1049D0005F68647200000000546A0108014A00F038
:1049E00003B80000786701087FB5064D031D012458
:1049F000CDE90035CDE9021422331946FFF734FF23
:104A000004B070BD7E67010870B5164D002400BF6C
:104A100004EB440005EBC002117DF1B1508A401C4B
:104A200080B25082B0F5967F0AD2012906D00329C0
:104A30000AD004290AD001290BD00EE0052808D39A
:104A40002046FFF729FC08E0042000E00220107552
:104A500003E0111D9068FFF7C1FF641C0A2CD7DB2F
:104A600070BD0000648F0020F8B5044690F82C005B
:104A70001F4616460D46062806D020A340F2A9126E
:104A80002CA135A0FEF72CFC9DB1286888B12146E9
:104A900000F052FF68B92878C0F303100E2808D040
:104AA000224639462846FFF7C7FA002804DA40B202
:104AB000F8BD6FF00F00F8BD00EB40013048022355
:104AC00000EBC102137594603368D360B38813821E
:104AD0000023538250F8315075B140F831304FF413
:104AE00000600090334604F126022946204600F07B
:104AF0009BF8284606F020FF0020F8BD2E2E2F4DF3
:104B00006964646C6577617265732F546869726457
:104B10005F50617274792F4C7749502F7372632FF5
:104B2000636F72652F697076342F65746861727077
:104B30002E6300006E657469662D3E68776164645B
:104B4000725F6C656E203D3D204554485F4857417B
:104B50004444525F4C454E00417373657274696FF3
:104B60006E2022257322206661696C656420617461
:104B7000206C696E6520256420696E2025730A000B
:104B8000648F00202DE9F041044640890E270D4630
:104B90000E283CD9E07B18B995F83000401CE07332
:104BA000606801788689CA0714D0012905D00622D9
:104BB0001C49FBF7E9FB48B10CE0417851B980781A
:104BC0005E2807D1607B40F0100002E0607B40F07F
:104BD00008006073082E03D0B6F5C16F17D10DE041
:104BE00095F82D00000712D53946204607F070F8D9
:104BF00068B92946204600F0E7FF10E095F82D003F
:104C0000000704D53946204607F062F818B120465F
:104C100006F092FE03E029462046FFF74FFB0020F6
:104C2000BDE8F081786701082DE9F04104461F4690
:104C300090460E46069805F08DF805460E21304642
:104C400006F008FA18B16FF00100BDE8F081706855
:104C5000858139680160B9888180D8F80020C0F862
:104C60000620B8F80410418194F82C00062806D0DC
:104C700006A34FF4997213A11FA0FEF731FB314632
:104C80002046A269BDE8F041104700002E2E2F4DAE
:104C90006964646C6577617265732F5468697264C6
:104CA0005F50617274792F4C7749502F7372632F64
:104CB0006E657469662F65746865726E65742E63BF
:104CC000000000006E657469662D3E68776164645B
:104CD000725F6C656E206D7573742062652036207E
:104CE000666F722065746865726E65745F6F757447
:104CF0007075742100000000417373657274696FF0
:104D00006E2022257322206661696C6564206174BF
:104D1000206C696E6520256420696E2025730A0069
:104D200010B5040006D10BA340F223220EA112A05D
:104D3000FEF7D6FA732084F82E00742084F82F0032
:104D4000174860611748A061204604F09FFE0020CC
:104D500010BD00002E2E2F5372632F65746865728C
:104D60006E657469662E63006E6574696620213D08
:104D7000204E554C4C000000417373657274696F8E
:104D80006E2022257322206661696C65642061743F
:104D9000206C696E6520256420696E2025730A00E9
:104DA000C14300086D9C00080B4E04464FF0FF37CE
:104DB0003946306806F0F2F80028F9D1204604F0B0
:104DC000F5FE0500F4D02269214690470028F5D071
:104DD000284606F0B1FDF1E79000002010B504462A
:104DE00090F82D0040070ED508A0FEF779FA94F848
:104DF0002D00C00709D1204605F032FF08A0BDE80C
:104E00001040FEF76DBA0AA0F9E710BD6E6574692F
:104E100066206C696E6B2069732075700A00000053
:104E20006E657469662069732075700A0000000061
:104E30006E65746966206C696E6B20697320646F9F
:104E4000776E0A0008B50446002000906A460121EA
:104E50000C48FCF7F5F9009800F004000090216878
:104E600091F82D20520704D438B1084605F098FE79
:104E700003E010B9084605F03DFEC82005F040FFEC
:104E8000E4E70000C83500202DE9FC410025064676
:104E90000195009590F82D00400745D5264C606897
:104EA00078B34FF4805200212046FCF71BFBFCF73F
:104EB000B3FC4FF47A7701906A4601211E48FCF753
:104EC000BFF9FCF7A9FC0199401AB8421AD800981A
:104ED0008006F1D56A4611211748FCF7B1F9009810
:104EE000810403D54FF40061E16000E0E56044F225
:104EF0001001084201D0A5600EE04FF48040A06090
:104F00000AE0FFE7E068A168C00840EA510082B209
:104F100000210948FCF7E6FA00210748FBF794FE58
:104F20000548FCF7D5F902E00348FCF713FA3046D0
:104F3000FFF754FFBDE8FC81C835002003490A682B
:104F40005206FCD5C2B24A60704700000010014012
:104F5000F0B53E4887B00025016841F0400101608E
:104F6000016801F040010691016841F08001016093
:104F70000068012400F0800006900220CDE90104C1
:104F80000326334FCDE9034601A93846FCF744FB1D
:104F90008020CDE90105CDE9034601A92D48FCF7A4
:104FA0003BFB2DA0FEF79CF9FEF764FE2EA0FEF75A
:104FB00097F9002202213846FCF729FC1420FEF75D
:104FC00055FF012202213846FCF721FC3220FEF772
:104FD0004DFF8DF8005001226946002000F024F9B1
:104FE00001226946A42000F01FF916208DF8000068
:104FF00001226946802000F017F90C208DF800008E
:1050000001226946882000F00FF902226946A1209A
:1050100000F03AF89DF80010302903D19DF8010006
:1050200003280AD09DF80100012806D0022804D0E8
:1050300001B910B1012007B0F0BDC0B200EB0121F1
:105040000EA0FEF74DF90020F5E7000030380240D1
:1050500000180240001C024063745F6969635F6965
:105060006E6974210A00000063745F6969635F6997
:105070006E697420646F776E210A000043545020DB
:1050800049443A25780D0A002DE9F04115460E46AF
:105090000446FEF76FFE7020FEF73CFEFEF7AEFE04
:1050A000E0B2FEF737FEFEF7A9FEFEF763FE7120C1
:1050B000FEF730FEFEF7A2FE00246F1E09E0BC42A0
:1050C00001D0012000E00020FEF7F4FD3055641C03
:1050D000E4B2AC42F3D3BDE8F041FEF76FBE00008E
:1050E0002DE9FC5F00274C4E8DF804704FF00A0B41
:1050F0003078DFF82881401CC0B2B0FBFBF20BFB1C
:1051000012013C46B94630704FF6FF7A09B10A28C1
:1051100066D2012201A90220FFF7B6FF9DF8040024
:1051200001075DD000F00F01062959D20AFA01F0FB
:10513000C04340F44040A8F8340045460420FEF740
:1051400095FE4FF00109A98E09FA04F001423AD008
:1051500033480422694630F81400FFF795FF95F8AC
:1051600044009DF80010C0079DF8010001F00F01F8
:105170000ED000EB012105EB440001849DF80220D4
:105180009DF8031002F00F0201EB0221818110E073
:1051900000EB012023490988091A05EB44008181AD
:1051A0009DF802209DF8031002F00F0201EB02218E
:1051B00001849DF800000821B1EB101F03D005EB1E
:1051C000440007848781641CE4B2052CBBD3A88902
:1051D0004FF0010918B9288C08B98DF804703770A0
:1051E0009DF80400C0060ED1B8F83400010402D5C1
:1051F00020F4004005E0A8F80CA0A8F820A000F4D6
:105200006040A8F834003078F02801D986F800B062
:105210004846BDE8FC9F0000080000200C0000206C
:1052200094660108E00100202DE9F04116460F4682
:1052300004460025FEF79EFD7020FEF76BFDFEF78D
:10524000DDFDE0B2FEF766FDFEF7D8FD002408E0C4
:10525000385DFEF75FFDFEF7D1FD050003D1641C4C
:10526000E4B2B442F4D3FEF7A9FD2846BDE8F081CC
:1052700030B587B0FEF7FEFC334C002202212046F9
:10528000FCF7C5FA0A20FEF7F1FD012202212046B3
:10529000FCF7BDFA0A20FEF7E9FD80200024CDE9E5
:1052A00002040320CDE9044002A92848FCF7B4F920
:1052B0006420FEF7DBFD0422694648F2401000F04E
:1052C00065F88DF8044022A16846FBF74FF8C0B19D
:1052D00020A16846FBF74AF898B120A16846FBF781
:1052E00045F870B11FA16846FBF740F848B1694620
:1052F0001EA0FDF7F5FF20A0FDF7F2FF012007B08B
:1053000030BD694619A0FDF7EBFF16A16846FBF713
:105310002DF810B91C490A20087002208DF80000F1
:1053200048F2400501226946284600F051F90A205A
:10533000FEF79CFD8DF8004001226946284600F0EA
:1053400047F90020DBE7000000180240001C024083
:10535000393131003931343700000000313135380E
:105360000000000039323731000000004354502063
:1053700049443A25730D0A00696E697420666169B3
:105380006C6564210A000000090000202DE9F0414D
:1053900015460E460446FEF7EDFC2820FEF7BAFC43
:1053A000FEF72CFD200AFEF7B5FCFEF727FDE0B264
:1053B000FEF7B0FCFEF722FDFEF7DCFC2920FEF72D
:1053C000A9FCFEF71BFD00246F1E09E0BC4201D0C2
:1053D000012000E00020FEF76DFC3055641CE4B2B3
:1053E000AC42F3D3BDE8F041FEF7E8BC2DE9F14F44
:1053F00082B00025724C8DF804504FF00A0A607894
:10540000DFF8C081401CC0B2B0FBFAF20AFB120107
:105410002E4660704FF6FF7909B10A287DD248F216
:105420004E17012202A93846FFF7B0FF9DF8080089
:1054300001060BD5217800F00F00884206D88DF8C0
:105440000450012201A9384600F0C2F89DF8080076
:10545000010762D0227800F00F0090425DD809FA6F
:1054600000F1C943B8F8347041F44041A8F8341051
:1054700008EB4201B8F80C304B81B8F82020CA8301
:105480008DF80450DFF840B150E0B8F83400012244
:105490008A404646104244D04C48042230F811005D
:1054A0006946FFF773FFBBF80410A1F5AA42103A52
:1054B0000CD0A1F51842063A08D0A1F5EE42963A72
:1054C00004D096F84410C90717D103E096F84410A9
:1054D000C90712D09DF802109DF80320BBF8000008
:1054E00001EB0221411A9DF8040006EB4000818186
:1054F0009DF800109DF801200EE09DF800009DF839
:10550000011000EB01219DF8040006EB40008181B1
:105510009DF802109DF8032000E025E001EB022138
:1055200001849DF80400401C8DF804009DF80410CF
:1055300020788142A9D3B8F80C20BBF800300126AE
:1055400040469A4204D8028CBBF802108A420AD91B
:105550009DF8081001F00F0101290CD9C189818142
:10556000418CA8F8201065709DF8080000F08F00AD
:1055700080280DD01CE0217800EB41014A8982810E
:10558000C98B018480218DF80810A8F83470EBE7EE
:10559000B8F8341040460A0402D521F4004105E071
:1055A000A0F80C90A0F8209001F46041A8F8341005
:1055B0006078F02801D984F801A03046BDE8FE8F5C
:1055C000090000200C000020E00100209E66010878
:1055D0002DE9F04116460F4604460025FEF7CAFBAA
:1055E0002820FEF797FBFEF709FC200AFEF792FB46
:1055F000FEF704FCE0B2FEF78DFBFEF7FFFB002494
:1056000008E0385DFEF786FBFEF7F8FB050003D1E6
:10561000641CE4B2B442F4D3FEF7D0FB2846BDE8E4
:10562000F0810A46032100F0F5B800002DE9FE4F95
:105630008A4644490446D1F8088098F800000007DB
:10564000850E142D79D36089042876D3606800789C
:10565000002872D0082870D1486901F11407C0F3FE
:1056600003120E2A69D08946096800F065F90028FE
:1056700063D12089082860D305F10E010E4620462B
:1056800005F0E8FC002830D02089411989B2884211
:1056900053D84FF420720E2005F040FD06004CD088
:1056A000718905F10800814216D32A464146706887
:1056B000FAF72AFE2946304606F00AFB002806D0F3
:1056C00021A3B6222EA13CA0FDF70AFE04E021464C
:1056D000304605F0B5FF18B1304606F02DF92CE044
:1056E000204606F029F934460CE03146204606F003
:1056F000EFFA002806D014A3C72239A12EA0FDF787
:10570000EFFD1AE029462046666805F0A3FCA0B923
:1057100060683968FF22C160D9F81010016100216A
:10572000317071800272418101228DE806040A46BF
:10573000FF233946204600F017FB2046BDE8FE4F08
:1057400006F0FAB89C3600202E2E2F4D6964646C4A
:105750006577617265732F54686972645F50617216
:1057600074792F4C7749502F7372632F636F726572
:105770002F697076342F69636D702E63000000000E
:1057800069636D705F696E7075743A206D6F7669CC
:105790006E6720722D3E7061796C6F616420746F4A
:1057A0002069636D70206865616465722066616957
:1057B0006C65640A00000000417373657274696F60
:1057C0006E2022257322206661696C6564206174F5
:1057D000206C696E6520256420696E2025730A009F
:1057E00069636D705F696E7075743A207265737469
:1057F0006F72696E67206F726967696E616C207085
:105800002D3E7061796C6F6164206661696C6564BE
:105810000A0000002DE9FF479146884606464FF4EE
:1058200020722421222005F079FC050031D06889FE
:10583000242806D218A34FF4B47225A12FA0FDF797
:105840004FFD6C6877681C2284F8008084F8019012
:105850004FF00008A4F80480A4F806806868716816
:105860000830FAF751FDF868039003A800F08CFCAB
:1058700060B1A4F802800122CDF80080CDE90120BA
:10588000FF2303AA0021284600F06EFA284606F0FE
:1058900053F8BDE8FF8700002E2E2F4D6964646C1D
:1058A0006577617265732F54686972645F506172C5
:1058B00074792F4C7749502F7372632F636F726521
:1058C0002F697076342F69636D702E6300000000BD
:1058D000636865636B2074686174206669727374B1
:1058E00020706275662063616E20686F6C64206949
:1058F000636D70206D6573736167650041737365D7
:105900007274696F6E2022257322206661696C654E
:1059100064206174206C696E6520256420696E20A6
:1059200025730A000A460B21FFF774BFEFF30580C9
:10593000002800D001207047421C12D088B191F895
:105940002D2092070BD54B68834208D0896800EA66
:1059500001020B409A4202D10143491C01D00020B0
:1059600070470120704700002DE9F74F88B00446CA
:10597000099800251426808CAF1F1438C11700EB3E
:105980005170C0F3CF00039060680690017801F079
:105990000F01052903D038460BB0BDE8F08F6189AF
:1059A000142907D25BA34FF43F7269A16FA0FDF7E2
:1059B00097FCF0E7C08804F0CDF9C0F30C0100F4C7
:1059C000005002910790208914381FFA80F88EE069
:1059D00003984FF6FF7101EAC0004146404500D9E7
:1059E000084604904FF4207214210E2005F096FB17
:1059F0005FEA000A7ED0BAF80A00142806D245A34E
:105A00004FF4497263A159A0FDF76AFC1422DAF839
:105A100004000699FAF778FCDAF804000590049F70
:105A200035E06089811B8DB2B04206D239A340F2C5
:105A30002D3260A14DA0FDF753FCAF4200D23D4690
:105A40001DB3052004F08CFD5FEA000957D06068A3
:105A50004B463044CDE9000541222946002005F09F
:105A6000E3FC5FEA000B50D0204606F0E3F855490E
:105A7000C9E904145946504605F0F2FC781B0704A6
:105A80003F0C06D000262468CBE724680026002FB0
:105A9000C7D1701986B20998808C14384045029895
:105AA000C0F30C0001DB079909B140F4005004F089
:105AB00051F90599C8800498143080B204F04AF96D
:105AC00005994880059800214181099851460A9A14
:105AD00043699847504605F02FFF0499A8EB010051
