:020000040800F2
:10000000F00400209D010008F311000821100008F1
:10001000F111000895040008A11300080000000079
:10002000000000000000000000000000F7110008C0
:100030009704000800000000F5110008F9110008FD
:10004000B7010008B7010008B7010008B7010008B0
:10005000B7010008B7010008B7010008B7010008A0
:10006000990400089F040008A5040008B7010008CF
:10007000B7010008B7010008B7010008B701000880
:10008000B7010008B7010008B7010008B701000870
:10009000B7010008B7010008B7010008B701000860
:1000A000B7010008B7010008B7010008B701000850
:1000B000B7010008B7010008B7010008B701000840
:1000C000B7010008B7010008B7010008B701000830
:1000D000B7010008B7010008B7010008B701000820
:1000E000B7010008B7010008B7010008B701000810
:1000F000B7010008B7010008B7010008B701000800
:10010000B7010008B7010008B7010008B7010008EF
:10011000B7010008B7010008B7010008B7010008DF
:10012000B7010008B7010008B7010008B7010008CF
:10013000B7010008B7010008B7010008B7010008BF
:10014000B7010008B7010008B7010008B7010008AF
:10015000B7010008B7010008B7010008B70100089F
:10016000B7010008B7010008B7010008B70100088F
:10017000B7010008B7010008B7010008000000003F
:10018000B7010008B7010008DFF80CD000F070F9E3
:100190000048004785490008F004002006488047D1
:1001A00006480047FEE7FEE7FEE7FEE7FEE7FEE75C
:1001B000FEE7FEE7FEE7FEE785120008890100087A
:1001C0002DE9F05F0546002092469B46884606468C
:1001D000814640241BE0284641464746224600F01F
:1001E000D9F853465A46C01A914110D311461846C1
:1001F000224600F0C0F82D1A67EB01084F46224650
:100200000120002100F0B7F817EB00094E41201E35
:10021000A4F10104DFDC484631462A464346BDE8E6
:10022000F09FD2B201E000F8012B491EFBD27047CB
:100230000022F6E710B513460A4604461946FFF7B2
:10024000F0FF204610BD2DE9FE4F81EA030404F0C3
:10025000004421F0004100944FF0000B23F00043D4
:1002600050EA01045ED052EA03045BD0C3F30A549F
:10027000C1F30A552C44A4F2F3340194A0FB0254B8
:10028000C1F3130141F48011C3F3130343F480134A
:1002900001FB024400FB034E840A970A44EA81549E
:1002A00047EA8357A4FB076802958D0A05FB07857B
:1002B0004FEA932C04FB0C542705029D4FEA065885
:1002C00047EA1637B5EB08056EEB070C870E920E62
:1002D00047EA811742EA8312A7FB0201B6EB0B0142
:1002E00064EB00042B0D43EA0C335E1844EB1C5006
:1002F000DA465146E7FB0201C5F313044FEA0B331C
:1003000043EA14534FEA0432019C43EA0603A4F182
:100310000C040294009CCDE900B400F05AF803B03C
:10032000BDE8F08F00200146F9E70EB540F23341F9
:1003300002910021CDE900110A460B4600F049F870
:1003400003B000BDC1F30A5210B5C1F3130140F26E
:10035000FF3341F480119A4201DA002010BD40F2CF
:1003600033439A42A2F2334203DC524200F012F8C5
:1003700010BD904010BD202A04DB203A00FA02F1A3
:10038000002070479140C2F1200320FA03F3194383
:1003900090407047202A04DB203A21FA02F0002125
:1003A000704721FA02F3D040C2F120029140084385
:1003B0001946704710B5141E73F1000408DA401C8A
:1003C00041F1000192185B411A4301D120F0010074
:1003D00010BD2DE9F04D92469B4611B1B1FA81F264
:1003E00002E0B0FA80F220329046FFF7C4FF0446E4
:1003F0000F4640EA0A0041EA0B0153465A460843B9
:1004000013D0114653EA010019D0C8F140025046FA
:10041000FFF7C0FF05460E46504659464246FFF7D5
:10042000AAFF084305D0012004E020463946BDE874
:10043000F08D0020054346EAE0762C4337430A98C6
:100440006305E40AA0EB08000022FD0A44EA4754D1
:100450000A3002D500200146E9E70105101969417B
:10046000DDE9084500196941BDE8F04DA2E700004B
:10047000064C074D06E0E06840F0010394E80700F1
:1004800098471034AC42F6D3FFF782FE247A000876
:10049000447A0008FEE77047042000F0C9B808203D
:1004A00000F0C6B8102000F0C3B8704770B5B3F5BF
:1004B000804F05D06FF0704140F82210002070BDD1
:1004C00050F82240084B8E891C40D1E9003543EAA0
:1004D00005138D6889692D0245EA06452B430B43B8
:1004E000234340F82230E9E70000F0CFF0B50C6874
:1004F00050F82430114A1340D1E90125D1E90367AE
:100500002A433E4332434E6932438E693243CE69B9
:1005100032430E6A32434E6A32438E6A3243CE6AA7
:100520003243CE6B096B32430A431A43082D01D183
:1005300042F0400240F824200020F0BD8000F0FF8F
:1005400030B500EB820250688D8900F04043D1E95C
:10055000000440EA04108C68240244EA0544204365
:100560000C8A074D05EB045420430C7D6D0105EB0F
:10057000046489692043084318435060002030BD5B
:100580000000F0FF80B201F08DB900002DE9F041CC
:1005900086B014216846FFF74BFE1F48016800290A
:1005A00037D1012707601D488846016841F00101E5
:1005B00001600068022400F00100059041F2010092
:1005C0008DE8910003250C26CDE9035669461448B1
:1005D00000F03AF84FF680708DE81101CDE903562E
:1005E0006946104800F030F84CF203708DE81101B4
:1005F000DFF83480CDE903566946404600F024F820
:1006000030208DE89100CDE903566946404600F060
:100610001BF806B0BDE8F0811C000020383802400D
:100620000018024000100240000C02407047000019
:10063000044910B50A68024202D00860FFF7F6FFCD
:1006400010BD0000143C01402DE9F84FDFF8B8A1BF
:10065000002201250AF1040B03264FF00F090BF1CC
:10066000040E00BF0B6805FA02F42340A3426FD1C9
:100670000F7907F00307012F01D0022F16D18768E9
:100680004FEA420806FA08FC27EA0C07D1F80CC02A
:100690000CFA08FC4CEA070CC0F808C04768A743EE
:1006A0000C79C4F3001494403C4344600C79E44357
:1006B000A4070AD0C4684FEA420C06FA0CF7BC4300
:1006C0008F6807FA0CF72743C7600C7904F003041E
:1006D000022C12D1D40800EB840CDCF82040570720
:1006E000FF0E09FA07F824EA0804D1F8108008FA86
:1006F00007F848EA0408CCF8208004684FEA420C66
:1007000006FA0CF7BC430F7907F0030707FA0CF75A
:10071000274307604C68E40070D53C4C276847F4D9
:1007200080472760246822F0030704F48044009483
:10073000374C07EB040CDCF8084897074FEA1778AA
:1007400009FA08F7BC43334FB84202D1002724E02E
:1007500054E0314FB84201D101271EE02F4FB8427B
:1007600001D1022719E02E4FB84201D1032714E02E
:100770002C4FB84201D104270FE02B4FB84201D1D2
:1007800005270AE0294FB84201D1062705E0284F86
:10079000B84201D1072700E0082707FA08F72743E6
:1007A000CCF80878DAF800405746D1F804C09C43EA
:1007B0005FEACC3C00D51C433C60DBF800405F4660
:1007C000D1F804C09C435FEA8C3C00D51C433C60DC
:1007D000DEF800407746D1F804C09C435FEACC2C99
:1007E00000D51C433C60084F0C373C68D1F804C06E
:1007F0009C435FEA8C2C00D51C433C60521C102AA1
:10080000FFF430AFBDE8F88F003C014044380240AF
:100810000030014000000240000402400008024095
:10082000000C024000100240001402400018024078
:10083000001C0240426921EA02030A4043EA0241E5
:10084000816170470AB1816170470904FBE70000CC
:1008500001488068704700002C0000200248816831
:1008600002781144816070472C0000200B4810B5BD
:10087000016841F400710160016841F48061016028
:10088000016841F480710160032000F071F80020DC
:1008900000F006F800F024F8002010BD003C0240F3
:1008A00070B50D4D04464FF47A712878B1FBF0F025
:1008B0000A490968B1FBF0F000F039FB48B9102C87
:1008C00007D200222146501E00F032F800206C6052
:1008D00070BD012070BD00002C00002038000020F9
:1008E0000B4882B0016841F480410160006800F467
:1008F000804000900648001F016841F0805101606F
:10090000006800F080500090052002B000F030B880
:1009100044380240002809DB00F01F020121914009
:100920004009800000F1E020C0F80011704700008D
:10093000F0B40E4B1B680C46C3F30223C3F107054A
:10094000042D00D90425191D072901D2002300E038
:10095000DB1E012606FA05F1491E214099409E4002
:10096000761E16403143F0BC00F040BD0CED00E0B7
:10097000064900F0070208684FF6FF03184040EAF6
:100980000220034A10430860704700000CED00E0AD
:100990000000FA052DE9F0470E46050065D0DFF8A6
:1009A0001481D8F80000F7B200F00700B04207D277
:1009B00088F80070D8F8000000F00700B04254D169
:1009C00028683D4C810712D5400703D5206840F4C4
:1009D000E05020602878000703D5206840F460408C
:1009E00020602068A96820F0F00008432060287883
:1009F000C0072DD0304968680839012812D0022874
:100A000013D0032811D00968890700292DDA21683D
:100A100021F0030101432160FFF71AFF814641F2F3
:100A2000883A0EE009688903EFE709688901ECE775
:100A3000FFF70EFFA0EB0901514502D90320BDE8E5
:100A4000F0872068696800F00C00B0EB810FEFD1EF
:100A5000D8F80010404601F00701B14207D90770ED
:100A6000006800F00700B04201D00120E7E72878D5
:100A7000400705D52068E96820F4E050084320606D
:100A80002878000706D52068296920F4604040EAEC
:100A9000C100206000F038F82168084AC1F3031152
:100AA000515CC8400649086006480068FFF7F8FE38
:100AB0000020C4E7003C0240083802400C7A0008DD
:100AC000380000203000002004480549006809680B
:100AD000044AC1F38221515CC840704738000020AD
:100AE000083802401C7A0008044805490068096873
:100AF000044AC1F34231515CC840704738000020BD
:100B0000083802401C7A0008154810B5006810F03B
:100B10000C02144813D04110042A0FD0082A0ED119
:100B20000F4C241F2268236802F03F025B0207D5A6
:100B30002068C0F38810A0FB010106E0084610BD44
:100B40002168C1F38811A1FB00010023FFF738FBE6
:100B50002168C1F30141491C4900B0FBF1F010BD0F
:100B6000083802400024F4002DE9F84F04006ED04C
:100B70002078DFF84C93C007A9F104054AD009F1A9
:100B800004000168C1F38101012908D00068C0F3A5
:100B9000810002280AD1D9F80000400206D5286851
:100BA000800337D560680028E1D033E06068B0F595
:100BB000803F10D0B0F5A02F286810D020F48030EE
:100BC0002860286820F4802028606068A8B1FFF7BA
:100BD0003FFE06460DE0286840F48030F4E740F41C
:100BE00080202860F7E700BFFFF732FE801B6428F3
:100BF00073D828688003F7D50CE0FFF729FE064676
:100C000005E000BFFFF724FE801B6428F0D82868A9
:100C10008003F7D42078DFF8AC8280074FF0000A19
:100C20003ED5A748001D016811F00C0F08D00068E0
:100C3000C0F3810002280BD1D9F80000400207D48C
:100C40002868800716D5E068012800D112E033E15A
:100C5000E068B8B10120C8F80000FFF7F9FD0646CA
:100C600005E000BFFFF7F4FD801B0228C0D828680C
:100C70008007F7D52868216920F0F80040EAC10014
:100C800028600DE0C8F800A0FFF7E2FD064604E08A
:100C9000FFF7DEFD801B02281FD828688007F7D4E5
:100CA0002078000722D5864F87486169703771B177
:100CB00001210160FFF7CCFD064604E0FFF7C8FD07
:100CC000801B022809D838688007F7D50EE0C0F8E5
:100CD00000A0FFF7BDFD064605E082E0FFF7B8FD86
:100CE000801B02287DD838688007F7D42078400719
:100CF00068D5DFF8CCB100270BF13C0BDBF8000026
:100D0000C0000BD4DBF8001041F08051CBF800108C
:100D1000DBF80000012700F0805000906B4E306837
:100D2000C00510D4306840F480703060FFF790FD4B
:100D3000009005E0FFF78CFD0099401A022850D87A
:100D40003068C005F6D55E4EA0686C3601280FD01D
:100D50000528306810D020F001003060306820F0A5
:100D600004003060A068B8B1FFF772FD00900FE09A
:100D7000306840F00100F4E740F004003060F7E72D
:100D8000FFF766FD0099411A41F28830814266D82A
:100D900030688007F4D50EE0FFF75AFD009007E0B9
:100DA000FFF756FD0099411A41F28830814256D82A
:100DB00030688007F4D42FB1DBF8001021F08051A7
:100DC000CBF80010A069C8B33D49091D0968C1F3FB
:100DD000810102294AD00228504607D0C8F8600095
:100DE00000E03CE0FFF734FD04463BE04746C8F82E
:100DF0006000FFF72DFD064605E000BFFFF728FD68
:100E0000801B02282BD828688001F7D4D4E9070179
:100E10000843A16A2E4A490802EB0141626A41EA8D
:100E20008211084394F82C1040EA0161C9F80010BF
:100E300001203866FFF70CFD044606E03EE000BFE7
:100E4000FFF706FD001B022809D828688001F7D5A6
:100E500034E000BFFFF7FCFC001B022802D903208E
:100E6000BDE8F88F28688001F4D427E00128F7D086
:100E7000D9F80000E26900F4800191421CD1226A95
:100E800000F03F01914217D147F6C071626A0140FC
:100E9000B1EB821F10D1A26A4FF0FF3300F4403152
:100EA00003EB5202B1EB024F06D194F82C1000F084
:100EB0007060B0EB016F01D00120D1E70020CFE7D7
:100EC0000438024000004742800E47420070004054
:100ED0000000FFFF70B515460E46040003D094F8DD
:100EE000490010B107E0012070BD002084F84800DF
:100EF000204600F01AF804F108012068FFF7F6FA1E
:100F00003146A2682068FFF71BFBD4E9010229469D
:100F1000236BFFF7CBFAA168206850F8212042F03C
:100F2000010240F82120002070BDFFF72FBB10B553
:100F3000401EB0F1807F01D3012010BD4FF0E024AE
:100F400060610F21601700F051FA0020A0610720B6
:100F50002061002010BD70B5040004D094F83D005D
:100F6000002510B106E0012070BD84F83C502046F9
:100F700000F022F8242084F83D002068C16821F4A4
:100F80000051C160204600F085F92068016921F414
:100F9000904101612068416921F02A014161206886
:100FA000C16841F40051C1602564202084F83D00EF
:100FB00084F83E00002070BD10B586B004461421B0
:100FC0006846FFF735F913492068884220D1124856
:100FD000016841F010010160006800F01000059008
:100FE0000D481438016841F002010160006869464B
:100FF00000F002000590C020009002200190012026
:10100000029003200390072004900448FFF71CFB84
:1010100006B010BD001001404438024000040240F8
:10102000FEE7000010B58EB01C216846FFF700F9FE
:101030001C2107A8FFF7FCF81B484FF020411022A5
:1010400001601A494160062181600021C160C0E948
:1010500004128161C16113020162C0E909139302A4
:10106000C0E90B134163816341640F203C2300906E
:10107000CDE901030DF10C0C112306918CE80D0054
:101080000924CDE907400DF1280C0D9109948CE855
:101090000D0007AA69460448FFF71CFF002801D08D
:1010A000FFF703FA0EB010BD4C000020040100A0B1
:1010B0002DE9F04186B014216846FFF7B9F83A48A7
:1010C0000025016841F010010160016801F0100184
:1010D0000591016841F080010160016801F0800123
:1010E0000591016841F040010160016801F0400193
:1010F0000591016841F008010160016801F00801F3
:101100000591016841F001010160016801F00101F0
:101110000591016841F0020101600068012200F0C0
:101120000200224F5602059031463846FFF78AFBEF
:10113000DFF87C80012203214046FFF783FB1C205F
:1011400000901C480124CDE9010469464046FFF7A0
:101150007BFACDE900640226CDE90256694638469D
:10116000FFF772FA03208DE8710069464046FFF7E9
:101170006BFA012211460820FFF7DAFB0820FFF77F
:10118000C9FB012211460920FFF7D2FB0920FFF716
:10119000C1FB012211460A20FFF7CAFB0A20FFF714
:1011A000B9FB06B0BDE8F08130380240001C0240B7
:1011B00000100240000021100C4810B50A490160DF
:1011C0004FF4E1314160002181600C22C160C0E92F
:1011D00004128161C161FFF7BEFE002803D0BDE8A3
:1011E0001040FFF762B910BD001001409C000020C4
:1011F000FEE7704770477047FFF730BB30B593B0DC
:1012000030216846FFF714F814210CA8FFF710F8F6
:101210001A480025016841F080510160006800F023
:10122000805011901648016841F4804101600068C7
:10123000022400F4804011900120009000040190ED
:101240008001CDE90640082008904FF4A870CDE950
:10125000090404200B906846FFF786FC0CA90F20B8
:1012600081E831004FF4A0500F90E002109005216A
:101270000CA8FFF78FFB13B030BD000040380240D0
:10128000007000400248016841F47001016070473D
:1012900088ED00E070B5044600680169E26821F459
:1012A0004051114301612169A068E2690843616905
:1012B000114308432168CA6849F20C639A43024308
:1012C000CA6020684169A26921F4407111434161FB
:1012D00031492068884202D03049884202D1FFF764
:1012E00003FC01E0FFF7F0FBE2690023192164250C
:1012F0003226B2F5004F626828D0A0FB0101930F9F
:101300009200FEF75DFF0146B0FBF5F06FF01802AA
:10131000504301EB800006EB0010B0FBF5F000F04D
:10132000F002B1FBF5F002EB0012B1FBF5F06FF04B
:101330001803584301EB800006EB0010B0FBF5F0FA
:1013400000F00F0021681044886070BDA0FB01010F
:1013500092185B41FEF734FF0146B0FBF5F0020145
:10136000B1FBF5F06FF01803584301EB800006EB7A
:10137000C000B0FBF5F000F0F80002EB4002B1FB5A
:10138000F5F0584301EB800006EBC000B0FBF5F030
:1013900000F00700D6E700000010014000140140F3
:1013A000FEE700000FB4054B10B503A9044A0298EC
:1013B00000F03CF810BC5DF814FB0000E5180008D4
:1013C0003C0000200FB4084B10B504A902AA0398F2
:1013D00000F02CF8044602A9002000F058FA20463C
:1013E00010BC5DF814FB00008F1800080907090EF7
:1013F000002804DB00F1E02080F80014704700F0C2
:101400000F0000F1E02080F8141D704702E008C8CA
:10141000121F08C1002AFAD170477047002001E06E
:1014200001C1121F002AFBD1704700002DE9FF4FB8
:101430008DB00F460546002606E025280BD0DDE9D5
:101440000F1290476D1C761C28780028F5D111B03A
:101450003046BDE8F08F0024A246A1460122EC49A7
:1014600000E0044315F8013F203B02FA03F0084274
:10147000F7D128782A2810D06FF02F022878A0F111
:101480003001092914D80AEB8A0102EB410144F02A
:10149000020400EB010A6D1CF0E701CF5FEA000ACD
:1014A00003D544F40054CAF1000A44F002046D1C50
:1014B00028782E2817D115F8010F44F004042A28A3
:1014C0000ED06FF02F022878A0F1300109290AD838
:1014D00009EB890102EB410100EB01096D1CF2E708
:1014E00057F8049B6D1C28786C280FD006DC4C281C
:1014F00017D068280DD06A2814D104E0742810D0C1
:101500007A280FD10DE044F400140AE044F480146A
:1015100001E044F440146978814202D104F580145A
:101520006D1C6D1C2A786E2A1FD00CDC632A31D00A
:1015300004DC002A8BD0582A11D1A3E0642A68D099
:10154000692A0CD165E0732A2ED004DC6F2A73D08F
:10155000702A04D19BE0752A6FD0782A6ED010468D
:10156000DDE90F129047761C50E1C4F302500228C7
:1015700006D0032809D0042801CF09D0066045E130
:1015800001CFF117C0E9006140E101CF06803DE1E4
:1015900006703BE117F8040B8DF8000000208DF871
:1015A0000100EB46012003E057F804BB4FF0FF3089
:1015B00061074FF0000102D40DE008F101018846F7
:1015C00049450FDA8045F8DB1BF808100029F4D1F3
:1015D00008E008F1010188468142FADB1BF8081097
:1015E0000029F6D1DDE90F23AAEB08008146214648
:1015F00000F036F9304400EB080604E0DDE90F1294
:101600001BF8010B9047B8F10108F7D22146484674
:10161000F7E00A21C4F302534FF0000B0891022BAC
:1016200004D001CFC117032B09D00AE0FF1D27F01A
:101630000707F7E8020108E032E01FE020E000B20F
:10164000C117042B01D140B2C117031E71F1000371
:1016500007DA4FF0000CD0EB0C006CEB01012D23EE
:1016600002E0230504D52B238DF82430012303E069
:10167000E30701D02023F7E7984658E00A2110E05D
:1016800010210EE010204FF0000B08900CE010210C
:101690004FF0000B44F004044FF00809089103E0F8
:1016A00008214FF0000B0891C4F30253022B04D021
:1016B00001CF0021032B06D006E0FF1D27F007070E
:1016C000F7E8020103E080B2042B00D1C0B24FF072
:1016D000000823072BD5702A07D0DDF820C08CF036
:1016E000100C5CEA0B0C05D00EE040238DF8243082
:1016F000012308E050EA010306D030238DF824309E
:101700008DF8252002239846DDF820C08CF0080CC7
:101710005CEA0B0C0BD150EA010301D1630706D53B
:1017200030238DF824304FF00108A9F10109582A1F
:1017300004D038A20B9208AA0A920BE03AA2F9E769
:101740005B46089AFEF73CFD0B9B9B5C0A9A521E77
:101750000A92137050EA0102F2D10A98ADEB000030
:1017600000F1200B600702D524F4803401E04FF033
:101770000109D94502DDA9EB0B0000E0002000EBD8
:101780000B0141440890AAEB010AE00306D4DDE90D
:101790000F232146504600F063F806444FF000093D
:1017A00008E009A911F80900DDE90F12904709F1D5
:1017B0000109761CC145F4DBE0030CD5DDE90F23FC
:1017C0002146504600F04CF8064404E0DDE90F12D3
:1017D00030209047761C0899481E08900029F5DCB7
:1017E00008E00A980A990078491C0A91DDE90F126D
:1017F0009047761CBBF10001ABF1010BF1DC2146F7
:101800005046DDE90F2300F019F806446D1C1BE675
:1018100009280100303132333435363738396162C6
:10182000636465660000000030313233343536378A
:101830003839414243444546000000002DE9F0415B
:10184000044600251E461746880404D405E03946A0
:101850002020B0476D1C641EF9D52846BDE8F081F4
:101860002DE9F041044600251E469046C80301D5E7
:10187000302700E02027880404D505E0414638469B
:10188000B0476D1C641EF9D52846BDE8F0810A6892
:10189000531C0B60107070470149086070470000CE
:1018A000280000204FF47A71484300F001B800008E
:1018B00070B54FF0E024002265690949A369096801
:1018C0004843A1699942FCD002D2A3EB010302E094
:1018D000A5EB010633441A440B468242F1D370BD96
:1018E0002800002003490A685206FCD5C2B24A60AB
:1018F000704700000010014070B5094906460024F9
:1019000008884D8821464543204602F0D5FE03F065
:1019100027F8044801E00680641CAC42FBD370BD8C
:10192000E00000200008006C2DE9F04F38492C261B
:101930000A46887192884FF4305A4FF4285B41F67A
:10194000631E2B274FF02A0C4FF0F00845F2105978
:101950004FF448754FF4A0744FF4F07358B10C80F5
:10196000A1F802804A4530D1A1F808A0A1F80AB038
:101970003802888141E0A1F800804C804A4507D1B7
:10198000A1F808A0A1F80AB04FF42C50888105E016
:1019900072450E8105D14F81A1F80CC00B804D809E
:1019A00002E0A1F80AC08F81A2F5A640103803D04A
:1019B000A2F5EE40963801D10C804B80A2F518407C
:1019C00006381FD10B804D801CE0724511D0A2F566
:1019D000184006380DD00E81A1F80AC0A1F80C708D
:1019E000A2F5A64010380BD0A2F5EE40963807D0ED
:1019F00008E00E81A1F80AC08F810D804B80EFE7CF
:101A00000B804C80BDE8F04F002002F093BD000039
:101A1000E000002010B5144602F04EFE02F0A0FFD8
:101A20000148048010BD00000008006C10B5CF20F4
:101A300002F08AFF002002F07BFFC12002F078FF55
:101A4000302002F075FFED2002F07EFF642002F0EE
:101A50006FFF032002F06CFF122002F069FF81206B
:101A600002F066FFE82002F06FFF852002F060FFC1
:101A7000102002F05DFF7A2002F05AFFCB2002F026
:101A800063FF392002F054FF2C2002F051FF0020A8
:101A900002F04EFF342002F04BFF022002F048FF1C
:101AA000F72002F051FF202002F042FFEA2002F06E
:101AB0004BFF002002F03CFF002002F039FFC02065
:101AC00002F042FF1B2002F033FFC12002F03CFF76
:101AD000012002F02DFFC52002F036FF302002F079
:101AE00027FF302002F024FFC72002F02DFFB7208F
:101AF00002F01EFF362002F027FF482002F018FFF8
:101B00003A2002F021FF552002F012FFB12002F02E
:101B10001BFF002002F00CFF1A2002F009FFB62084
:101B200002F012FF0A2002F003FFA22002F000FFE1
:101B3000F22002F009FF002002F0FAFE262002F057
:101B400003FF012002F0F4FEE02002F0FDFE0F2072
:101B500002F0EEFE2A2002F0EBFE282002F0E8FE62
:101B6000082002F0E5FE0E2002F0E2FE082002F05E
:101B7000DFFE542002F0DCFEA92002F0D9FE432053
:101B800002F0D6FE0A2002F0D3FE0F2002F0D0FEB3
:101B9000002002F0CDFE002002F0CAFE002002F07C
:101BA000C7FE002002F0C4FEE12002F0CDFE0020BE
:101BB00002F0BEFE152002F0BBFE172002F0B8FEB8
:101BC000072002F0B5FE112002F0B2FE062002F05E
:101BD000AFFE2B2002F0ACFE562002F0A9FE3C2006
:101BE00002F0A6FE052002F0A3FE102002F0A0FEE7
:101BF0000F2002F09DFE3F2002F09AFE3F2002F0EF
:101C000097FE0F2002F094FE2B2002F09DFE002094
:101C100002F08EFE002002F08BFE012002F088FE12
:101C20003F2002F085FE2A2002F08EFE002002F006
:101C30007FFE002002F07CFE002002F079FEEF2003
:101C400002F076FE112002F07FFE7820FEF79AFC6B
:101C5000BDE81040292002F077BE10B5FF2002F049
:101C600073FEFF2002F064FE982002F061FE062061
:101C700002F05EFEBC2002F067FE012002F058FE7A
:101C80000F2002F055FE612002F052FEFF2002F00C
:101C90004FFE012002F04CFE012002F049FE0B2015
:101CA00002F046FE102002F043FE372002F040FE14
:101CB000632002F03DFEFF2002F03AFEFF2002F01A
:101CC00037FE012002F034FE012002F031FE002038
:101CD00002F02EFE002002F02BFEFF2002F028FE74
:101CE000522002F025FE012002F022FE002002F028
:101CF0001FFE402002F01CFEBD2002F025FE012048
:101D000002F016FE232002F013FE452002F010FE22
:101D1000672002F00DFE012002F00AFE232002F0EF
:101D200007FE452002F004FE672002F001FEBE20FF
:101D300002F00AFE002002F0FBFD012002F0F8FD97
:101D4000AB2002F0F5FD602002F0F2FD222002F04F
:101D5000EFFD222002F0ECFD222002F0E9FD22201E
:101D600002F0E6FD222002F0E3FDC72002F0ECFDC8
:101D7000362002F0DDFDED2002F0E6FD7F2002F0CE
:101D8000D7FD0F2002F0D4FDC02002F0DDFD0F20B2
:101D900002F0CEFD0B2002F0CBFD0A2002F0C8FDC0
:101DA000FC2002F0D1FD082002F0C2FDDF2002F08D
:101DB000CBFD002002F0BCFD002002F0B9FD0020A8
:101DC00002F0B6FD002002F0B3FD002002F0B0FDED
:101DD000202002F0ADFDF32002F0B6FD742002F0E9
:101DE000A7FDB42002F0B0FD002002F0A1FD00200C
:101DF00002F09EFD002002F09BFDF72002F0A4FD02
:101E0000822002F095FDB12002F09EFD002002F03C
:101E10008FFD132002F08CFD132002F089FDF220CB
:101E200002F092FD802002F083FD042002F080FD8C
:101E3000402002F07DFD282002F07AFDC12002F052
:101E400083FD172002F074FD882002F071FD8820C8
:101E500002F06EFD202002F06BFDE02002F074FD28
:101E6000002002F065FD0A2002F062FD122002F05F
:101E70005FFD102002F05CFD0E2002F059FD2020D5
:101E800002F056FDCC2002F053FD072002F050FD79
:101E9000062002F04DFD0B2002F04AFD0E2002F05C
:101EA00047FD0F2002F044FD0D2002F041FD1520FA
:101EB00002F03EFD102002F03BFD002002F038FD54
:101EC000E12002F041FD002002F032FD0B2002F083
:101ED0002FFD132002F02CFD0D2002F029FD0E2015
:101EE00002F026FD1B2002F023FD712002F020FDF0
:101EF000062002F01DFD062002F01AFD0A2002F065
:101F000017FD0F2002F014FD0E2002F011FD0F202E
:101F100002F00EFD152002F00BFD0C2002F008FD72
:101F2000002002F005FD2A2002F00EFD002002F044
:101F3000FFFC002002F0FCFC012002F0F9FCDF2095
:101F400002F0F6FC2B2002F0FFFC002002F0F0FC77
:101F5000002002F0EDFC032002F0EAFC1F2002F05A
:101F6000E7FC3A2002F0F0FC552002F0E1FC3620BC
:101F700002F0EAFC002002F0DBFC112002F0E4FC9D
:101F80007820FEF7FFFA292002F0DEFC1420FEF78D
:101F9000F9FABDE810402C2002F0D6BC10B5ED20B7
:101FA00002F0D2FC012002F0C3FCFE2002F0C0FCD3
:101FB000EE2002F0C9FCDE2002F0BAFC212002F083
:101FC000B7FCF12002F0C0FC012002F0B1FCDF20E0
:101FD00002F0BAFC102002F0ABFCC42002F0B4FC0A
:101FE0008F2002F0A5FCC62002F0AEFC002002F01B
:101FF0009FFCE22002F09CFCE22002F099FCE2202F
:1020000002F096FCBF2002F09FFCAA2002F090FC98
:10201000B02002F099FC0D2002F08AFC002002F0B2
:1020200087FC0D2002F084FC002002F081FC1120CE
:1020300002F07EFC002002F07BFC192002F078FC0C
:10204000002002F075FC212002F072FC002002F05A
:102050006FFC2D2002F06CFC002002F069FC3D209A
:1020600002F066FC002002F063FC5D2002F060FCE0
:10207000002002F05DFC5D2002F05AFC002002F01E
:1020800057FCB12002F060FC802002F051FC0020DF
:1020900002F04EFC8B2002F04BFC002002F048FCCA
:1020A000962002F045FC002002F042FCB22002F033
:1020B0004BFC002002F03CFC002002F039FC022026
:1020C00002F036FC002002F033FC032002F030FC6A
:1020D000002002F02DFCB32002F036FC002002F0BC
:1020E00027FC002002F024FC002002F021FC00204C
:1020F00002F01EFC002002F01BFC002002F018FC85
:10210000002002F015FC002002F012FC002002F07A
:102110000FFC002002F00CFC002002F009FC002063
:1021200002F006FC002002F003FC002002F000FC9C
:10213000002002F0FDFB002002F0FAFB002002F07C
:10214000F7FB002002F0F4FB002002F0F1FB00207E
:1021500002F0EEFB002002F0EBFB002002F0E8FBB7
:10216000002002F0E5FB002002F0E2FBB42002F0C8
:10217000EBFB8B2002F0DCFB002002F0D9FB962069
:1021800002F0D6FB002002F0D3FBA12002F0D0FB2E
:10219000002002F0CDFBB52002F0D6FB022002F0B9
:1021A000C7FB002002F0C4FB032002F0C1FB0020AB
:1021B00002F0BEFB042002F0BBFB002002F0B8FBE3
:1021C000B62002F0C1FB002002F0B2FB002002F0BA
:1021D000AFFBB72002F0B8FB002002F0A9FB002003
:1021E00002F0A6FB3F2002F0A3FB002002F0A0FBC0
:1021F0005E2002F09DFB002002F09AFB642002F0BA
:1022000097FB002002F094FB8C2002F091FB002051
:1022100002F08EFBAC2002F08BFB002002F088FB6A
:10222000DC2002F085FB002002F082FB702002F02F
:102230007FFB002002F07CFB902002F079FB002065
:1022400002F076FBEB2002F073FB002002F070FB43
:10225000DC2002F06DFB002002F06AFBB82002F0E7
:1022600073FB002002F064FB002002F061FB002001
:1022700002F05EFB002002F05BFB002002F058FB46
:10228000002002F055FB002002F052FB002002F07B
:102290004FFBBA2002F058FB242002F049FB00203B
:1022A00002F046FB002002F043FB002002F040FB5E
:1022B000C12002F049FB202002F03AFB002002F08E
:1022C00037FB542002F034FB002002F031FBFF20EA
:1022D00002F02EFB002002F02BFBC22002F034FBA8
:1022E0000A2002F025FB002002F022FB042002F06D
:1022F0001FFB002002F01CFBC32002F025FB3C204A
:1023000002F016FB002002F013FB3A2002F010FB53
:10231000002002F00DFB392002F00AFB002002F041
:1023200007FB372002F004FB002002F001FB3C20F9
:1023300002F0FEFA002002F0FBFA362002F0F8FA72
:10234000002002F0F5FA322002F0F2FA002002F04A
:10235000EFFA2F2002F0ECFA002002F0E9FA2C202C
:1023600002F0E6FA002002F0E3FA292002F0E0FA97
:10237000002002F0DDFA262002F0DAFA002002F056
:10238000D7FA242002F0D4FA002002F0D1FA242057
:1023900002F0CEFA002002F0CBFA232002F0C8FAB5
:1023A000002002F0C5FA3C2002F0C2FA002002F040
:1023B000BFFA362002F0BCFA002002F0B9FA32204F
:1023C00002F0B6FA002002F0B3FA2F2002F0B0FAC1
:1023D000002002F0ADFA2C2002F0AAFA002002F050
:1023E000A7FA292002F0A4FA002002F0A1FA262080
:1023F00002F09EFA002002F09BFA242002F098FAE4
:10240000002002F095FA242002F092FA002002F057
:102410008FFA232002F08CFA002002F089FAC420FF
:1024200002F092FA622002F083FA002002F080FAB1
:10243000052002F07DFA002002F07AFA842002F0F2
:1024400077FA002002F074FAF02002F071FA00200E
:1024500002F06EFA182002F06BFA002002F068FA1F
:10246000A42002F065FA002002F062FA182002F0BF
:102470005FFA002002F05CFA502002F059FA0020C6
:1024800002F056FA0C2002F053FA002002F050FA43
:10249000172002F04DFA002002F04AFA952002F0CF
:1024A00047FA002002F044FAF32002F041FA00203B
:1024B00002F03EFAE62002F03BFA002002F038FA81
:1024C000C52002F041FA322002F032FA002002F078
:1024D0002FFA442002F02CFA002002F029FA65209D
:1024E00002F026FA002002F023FA762002F020FA09
:1024F000002002F01DFA882002F01AFA002002F0F3
:1025000017FAC62002F020FA202002F011FA00206B
:1025100002F00EFA172002F00BFA002002F008FA7F
:10252000012002F005FA002002F002FAC72002F0B2
:102530000BFA002002F0FCF9002002F0F9F900206B
:1025400002F0F6F9002002F0F3F9C82002F0FCF9DD
:10255000002002F0EDF9002002F0EAF9002002F07C
:10256000E7F9002002F0E4F9C92002F0EDF90020BB
:1025700002F0DEF9002002F0DBF9002002F0D8F9C9
:10258000002002F0D5F9002002F0D2F9002002F07C
:10259000CFF9002002F0CCF9002002F0C9F90020A8
:1025A00002F0C6F9002002F0C3F9002002F0C0F9E1
:1025B000002002F0BDF9002002F0BAF9002002F07C
:1025C000B7F9002002F0B4F9002002F0B1F9E020E0
:1025D00002F0BAF9162002F0ABF9002002F0A8F9D7
:1025E0001C2002F0A5F9002002F0A2F9212002F03F
:1025F0009FF9002002F09CF9362002F099F90020A2
:1026000002F096F9462002F093F9002002F090F9CA
:10261000522002F08DF9002002F08AF9642002F0C5
:1026200087F9002002F084F97A2002F081F9002075
:1026300002F07EF98B2002F07BF9002002F078F99D
:10264000992002F075F9002002F072F9A82002F03A
:102650006FF9002002F06CF9B92002F069F900204E
:1026600002F066F9C42002F063F9002002F060F97C
:10267000CA2002F05DF9002002F05AF9D22002F0DF
:1026800057F9002002F054F9D92002F051F9002046
:1026900002F04EF9E02002F04BF9002002F048F978
:1026A000F32002F045F9002002F042F9E12002F0A7
:1026B0004BF9162002F03CF9002002F039F91C20F9
:1026C00002F036F9002002F033F9222002F030F94E
:1026D000002002F02DF9362002F02AF9002002F045
:1026E00027F9452002F024F9002002F021F95220B8
:1026F00002F01EF9002002F01BF9642002F018F924
:10270000002002F015F97A2002F012F9002002F000
:102710000FF98B2002F00CF9002002F009F9992042
:1027200002F006F9002002F003F9A82002F000F9F7
:10273000002002F0FDF8B92002F0FAF8002002F0C3
:10274000F7F8C42002F0F4F8002002F0F1F8CA20F3
:1027500002F0EEF8002002F0EBF8D22002F0E8F8E8
:10276000002002F0E5F8D82002F0E2F8002002F0A4
:10277000DFF8E02002F0DCF8002002F0D9F8F320C6
:1027800002F0D6F8002002F0D3F8E22002F0DCF8E4
:10279000052002F0CDF8002002F0CAF80B2002F06C
:1027A000C7F8002002F0C4F81B2002F0C1F8002096
:1027B00002F0BEF8342002F0BBF8002002F0B8F8B6
:1027C000442002F0B5F8002002F0B2F84F2002F0E9
:1027D000AFF8002002F0ACF8612002F0A9F8002068
:1027E00002F0A6F8792002F0A3F8002002F0A0F889
:1027F000882002F09DF8002002F09AF8972002F05D
:1028000097F8002002F094F8A62002F091F800203A
:1028100002F08EF8B72002F08BF8002002F088F862
:10282000C22002F085F8002002F082F8C72002F0F2
:102830007FF8002002F07CF8D12002F079F8002027
:1028400002F076F8D62002F073F8002002F070F85B
:10285000DD2002F06DF8002002F06AF8F32002F0AB
:1028600067F8002002F064F8E32002F06DF805201C
:1028700002F05EF8002002F05BF80A2002F058F83F
:10288000002002F055F81C2002F052F8002002F05F
:102890004FF8332002F04CF8002002F049F84420B1
:1028A00002F046F8002002F043F8502002F040F811
:1028B000002002F03DF8622002F03AF8002002F019
:1028C00037F8782002F034F8002002F031F8882040
:1028D00002F02EF8002002F02BF8972002F028F8E2
:1028E000002002F025F8A62002F022F8002002F0D5
:1028F0001FF8B72002F01CF8002002F019F8C220DF
:1029000002F016F8002002F013F8C72002F010F8C9
:10291000002002F00DF8D12002F00AF8002002F0A9
:1029200007F8D52002F004F8002002F001F8DD20BD
:1029300001F0FEFF002001F0FBFFF32001F0F8FFA3
:10294000002001F0F5FFE42001F0FEFF012001F07E
:10295000EFFF002001F0ECFF012001F0E9FF002073
:1029600001F0E6FF022001F0E3FF002001F0E0FFAC
:102970002A2001F0DDFF002001F0DAFF3C2001F009
:10298000D7FF002001F0D4FF4B2001F0D1FF002041
:1029900001F0CEFF5D2001F0CBFF002001F0C8FF69
:1029A000742001F0C5FF002001F0C2FF842001F077
:1029B000BFFF002001F0BCFF932001F0B9FF002011
:1029C00001F0B6FFA22001F0B3FF002001F0B0FF3C
:1029D000B32001F0ADFF002001F0AAFFBE2001F0FE
:1029E000A7FF002001F0A4FFC42001F0A1FF0020F8
:1029F00001F09EFFCD2001F09BFF002001F098FF29
:102A0000D32001F095FF002001F092FFDD2001F0BE
:102A10008FFF002001F08CFFF32001F089FF0020E0
:102A200001F086FFE52001F08FFF002001F080FF1C
:102A3000002001F07DFF002001F07AFF002001F06E
:102A400077FF022001F074FF002001F071FF2920C0
:102A500001F06EFF002001F06BFF3C2001F068FFE9
:102A6000002001F065FF4B2001F062FF002001F023
:102A70005FFF5D2001F05CFF002001F059FF742032
:102A800001F056FF002001F053FF842001F050FFB9
:102A9000002001F04DFF932001F04AFF002001F0DB
:102AA00047FFA22001F044FF002001F041FFB320C6
:102AB00001F03EFF002001F03BFFBE2001F038FF97
:102AC000002001F035FFC42001F032FF002001F0AA
:102AD0002FFFCD2001F02CFF002001F029FFD32093
:102AE00001F026FF002001F023FFDC2001F020FF91
:102AF000002001F01DFFF32001F01AFF002001F07B
:102B000017FFE62001F020FF112001F011FF002047
:102B100001F00EFF342001F00BFF002001F008FF50
:102B2000562001F005FF002001F002FF762001F0A1
:102B3000FFFE002001F0FCFE772001F0F9FE0020EE
:102B400001F0F6FE662001F0F3FE002001F0F0FE39
:102B5000882001F0EDFE002001F0EAFE992001F04E
:102B6000E7FE002001F0E4FEBB2001F0E1FE0020C2
:102B700001F0DEFE992001F0DBFE002001F0D8FE1E
:102B8000662001F0D5FE002001F0D2FE552001F0B4
:102B9000CFFE002001F0CCFE552001F0C9FE002040
:102BA00001F0C6FE452001F0C3FE002001F0C0FE8A
:102BB000432001F0BDFE002001F0BAFE442001F0E8
:102BC000B7FE002001F0B4FEE72001F0BDFE322088
:102BD00001F0AEFE002001F0ABFE552001F0A8FE92
:102BE000002001F0A5FE762001F0A2FE002001F0F9
:102BF0009FFE662001F09CFE002001F099FE6720F8
:102C000001F096FE002001F093FE672001F090FE97
:102C1000002001F08DFE872001F08AFE002001F0E7
:102C200087FE992001F084FE002001F081FEBB2088
:102C300001F07EFE002001F07BFE992001F078FE7D
:102C4000002001F075FE772001F072FE002001F0F7
:102C50006FFE442001F06CFE002001F069FE56205A
:102C600001F066FE002001F063FE232001F060FE0B
:102C7000002001F05DFE332001F05AFE002001F03B
:102C800057FE452001F054FE002001F051FEE820DF
:102C900001F05AFE002001F04BFE002001F048FE3A
:102CA000992001F045FE002001F042FE872001F04E
:102CB0003FFE002001F03CFE882001F039FE00209C
:102CC00001F036FE772001F033FE002001F030FEE7
:102CD000662001F02DFE002001F02AFE882001F080
:102CE00027FE002001F024FEAA2001F021FE002092
:102CF00001F01EFEBB2001F01BFE002001F018FEBB
:102D0000992001F015FE002001F012FE662001F06E
:102D10000FFE002001F00CFE552001F009FE0020FE
:102D200001F006FE552001F003FE002001F000FE38
:102D3000442001F0FDFD002001F0FAFD442001F0E7
:102D4000F7FD002001F0F4FD552001F0F1FD002019
:102D500001F0EEFDE92001F0F7FDAA2001F0E8FD09
:102D6000002001F0E5FD002001F0E2FD002001F06F
:102D7000DFFD002001F0E8FDAA2001F0D9FDCF2001
:102D800001F0E2FD002001F0D3FD002001F0D0FDB4
:102D9000002001F0CDFD002001F0CAFD002001F06F
:102DA000C7FD002001F0C4FD002001F0C1FD00209E
:102DB00001F0BEFD002001F0BBFD002001F0B8FDD8
:102DC000002001F0B5FD002001F0B2FD002001F06F
:102DD000AFFD002001F0ACFD002001F0A9FD0020B6
:102DE00001F0A6FD002001F0A3FDF02001F0ACFDF4
:102DF000002001F09DFD502001F09AFD002001F01F
:102E000097FD002001F094FD002001F091FDF320DA
:102E100001F09AFD002001F08BFDF92001F094FDF6
:102E2000062001F085FD102001F082FD292001F02F
:102E30007FFD002001F07CFD3A2001F085FD55204A
:102E400001F076FD112001F07FFD6420FDF79AFB73
:102E5000292001F079FD352001F076FD002001F0F8
:102E600067FD512001F070FDFF2001F061FD53204E
:102E700001F06AFD2C2001F05BFD552001F064FD9E
:102E8000822001F055FDBDE810402C2001F05CBD12
:102E90002DE9F05F4FF470435521184601F06AFDAB
:102EA0004FF20104AA21204601F064FD651C522165
:102EB000284601F05FFDA61C0821304601F05AFDAE
:102EC000E71C0121384601F055FD0D214FF430403B
:102ED00001F050FD0D214BF2010001F04BFD0D21E1
:102EE0004BF2020001F046FD4FF4364834214046D3
:102EF00001F040FD34214BF2016001F03BFD342133
:102F00004BF2026001F036FD4FF431490D21484685
:102F100001F030FD4BF2011A0D21504601F02AFD5F
:102F20000D214BF2021001F025FD4FF4374B3421F7
:102F3000584601F01FFD34214BF2017001F01AFDDB
:102F400034214BF2027001F015FD00214FF43240A4
:102F500001F010FD00214BF2012001F00BFD0021DA
:102F60004BF2022001F006FD24214FF4384001F01D
:102F700001FD24214BF6010001F0FCFC24214BF65D
:102F8000020001F0F7FC01214FF43F4001F0F2FC98
:102F90000F214FF4334001F0EDFC0F214BF20130D3
:102FA00001F0E8FC0F214BF2023001F0E3FC342188
:102FB0004FF4394001F0DEFC34214BF6011001F0F2
:102FC000D9FC34214BF6021001F0D4FC08214FF457
:102FD000354001F0CFFC08214BF2015001F0CAFC52
:102FE00008214BF2025001F0C5FC03214FF442408E
:102FF00001F0C0FC24214FF43A4001F0BBFC242135
:103000004BF6012001F0B6FC24214BF6022001F022
:10301000B1FC00214FF43C4001F0ACFC78214BF6B0
:10302000014001F0A7FC00214BF6024001F0A2FC98
:1030300000214FF43D4001F09DFC78214BF60150FA
:1030400001F098FC00214BF6025001F093FC0021A6
:103050004FF43E4001F08EFC64214BF6016001F01C
:1030600089FC00214FF4514001F084FC33214DF2E2
:10307000011001F07FFC00214DF2021001F07AFCFA
:1030800034214DF2031001F075FC00214DF20410C3
:1030900001F070FC3A214DF2051001F06BFC0021AB
:1030A0004DF2061001F066FC4A214DF2071001F0C6
:1030B00061FC00214DF2081001F05CFC5C214DF236
:1030C000091001F057FC00214DF20A1001F052FCEA
:1030D00081214DF20B1001F04DFC00214DF20C103E
:1030E00001F048FCA6214DF20D1001F043FC002137
:1030F0004DF20E1001F03EFCE5214DF20F1001F0F3
:1031000039FC01214DF2101001F034FC13214DF275
:10311000111001F02FFC01214DF2121001F02AFCD8
:1031200054214DF2131001F025FC01214DF2141031
:1031300001F020FC82214DF2151001F01BFC012151
:103140004DF2161001F016FCCA214DF2171001F0D5
:1031500011FC02214DF2181001F00CFC00214DF27F
:10316000191001F007FC02214DF21A1001F002FCC7
:1031700001214DF21B1001F0FDFB02214DF21C104C
:1031800001F0F8FB34214DF21D1001F0F3FB022198
:103190004DF21E1001F0EEFB67214DF21F1001F001
:1031A000E9FB02214DF2201001F0E4FB84214DF2F5
:1031B000211001F0DFFB02214DF2221001F0DAFBB9
:1031C000A4214DF2231001F0D5FB02214DF2241071
:1031D00001F0D0FBB7214DF2251001F0CBFB02210D
:1031E0004DF2261001F0C6FBCF214DF2271001F061
:1031F000C1FB02214DF2281001F0BCFBDE214DF293
:10320000291001F0B7FB02214DF22A1001F0B2FBA8
:10321000F2214DF22B1001F0ADFB02214DF22C10EA
:1032200001F0A8FBFE214DF22D1001F0A3FB0321BC
:103230004DF22E1001F09EFB10214DF22F1001F0E7
:1032400099FB03214DF2301001F094FB33214DF234
:10325000311001F08FFB03214DF2321001F08AFB97
:103260006D214DF2331001F085FB00214FF45240E7
:1032700001F080FB33214DF2012001F07BFB0021A6
:103280004DF2022001F076FB34214DF2032001F0D3
:1032900071FB00214DF2042001F06CFB3A214DF24C
:1032A000052001F067FB00214DF2062001F062FBD2
:1032B0004A214DF2072001F05DFB00214DF208206C
:1032C00001F058FB5C214DF2092001F053FB002175
:1032D0004DF20A2001F04EFB81214DF20B2001F04E
:1032E00049FB00214DF20C2001F044FBA6214DF2D8
:1032F0000D2001F03FFB00214DF20E2001F03AFBC2
:10330000E5214DF20F2001F035FB01214DF2102097
:1033100001F030FB13214DF2112001F02BFB0121B4
:103320004DF2122001F026FB54214DF2132001F042
:1033300021FB01214DF2142001F01CFB82214DF2F2
:10334000152001F017FB01214DF2162001F012FBB0
:10335000CA214DF2172001F00DFB02214DF2182079
:1033600001F008FB00214DF2192001F003FB0221BE
:103370004DF21A2001F0FEFA01214DF21B2001F05E
:10338000F9FA02214DF21C2001F0F4FA34214DF239
:103390001D2001F0EFFA02214DF21E2001F0EAFAA1
:1033A00067214DF21F2001F0E5FA02214DF22020A5
:1033B00001F0E0FA84214DF2212001F0DBFA022134
:1033C0004DF2222001F0D6FAA4214DF2232001F083
:1033D000D1FA02214DF2242001F0CCFAB7214DF2AE
:1033E000252001F0C7FA02214DF2262001F0C2FA91
:1033F000CF214DF2272001F0BDFA02214DF2282005
:1034000001F0B8FADE214DF2292001F0B3FA0221D1
:103410004DF22A2001F0AEFAF2214DF22B2001F0FC
:10342000A9FA02214DF22C2001F0A4FAFE214DF25E
:103430002D2001F09FFA03214DF22E2001F09AFA7F
:1034400010214DF22F2001F095FA03214DF230208A
:1034500001F090FA33214DF2312001F08BFA032173
:103460004DF2322001F086FA6D214DF2332001F049
:1034700081FA00214FF4534001F07CFA33214DF2E0
:10348000013001F077FA00214DF2023001F072FABA
:1034900034214DF2033001F06DFA00214DF2043079
:1034A00001F068FA3A214DF2053001F063FA00218B
:1034B0004DF2063001F05EFA4A214DF2073001F07C
:1034C00059FA00214DF2083001F054FA5C214DF216
:1034D000093001F04FFA00214DF20A3001F04AFAAA
:1034E00081214DF20B3001F045FA00214DF20C30F4
:1034F00001F040FAA6214DF20D3001F03BFA002117
:103500004DF20E3001F036FAE5214DF20F3001F0A8
:1035100031FA01214DF2103001F02CFA13214DF255
:10352000113001F027FA01214DF2123001F022FA98
:1035300054214DF2133001F01DFA01214DF21430E7
:1035400001F018FA82214DF2153001F013FA012131
:103550004DF2163001F00EFACA214DF2173001F08B
:1035600009FA02214DF2183001F004FA00214DF25F
:10357000193001F0FFF902214DF21A3001F0FAF989
:1035800001214DF21B3001F0F5F902214DF21C3002
:1035900001F0F0F934214DF21D3001F0EBF9022178
:1035A0004DF21E3001F0E6F967214DF21F3001F0B7
:1035B000E1F902214DF2203001F0DCF984214DF2D5
:1035C000213001F0D7F902214DF2223001F0D2F979
:1035D000A4214DF2233001F0CDF902214DF2243027
:1035E00001F0C8F9B7214DF2253001F0C3F90221ED
:1035F0004DF2263001F0BEF9CF214DF2273001F017
:10360000B9F902214DF2283001F0B4F9DE214DF272
:10361000293001F0AFF902214DF22A3001F0AAF968
:10362000F2214DF22B3001F0A5F902214DF22C30A0
:1036300001F0A0F9FE214DF22D3001F09BF903219C
:103640004DF22E3001F096F910214DF22F3001F09D
:1036500091F903214DF2303001F08CF933214DF214
:10366000313001F087F903214DF2323001F082F957
:103670006D214DF2333001F07DF900214FF45440BB
:1036800001F078F933214DF2014001F073F9002186
:103690004DF2024001F06EF934214DF2034001F089
:1036A00069F900214DF2044001F064F93A214DF22C
:1036B000054001F05FF900214DF2064001F05AF992
:1036C0004A214DF2074001F055F900214DF2084022
:1036D00001F050F95C214DF2094001F04BF9002155
:1036E0004DF20A4001F046F981214DF20B4001F004
:1036F00041F900214DF20C4001F03CF9A6214DF2B8
:103700000D4001F037F900214DF20E4001F032F981
:10371000E5214DF20F4001F02DF901214DF210404D
:1037200001F028F913214DF2114001F023F9012194
:103730004DF2124001F01EF954214DF2134001F0F8
:1037400019F901214DF2144001F014F982214DF2D2
:10375000154001F00FF901214DF2164001F00AF970
:10376000CA214DF2174001F005F902214DF218402F
:1037700001F000F900214DF2194001F0FBF802219F
:103780004DF21A4001F0F6F801214DF21B4001F014
:10379000F1F802214DF21C4001F0ECF834214DF219
:1037A0001D4001F0E7F802214DF21E4001F0E2F861
:1037B00067214DF21F4001F0DDF802214DF220405B
:1037C00001F0D8F884214DF2214001F0D3F8022114
:1037D0004DF2224001F0CEF8A4214DF2234001F039
:1037E000C9F802214DF2244001F0C4F8B7214DF28E
:1037F000254001F0BFF802214DF2264001F0BAF851
:10380000CF214DF2274001F0B5F802214DF22840BA
:1038100001F0B0F8DE214DF2294001F0ABF80221B1
:103820004DF22A4001F0A6F8F2214DF22B4001F0B2
:10383000A1F802214DF22C4001F09CF8FE214DF23E
:103840002D4001F097F803214DF22E4001F092F83F
:1038500010214DF22F4001F08DF803214DF2304040
:1038600001F088F833214DF2314001F083F8032153
:103870004DF2324001F07EF86D214DF2334001F0FF
:1038800079F800214FF4554001F074F833214DF2DE
:10389000015001F06FF800214DF2025001F06AF87A
:1038A00034214DF2035001F065F800214DF204502F
:1038B00001F060F83A214DF2055001F05BF800216B
:1038C0004DF2065001F056F84A214DF2075001F032
:1038D00051F800214DF2085001F04CF85C214DF2F6
:1038E000095001F047F800214DF20A5001F042F86A
:1038F00081214DF20B5001F03DF800214DF20C50AA
:1039000001F038F8A6214DF20D5001F033F80021F6
:103910004DF20E5001F02EF8E5214DF20F5001F05E
:1039200029F801214DF2105001F024F813214DF235
:10393000115001F01FF801214DF2125001F01AF858
:1039400054214DF2135001F015F801214DF214509D
:1039500001F010F882214DF2155001F00BF8012111
:103960004DF2165001F006F8CA214DF2175001F041
:1039700001F802214DF2185000F0FCFF00214DF239
:10398000195000F0F7FF02214DF21A5000F0F2FF3B
:1039900001214DF21B5000F0EDFF02214DF21C50B1
:1039A00000F0E8FF34214DF21D5000F0E3FF02214A
:1039B0004DF21E5000F0DEFF67214DF21F5000F067
:1039C000D9FF02214DF2205000F0D4FF84214DF2A6
:1039D000215000F0CFFF02214DF2225000F0CAFF2B
:1039E000A4214DF2235000F0C5FF02214DF22450D6
:1039F00000F0C0FFB7214DF2255000F0BBFF0221BF
:103A00004DF2265000F0B6FFCF214DF2275000F0C6
:103A1000B1FF02214DF2285000F0ACFFDE214DF243
:103A2000295000F0A7FF02214DF22A5000F0A2FF1A
:103A3000F2214DF22B5000F09DFF02214DF22C504F
:103A400000F098FFFE214DF22D5000F093FF03216E
:103A50004DF22E5000F08EFF10214DF22F5000F04D
:103A600089FF03214DF2305000F084FF33214DF2E5
:103A7000315000F07FFF03214DF2325000F07AFF09
:103A80006D214DF2335000F075FF00214FF4564088
:103A900000F070FF33214DF2016000F06BFF002158
:103AA0004DF2026000F066FF34214DF2036000F039
:103AB00061FF00214DF2046000F05CFF3A214DF2FD
:103AC000056000F057FF00214DF2066000F052FF44
:103AD0004A214DF2076000F04DFF00214DF20860D1
:103AE00000F048FF5C214DF2096000F043FF002127
:103AF0004DF20A6000F03EFF81214DF20B6000F0B4
:103B000039FF00214DF20C6000F034FFA6214DF288
:103B10000D6000F02FFF00214DF20E6000F02AFF33
:103B2000E5214DF20F6000F025FF01214DF21060FC
:103B300000F020FF13214DF2116000F01BFF012166
:103B40004DF2126000F016FF54214DF2136000F0A8
:103B500011FF01214DF2146000F00CFF82214DF2A3
:103B6000156000F007FF01214DF2166000F002FF22
:103B7000CA214DF2176000F0FDFE02214DF21860DF
:103B800000F0F8FE00214DF2196000F0F3FE022172
:103B90004DF21A6000F0EEFE01214DF21B6000F0C4
:103BA000E9FE02214DF21C6000F0E4FE34214DF2EA
:103BB0001D6000F0DFFE02214DF21E6000F0DAFE13
:103BC00067214DF21F6000F0D5FE02214DF220600A
:103BD00000F0D0FE84214DF2216000F0CBFE0221E6
:103BE0004DF2226000F0C6FEA4214DF2236000F0E9
:103BF000C1FE02214DF2246000F0BCFEB7214DF25F
:103C0000256000F0B7FE02214DF2266000F0B2FE02
:103C1000CF214DF2276000F0ADFE02214DF2286069
:103C200000F0A8FEDE214DF2296000F0A3FE022183
:103C30004DF22A6000F09EFEF2214DF22B6000F062
:103C400099FE02214DF22C6000F094FEFE214DF20F
:103C50002D6000F08FFE03214DF22E6000F08AFEF1
:103C600010214DF22F6000F085FE03214DF23060EF
:103C700000F080FE33214DF2316000F07BFE032125
:103C80004DF2326000F076FE6D214DF2336000F0AF
:103C900071FE5521184600F06DFEAA21204600F065
:103CA00069FE5221284600F065FE0821304600F0EA
:103CB00061FE0021384600F05DFECC21484600F050
:103CC00059FE0021504600F055FE0521404600F007
:103CD00051FE7021584600F04DFE70214BF20170EC
:103CE00000F048FE01214FF4384000F043FE03216C
:103CF0004BF6010000F03EFE03214BF6020000F0FF
:103D000039FE03214BF6030000F034FE02214FF48C
:103D10003C4000F02FFE00214BF6014000F02AFE4F
:103D200000214BF6024000F025FED0214FF449401F
:103D300000F020FE02214CF6011000F01BFE502185
:103D40004CF6021000F016FE50214CF6031000F065
:103D500011FE50214CF6041000F00CFE00214FF42F
:103D6000545000F007FE55214FF4685000F002FE59
:103D70004FF4885000F0E8FD7820FCF703FCBDE824
:103D8000F05F4FF4245000F0DFBD10B5E22000F0EA
:103D9000DBFD1D2000F0CCFD022000F0C9FD042059
:103DA00000F0C6FD6420FCF7EDFBE02000F0CCFD48
:103DB000012000F0BDFD0A20FCF7E4FBE02000F04C
:103DC000C3FD032000F0B4FD0C20FCF7DBFB012059
:103DD00000F0BAFD0A20FCF7D5FBE62000F0B4FDA8
:103DE0002F2000F0A5FDFF2000F0A2FDFF2000F035
:103DF0009FFDB02000F0A8FD202000F099FD0020DC
:103E000000F096FD032000F093FD40F21F3000F01B
:103E10008FFD012000F08CFD40F2DF1000F088FDE6
:103E2000002000F085FDB42000F08EFD042000F09D
:103E30007FFD40F21F4000F07BFD002000F078FD88
:103E40002E2000F075FD002000F072FD002000F033
:103E50006FFD002000F06CFD002000F069FDB62031
:103E600000F072FD022000F063FD4FF4037000F0DB
:103E70005FFD002000F05CFD172000F059FD1520CB
:103E800000F056FD002000F053FD002000F050FD32
:103E9000F02000F059FD032000F04AFD292000F039
:103EA00053FDD02000F050FD002000F041FDBE2069
:103EB00000F04AFD052000F03BFDFE2000F038FD3B
:103EC000012000F035FD002000F032FD002000F060
:103ED0002FFD002000F02CFDB82000F035FD032060
:103EE00000F026FD012000F023FDBA2000F02CFD9B
:103EF000BDE81040012000F01BBD10B5112000F0FE
:103F000023FD7820FCF73EFB362000F01DFD00204D
:103F100000F00EFD3A2000F017FD052000F008FD2E
:103F2000B22000F011FD0C2000F002FD0C2000F08A
:103F3000FFFC002000F0FCFC332000F0F9FC3320F3
:103F400000F0F6FCB72000F0FFFC352000F0F0FC9C
:103F5000BB2000F0F9FC322000F0EAFCC02000F0A9
:103F6000F3FC0C2000F0E4FCC22000F0EDFC01208A
:103F700000F0DEFCC32000F0E7FC102000F0D8FCCD
:103F8000C42000F0E1FC202000F0D2FCC62000F0AC
:103F9000DBFC0F2000F0CCFCD02000F0D5FCA420EE
:103FA00000F0C6FCA12000F0C3FCE02000F0CCFC37
:103FB000D02000F0BDFC002000F0BAFC022000F090
:103FC000B7FC072000F0B4FC0A2000F0B1FC282068
:103FD00000F0AEFC322000F0ABFC442000F0A8FC66
:103FE000422000F0A5FC062000F0A2FC0E2000F00C
:103FF0009FFC122000F09CFC142000F099FC17207C
:1040000000F096FCE12000F09FFCD02000F090FC36
:10401000002000F08DFC022000F08AFC072000F058
:1040200087FC0A2000F084FC282000F081FC31206D
:1040300000F07EFC542000F07BFC472000F078FC70
:104040000E2000F075FC1C2000F072FC172000F020
:104050006FFC1B2000F06CFC1E2000F069FC2A2085
:1040600000F072FC002000F063FC002000F060FC17
:10407000002000F05DFCEF2000F05AFC2B2000F047
:1040800063FC002000F054FC002000F051FC0120F3
:1040900000F04EFC3F2000F04BFCBDE81040292012
:1040A00000F052BC10B5112000F04EFC7820FCF757
:1040B00069FA362000F048FC482000F039FC3A202C
:1040C00000F042FC552000F033FCF02000F03CFCF6
:1040D000C32000F02DFCF02000F036FC962000F00C
:1040E00027FCB42000F030FC012000F021FCB620B9
:1040F00000F02AFC0A2000F01BFCA22000F018FCB3
:10410000B72000F021FCC62000F012FCB92000F01E
:104110001BFC022000F00CFCE02000F009FCC02099
:1041200000F012FC802000F003FC162000F000FCE0
:10413000C12000F009FC192000F0FAFBC22000F0B9
:1041400003FCA72000F0F4FBC52000F0FDFB1620C7
:1041500000F0EEFBE82000F0F7FB402000F0E8FB69
:104160008A2000F0E5FB002000F0E2FB002000F0D8
:10417000DFFB292000F0DCFB192000F0D9FBA52093
:1041800000F0D6FB332000F0D3FBE02000F0DCFB96
:10419000F02000F0CDFB072000F0CAFB0D2000F05E
:1041A000C7FB042000F0C4FB052000F0C1FB142075
:1041B00000F0BEFB362000F0BBFB542000F0B8FB43
:1041C0004C2000F0B5FB382000F0B2FB132000F0CB
:1041D000AFFB142000F0ACFB2E2000F0A9FB342034
:1041E00000F0A6FBE12000F0AFFBF02000F0A0FB08
:1041F000102000F09DFB142000F09AFB0E2000F030
:1042000097FB0C2000F094FB082000F091FB352078
:1042100000F08EFB442000F08BFB4C2000F088FB6C
:10422000262000F085FB102000F082FB122000F019
:104230007FFB2C2000F07CFB322000F079FBF0208B
:1042400000F082FB3C2000F073FBF02000F07CFBD0
:10425000692000F06DFB7820FCF794F9212000F034
:1042600073FBBDE81040292000F06EBB2DE9F05F24
:10427000D32000F069FB00F04FF9A24CA08000F0C1
:104280004BF9A08000F048F94FF6FF7101EA0020D9
:10429000A08000F041F9A18849F241360843A0808E
:1042A00047F2897545F2103747F2967845F2105972
:1042B00049F6060A41F6631BB0427DD0042000F0A7
:1042C00043FB00F029F9A08000F026F9A08000F05F
:1042D00023F94FF6FF7101EA0020A08000F01CF9DD
:1042E000A1880843A0F50541A080523965D0A842B5
:1042F00062D0D42000F028FB00F00EF9A08000F07E
:104300000BF9A08000F008F94FF6FF7101EA0020D8
:10431000A08000F001F9A1880843A080B8427ED0B7
:10432000D32000F011FB00F0F7F8A08000F0F4F8C3
:10433000A08000F0F1F84FF6FF7101EA0020A080A4
:1043400000F0EAF8A1880843A080404567D05521D5
:104350004FF4704000F00EFBAA214FF2010000F074
:1043600009FB52214FF2020000F004FB08214FF23A
:10437000030000F0FFFA01214FF2040000F0FAFA06
:104380004FF4454000F0E0FA00F0C6F84FF6FF7138
:1043900001EA0020A0804CF2015000F0D5FA00F0B4
:1043A000BBF8A1880843A0800520FCF7EBF8A188A2
:1043B000494534D0D32001E02CE02CE000F0C4FAD1
:1043C00000F0AAF8A08000F0A7F8A08000F0A4F800
:1043D0004FF6FF7101EA0020A08000F09DF8A1884F
:1043E0000843A08050451AD0A12000F0ADFA00F09B
:1043F00093F8A08000F090F84FF6FF7101EA0020DA
:10440000A08000F089F8A1880843A0F5AE41A08003
:10441000613902D003E0A58001E0A4F804B0A188CE
:1044200039A0FCF7BFFFA088A84202D1FFF765FDC5
:104430001FE0B04202D1FDF7F9FA1AE0B84202D10A
:10444000FDF7ACFD15E0404502D1FFF72BFE10E073
:10445000484502D1FEF71CFD0BE0504502D1FDF7A7
:10446000FCFB06E0584504D1FFF78FFC642000F008
:1044700037FAA1884FF02040A94203D0B14201D0C1
:10448000594510D1D0F81C1121F00F01C0F81C11B2
:10449000D0F81C1141F00301C0F81C11D0F81C1118
:1044A00041F440711DE0B94205D0414503D0494572
:1044B00001D0514517D1D0F81C1121F00F01C0F8DF
:1044C0001C11D0F81C1141F00201C0F81C11D0F8E9
:1044D0001C1121F47061C0F81C11D0F81C1141F4BA
:1044E0000071C0F81C110020FDF71EFA01225102D4
:1044F0000848FCF7A7F9BDE8F05F4FF6FF70FDF73D
:10450000FBB90000E00000204C43442049443A2518
:10451000780D0A00001C024008B50220401EFDD2A2
:1045200003480088ADF80000BDF8000008BD000099
:104530000008006C70B55F4C00232146A279898881
:1045400041F66316012A01D01AB10CE0B14202D142
:1045500009E0B14207D1082805D2DFE800F01618BB
:1045600012140C19100E082812D2DFE800F0110402
:1045700006080A0C0E1080230AE0402308E0C0233E
:1045800006E0202304E0602302E0A02300E0E02313
:10459000362045F21055A94200D10002A1F5134280
:1045A000413A07D0A1F5EE42893A03D0A1F5EE4297
:1045B000963A01D143F00803194600F0DBF9A188CF
:1045C000B1420AD098062088628802D5904202D370
:1045D00003E0904201D9228060806089A94240D1E5
:1045E00000F0B2F9002000F0A3F96089401C80B20D
:1045F00000F0AAF9002000F09BF96089801C80B2CD
:1046000000F0A2F92088401EC0F30F2000F090F9BE
:104610006089C01C80B200F097F92078401EC0B2BB
:1046200000F086F9A08900F08FF9002000F080F9F1
:10463000A089401C80B200F087F9002000F078F9D2
:10464000A089801C80B200F07FF96088401EC0F312
:104650000F2000F06DF9A089C01C80B200F074F941
:1046600021E000F071F9002000F062F9002000F074
:104670005FF92088401EC0F30F2000F059F9207820
:10468000401EC0B200F054F9A08900F05DF900208E
:1046900000F04EF9002000F04BF96088401EC0F396
:1046A0000F2000F045F9A078BDE87040401EC0B270
:1046B00000F03EB9E0000020F0B53B4A0D4604464C
:1046C000060A918810462F0A4089A1F5C853633B1A
:1046D00016D0A1F5AA43103B4CD000F035F9304676
:1046E00000F026F9E0B200F023F9908900F02CF9EF
:1046F000384600F01DF9E8B2BDE8F04000F018B906
:10470000917931B300F020F9304600F011F9E0B2B0
:1047100000F00EF91088401EC0F30F2000F008F9D9
:104720001078401E5FFA80F000F002F9908900F0E6
:104730000BF9384600F0FCF8E8B200F0F9F85088C0
:10474000401EC0F30F2000F0F3F89078401EC0B276
:10475000D2E71188091B491E8CB200F0F5F8002041
:1047600000F0E6F8002000F0E3F8200A00F0E0F89E
:10477000E0B2D9E700F0E8F8304600F0D9F8508907
:10478000401C80B200F0E0F8E0B200F0D1F890896F
:1047900000F0DAF8384600F0CBF89089401C80B27F
:1047A00000F0D2F8A7E70000E00000202DE9FF4F5D
:1047B0001D460C468B46580700D0012000EBD50063
:1047C000690810FB01F0203A00F0FF0AD0B20C2D6E
:1047D0000AD0102D0CD0182D0ED0202D46D12449F2
:1047E00001EB801600203EE000EB4001214806E08E
:1047F000214901EB0016F5E700EBC0011F4800EB73
:104800008106EFE716F808704FF00009380601D569
:104810000E9A03E00D9828B91948026821460098BD
:10482000FDF7F8F87806070E1648641CA4B2408815
:10483000A0421BD9A4EB0B00A8420AD100985C4609
:10484000401C80B200900F480188009881420DD929
:1048500006E009F1010000F0FF09B9F1080FD5D316
:1048600008F10100C0B280465045CBD3BDE8FF8FB0
:104870004C6200088C4A0008004F0008F054000801
:1048800024000020E00000202DE9FC4F044600F049
:10489000FF0910190D46DDE90BB61FFA80F858190B
:1048A00087B24FF0000A13E0444503D305EB0B0039
:1048B0004C4685B2BD4210D20D985B46CDE900A0B2
:1048C00029462046FFF772FF04EB5B0084B2761C9A
:1048D0003278A2F120005E28E6D9BDE8FC8F000006
:1048E00010B50246BE2000F02FF8052000F020F899
:1048F0001046FBF71AFD9FED0C1B53EC112BFBF739
:10490000A2FCFBF71FFD80B200F012F8012000F0BE
:104910000FF8FF2000F00CF8002000F009F8BDE8C7
:104920001040002000F004B86666666666660440C3
:1049300001B5BDF80000ADF80000BDF80000014968
:10494000088008BD0008006C01B5BDF80000ADF896
:104950000000BDF800000149088008BDFE07006C9A
:10496000024803490089088070470000E0000020E9
:10497000FE07006C024A1080901C01807047000006
:10498000FE07006C0EB5FBF771FFFCF737FCFCF778
:104990008FFBFCF747FBFCF70FFCA820FCF77CFF24
:1049A000FFF764FC29482AA182882C48FCF70AFDFD
:1049B000DFF8AC80294FDFF8ACB04FF478454FF00A
:1049C00020094FF0180A1026A8F10204217838F8BF
:1049D0001100FCF791FF24A1CDF80090CDE901155D
:1049E0002023F02228210A20FFF74EFF20A1CDF836
:1049F00000A0CDE901151823F02250210A20FFF76D
:104A000043FF1EA00096CDE901051023F0226E2180
:104A10000A20FFF739FF0096CDE901751023F02237
:104A200082210A20FFF730FF2078401CC0B220709E
:104A30000C2801D10020207001215846FBF7FAFE16
:104A40004FF47A70FBF79EFDC0E70000E000002005
:104A50004C43442049443A2530345800400000205B
:104A6000020000200010024053544D333200000079
:104A70005446544C434420544553540041544F4DE4
:104A800040414C49454E54454B0000000000000099
:104A90000000000000000000000000003F40000097
:104AA0000000000000003000400030004000000026
:104AB00009000BC03D000BC03D00090018C0244098
:104AC0007FE0224031800000180024C01B000D80D0
:104AD0003240018003801C4027401C80074000407A
:104AE0001000600000000000000000000000000056
:104AF00000001F80204040200000402020401F80F8
:104B000000000000090006001F80060009000000E8
:104B1000040004003F800400040000000010006056
:104B20000000000000000000040004000400040075
:104B30000400000000000040000000000000000031
:104B4000002001C006003800400000001F80204007
:104B5000204020401F800000000010403FC0004067
:104B60000000000018C021402240244018400000EE
:104B700010802040244024401B80000002000D00D3
:104B800011003FC0014000003C80244024402440EC
:104B9000238000001F802440244034400380000014
:104BA0003000200027C03800200000001B80244077
:104BB000244024401B8000001C0022C022402240D0
:104BC0001F800000000000000840000000000000FE
:104BD000000000000460000000000000000004006D
:104BE0000A00110020804040090009000900090066
:104BF0000900000000004040208011000A0004006D
:104C00001800200023402400180000001F802040CE
:104C1000274029401F400000004007C039000F0016
:104C200001C0004020403FC0244024401B800000C1
:104C30001F802040204020403080000020403FC0A6
:104C4000204020401F80000020403FC024402E40D4
:104C500030C0000020403FC024402E003000000043
:104C60000F001080204022403380020020403FC0CF
:104C7000040004003FC02040204020403FC02040AE
:104C8000204000000060202020203FC020002000A5
:104C900020403FC024400B0030C0204020403FC097
:104CA00020400040004000C03FC03C0003C03C002A
:104CB0003FC0000020403FC00C4023003FC0200008
:104CC0001F802040204020401F80000020403FC027
:104CD00024402400180000001F802140214020E0D3
:104CE0001FA0000020403FC02440260019C0004003
:104CF00018C0244024402240318000003000204071
:104D00003FC020403000000020003F8000400040B5
:104D10003F80200020003E0001C007003800200036
:104D2000380007C03C0007C038000000204039C0F0
:104D3000060039C0204000002000384007C038403D
:104D400020000000304021C02640384020C0000034
:104D5000000000007FE040204020000000007000C4
:104D60000C000380004000000000402040207FE055
:104D700000000000000020004000200000000000B3
:104D800000100010001000100010001000000000C3
:104D900040000000000000000000028005400540C7
:104DA00003C0004020003FC00440044003800000D6
:104DB000000003800440044006400000000003801F
:104DC000044024403FC000400000038005400540EF
:104DD00003400000000004401FC024402440200085
:104DE000000002E0055005500650042020403FC05E
:104DF0000440040003C000400000044027C00040FD
:104E00000000000000100010041027E00000000067
:104E100020403FC00140070004C004402040204023
:104E20003FC000400040000007C0040007C004006D
:104E300003C00000044007C00440040003C0004059
:104E4000000003800440044003800000041007F0C9
:104E5000045004400380000000000380044004501C
:104E600007F00010044007C00240040004000000E6
:104E7000000006400540054004C00000000004009A
:104E80001F800440004000000400078000400440F0
:104E900007C000400400070004C0018006000400B1
:104EA000060001C0070001C006000000044006C063
:104EB000010006C0044000000410071004E0018057
:104EC000060004000000044005C006400440000045
:104ED0000000000004007BE0402000000000000013
:104EE0000000FFF000000000000040207BE0040014
:104EF0000000000040008000400020002000400032
:104F000000000000000000000000000000000000A1
:104F10000000000000001FCC000C0000000000009A
:104F20000000080030006000080030006000000051
:104F3000022003FC1E20022003FC1E200220000091
:104F400000000E1811043FFF10840C7800000000D0
:104F50000F0010840F3800C0077818840078000014
:104F600000780F8410C411240E9800E40084000817
:104F70000800680070000000000000000000000051
:104F800000000000000007E01818200440020000A4
:104F9000000040022004181807E000000000000094
:104FA0000240024001800FF00180024002400000F8
:104FB0000080008000800FF80080008000800000EA
:104FC0000001000D000E00000000000000000000C5
:104FD0000000008000800080008000800080008051
:104FE0000000000C000C00000000000000000000A9
:104FF0000000000600180060018006001800200074
:10500000000007F0080810041004080807F000006A
:105010000000080408041FFC000400040000000055
:1050200000000E0C10141024104411840E0C00000B
:1050300000000C1810041104110412880C700000F8
:10504000000000E00320042408241FFC00240000CA
:1050500000001F98108411041104108810700000C3
:10506000000007F00888110411041888007000007F
:1050700000001C00100010FC13001C0010000000B9
:1050800000000E3811441084108411440E380000C2
:1050900000000700088C10441044088807F0000046
:1050A000000000000000030C030C000000000000E2
:1050B00000000000000101060000000000000000E8
:1050C00000000080014002200410080810040000C5
:1050D00002200220022002200220022002200000E2
:1050E00000001004080804100220014000800000A5
:1050F00000000E001200100C106C10800F00000059
:1051000003E00C1813E4142417C4082807D0000087
:105110000004003C03C41C40074000E4001C0004E1
:1051200010041FFC1104110411040E88007000000B
:1051300003E00C1810041004100410081C100000E8
:1051400010041FFC100410041004080807F00000ED
:1051500010041FFC1104110417C4100408180000E7
:1051600010041FFC1104110017C0100008000000FB
:1051700003E00C181004100410441C7800400000D8
:1051800010041FFC10840080008010841FFC100499
:105190000000100410041FFC1004100400000000A4
:1051A00000030001100110011FFE1000100000009C
:1051B00010041FFC110403801464181C1004000068
:1051C00010041FFC1004000400040004000C000084
:1051D00010041FFC1F0000FC1F001FFC1004000037
:1051E00010041FFC0C04030000E010181FFC10004A
:1051F00007F00808100410041004080807F0000065
:1052000010041FFC10841080108010800F0000001C
:1052100007F0081810241024101C080A07F20000D8
:1052200010041FFC1104110011C011300E0C0004F9
:1052300000000E1C11041084108410441C3800005F
:105240001800100010041FFC1004100018000000CB
:1052500010001FF810040004000410041FF81000D0
:1052600010001E0011E0001C007013801C001000D4
:105270001FC0103C00E01F0000E0103C1FC00000F9
:105280001004180C163401C001C01634180C100498
:1052900010001C00130400FC13041C00100000008C
:1052A0000804101C1064108413041C04101800005F
:1052B0000000000000007FFE4002400240020000AB
:1052C000000030000C0003800060001C00030000A0
:1052D00000004002400240027FFE0000000000008B
:1052E00000000000200040004000400020000000BE
:1052F00000010001000100010001000100010001A6
:1053000000004000400020000000000000000000FD
:1053100000000098012401440144014400FC000401
:1053200010001FFC008801040104008800700000C8
:1053300000000070008801040104010400880000DE
:105340000000007000880104010411081FFC000423
:10535000000000F8014401440144014400C8000079
:105360000000010401040FFC1104110411001800D5
:10537000000000D601290129012901C90106000008
:1053800010041FFC008401000100010400FC000463
:1053900000000104190419FC0004000400000000CE
:1053A0000000000300010101190119FE00000000C6
:1053B00010041FFC0024004001B4010C0104000093
:1053C0000000100410041FFC000400040000000092
:1053D000010401FC0104010001FC0104010000FCC6
:1053E000010401FC008401000100010400FC000430
:1053F000000000F8010401040104010400F80000A9
:10540000010101FF00850104010400880070000013
:1054100000000070008801040104010501FF000183
:105420000104010401FC008401040100018000006A
:10543000000000CC01240124012401240198000073
:1054400000000100010007F8010401040000000051
:10545000010001F8000400040004010801FC00043C
:10546000010001800170000C00100160018001004A
:1054700001F0010C003001C00030010C01F001000E
:1054800000000104018C00740170018C0104000013
:10549000010101810171000E00180160018001000D
:1054A00000000184010C013401440184010C00005E
:1054B000000000000000000001003EFC400240022D
:1054C0000000000000000000FFFF000000000000DE
:1054D0000000400240023EFC01000000000000000D
:1054E000000060008000800040004000200020009C
:1054F00000000000000000000000000000000000AC
:10550000000000000000000000000000000000009B
:10551000000000000000000000000000000000008B
:105520000000000F80380FFE380F803800000000A8
:10553000000000000000000000000000000001006A
:10554000000600000C0000380000310000060000DA
:105550000C000038000030000000000000000000D7
:1055600061800067F807F980006180006180006158
:10557000800061800067F807F9800061800000000A
:1055800000000000000001C0E003E0F00630080465
:1055900018081FFFFE040E080787F00381E00000D3
:1055A0000000000001F000060C00040408060C7066
:1055B00001F9C0000E00003BE000EC1807080804E9
:1055C0000C180003E00000000001E00007F003F801
:1055D00018041C0804170807E1D003C0E00023B03A
:1055E000003C08002008000010000000000000013E
:1055F00000003100003200001C000000000000002C
:10560000000000000000000000000000000000009A
:10561000000000000000000000000000000000008A
:105620007F0001FFC00780F00C001810000420006C
:10563000020000000000002000021000040C00180E
:105640000780F001FFC0007F0000000000000000A4
:1056500000000000000000000000000042000066A2
:1056600000006600003C0000180003FFC0001800A6
:10567000003C0000660000660000420000000000E0
:10568000080000080000080000080000080001FFF2
:10569000C000080000080000080000080000080022
:1056A00000000000000100003100003200001C007A
:1056B00000000000000000000000000000000000EA
:1056C00000000000000000000800000800000800C2
:1056D00000080000080000080000080000080000A2
:1056E00008000008000000000000000000000000AA
:1056F0003800003800003800000000000000000002
:105700000000000000000000000000000000000099
:10571000000600001C000070000180000E00003830
:105720000000C0000700001C000030000000000066
:10573000000000007F8001FFE00380700600180475
:10574000000804000806001803807001FFE0007FD5
:1057500080000000000000000000010008010008B7
:1057600001000803FFF807FFF80000080000080028
:10577000000800000000000000000001C03802C066
:1057800058040098040118040218040418061C1890
:1057900003F81801E0F8000000000000000000011C
:1057A000C0E003C0F0040008040808040808061854
:1057B0000803F41801E7F00001E000000000000019
:1057C000000000000300000D000011000061000057
:1057D000810803010807FFF80FFFF8000108000126
:1057E000080000000000000000E007FCD0060808E8
:1057F000061008061008061008061838060FF006EE
:1058000007C0000000000000000000003F8001FF12
:10581000E00384300208180410080410080410087B
:10582000071810030FF00007C00000000000000080
:10583000000003C0000700000600000600F806078D
:10584000F806180006E0000700000600000000004F
:1058500000000001E1E003F7F0063410041808042A
:105860001808040C08040C0806161803F3F001C10C
:10587000E000000000000000F80003FC30030638E0
:105880000402080402080402080404100308F001DA
:10589000FFC0007F000000000000000000000000CA
:1058A0000000000000000000703800703800703800
:1058B00000000000000000000000000000000000E8
:1058C000000000000000000000000000301A00305E
:1058D0001C000000000000000000000000000000AC
:1058E000000000000000000800001400002200007A
:1058F00041000080800100400200200400100800E8
:10590000080000000000000021000021000021002C
:1059100000210000210000210000210000210000E2
:10592000210000210000000000000000000008002D
:1059300008040010020020010040008080004100A7
:105940000022000014000008000000000000000316
:10595000C00004C000040000080038080F38080820
:10596000380810000C300007E00003C00000000001
:10597000000000003F8000FFE0038070020F10066F
:10598000708804C088048308047F8802C0900301E3
:105990002000FE400000080000180001F8003E084A
:1059A00001C20007020007E20000FE00001FC8005D
:1059B00001F800003800000804000807FFF807FF9E
:1059C000F804080804080804080804080806180869
:1059D00003F41801E7F00001E000000000000000FF
:1059E0003F8001FFE00380700200180400080400FB
:1059F000080400080400100600200780C000000012
:105A000004000807FFF807FFF80400080400080472
:105A1000000804001802001003807001FFE0007FFE
:105A20008000000004000807FFF807FFF8040808DA
:105A3000040808040808040808043E0804000806CE
:105A4000001801006000000004000807FFF807FFCD
:105A5000F8040808040800040800040800043E00D4
:105A600006000006000001800000000000000000A9
:105A70003F8001FFE0038070060018040008040264
:105A8000080402080203F00783F00002000002008D
:105A900004000807FFF807FFF804080800080000E2
:105AA000080000080000080004080807FFF807FFC6
:105AB000F8040008000000000000040008040008CA
:105AC00004000807FFF807FFF804000804000804B2
:105AD00000080000000000000000000000060000B8
