:020000040800F2
:10000000F08E00209D010008B7230008E51F0008BE
:10001000B5230008F107000865250008000000006E
:10002000000000000000000000000000BB230008EA
:10003000F307000800000000B9230008BD230008F2
:10004000B7010008B7010008B7010008B7010008B0
:10005000B7010008B7010008B7010008B7010008A0
:10006000750900087B09000881090008B70100082C
:10007000B7010008B7010008B7010008B701000880
:10008000B7010008B7010008B7010008B701000870
:10009000B7010008B7010008B7010008B701000860
:1000A000B7010008B7010008B7010008B701000850
:1000B000B7010008B7010008B7010008B701000840
:1000C000B7010008B7010008B7010008B701000830
:1000D000B7010008B7010008B7010008B701000820
:1000E000B7010008B7010008B7010008B701000810
:1000F000B7010008B7010008B7010008B701000800
:10010000B7010008B7010008B7010008B7010008EF
:10011000B7010008B7010008B7010008B7010008DF
:10012000B7010008B7010008B7010008B7010008CF
:10013000B701000845080008B7010008B70100082A
:10014000B7010008B7010008B7010008B7010008AF
:10015000B7010008B7010008B7010008B70100089F
:10016000B7010008B7010008B7010008B70100088F
:10017000B7010008B7010008B7010008000000003F
:10018000B7010008B7010008DFF80CD000F00CFB45
:1001900000480047E5820008F08E002006488047AE
:1001A00006480047FEE7FEE7FEE7FEE7FEE7FEE75C
:1001B000FEE7FEE7FEE7FEE74924000889010008A4
:1001C0002DE9F05F0546002092469B46884606468C
:1001D000814640241BE0284641464746224600F01F
:1001E000B6F953465A46C01A914110D311461846E3
:1001F000224600F09DF92D1A67EB01084F46224672
:100200000120002100F094F917EB00094E41201E57
:10021000A4F10104DFDC484631462A464346BDE8E6
:10022000F09F00000649074A0868504343F239022C
:10023000104408604008704701490860704700009A
:10024000D80000206D4EC64110B5431A934209D222
:100250008318881803E010F8011D03F8011D521ED1
:10026000F9D210BD40EA01039B0703D009E008C999
:10027000121F08C0042AFAD203E011F8013B00F86B
:10028000013B521EF9D210BDD2B201E000F8012BA1
:10029000491EFBD270470022F6E710B513460A4606
:1002A00004461946FFF7F0FF204610BD30B504465E
:1002B0000020034600E05B1C934203D2E05CCD5C6F
:1002C000401BF8D030BD2DE9FE4F81EA030404F055
:1002D000004421F0004100944FF0000B23F0004354
:1002E00050EA01045ED052EA03045BD0C3F30A541F
:1002F000C1F30A552C44A4F2F3340194A0FB025438
:10030000C1F3130141F48011C3F3130343F48013C9
:1003100001FB024400FB034E840A970A44EA81541D
:1003200047EA8357A4FB076802958D0A05FB0785FA
:100330004FEA932C04FB0C542705029D4FEA065804
:1003400047EA1637B5EB08056EEB070C870E920EE1
:1003500047EA811742EA8312A7FB0201B6EB0B01C1
:1003600064EB00042B0D43EA0C335E1844EB1C5085
:10037000DA465146E7FB0201C5F313044FEA0B339B
:1003800043EA14534FEA0432019C43EA0603A4F102
:100390000C040294009CCDE900B400F0F7F803B01F
:1003A000BDE8F08F00200146F9E72DE9F04D81EA24
:1003B000030404F0004B21F0004514464FF0000AFE
:1003C00023F0004150EA050220D054EA01021DD07A
:1003D000C5F30A570246C5F31303C1F31300C1F373
:1003E0000A5640F4801543F48013A7EB0608101B4F
:1003F000D64608F2FD3873EB050002D308F1010878
:1004000001E092185B41B8F1000F03DA00200146C9
:10041000BDE8F08D00204FF48011064684460EE0C2
:10042000171B73EB050705D3121B63EB050306438C
:100430004CEA010C49084FEA300092185B4150EA3F
:100440000107EDD152EA030012D082EA040083EAE8
:100450000501084305D0101BAB4106D20122002341
:1004600006E000224FF0004302E06FF0010253105B
:100470001AEB06004CEB085110EB0A0041EB0B01A4
:10048000BDE8F04D00F073B80EB540F23341029173
:100490000021CDE900110A460B4600F077F803B0C1
:1004A00000BDC1F30A5210B5C1F3130140F2FF338E
:1004B00041F480119A4201DA002010BD40F233432A
:1004C0009A42A2F2334203DC524200F040F810BDDF
:1004D000904010BD30B5041E71F1000404DB4FF0F4
:1004E0000044404264EB0101141E73F1000405DB7B
:1004F0001C464FF00043524263EB0403994208BF8D
:10050000904230BD30B50B46014600202022012428
:1005100009E021FA02F59D4205D303FA02F5491BD1
:1005200004FA02F52844151EA2F10102F1DC30BDE7
:10053000202A04DB203A00FA02F1002070479140A3
:10054000C2F1200320FA03F3194390407047202A98
:1005500004DB203A21FA02F00021704721FA02F36D
:10056000D040C2F12002914008431946704710B5AF
:10057000141E73F1000408DA401C41F100019218C6
:100580005B411A4301D120F0010010BD2DE9F04D6F
:1005900092469B4611B1B1FA81F202E0B0FA80F2C4
:1005A00020329046FFF7C4FF04460F4640EA0A0097
:1005B00041EA0B0153465A46084313D0114653EA09
:1005C000010019D0C8F140025046FFF7C0FF0546B0
:1005D0000E46504659464246FFF7AAFF084305D04B
:1005E000012004E020463946BDE8F08D0020054397
:1005F00046EAE0762C4337430A986305E40AA0EB09
:1006000008000022FD0A44EA47540A3002D50020BF
:100610000146E9E7010510196941DDE908450019BE
:100620006941BDE8F04DA2E72DE9FE4F804681EA21
:100630000300C00F0C46009021F0004123F000455C
:10064000B8EB0200A94105D24046214690461C461F
:100650000B46024623F00040104347D0270DC7F356
:100660000A00C3F30A510290401A019040286BDA45
:10067000C3F3130040F4801B0098924620B100237E
:10068000D2EB030A63EB0B0B01985946C0F1400211
:100690005046FFF74DFF06460D4650465946019A13
:1006A00000F094F810EB08006141002487EA115231
:1006B00084EAE7731A4340D0009A62B3019A012A90
:1006C0004FEA075215DC001B61EB02014FF00042BC
:1006D00002EA0752CDE90042001C41F58011324682
:1006E0002B46FFF753FF03B0BDE8F08F404621468D
:1006F000F9E7001B61EB0201001C41F580130018B3
:100700005B412018A2F5001747EB030140EAD570C2
:10071000B6196D4111E06D084FEA360645EAC0751D
:100720004FEA0752001B61EB0201001C41F58011EA
:1007300049084FEA30000019514132462B4603B0B8
:10074000BDE8F04FFFF713BF0098012240000023DF
:10075000D0EB020263EBE073009821464FEAE074AD
:10076000B8EB000061EB0401E9E783F000435BE7CD
:1007700081F0004158E7C1F30A52C1F3130140F27E
:10078000FF3341F480119A4202DA0020014670479B
:1007900040F233439A42A2F2334202DC5242FFF764
:1007A000D6BEFFF7C5BE0000064C074D06E0E06868
:1007B00040F0010394E8070098471034AC42F6D3A8
:1007C000FFF7E6FCC4F10008E4F10008202A06DB8C
:1007D000CB17203A41FA02F043EAE07306E041FA0F
:1007E00002F3D040C2F120029140084319467047FD
:1007F000FEE77047064908B509684FF4FA52B1FBA5
:10080000F2F14143009100BF491E0091FBD208BDA7
:100810003000002038B50446006800F5805081693A
:1008200041F480118161206800F58050806900905A
:100830000120FFF7DFFF2068009900F580508161FB
:1008400038BD0000014800F05BBA0000743200209F
:100850002DE9F041044621B14FF40060E060C00092
:10086000A060E0690025002861D028462368402662
:1008700019683A4A1140D4E902273A43024342F444
:1008800000700843186020680768012000F0E8F84D
:10089000206807602068466020684668012000F0F4
:1008A000DFF820684660206885602068C5602168A0
:1008B00088694FF64172104040F0800088612068DE
:1008C0008669012000F0CCF8206886612068C56147
:1008D0002068C569012000F0C3F82068C56122685E
:1008E00002F5805290691E4908401E4901439161FA
:1008F000206800F580508569012000F0B1F820687B
:1009000000F5805085612068174900F5805001602E
:10091000206800F580500568012000F0A1F82068EB
:1009200000F580500560A069012803D009E04FF46C
:1009300080609BE7206800F58050C1690B4A114335
:10094000C16160690A4982880A640278D0F80100AE
:1009500042EA00204864BDE8F08100000F8120FFDA
:10096000233FDEF8040020028020C1024000010085
:1009700000800240042000F047BD082000F044BD84
:10098000102000F041BD704770B5B3F5804F05D021
:100990006FF0704140F82210002070BD50F82240E6
:1009A000084B8E891C40D1E9003543EA05138D6858
:1009B00089692D0245EA06452B430B43234340F842
:1009C0002230E9E70000F0CFF0B50C6850F8243091
:1009D000114A1340D1E90125D1E903672A433E4377
:1009E00032434E6932438E693243CE6932430E6AD6
:1009F00032434E6A32438E6A3243CE6A3243CE6B02
:100A0000096B32430A431A43082D01D142F04002D8
:100A100040F824200020F0BD8000F0FF30B500EB4E
:100A2000820250688D8900F04043D1E9000440EA19
:100A300004108C68240244EA054420430C8A074DC4
:100A400005EB045420430C7D6D0105EB04648969BA
:100A50002043084318435060002030BD0000F0FFE1
:100A600080B202F029BA00002DE9F041054690F865
:100A700045000C46012875D0012685F84560022006
:100A800085F84400002C70D02A6811684148014064
:100A9000D4E900031843D4E902373B431843AB6859
:100AA00018432369184363691843EB681843A36923
:100AB0001843E3691843236A1843636A1843A36A17
:100AC000184308431060286807680120FFF7C8FF33
:100AD00028680760D4E90B010843D4E90D121143DB
:100AE0000843E16B0843216C0843616C0843A16C27
:100AF000084329684860286847680120FFF7B0FF6D
:100B0000286847602968E06C88602968206DC860A3
:100B10002A6891694FF641700140D4E916031843E1
:100B2000B4F85470236E43EA07431843636E1843C6
:100B3000A36E184308439061286887690120FFF776
:100B40008FFF28688761D4E91B0108432968C861C1
:100B50002868C4690120FFF783FF2868C46114E096
:100B600000E002E00220BDE8F0812968086820F476
:100B70009042D5E9020318431043086028680468CE
:100B80000120FFF76DFF2868046005F8446F00201E
:100B90006870E8E70F8120FF2DE9F04390F84540A9
:100BA0000025012C0DD04FF0010C80F845C0022427
:100BB00080F8444044F2F4574FF000495E1E8162D1
:100BC00017E00220BDE8F08301EB4514C4F8009063
:100BD000C5EBC51808EB480802EB8808C4E90178A2
:100BE000B54204D204F12008C4F80C8000E0E160B2
:100BF0006D1C9D42E8D3026802F58052D16080F8F6
:100C000044C0002180F845100846DBE72DE9F04399
:100C1000914690F845200024012A0AD0012680F848
:100C20004560022280F844204FF4801C5D1EC162A2
:100C30001BE00220BDE8F08301EB4412C2F800C0C3
:100C4000C4EBC41707EB470809EB88079760C7692F
:100C50001FB9176847F440071760AC4203D202F18E
:100C60002007D76000E0D160641C9C42E4D3026896
:100C700002F58052116180F84460002180F845102F
:100C80000846D7E7704710B590F84510012913D0F2
:100C9000012280F84520022180F84410816A0C6806
:100CA0000023002C27DB0C68E40518D5846B641C3A
:100CB0008463012C02D002E0022010BD0163416375
:100CC0000C68C4F30D44241FC463046BA46804645B
:100CD000C96840F8281F02774377002010BD0C68D0
:100CE000A40503D58263C0E90C1302E0846B641C85
:100CF0008463C968816200F8442F4370012010BDED
:100D000070B50446006800F5805041694FF0000559
:100D100049064FF0010608D5204600F0DDF92068AD
:100D2000402100F58050416109E04069C0070AD0C8
:100D3000204600F0DAFA206800F58050466184F819
:100D4000446084F8455020684FF4803100F58050AD
:100D50004161206800F58050406900040CD52046B0
:100D6000FFF790FF20684FF4004100F5805041618B
:100D700084F8446084F8455070BD00002DE9FC47BC
:100D80004FF000060400B146009603D094F84400EA
:100D900018B107E00120BDE8FC8784F845602046D3
:100DA00000F0E4F86748016841F4804101600068A0
:100DB00000F4804001906448016821F40001016062
:100DC0000168226A11430160206800F580500168C3
:100DD00041F00101016000F01FFC05464FF4FA7775
:100DE00009E000BF00F018FC401BB84203D9032003
:100DF00004F8440F67E0206800F580500068C007E1
:100E0000F0D12068006920F01C0500F039FE4F4940
:100E10004F4A0144914202D245F0080516E04D497F
:100E20004D4A0144914202D245F00C050EE04B4977
:100E30004B4A0144914209D34A4908444A498842ED
:100E400002D245F0040501E045F010052068056177
:100E50004FF400420021204600F048FA0125A8BBCB
:100E6000FF20FFF7FDFD606888B300F0D5FB8046EA
:100E700041F288376A460121204600F0EBF800F085
:100E8000CBFBA0EB0800B84217D800984007F1D57B
:100E90004FF480520021204600F028FAB0B900F04B
:100EA000BBFB80466A460121204600F0D3F800F0E3
:100EB000B3FBA0EB0800B8420AD901212046FFF796
:100EC000C7FC04F8445F0320667064E726E01AE07C
:100ED00000988006E6D56A461121204600F0BAF84F
:100EE000E0B90098810403D54FF40061E16000E0AF
:100EF000E66044F21001814303D04FF48040A060CB
:100F000017E0A66015E0E068A168C00840EA51005B
:100F100082B20021204600F0E9F930B101212046DB
:100F2000FFF796FC84F8445034E740F6FF70FFF773
:100F300097FD49462046FFF78BFC84F8445000207B
:100F400029E70000443802400438014000D3CEFEB7
:100F5000C0E1E40040F1E9FD40787D0100796CFCDE
:100F6000005A6202001F0AFA80F0FA02F0B587B058
:100F7000044614216846FFF78EF9314920688842FB
:100F80005BD130480024016841F0007101600168C4
:100F900001F000710591016841F080610160016814
:100FA00001F080610591016841F000610160016814
:100FB00001F000610591016841F0040101600168E0
:100FC00001F004010591016841F00101016001682F
:100FD00001F001010591016841F0400101600068E4
:100FE000022500F0400005903220CDE9000502AA5C
:100FF00003260B2782E8D0006946134800F010FA58
:101000008620CDE9000502AA694682E8D0000F4893
:1010100000F006FA4FF4D040CDE9000502AA694677
:1010200082E8D0000A4800F0FBF9002201213D20AF
:1010300000F05AFC3D2000F049FC07B0F0BD000074
:1010400000800240303802400008024000000240A8
:10105000001802402DE9F047044690F844009146FC
:1010600082281DD0822084F84400226810694FF63F
:10107000FF7500F01C03208A05EAC02018434FF4D6
:10108000F86303EA8111014321F0020040F00105F9
:10109000156100F0C1FA064601274FF4803810E0D0
:1010A0000220BDE8F08700BF00F0B6FA801B404583
:1010B00005D304F8447F002060700320F1E7206826
:1010C0000569E807F0D12068406981B2C9F80010CD
:1010D00084F844700020E4E77047F8B5044690F8BF
:1010E0004500012839D0012584F84550022084F8B4
:1010F000440020680026016841F008010160206872
:10110000006800902846FFF775FB2168009808608A
:101110002068016841F004010160206800680090C7
:101120000120FFF767FB2168009808602046FFF761
:1011300071FB206800F58050816941F400518161A4
:10114000206800F58050816941F00201816184F8D6
:10115000445084F845600020F8BD0220F8BDF8B581
:10116000044690F84500012839D0012584F84550FF
:10117000022084F84400206800F58050816921F441
:1011800000518161206800F58050816921F00201E1
:10119000816120680026016821F004010160206857
:1011A000006800900120FFF725FB21680098086087
:1011B0002046FFF72FFB2068016821F0080101603D
:1011C0002068006800900120FFF714FB2168009858
:1011D000086084F8445084F845600020F8BD02207F
:1011E000F8BDF0B590F845200023012A11D0012761
:1011F00080F84570022280F84420002459B1C66A64
:101200003268002A0ADA122100F8441F44700120D3
:10121000F0BD0220F0BD00F8447FF7E740F2F4553E
:10122000A9420BD9B1FBF5FCB1FBF5F205FB1C1C87
:10123000BCF1000F00D0521C012A43D1326842F0A9
:1012400040523260C26AC1F30C015160C16A0A683F
:1012500042F000420A60C16AC968C16234E0D6F84F
:1012600000C02CF0405CC6F800C033B9C66AD6F89E
:1012700000C04CF0805CC6F800C0C66A7560561E9F
:10128000B34214D1C66AD6F800C04CF0005CC6F870
:1012900000C0C2F10106C6EBC61606EB4606D0F842
:1012A0002CC001EB8606C6F30C06CCF80460C66AB7
:1012B000D6F800C04CF0004CC6F800C0C66A5B1CF3
:1012C000F668C6629342CAD3016801F580514A6943
:1012D000520705D504224A61016801F580514C602E
:1012E00000F8447F44700020F0BD70472DE9F041C4
:1012F000044690F8440042281ED0422084F844005E
:10130000236818694FF6FF7600F01C05208A06EA6C
:10131000C02028434FF4F86505EA8111014390B2DB
:1013200041F0030558612068056100F075F9064633
:1013300001274FF4803810E00220BDE8F08100BFA3
:1013400000F06AF9801B404505D304F8447F002073
:1013500060700320F1E720680569E807F0D184F8A0
:101360004470EAE72DE9F04186B014216846FEF7A3
:1013700092FF1F480168002937D1012707601D48E7
:101380008846016841F0010101600068022400F014
:101390000100059041F201008DE8910003250C2623
:1013A000CDE903566946144800F03AF84FF68070CC
:1013B0008DE81101CDE903566946104800F030F878
:1013C0004CF203708DE81101DFF83480CDE903564B
:1013D0006946404600F024F830208DE89100CDE9C0
:1013E00003566946404600F01BF806B0BDE8F081A0
:1013F000040000203838024000180240001002406B
:10140000000C024070470000044910B50A6802420F
:1014100002D00860FFF7F6FF10BD0000143C014049
:101420002DE9F84FDFF8B8A1002201250AF1040BDD
:1014300003264FF00F090BF1040E00BF0B6805FAED
:1014400002F42340A3426FD10F7907F00307012F65
:1014500001D0022F16D187684FEA420806FA08FC2D
:1014600027EA0C07D1F80CC00CFA08FC4CEA070C70
:10147000C0F808C04768A7430C79C4F3001494402F
:101480003C4344600C79E443A4070AD0C4684FEAA3
:10149000420C06FA0CF7BC438F6807FA0CF7274397
:1014A000C7600C7904F00304022C12D1D40800EBBD
:1014B000840CDCF820405707FF0E09FA07F824EAED
:1014C0000804D1F8108008FA07F848EA0408CCF8B4
:1014D000208004684FEA420C06FA0CF7BC430F79EF
:1014E00007F0030707FA0CF7274307604C68E4008E
:1014F00070D53C4C276847F480472760246822F069
:10150000030704F480440094374C07EB040CDCF828
:10151000084897074FEA177809FA08F7BC43334F92
:10152000B84202D1002724E054E0314FB84201D143
:1015300001271EE02F4FB84201D1022719E02E4F9C
:10154000B84201D1032714E02C4FB84201D104273F
:101550000FE02B4FB84201D105270AE0294FB842CE
:1015600001D1062705E0284FB84201D1072700E046
:10157000082707FA08F72743CCF80878DAF800407C
:101580005746D1F804C09C435FEACC3C00D51C43CD
:101590003C60DBF800405F46D1F804C09C435FEA42
:1015A0008C3C00D51C433C60DEF800407746D1F807
:1015B00004C09C435FEACC2C00D51C433C60084F20
:1015C0000C373C68D1F804C09C435FEA8C2C00D5F2
:1015D0001C433C60521C102AFFF430AFBDE8F88F6A
:1015E000003C01404438024000300140000002400D
:1015F0000004024000080240000C024000100240BB
:101600000014024000180240001C02400AB181612F
:1016100070470904FBE7000001488068704700003C
:101620002400002070B5040025D094F83D0000256A
:1016300020B984F83C50204600F0B8F8242084F803
:101640003D002068016821F0010101602068016807
:1016500041F4004101602068016821F4004101600B
:1016600000F014FA4D4A6168914201D84C4900E0FB
:101670004C49884201D2012070BD4B492368B0FB20
:10168000F1F15E6826F03F060E435E6063689342A8
:1016900006D94FF4967359434FF47A73B1FBF3F1C3
:1016A0002368491C1E6A26F03F06314319626168AF
:1016B000914210D84900401EB0FBF1F2521CC2F317
:1016C0000B02042A01D2042022E0B0FBF1F0401CFE
:1016D000C0F30B001CE0A268F2B301EBC10303EB03
:1016E0000116431EB3FBF6F35B1C43F480431B055A
:1016F00049D092B301EBC10202EB0111401EB0FBD5
:10170000F1F0401CC0F30B0040F4804040F4004076
:101710002168CA694CF6FF739A431043C861D4E943
:10172000071001432068026822F0C00211430160E3
:10173000D4E9030101432068826848F2FF339A43E9
:1017400011438160D4E9050108432168CA6822F089
:10175000FF021043C86001E00EE016E02068016857
:1017600041F0010101602564202084F83D002563DB
:1017700084F83E50002070BD01EB4106431EB3FBD0
:10178000F6F35B1CB3E70120C2E701EB4101401E09
:10179000B0FBF1F0401CC0F30B00B7E7A0860100DE
:1017A00080841E0000093D0040420F0010B586B045
:1017B000044614216846FEF76EFD134920688842EE
:1017C00020D11248016841F080010160006869463B
:1017D00000F0800005903020009012200190012040
:1017E000029003200390042004900948FFF718FE9C
:1017F00006481030016841F480010160006800F47F
:101800008000059006B010BD0058004030380240FE
:10181000001C0240024881680278114481607047D0
:10182000240000200B4810B5016841F400710160EC
:10183000016841F480610160016841F480710160D8
:10184000032000F071F8002000F006F800F024F802
:10185000002010BD003C024070B50D4D04464FF411
:101860007A712878B1FBF0F00A490968B1FBF0F011
:1018700000F03FFB48B9102C07D200222146501E31
:1018800000F032F800206C6070BD012070BD0000D7
:1018900024000020300000200B4882B0016841F491
:1018A00080410160006800F4804000900648001FFD
:1018B000016841F080510160006800F080500090A4
:1018C000052002B000F030B844380240002809DB9F
:1018D00000F01F02012191404009800000F1E0204A
:1018E000C0F8001170470000F0B40E4B1B680C46A6
:1018F000C3F30223C3F10705042D00D90425191DE4
:10190000072901D2002300E0DB1E012606FA05F1BB
:10191000491E214099409E40761E16403143F0BC3E
:1019200000F046BE0CED00E0064900F00702086832
:101930004FF6FF03184040EA0220034A10430860B4
:10194000704700000CED00E00000FA052DE9F047BB
:101950000E46050065D0DFF81481D8F80000F7B214
:1019600000F00700B04207D288F80070D8F80000F5
:1019700000F00700B04254D128683D4C810712D5D1
:10198000400703D5206840F4E05020602878000725
:1019900003D5206840F4604020602068A96820F0EA
:1019A000F000084320602878C0072DD030496868CF
:1019B0000839012812D0022813D0032811D0096851
:1019C000890700292DDA216821F0030101432160F4
:1019D000FFF722FE814641F2883A0EE0096889034A
:1019E000EFE709688901ECE7FFF716FEA0EB0901B4
:1019F000514502D90320BDE8F0872068696800F0EE
:101A00000C00B0EB810FEFD1D8F80010404601F088
:101A10000701B14207D90770006800F00700B04223
:101A200001D00120E7E72878400705D52068E9685C
:101A300020F4E050084320602878000706D520688D
:101A4000296920F4604040EAC100206000F03EF8BF
:101A50002168084AC1F30311515CC8400649086077
:101A600006480068FFF7F8FE0020C4E7003C02408B
:101A7000083802408CEF00083000002028000020C9
:101A80000148006870470000300000200448054904
:101A900000680968044AC1F38221515CC84070475C
:101AA00030000020083802409CEF00080448054937
:101AB00000680968044AC1F34231515CC84070476C
:101AC00030000020083802409CEF0008154810B58F
:101AD000006810F00C02144813D04110042A0FD0F3
:101AE000082A0ED10F4C241F2268236802F03F02FF
:101AF0005B0207D52068C0F38810A0FB010106E057
:101B0000084610BD2168C1F38811A1FB0001002324
:101B1000FEF756FB2168C1F30141491C4900B0FBA7
:101B2000F1F010BD083802400024F4002DE9F84F10
:101B300004006ED02078DFF84C93C007A9F10405AB
:101B40004AD009F104000168C1F38101012908D0DC
:101B50000068C0F3810002280AD1D9F800004002D1
:101B600006D52868800337D560680028E1D033E0C7
:101B70006068B0F5803F10D0B0F5A02F286810D075
:101B800020F480302860286820F480202860606875
:101B9000A8B1FFF741FD06460DE0286840F480300B
:101BA000F4E740F480202860F7E700BFFFF734FD3A
:101BB000801B642873D828688003F7D50CE0FFF7F2
:101BC0002BFD064605E000BFFFF726FD801B6428BD
:101BD000F0D828688003F7D42078DFF8AC8280073B
:101BE0004FF0000A3ED5A748001D016811F00C0F08
:101BF00008D00068C0F3810002280BD1D9F800009A
:101C0000400207D42868800716D5E068012800D173
:101C100012E033E1E068B8B10120C8F80000FFF736
:101C2000FBFC064605E000BFFFF7F6FC801B022820
:101C3000C0D828688007F7D52868216920F0F80007
:101C400040EAC10028600DE0C8F800A0FFF7E4FCFE
:101C5000064604E0FFF7E0FC801B02281FD8286836
:101C60008007F7D42078000722D5864F874861691E
:101C7000703771B101210160FFF7CEFC064604E028
:101C8000FFF7CAFC801B022809D838688007F7D5FF
:101C90000EE0C0F800A0FFF7BFFC064605E082E0BA
:101CA000FFF7BAFC801B02287DD838688007F7D47C
:101CB0002078400768D5DFF8CCB100270BF13C0B4A
:101CC000DBF80000C0000BD4DBF8001041F08051BD
:101CD000CBF80010DBF80000012700F080500090E6
:101CE0006B4E3068C00510D4306840F480703060AE
:101CF000FFF792FC009005E0FFF78EFC0099401A78
:101D0000022850D83068C005F6D55E4EA0686C3603
:101D100001280FD00528306810D020F00100306075
:101D2000306820F004003060A068B8B1FFF774FCA0
:101D300000900FE0306840F00100F4E740F004004C
:101D40003060F7E7FFF768FC0099411A41F28830EC
:101D5000814266D830688007F4D50EE0FFF75CFC5E
:101D6000009007E0FFF758FC0099411A41F28830D3
:101D7000814256D830688007F4D42FB1DBF80010C8
:101D800021F08051CBF80010A069C8B33D49091D6E
:101D90000968C1F3810102294AD00228504607D0C0
:101DA000C8F8600000E03CE0FFF736FC04463BE08A
:101DB0004746C8F86000FFF72FFC064605E000BF65
:101DC000FFF72AFC801B02282BD828688001F7D453
:101DD000D4E907010843A16A2E4A490802EB0141F0
:101DE000626A41EA8211084394F82C1040EA0161CA
:101DF000C9F8001001203866FFF70EFC044606E023
:101E00003EE000BFFFF708FC001B022809D8286845
:101E10008001F7D534E000BFFFF7FEFB001B02286E
:101E200002D90320BDE8F88F28688001F4D427E0A8
:101E30000128F7D0D9F80000E26900F4800191424E
:101E40001CD1226A00F03F01914217D147F6C071C0
:101E5000626A0140B1EB821F10D1A26A4FF0FF33DA
:101E600000F4403103EB5202B1EB024F06D194F87B
:101E70002C1000F07060B0EB016F01D00120D1E7B1
:101E80000020CFE70438024000004742800E47425E
:101E9000007000400000FFFF70B515460E460400BC
:101EA00003D094F8490010B107E0012070BD002074
:101EB00084F84800204600F01AF804F10801206870
:101EC000FEF782FD3146A2682068FEF7A7FDD4E93F
:101ED00001022946236BFEF757FDA168206850F8E0
:101EE000212042F0010240F82120002070BDFFF7C0
:101EF00039BA10B5401EB0F1807F01D3012010BD6A
:101F00004FF0E02460610F21601700F051FB0020CA
:101F1000A06107202061002010BD70B5040004D02E
:101F200094F83D00002510B106E0012070BD84F852
:101F30003C50204600F022F8242084F83D00206820
:101F4000C16821F40051C160204600F085FA206884
:101F5000016921F4904101612068416921F02A0161
:101F600041612068C16841F40051C16025642020AE
:101F700084F83D0084F83E00002070BD10B586B0A6
:101F8000044614216846FEF786F913492068884202
:101F900020D11248016841F010010160006800F092
:101FA000100005900D481438016841F002010160ED
:101FB0000068694600F002000590C02000900220F1
:101FC0000190012002900320039007200490044810
:101FD000FFF726FA06B010BD001001404438024059
:101FE00000040240FEE7000010B58EB01C216846D8
:101FF000FEF751F91C2107A8FEF74DF91B484FF0D9
:102000002041102201601A494160062181600021AF
:10201000C160C0E904128161C16113020162C0E9BB
:1020200009139302C0E90B134163816341640F20DC
:102030003C230090CDE901030DF10C0C1123069116
:102040008CE80D000924CDE907400DF1280C0D9115
:1020500009948CE80D0007AA69460448FFF71CFFA5
:10206000002801D0FEF78FFC0EB010BDFC00002050
:10207000040100A02DE9F04F87B014216846FEF757
:102080000AF964480025016841F010010160016807
:1020900001F010010591016841F48071016001684F
:1020A00001F480710591016841F0800101600168CF
:1020B00001F080010591016841F0040101600168AF
:1020C00001F004010591016841F00101016001681E
:1020D00001F001010591016841F0400101600168D2
:1020E00001F040010591016841F0080101600168BB
:1020F00001F008010591016841F0020101600068EA
:10210000454F00F002004FF48078059001224146CF
:102110003846FFF77BFADFF804A10022022150467F
:10212000FFF774FADFF8F8B000224FF4A0715846B8
:10213000FFF76CFA4FF40079012249465846FFF741
:1021400065FA012203213748FFF760FA1C2000904E
:1021500035480124CDE9010469463248FFF760F9AA
:1021600001AA0326CDF8008082E87000694638464F
:10217000FFF756F90227CDE90074CDE9024669461A
:102180005046FFF74DF94020CDE90004CDE9024665
:1021900069465846FFF744F98020CDE900056946B5
:1021A00058460295FFF73CF901AA1120CDF80080AE
:1021B00082E8510069465846FFF732F901AACDF886
:1021C000009082E8B00069465846FFF729F901AA55
:1021D000009682E8B00069461248FFF721F9012213
:1021E00011460820FFF780FB0820FFF76FFB012254
:1021F00011460920FFF778FB0920FFF767FB012252
:1022000011460A20FFF770FB0A20FFF75FFB07B0BB
:10221000BDE8F08F30380240002002400018024034
:10222000001C024000100240000021100D4810B5B3
:102230000B4901600C49416000214FF480428160EC
:10224000C0E9031241618161C1610162FFF7EAF9EE
:10225000002803D0BDE81040FEF795BB10BD00007C
:10226000005800404C010020A0860100FEB5394C0A
:102270000A20012120706070A1701622E270251DD5
:10228000FF222A706A70AA7000272E1DEF700B22A1
:1022900032707070B170F17006F014F82068E17857
:1022A00003BA0A0603F47F4342EA032203BA00BAE0
:1022B00003F47F03084342EA1322A4F10C0142EA2B
:1022C000106008602868E97803BA0A0603F47F43BF
:1022D00042EA032203BA00BA03F47F03084342EA46
:1022E0001322A4F1080142EA106008603068F17816
:1022F00003BA0A0603F47F4342EA032203BA03F453
:102300007F0300BA42EA1322084342EA1060211F09
:10231000231F0860104811490097CDE901101A1FCA
:10232000111F0F4806F0C0FB0D4806F0D7FD0C4802
:1023300090F82D0040070A4802D506F02DFE01E076
:1023400006F0D2FD03B00749BDE8F040044806F0AE
:102350001FBE000018000020B13B00084D3D0008E2
:10236000A0010020F93D000810B5034801F032FD3E
:10237000BDE8104007F0B0BDA00100200C4810B52A
:102380000A4901604FF4E1314160002181600C2273
:10239000C160C0E904128161C161FFF7BEFD002880
:1023A00003D0BDE81040FEF7EEBA10BD00100140AA
:1023B000BC320020FEE7704770477047FFF72ABA2B
:1023C00030B593B030216846FDF765FF14210CA8A5
:1023D000FDF761FF1A480025016841F08051016056
:1023E000006800F0805011901648016841F4804167
:1023F00001600068022400F48040119001200090E8
:10240000000401908001CDE90640082008904FF4B7
:10241000A870CDE9090404200B906846FFF786FBFD
:102420000CA90F2081E831004FF4A0500F90E0027A
:10243000109005210CA8FFF789FA13B030BD0000F9
:1024400040380240007000400248016841F47001C9
:102450000160704788ED00E070B5044600680169CE
:10246000E26821F44051114301612169A068E269E9
:1024700008436169114308432168CA6849F20C6343
:102480009A430243CA6020684169A26921F44071FD
:102490001143416131492068884202D03049884265
:1024A00002D1FFF703FB01E0FFF7F0FAE269002336
:1024B000192164253226B2F5004F626828D0A0FBAE
:1024C0000101930F9200FDF77BFE0146B0FBF5F092
:1024D0006FF01802504301EB800006EB0010B0FBD8
:1024E000F5F000F0F002B1FBF5F002EB0012B1FBE9
:1024F000F5F06FF01803584301EB800006EB001075
:10250000B0FBF5F000F00F0021681044886070BD4A
:10251000A0FB010192185B41FDF752FE0146B0FBA2
:10252000F5F00201B1FBF5F06FF01803584301EB31
:10253000800006EBC000B0FBF5F000F0F80002EB05
:102540004002B1FBF5F0584301EB800006EBC00000
:10255000B0FBF5F000F00700D6E7000000100140E6
:1025600000140140FEE700000FB4054B10B503A9AD
:10257000044A029800F0FEF810BC5DF814FB00005D
:10258000AD3E0008DC0000200FB4084B10B504A9D4
:1025900002AA039800F0EEF8044602A9002000F019
:1025A00080FC204610BC5DF814FB0000A32E000840
:1025B0000907090E002804DB00F1E02080F8001470
:1025C000704700F00F0000F1E02080F8141D704704
:1025D00002E008C8121F08C1002AFAD170477047EC
:1025E000002001E001C1121F002AFBD1704700004A
:1025F0002DE9FF5F82B00021DDE90430020DDDF836
:1026000040B0034318D044F61050A2F2FF324243C8
:102610001514119801281FD0A5EB0B00401C5FEA90
:10262000000A4FF000064E4FDFF83891B046504692
:1026300015D5CAF1000413E0119801244AA301281A
:1026400001D16FEA0B010298119AC0E90031C0E98B
:10265000024206B0BDE8F09FCBF10000DFE7044680
:102660000021404A491842EB0450CDE9001012E025
:10267000E00707D032463B4640464946FDF723FE79
:102680008046894632463B4610461946FDF71BFEFA
:1026900006460F466410002CEAD1DDE90401DDE9AD
:1026A0000023BAF1000F06DAFDF70DFE42464B4655
:1026B000FDF709FE05E0FDF778FE42464B46FDF7C3
:1026C00074FE04460E460022284BFDF703FF03D894
:1026D0004FF0FF30014607E00022254B20463146EF
:1026E000FDF7A2FFFEF747F8102409E0002C0ADBF3
:1026F0000A220023FDF764FD039B30321A55641E45
:1027000050EA0102F2D1641C039AC4F1110314448B
:10271000119A012A03D0012208430DD10AE008438F
:1027200004D000204FF0110B119072E7A3EB0B05C2
:102730006D1E0DE05B4504DD4FF0000205F1010563
:1027400004E003DA4FF00002A5F10105002AECD005
:1027500002981199C0E90231C0E9004579E700000B
:10276000000014400000F03F300000000000F04383
:102770000000E03F2DE9FF4F95B09B468946064695
:1027800000250FE2252877D100242746F84A0121A9
:10279000059400E0044316F8013F203B01FA03F0E2
:1027A0001042F7D130782A2811D06FF02F033078FB
:1027B000A0F13002092A16D8059A44F0020402EB6F
:1027C000820203EB42021044761C0590EFE759F8B1
:1027D000042B0592002A03DA504244F40054059079
:1027E00044F00204761C30782E2816D116F8010F1A
:1027F00044F004042A280DD06FF02F023078A0F1A5
:102800003003092B09D807EB870302EB4303C718F2
:10281000761CF3E759F8047B761C30786C280FD0CF
:1028200006DC4C2817D068280DD06A2814D104E0A3
:10283000742810D07A280FD10DE044F400140AE077
:1028400044F4801401E044F440147278824202D1CE
:1028500004F58014761C761C307866280BD013DCC7
:10286000582877D009DC002875D04528F6D04628AE
:10287000F4D047281AD19DE118E0632835D06428A8
:1028800079D0652812D195E1702873D008DC6728CB
:10289000F1D069286FD06E280DD06F2806D1B5E031
:1028A00073282CD0752875D0782874D05A4617997B
:1028B00090476D1C75E1C4F30250022809D003282B
:1028C0000DD0D9F8001004280DD00D6009F10409CD
:1028D00067E1D9F80010EA17C1E90052F6E7D9F824
:1028E00000100D80F2E70D70F0E719F8041B8DF869
:1028F000001000208DF80100EA46012003E059F89D
:1029000004AB4FF0FF3061074FF0000102D40DE03F
:1029100008F101018846B9420FDA8045F8DB1AF860
:1029200008100029F4D108E008F10101884681422D
:10293000FADB1AF808100029F6D105985B46A0EBDF
:10294000080721463846179A00F094FA284400EB0D
:10295000080507E04DE029E10DE01AF8010B5A46A1
:1029600017999047B8F10108F7D25B4621463846DF
:10297000179A13E142E00A220092C4F302524FF088
:10298000000A022A08D059F804CB032A4FEAEC7156
:102990000AD00DE029E02AE009F1070121F0070241
:1029A000F2E802C1914609E00FFA8CFC4FEAEC71A3
:1029B000042A03D14FFA8CFC4FEAEC71002907DAA4
:1029C0000A460021DCF1000C61EB02012D2202E03D
:1029D000220504D52B228DF80420012203E0E20712
:1029E00001D02022F7E7904659E00A2102E01022A8
:1029F0000DE010214FF0000A00910BE010224FF083
:102A0000000A44F004040827009203E008224FF073
:102A1000000A0092C4F30252022A05D059F804CBEE
:102A20000021032A08D009E009F1070121F007027B
:102A3000F2E802C1914605E01FFA8CFC042A01D19C
:102A40000CF0FF0C4FF00008220728D5702806D0A4
:102A5000009B83F0100353EA0A0305D00EE04022E6
:102A60008DF80420012208E05CEA010206D0302241
:102A70008DF804208DF8050002229046009B83F01B
:102A8000080353EA0A030AD15CEA010201D1620792
:102A900005D530228DF804204FF001087F1E5828FC
:102AA00004D034A003900EA802900DE036A0F9E700
:102AB00053466046009AFDF783FB84460398825C88
:102AC0000298401E029002705CEA0100F0D1029868
:102AD00006A9081A00F1200A600702D524F4803400
:102AE00000E00127574502DDA7EB0A0000E00020C7
:102AF00000EB0A01009005984144401A0590E0035C
:102B000006D45B462146179A059800F0B3F90544B0
:102B1000002706E001A85A46C05D179990476D1C32
:102B20007F1C4745F6DBE0030CD55B462146179A30
:102B3000059800F09FF9054404E030205A461799A3
:102B400090476D1C0099481E00900029F5DC08E0B4
:102B5000029802995A460078491C029117999047A9
:102B60006D1CBAF10001AAF1010AF1DC65E1000077
:102B70000928010030313233343536373839616253
:102B80006364656600000000303132333435363717
:102B900038394142434445460000000000F058F9EE
:102BA0000544761C307800287FF4ECAD19B0284637
:102BB000BDE8F08F620700D4062709F1070222F072
:102BC000070CFCE80223E14603F000485FEA080C2A
:102BD00002D00FF2702C0DE05FEA045C02D50FF218
:102BE000682C07E05FEAC47C02D00FF2602C01E0A1
:102BF000AFF2700C4FF0FF3823F00043CDF850C017
:102C000065280CD006DC452809D046281DD0472869
:102C10003DD13DE0662818D067287ED138E00021FC
:102C2000112F01DB112000E0781CCDE9000106A97D
:102C30000EA8FFF7DDFCDDE90F010E9A03910021DC
:102C4000009207F1010A04914DE04FF00040009717
:102C5000CDE9011006A90EA8FFF7CAFCDDE90F02B5
:102C600003920E9B11990022DDF80CA000930492B0
:102C700011B9791C00EB010AB7EB0A0004D4C0F1CA
:102C8000FF3007F1010A0490AAEB0700019044E02D
:102C9000012F00DA01270021112F01DD112000E0B2
:102CA0003846CDE9000106A90EA8FFF7A1FCDDE931
:102CB0000F010E9A0391002104910092BA46210758
:102CC0000CD40399514500DA8A46BAF1010F05DDAB
:102CD000009AAAF10101515C302908D0B84202DA09
:102CE00010F1040F06DA0121CDE9011015E0AAF177
:102CF0000101E9E7002805DC049901440491AAEBED
:102D0000000102E0411C514500DD8A460499401A49
:102D1000401C01904FF000400290200704D401981D
:102D2000504501DBCDF8048000208DF84F0002985B
:102D30000DF14F07B0F1004F25D02B200E900298D7
:102D40004FF0020800280CDA404202902D200E902D
:102D500007E00A210298FDF7D5FB3031029007F811
:102D6000011DB8F10001A8F10108F2DC0298002869
:102D7000EFD1791E0E980870307800F0200040F0F6
:102D8000450007F8020D12A8C01B00F107081498AF
:102D9000007800B1012000EB0A01019801EBE0711D
:102DA00005984144401A401E0590E00306D45B4656
:102DB0002146179A059800F05DF8054414980078AC
:102DC00018B15A46179990476D1CE00324D55B460D
:102DD0002146179A059800F04DF805441CE0049828
:102DE000002807DBDDE90301884203DD0098405C31
:102DF000179901E0179930205A469047049805F139
:102E00000105401C04900198401E019004D12E2021
:102E10005A46179990476D1CBAF10001AAF1010AB0
:102E2000DDDC05E017F8010B5A46179990476D1C39
:102E3000B8F10001A8F10108F4DC5B462146179ABD
:102E40000598ABE62D0000002B00000020000000DC
:102E50002DE9F041044600251E461746880404D497
:102E600005E039462020B0476D1C641EF9D5284680
:102E7000BDE8F0812DE9F041044600251E4690464C
:102E8000C80301D5302700E02027880404D505E0D9
:102E900041463846B0476D1C641EF9D52846BDE84A
:102EA000F0810A68531C0B6010707047014908607C
:102EB00070470000000000204FF47A71484300F092
:102EC00001B8000070B54FF0E0240022656909499F
:102ED000A36909684843A1699942FCD002D2A3EBD7
:102EE000010302E0A5EB010633441A440B4682427B
:102EF000F1D370BD0000002070B505460C46880770
:102F000006D006A34FF4B67210A118A0FFF72CFB51
:102F1000A86800682060A868046070BD2E2E2F4D40
:102F20006964646C6577617265732F546869726453
:102F30005F50617274792F4C7749502F7372632FF1
:102F4000636F72652F6D656D702E63006D656D70BA
:102F50005F667265653A206D656D2070726F706591
:102F6000726C7920616C69676E656400417373658A
:102F70007274696F6E2022257322206661696C6508
:102F800064206174206C696E6520256420696E2060
:102F900025730A0010B580680468002C0CD02168E5
:102FA0000160A00706D005A34FF48C720FA118A0F2
:102FB000FFF7DAFA204610BD002010BD2E2E2F4D4F
:102FC0006964646C6577617265732F5468697264B3
:102FD0005F50617274792F4C7749502F7372632F51
:102FE000636F72652F6D656D702E63006D656D701A
:102FF0005F6D616C6C6F633A206D656D70207072EF
:103000006F7065726C7920616C69676E6564000031
:10301000417373657274696F6E2022257322206676
:1030200061696C6564206174206C696E652025643B
:1030300020696E2025730A0070B5094D06460024EC
:1030400004EB440005EBC000017D29B18068B0426B
:1030500002D1204600F036F9641C0A2CF0DB70BD6A
:10306000FC8900202DE9F74F84B04FF00A0B0024B3
:103070000646DA465F46D94602940194CDF80040F0
:10308000514904EB440001EBC008039098F8145038
:103090000A2F1DD0002D2AD0012D08D0022D06D2D6
:1030A0004AA340F2231257A166A0FFF75DFA9EB132
:1030B0003168D8F8040081420ED1069820B1D8F8C2
:1030C00008100698814207D1204607B0BDE8F08F6E
:1030D000002DE1D127460AE0012D16D0022D06D39E
:1030E000B8F812000099884201D3A2460090641CEF
:1030F00024B20A2CC4DB059881074FF0FF30E4D4DA
:103100000A2F16D018DA3C463EE02F49039851F8B2
:1031100030000028B8F8120005D002998842E6D3A2
:10312000A1460290E3E701998842E0D3A3460190CB
:10313000DDE70599C907C8D05146BAF10A0F0EDA82
:103140000C46214801EB440150F8310080B11FA327
:1031500040F26D1245A13BA0FFF706FA08E0594680
:10316000BBF10A0F03DB4946B9F10A0FADDA0C4691
:103170000A2C06DB15A340F27F1242A131A0FFF713
:10318000F3F9204600F09EF80A2C06DB0FA340F26C
:1031900083123CA12BA0FFF7E7F90B4804EB440195
:1031A00000EBC105287D30B108A34FF4C2723AA1EB
:1031B00024A0FFF7D9F90EB130686860002068825A
:1031C0000698A86080E70000FC8900202E2E2F4D75
:1031D0006964646C6577617265732F5468697264A1
:1031E0005F50617274792F4C7749502F7372632F3F
:1031F000636F72652F697076342F657468617270C1
:103200002E6300007374617465203D3D2045544871
:103210004152505F53544154455F50454E44494ECE
:1032200047207C7C207374617465203E3D204554AA
:10323000484152505F53544154455F535441424CAE
:1032400045000000417373657274696F6E2022251A
:103250007322206661696C6564206174206C696EFC
:103260006520256420696E2025730A006172705FF5
:103270007461626C655B695D2E71203D3D204E5529
:103280004C4C000069203C204152505F5441424C5C
:10329000455F53495A4500006172705F7461626C0A
:1032A000655B695D2E7374617465203D3D204554F6
:1032B000484152505F53544154455F454D50545915
:1032C0000000000070B5074C00EB4005002654F8E4
:1032D000350018B106F00EFB44F8356004EBC5006C
:1032E000067570BDFC8900202DE9F04385B00D0006
:1032F000074609D07C684FF480782088404539D152
:103300002079062836D109E01CA340F28A2229A19F
:103310002CA0FFF729F905B0BDE8F08360790428F7
:1033200028D16088082825D1D4F80E000490A1691E
:10333000686820B1814202D10126334601E00026AF
:10334000022304F10802914604A9284600F0A2FBDA
:10335000E08840450ED16EB1022204ABCDE90232C5
:10336000291DCDE9001905F1260319464A462846CC
:1033700000F090FA384606F0BDFACCE72E2E2F4D1D
:103380006964646C6577617265732F5468697264EF
:103390005F50617274792F4C7749502F7372632F8D
:1033A000636F72652F697076342F6574686172700F
:1033B0002E6300006E6574696620213D204E554CD9
:1033C0004C000000417373657274696F6E20222592
:1033D0007322206661696C6564206174206C696E7B
:1033E0006520256420696E2025730A00FEB5154608
:1033F0000E46040006D143A340F21E324FA153A053
:10340000FFF7B2F836B93FA340F21F3259A14FA0DF
:10341000FFF7AAF835B93BA34FF4487258A14BA067
:10342000FFF7A2F82146286800F0CEFE08B1584BFD
:103430003FE02868C0F303110E2925D0A168636816
:1034400000EA01020B409A4208D080B2A0F57E410A
:10345000A93903D0E068B0B304F10C054D4B4E48D8
:103460001A7802EB420100EBC1010F7D022F2ED32F
:103470008F68A7422BD12F6849688F4227D13146E8
:10348000204600F08BF8FEBD01208DF804000020DE
:103490008DF805005E208DF80600687801AB00F01D
:1034A0007F008DF80700A8788DF80800E8788DF87F
:1034B00009004FF40060009004F1260231462046D6
:1034C00000F0C8FBFEBDFFE76FF00300FAE7002243
:1034D00002EB420100EBC1010F7D022F08D38F6880
:1034E000A74205D12F6849688F4201D11A70C6E7FB
:1034F000521CD2B20A2AEBD332462946204600F0AB
:10350000D5F8DFE72E2E2F4D6964646C6577617204
:1035100065732F54686972645F50617274792F4CBF
:103520007749502F7372632F636F72652F697076BE
:10353000342F6574686172702E6300006E65746963
:103540006620213D204E554C4C00000041737365B0
:103550007274696F6E2022257322206661696C6522
:1035600064206174206C696E6520256420696E207A
:1035700025730A007120213D204E554C4C0000005F
:1035800069706164647220213D204E554C4C0000EE
:10359000A4EF0008CC000020FC8900202DE9F843AE
:1035A0000646154688461C4802EB450100EBC1045F
:1035B000207D022806D219A340F2EE2225A131A0D7
:1035C000FEF7D2FF144A05EB4501207D02EBC10551
:1035D0000C35022813D1608A0327B0F58E7F04D9F9
:1035E000211D304600F010FA07E0B0F5877F06D3C2
:1035F0002A46211D304600F00DFA00B927754FF418
:10360000006000902B4606F126024146304600F04D
:1036100021FBBDE8F8830000FC8900202E2E2F4DF1
:103620006964646C6577617265732F54686972644C
:103630005F50617274792F4C7749502F7372632FEA
:10364000636F72652F697076342F6574686172706C
:103650002E6300006172705F7461626C655B617201
:10366000705F6964785D2E7374617465203E3D20DF
:103670004554484152505F53544154455F5354415F
:10368000424C4500417373657274696F6E20222548
:103690007322206661696C6564206174206C696EB8
:1036A0006520256420696E2025730A002DE9FC5FE2
:1036B0008246263001900E46086814464FF0FF37C8
:1036C0004FF0000B514600F07FFD80B93068C0F329
:1036D00003110E290BD056B148B152460121304694
:1036E000FFF7C0FC050005D540B2BDE8FC9F6FF0B8
:1036F0000F00FAE77F2D06D337A340F2C13244A171
:1037000047A0FEF731FF05F0FF094F4909EB4908D3
:1037100001EBC805287D00280ED0012808D002281A
:1037200006D22DA340F2CD3248A13DA0FEF71CFFEA
:10373000BBF1000F06D104E001202875C5F808A0F0
:1037400000E034B93146504600F05EF90746002CDF
:10375000CBD0287D3C4E02280ED346494FF4006062
:1037600005F10C0381F80090009021465046019A23
:1037700000F070FA07462DE001282BD1254640F2D3
:10378000F13768892989884207D1286828B112A3AE
:103790003A4639A122A0FEF7E7FE287B400607D56E
:1037A00022464FF420710E2005F0DAFE044605E0B3
:1037B0002D68002DE5D1204606F00AFA44B156F8EE
:1037C000380008B106F096F846F83840002701E0C6
:1037D0004FF0FF37384688E72E2E2F4D6964646C12
:1037E0006577617265732F54686972645F506172A6
:1037F00074792F4C7749502F7372632F636F726502
:103800002F697076342F6574686172702E630000C2
:1038100074797065206F766572666C6F7700000052
:10382000417373657274696F6E202225732220665E
:1038300061696C6564206174206C696E6520256423
:1038400020696E2025730A00FC8900206172705F78
:103850007461626C655B695D2E7374617465203D93
:103860003D2050454E44494E47206F7220535441ED
:10387000424C4500CC0000206E6F207061636B6588
:10388000742071756575657320616C6C6F77656404
:10389000210000002DE9FF4F81B09846DDE90FA916
:1038A000DDF838B006004FF0000706D12CA340F237
:1038B000574239A13CA0FEF757FE4FF420721C215D
:1038C0000E2005F01DFC050046D068891C2806D294
:1038D00023A340F262423EA133A0FEF745FE6C688E
:1038E000119804F0EDFCE08096F82C00062806D034
:1038F0001BA340F2694243492BA0FEF735FED8F8DE
:103900000010A160B8F80400A081DAF80010C4F833
:103910001210BAF80400E082DBF80000C4F80E00D0
:10392000D9F80000A0614FF48070208008206080EA
:10393000062020710420607140F60600DDE90223B4
:1039400000902946304600F085F9284605F0D2FF60
:10395000384605B0BDE8F08F4FF0FF30F9E70000C2
:103960002E2E2F4D6964646C6577617265732F54D8
:10397000686972645F50617274792F4C7749502F77
:103980007372632F636F72652F697076342F65745D
:10399000686172702E6300006E6574696620213D57
:1039A000204E554C4C000000417373657274696F72
:1039B0006E2022257322206661696C656420617423
:1039C000206C696E6520256420696E2025730A00CD
:1039D000636865636B2074686174206669727374D0
:1039E00020706275662063616E20686F6C6420735E
:1039F0007472756374206574686172705F68647254
:103A00000000000080F10008014A00F003B8000047
:103A1000A4EF00087FB5064D031D0124CDE9003554
:103A2000CDE9021422331946FFF734FF04B070BD0C
:103A3000AAEF000870B5164D002400BF04EB440047
:103A400005EBC002117DF1B1508A401C80B250825A
:103A5000B0F5967F0AD2012906D003290AD004299D
:103A60000AD001290BD00EE0052808D32046FFF725
:103A700029FC08E0042000E00220107503E0111D7D
:103A80009068FFF7C1FF641C0A2CD7DB70BD0000F3
:103A9000FC890020F8B5044690F82C001F46164615
:103AA0000D46062806D020A340F2A9122CA135A06D
:103AB000FEF75AFD9DB1286888B1214600F084FBCD
:103AC00068B92878C0F303100E2808D0224639467A
:103AD0002846FFF7C7FA002804DA40B2F8BD6FF0B5
:103AE0000F00F8BD00EB40013048022300EBC1029B
:103AF000137594603368D360B388138200235382B4
:103B000050F8315075B140F831304FF400600090FA
:103B1000334604F126022946204600F09BF8284649
:103B200005F0E8FE0020F8BD2E2E2F4D6964646C70
:103B30006577617265732F54686972645F50617252
:103B400074792F4C7749502F7372632F636F7265AE
:103B50002F697076342F6574686172702E6300006F
:103B60006E657469662D3E6877616464725F6C652A
:103B70006E203D3D204554485F4857414444525FC4
:103B80004C454E00417373657274696F6E20222537
:103B90007322206661696C6564206174206C696EB3
:103BA0006520256420696E2025730A00FC890020A9
:103BB0002DE9F041044640890E270D460E283CD9D8
:103BC000E07B18B995F83000401CE073606801781C
:103BD0008689CA0714D0012905D006221C49FCF7A2
:103BE00065FB48B10CE0417851B980785E2807D177
:103BF000607B40F0100002E0607B40F008006073E2
:103C0000082E03D0B6F5C16F17D10DE095F82D0041
:103C1000000712D53946204606F020F868B9294633
:103C2000204600F019FC10E095F82D00000704D59F
:103C30003946204606F012F818B1204605F05AFE23
:103C400003E029462046FFF74FFB0020BDE8F08146
:103C5000A4EF00082DE9F04104461F4690460E46A9
:103C6000069804F02DFB05460E21304605F0E4F9D8
:103C700018B16FF00100BDE8F08170688581396886
:103C80000160B9888180D8F80020C0F80620B8F813
:103C90000410418194F82C00062806D006A34FF4A6
:103CA000997213A11FA0FEF75FFC31462046A2695E
:103CB000BDE8F041104700002E2E2F4D6964646C62
:103CC0006577617265732F54686972645F506172C1
:103CD00074792F4C7749502F7372632F6E65746916
:103CE000662F65746865726E65742E63000000004F
:103CF0006E657469662D3E6877616464725F6C6599
:103D00006E206D757374206265203620666F722098
:103D100065746865726E65745F6F75747075742113
:103D200000000000417373657274696F6E20222574
:103D30007322206661696C6564206174206C696E11
:103D40006520256420696E2025730A0010B50400E3
:103D500006D10BA34FF403720EA112A0FEF704FCD0
:103D6000732084F82E00742084F82F0017486061B7
:103D70001748A061204604F057F9002010BD00004C
:103D80002E2E2F5372632F65746865726E65746989
:103D9000662E63006E6574696620213D204E554C89
:103DA0004C000000417373657274696F6E202225A8
:103DB0007322206661696C6564206174206C696E91
:103DC0006520256420696E2025730A00ED33000804
:103DD000D981000870B5054604F09EF9040009D0A9
:103DE0002A6929469047002804D02046BDE8704043
:103DF00005F080BD70BD70472DE9FC4100250646E9
:103E00000195009590F82D00400745D5264C606837
:103E100078B34FF4805200212046FDF767FAFDF792
:103E2000FBFB4FF47A7701906A4601211E48FDF7AB
:103E300011F9FDF7F1FB0199401AB8421AD8009820
:103E40008006F1D56A4611211748FDF703F900985D
:103E5000810403D54FF40061E16000E0E56044F2C5
:103E60001001084201D0A5600EE04FF48040A06030
:103E70000AE0FFE7E068A168C00840EA510082B2AA
:103E800000210948FDF732FA00210748FCF7ECFD54
:103E90000548FDF722F902E00348FDF760F93046D6
:103EA000FFF7A9FFBDE8FC817432002003490A68CE
:103EB0005206FCD5C2B24A607047000000100140B3
:103EC0000A46032100F0F4B82DE9FE4F8A46444922
:103ED0000446D1F8088098F800000007850E142DDC
:103EE00079D36089042876D360680078002872D07E
:103EF000082870D1486901F11407C0F303120E2A93
:103F000069D08946096800F05FF9002863D12089EB
:103F1000082860D305F10E010E46204605F08CF806
:103F2000002830D02089411989B2884253D84FF4F3
:103F300020720E2005F0E4F806004CD0718905F1DE
:103F40000800814216D32A4641467068FCF77CF986
:103F50002946304605F082FE002806D021A3B6226D
:103F60002EA13CA0FEF700FB04E02146304605F000
:103F700045FB18B1304605F0BDFC2CE0204605F0AD
:103F8000B9FC34460CE03146204605F067FE0028B7
:103F900006D014A3C72239A12EA0FEF7E5FA1AE035
:103FA00029462046666805F047F8A0B96068396878
:103FB000FF22C160D9F810100161002131707180B9
:103FC0000272418101228DE806040A46FF23394628
:103FD000204600F011FB2046BDE8FE4F05F08ABCEC
:103FE000003300202E2E2F4D6964646C657761725A
:103FF00065732F54686972645F50617274792F4CD5
:104000007749502F7372632F636F72652F697076D3
:10401000342F69636D702E630000000069636D705A
:104020005F696E7075743A206D6F76696E67207285
:104030002D3E7061796C6F616420746F2069636DCF
:104040007020686561646572206661696C65640AE8
:1040500000000000417373657274696F6E20222541
:104060007322206661696C6564206174206C696EDE
:104070006520256420696E2025730A0069636D70D0
:104080005F696E7075743A20726573746F72696ED1
:1040900067206F726967696E616C20702D3E706178
:1040A000796C6F6164206661696C65640A00000068
:1040B0002DE9FF479146884606464FF42072242199
:1040C000222005F01DF8050031D06889242806D289
:1040D00018A34FF4B47225A12FA0FEF745FA6C681F
:1040E00077681C2284F8008084F801904FF0000863
:1040F000A4F80480A4F80680686871680830FCF7AA
:10410000A3F8F868039003A800F086FC60B1A4F857
:1041100002800122CDF80080CDE90120FF2303AA0F
:104120000021284600F068FA284605F0E3FBBDE8C8
:10413000FF8700002E2E2F4D6964646C65776172D5
:1041400065732F54686972645F50617274792F4C83
:104150007749502F7372632F636F72652F69707682
:10416000342F69636D702E6300000000636865631F
:104170006B20746861742066697273742070627554
:10418000662063616E20686F6C642069636D7020C7
:104190006D65737361676500417373657274696FF0
:1041A0006E2022257322206661696C65642061742B
:1041B000206C696E6520256420696E2025730A00D5
:1041C0000A460B21FFF774BF421C12D088B191F848
:1041D0002D2092070BD54B68834208D0896800EAEE
:1041E00001020B409A4202D10143491C01D0002038
:1041F00070470120704700002DE9F74F88B0044652
:10420000099800251426808CAF1F1438C11700EBC5
:104210005170C0F3CF00039060680690017801F000
:104220000F01052903D038460BB0BDE8F08F618936
:10423000142907D25BA34FF43F7269A16FA0FEF768
:1042400093F9F0E7C08804F03BF8C0F30C0100F4E8
:10425000005002910790208914381FFA80F88EE0F0
:1042600003984FF6FF7101EAC0004146404500D96E
:10427000084604904FF4207214210E2004F040FFF1
:104280005FEA000A7ED0BAF80A00142806D245A3D5
:104290004FF4497263A159A0FEF766F91422DAF8C7
:1042A00004000699FBF7D0FFDAF804000590049F9C
:1042B00035E06089811B8DB2B04206D239A340F24D
:1042C0002D3260A14DA0FEF74FF9AF4200D23D461E
:1042D0001DB3052004F096FB5FEA000957D0606823
:1042E0004B463044CDE9000541222946002005F027
:1042F00079F85FEA000B50D0204605F069FC55497B
:10430000C9E904145946504605F088F8781B07049B
:104310003F0C06D000262468CBE724680026002F37
:10432000C7D1701986B20998808C1438404502981C
:10433000C0F30C0001DB079909B140F4005003F011
:10434000BFFF0599C8800498143080B203F0B8FF0D
:1043500005994880059800214181099851460A9A9B
:1043600043699847504605F0C5FA0499A8EB010047
:104370001FFA80F8DDE90201084480B20290B8F12A
:10438000000F00E006E07FF46BAF00204CE75046E2
:1043900005F0B0FA4FF0FF3046E7484600F06CFBFE
:1043A000F5E700002E2E2F4D6964646C657761720D
:1043B00065732F54686972645F50617274792F4C11
:1043C0007749502F7372632F636F72652F69707610
:1043D000342F6970345F667261672E6300000000DD
:1043E0006970345F6672616728293A207062756669
:1043F00020746F6F2073686F72740000417373656F
:104400007274696F6E2022257322206661696C6563
:1044100064206174206C696E6520256420696E20BB
:1044200025730A0074686973206E65656473206182
:10443000207062756620696E206F6E6520706965F8
:1044400063652100702D3E6C656E203E3D20706FCF
:1044500066660000515000082DE9F04745680746A0
:104460000E4628780421B1EB101F03D0384605F022
:1044700041FA77E000074FEA9068688803F020FF70
:1044800004463889A04203D92146384605F006FB88
:1044900079894145EAD33889A042E7D3B8F1140FAE
:1044A000E4D32969DFF81C91C1F303100E28C9F881
:1044B0001410EA68C9F8102005D0304600F086F8DC
:1044C00050B1344619E096F82D00C00702D070684C
:1044D0000028F6D1002410E099F8140000247F2869
:1044E0000BD03948046806E0B44203D0204600F0FF
:1044F0006DF810B92468002CF6D13146D9F81000B7
:10450000FFF762FE0028B1D199F81000C0F3031044
:104510000E28ABD0002CA9D0E88830F0C00005D020
:10452000384600F035F907001CD07D68C9F80850FE
:10453000C9E90046297838460907890EA9F80C1000
:10454000414605F08BFB687A012818D0062811D067
:1045500011280AD04D462146D9F81400FFF734FE41
:1045600090B11EE00020BDE8F087314638460AF0E1
:1045700079FB19E03146384606F054FC14E0314628
:104580003846FFF7A1FC0FE0287DC0F303100E288A
:1045900007D04146384605F069FA02213846FFF750
:1045A0008FFC384605F0A6F90021C9F80010C9F8BB
:1045B0000410C9F80810A9F80C10C9F81010C9F8AF
:1045C0001410CFE7003300206800002010B590F8E9
:1045D0002D10C9070CD0416851B1064A52698A4270
:1045E00004D001461046FFF7EFFD08B1012010BDD1
:1045F000002010BD00330020FEB5DDE90954089EFF
:104600001AB109B10F6807B9211D0096CDE901540F
:1046100000F002F8FEBD00002DE9F84F0546DDE987
:104620000BA8807BDDF828B01F4616468946012876
:1046300006D02FA34FF455723AA13DA0FDF794FF89
:104640006FF00104002E35D01421284604F0F4FC4C
:10465000002832D168896C68142806D224A34FF44C
:1046600062723DA132A0FDF77FFF277284F809A096
:10467000306820614520207084F801B0288903F05B
:104680001FFE414F60804FF0000AA4F806A0388852
:1046900003F016FEA0803888401C3880B9F1000F66
:1046A00005D0D9F80000E060A4F80AA00CE0374873
:1046B0000068F8E76889142802D22046BDE8F88F20
:1046C00068686E4600690090B8F8240040B12989F6
:1046D000814205D9324641462846FFF78DFDEDE778
:1046E000D8F814304046324629469847E6E700009D
:1046F0002E2E2F4D6964646C6577617265732F543B
:10470000686972645F50617274792F4C7749502FD9
:104710007372632F636F72652F697076342F6970BF
:10472000342E6300702D3E726566203D3D203100C1
:10473000417373657274696F6E202225732220663F
:1047400061696C6564206174206C696E6520256404
:1047500020696E2025730A00636865636B207468A6
:10476000617420666972737420706275662063617B
:104770006E20686F6C642073747275637420697046
:104780005F68647200000000CE000020ACF00008FA
:104790002DE9F05F45688346287800F00F00052872
:1047A0007DD1E88803F08CFDC004070C688803F015
:1047B00087FD29780907890E814270D8401A1FFAAF
:1047C00080F8584604F0C2FE6A4C06462088304401
:1047D0000A2809D93146284600F0E4FB00285ED0BB
:1047E000208830440A28E8D8A14664684FF0000ABF
:1047F0000CE06069E968884207D1A06929698842AC
:1048000003D1A089A988884203D02468002CF0D164
:1048100006E02CB1E88803F053FDC0041BD025E06E
:10482000042004F0EFF804000AD13146284600F0D5
:10483000B9FBB04233DB042004F0E4F80400CED02E
:104840002021FBF728FD0F20E077D9F80410216024
:10485000C9F8044004E0E08903F032FDC00405D04B
:104860001422294604F10800FBF7EEFCA87940F376
:1048700040156D1C08D007EB080080B2B84263D326
:104880004FF6EB7188425FD82A465946204600F021
:104890003BF9411C58D0B9F80020324400E064E0F4
:1048A000A9F8002035B107EB0801A183A17F41F0F1
:1048B0000101A177012845D1A08B1422143087B2C1
:1048C000606804F10801456828462E68FBF7BCFCC7
:1048D000384603F0F5FC6880A5F806A0A5F80AA004
:1048E000656809E014213046776805F0B7F931466C
:1048F000284604F093FD3E68002EF3D1D9F8041049
:104900004E468C4205D1002105E00868A04202D045
:1049100001460029F9D1204600F01AFA284604F091
:1049200015FE04463088A04206D213A340F29B2213
:1049300020A127A0FDF718FE3088001B30802846F4
:10494000BDE8F09F0020FBE7606870B9D9F804006B
:10495000844206D008A340F2AB2227A11CA0FDF799
:1049600003FE0021204600F0F3F9584604F0C2FF90
:10497000E8E70000D00000202E2E2F4D6964646C03
:104980006577617265732F54686972645F506172F4
:1049900074792F4C7749502F7372632F636F726550
:1049A0002F697076342F6970345F667261672E6389
:1049B0000000000069705F72656173735F706275FB
:1049C00066636F756E74203E3D20636C656E0000FB
:1049D000417373657274696F6E202225732220669D
:1049E00061696C6564206174206C696E6520256462
:1049F00020696E2025730A006E6F742066697273D9
:104A000074616C74686F756768206A75737420656B
:104A10006E7175657565640070B50146144813E0E4
:104A200090F82D20D3070FD053070DD543685BB105
:104A300084680D68234005EA04069E4216D092075A
:104A400002D4C268954211D000680028E8D1094814
:104A5000006850B190F82D20D30706D0520704D536
:104A6000426812B109787F2900D1002070BD000092
:104A7000680000206C00002010B5040006D106A3D9
:104A80004FF4317213A116A0FDF76EFD2146BDE86B
:104A90001040052003F042BF2E2E2F4D6964646C38
:104AA0006577617265732F54686972645F506172D3
:104AB00074792F4C7749502F7372632F636F72652F
:104AC0002F697076342F6970345F667261672E6368
:104AD000000000007020213D204E554C4C0000008D
:104AE000417373657274696F6E202225732220668C
:104AF00061696C6564206174206C696E6520256451
:104B000020696E2025730A002DE9F05F4C68064687
:104B100093460F4600254FF00108608803F0D0FB54
:104B200021784FF0FF3A0907890E814231D8A0EB76
:104B30000109E08803F0C4FBC0047C68010C00207C
:104B4000206001EB090083B2A180E3808B4220D377
:104B5000726829E05068B0F804C0614515D222603F
:104B60006DB1B5F806C0614513D38088834210D873
:104B70002F60A088844506D04FF0000803E08088AD
:104B8000834206D877608AB12EE002D0C288914273
:104B900002D25046BDE8F09F25B1EA88624501D0B7
:104BA0004FF0000802680546002AD3D195B1E88885
:104BB000A188884206D92AA34FF4DB7237A13FA00F
:104BC000FDF7D2FC2F60E888A18888420CD04FF016
:104BD000000809E0706830B121A34FF4DF7241A1F1
:104BE00036A0FDF7C1FC7760BBF1000F02D1B07FAA
:104BF000C007CFD0B8F1000F30D07268002A2DD096
:104C000050688088002829D12168204629B14C6845
:104C1000C088A1888842F7D020E0B8F1000F1DD0ED
:104C200032B90FA340F2DF123CA124A0FDF79CFC97
:104C300070684068A04206D109A34FF4F07237A112
:104C40001EA0FDF791FC206830B105A34FF4F1726E
:104C500036A11AA0FDF788FC01209BE7002099E708
:104C60002E2E2F4D6964646C6577617265732F54C5
:104C7000686972645F50617274792F4C7749502F64
:104C80007372632F636F72652F697076342F69704A
:104C9000345F667261672E630000000063686563BD
:104CA0006B20667261676D656E747320646F6E272A
:104CB00074206F7665726C617000000041737365DB
:104CC0007274696F6E2022257322206661696C659B
:104CD00064206174206C696E6520256420696E20F3
:104CE00025730A006E6F2070726576696F75732088
:104CF000667261676D656E742C2074686973206DCF
:104D000075737420626520746865206669727374B7
:104D100020667261676D656E7421000073616E6953
:104D2000747920636865636B0000000076616C69CC
:104D3000646174655F646174616772616D3A6E6528
:104D400078745F70627566213D4E554C4C000000D2
:104D500070B504460C480D464168A14202D1216855
:104D600041600AE0002D06D108A340F2451216A1C9
:104D70001CA0FDF7F9FB206828602146BDE87040C3
:104D8000042003F0CBBD0000D00000202E2E2F4DBC
:104D90006964646C6577617265732F5468697264C5
:104DA0005F50617274792F4C7749502F7372632F63
:104DB000636F72652F697076342F6970345F667225
:104DC00061672E630000000073616E69747920636F
:104DD0006865636B206C696E6B6564206C697374C5
:104DE00000000000417373657274696F6E202225A4
:104DF0007322206661696C6564206174206C696E41
:104E00006520256420696E2025730A002DE9F0478E
:104E1000054600240F46A94205D12FA3AB223DA190
:104E20003FA0FDF7A1FB002F08D03868A84205D0AD
:104E300029A3AD2244A13AA0FDF796FB6E684FF47A
:104E400080387068818800291AD10068686014224F
:104E500005F108017068FBF7F7F901213046FFF70B
:104E6000AFF9304604F072FB0446404505D31AA35F
:104E7000BC223AA12AA0FDF777FB304604F03AFDA8
:104E80006E6812E07068B1460668484604F05EFB42
:104E90000444444505D310A3CC2230A120A0FDF743
:104EA00063FBA4B2484604F025FD002EEAD1394642
:104EB0002846FFF74DFF314D2888A04205D206A3B2
:104EC000D2222FA116A0FDF74FFB2888001B2880B7
:104ED0002046BDE8F08700002E2E2F4D6964646CDB
:104EE0006577617265732F54686972645F5061728F
:104EF00074792F4C7749502F7372632F636F7265EB
:104F00002F697076342F6970345F667261672E6323
:104F1000000000007072657620213D2069707200EB
:104F2000417373657274696F6E2022257322206647
:104F300061696C6564206174206C696E652025640C
:104F400020696E2025730A00707265762D3E6E65AD
:104F50007874203D3D2069707200000070627566B3
:104F6000735F6672656564202B20636C656E203C00
:104F70003D2030786666666600000000D0000020A4
:104F800069705F72656173735F70627566636F7578
:104F90006E74203E3D2070627566735F6672656553
:104FA000640000002DE9F0471D4F894606460024A5
:104FB0000022134611461546786822E0D0F814C046
:104FC000D6F80C80C4450BD1D0F818C0D6F81080A4
:104FD000C44505D1B0F80CC0B6F80480C44509D06A
:104FE0006D1C2AB190F81FC092F81F80C44501D8EB
:104FF00002461946D0F800C0BCF1000F00D00346AD
:1050000060460028DAD11AB11046FFF7FFFE0444CB
:105010004C4501DA012DCBDC2046BDE8F0870000CD
:10502000D000002070B50948002544680BE0E07FFF
:1050300020B1401EE0772546246804E0204624681D
:105040002946FFF7E3FE002CF1D170BDD00000200F
:1050500010B5040006D108A340F2CE2215A118A075
:10506000FDF782FA606908B104F044FC2046BDE80F
:105070001040FFF701BD00002E2E2F4D6964646CB7
:105080006577617265732F54686972645F506172ED
:1050900074792F4C7749502F7372632F636F726549
:1050A0002F697076342F6970345F667261672E6382
:1050B0000000000070637220213D204E554C4C00D2
:1050C000417373657274696F6E20222573222066A6
:1050D00061696C6564206174206C696E652025646B
:1050E00020696E2025730A0070B509490646002420
:1050F00008884D8821464543204602F0C9FE02F04B
:1051000081FF044801E00680641CAC42FBD370BD03
:10511000E00000200008006C2DE9F04F38492C26F3
:105120000A46887192884FF4305A4FF4285B41F652
:10513000631E2B274FF02A0C4FF0F00845F2105950
:105140004FF448754FF4A0744FF4F07358B10C80CD
:10515000A1F802804A4530D1A1F808A0A1F80AB010
:105160003802888141E0A1F800804C804A4507D18F
:10517000A1F808A0A1F80AB04FF42C50888105E0EE
:1051800072450E8105D14F81A1F80CC00B804D8076
:1051900002E0A1F80AC08F81A2F5A640103803D022
:1051A000A2F5EE40963801D10C804B80A2F5184054
:1051B00006381FD10B804D801CE0724511D0A2F53E
:1051C000184006380DD00E81A1F80AC0A1F80C7065
:1051D000A2F5A64010380BD0A2F5EE40963807D0C5
:1051E00008E00E81A1F80AC08F810D804B80EFE7A7
:1051F0000B804C80BDE8F04F002002F087BD00001E
:10520000E000002010B5CF2002F0F0FE002002F0F8
:10521000E1FEC12002F0DEFE302002F0DBFEED20D8
:1052200002F0E4FE642002F0D5FE032002F0D2FE7C
:10523000122002F0CFFE812002F0CCFEE82002F026
:10524000D5FE852002F0C6FE102002F0C3FE7A20B3
:1052500002F0C0FECB2002F0C9FE392002F0BAFEF7
:105260002C2002F0B7FE002002F0B4FE342002F041
:10527000B1FE022002F0AEFEF72002F0B7FE2020C1
:1052800002F0A8FEEA2002F0B1FE002002F0A2FE29
:10529000002002F09FFEC02002F0A8FE1B2002F0BA
:1052A00099FEC12002F0A2FE012002F093FEC5206B
:1052B00002F09CFE302002F08DFE302002F08AFECB
:1052C000C72002F093FEB72002F084FE362002F0E1
:1052D0008DFE482002F07EFE3A2002F087FE552027
:1052E00002F078FEB12002F081FE002002F072FE92
:1052F0001A2002F06FFEB62002F078FE0A2002F0BB
:1053000069FEA22002F066FEF22002F06FFE00208D
:1053100002F060FE262002F069FE012002F05AFE33
:10532000E02002F063FE0F2002F054FE2A2002F07B
:1053300051FE282002F04EFE082002F04BFE0E2007
:1053400002F048FE082002F045FE542002F042FE22
:10535000A92002F03FFE432002F03CFE0A2002F0AA
:1053600039FE0F2002F036FE002002F033FE00204E
:1053700002F030FE002002F02DFE002002F02AFE96
:10538000E12002F033FE002002F024FE152002F09E
:1053900021FE172002F01EFE072002F01BFE112046
:1053A00002F018FE062002F015FE2B2002F012FE7D
:1053B000562002F00FFE3C2002F00CFE052002F009
:1053C00009FE102002F006FE0F2002F003FE3F202F
:1053D00002F000FE3F2002F0FDFD0F2002F0FAFD7A
:1053E0002B2002F003FE002002F0F4FD002002F06A
:1053F000F1FD012002F0EEFD3F2002F0EBFD2A203E
:1054000002F0F4FD002002F0E5FD002002F0E2FDD4
:10541000002002F0DFFDEF2002F0DCFD112002F0A1
:10542000E5FD7820FBF71CFBBDE81040292002F0C9
:10543000DDBD10B5FF2002F0D9FDFF2002F0CAFD4E
:10544000982002F0C7FD062002F0C4FDBC2002F047
:10545000CDFD012002F0BEFD0F2002F0BBFD61205A
:1054600002F0B8FDFF2002F0B5FD012002F0B2FD10
:10547000012002F0AFFD0B2002F0ACFD102002F085
:10548000A9FD372002F0A6FD632002F0A3FDFF2056
:1054900002F0A0FDFF2002F09DFD012002F09AFD28
:1054A000012002F097FD002002F094FD002002F0A0
:1054B00091FDFF2002F08EFD522002F08BFD0120B5
:1054C00002F088FD002002F085FD402002F082FD00
:1054D000BD2002F08BFD012002F07CFD232002F0B4
:1054E00079FD452002F076FD672002F073FD012072
:1054F00002F070FD232002F06DFD452002F06AFDF0
:10550000672002F067FDBE2002F070FD002002F06F
:1055100061FD012002F05EFDAB2002F05BFD60202A
:1055200002F058FD222002F055FD222002F052FD2B
:10553000222002F04FFD222002F04CFD222002F03A
:1055400049FDC72002F052FD362002F043FDED2058
:1055500002F04CFD7F2002F03DFD0F2002F03AFDED
:10556000C02002F043FD0F2002F034FD0B2002F0BA
:1055700031FD0A2002F02EFDFC2002F037FD08204C
:1055800002F028FDDF2002F031FD002002F022FDB4
:10559000002002F01FFD002002F01CFD002002F0A0
:1055A00019FD002002F016FD202002F013FDF3206B
:1055B00002F01CFD742002F00DFDB42002F016FD77
:1055C000002002F007FD002002F004FD002002F0A0
:1055D00001FDF72002F00AFD822002F0FBFCB12061
:1055E00002F004FD002002F0F5FC132002F0F2FCB2
:1055F000132002F0EFFCF22002F0F8FC802002F011
:10560000E9FC042002F0E6FC402002F0E3FC282044
:1056100002F0E0FCC12002F0E9FC172002F0DAFC05
:10562000882002F0D7FC882002F0D4FC202002F071
:10563000D1FCE02002F0DAFC002002F0CBFC0A20D2
:1056400002F0C8FC122002F0C5FC102002F0C2FCDF
:105650000E2002F0BFFC202002F0BCFCCC2002F0A7
:10566000B9FC072002F0B6FC062002F0B3FC0B20C8
:1056700002F0B0FC0E2002F0ADFC0F2002F0AAFCFC
:105680000D2002F0A7FC152002F0A4FC102002F06F
:10569000A1FC002002F09EFCE12002F0A7FC00200B
:1056A00002F098FC0B2002F095FC132002F092FC13
:1056B0000D2002F08FFC0E2002F08CFC1B2002F06B
:1056C00089FC712002F086FC062002F083FC062093
:1056D00002F080FC0A2002F07DFC0F2002F07AFC30
:1056E0000E2002F077FC0F2002F074FC152002F06F
:1056F00071FC0C2002F06EFC002002F06BFC2A20F2
:1057000002F074FC002002F065FC002002F062FC54
:10571000012002F05FFCDF2002F05CFC2B2002F095
:1057200065FC002002F056FC002002F053FC032030
:1057300002F050FC1F2002F04DFC3A2002F056FC13
:10574000552002F047FC362002F050FC002002F009
:1057500041FC112002F04AFC7820FBF781F9292056
:1057600002F044FC1420FBF77BF9BDE810402C202C
:1057700002F03CBC10B5ED2002F038FC012002F034
:1057800029FCFE2002F026FCEE2002F02FFCDE2099
:1057900002F020FC212002F01DFCF12002F026FC8A
:1057A000012002F017FCDF2002F020FC102002F0A4
:1057B00011FCC42002F01AFC8F2002F00BFCC62062
:1057C00002F014FC002002F005FCE22002F002FCD2
:1057D000E22002F0FFFBE22002F0FCFBBF2002F01F
:1057E00005FCAA2002F0F6FBB02002F0FFFB0D2022
:1057F00002F0F0FB002002F0EDFB0D2002F0EAFBCE
:10580000002002F0E7FB112002F0E4FB002002F090
:10581000E1FB192002F0DEFB002002F0DBFB21207F
:1058200002F0D8FB002002F0D5FB2D2002F0D2FBC5
:10583000002002F0CFFB3D2002F0CCFB002002F064
:10584000C9FB5D2002F0C6FB002002F0C3FB5D2017
:1058500002F0C0FB002002F0BDFBB12002F0C6FB4D
:10586000802002F0B7FB002002F0B4FB8B2002F096
:10587000B1FB002002F0AEFB962002F0ABFB002053
:1058800002F0A8FBB22002F0B1FB002002F0A2FB64
:10589000002002F09FFB022002F09CFB002002F09F
:1058A00099FB032002F096FB002002F093FBB3204B
:1058B00002F09CFB002002F08DFB002002F08AFB2E
:1058C000002002F087FB002002F084FB002002F0A1
:1058D00081FB002002F07EFB002002F07BFB002019
:1058E00002F078FB002002F075FB002002F072FB52
:1058F000002002F06FFB002002F06CFB002002F0A1
:1059000069FB002002F066FB002002F063FB002030
:1059100002F060FB002002F05DFB002002F05AFB69
:10592000002002F057FB002002F054FB002002F0A0
:1059300051FB002002F04EFB002002F04BFB002048
:1059400002F048FBB42002F051FB8B2002F042FB36
:10595000002002F03FFB962002F03CFB002002F00A
:1059600039FBA12002F036FB002002F033FBB5200A
:1059700002F03CFB022002F02DFB002002F02AFB8B
:10598000032002F027FB002002F024FB042002F099
:1059900021FB002002F01EFBB62002F027FB0020B6
:1059A00002F018FB002002F015FBB72002F01EFBEE
:1059B000002002F00FFB002002F00CFB3F2002F061
:1059C00009FB002002F006FB5E2002F003FB002032
:1059D00002F000FB642002F0FDFA002002F0FAFA67
:1059E0008C2002F0F7FA002002F0F4FAAC2002F06A
:1059F000F1FA002002F0EEFADC2002F0EBFA0020CF
:105A000002F0E8FA702002F0E5FA002002F0E2FA73
:105A1000902002F0DFFA002002F0DCFAEB2002F026
:105A2000D9FA002002F0D6FADC2002F0D3FA0020E6
:105A300002F0D0FAB82002F0D9FA002002F0CAFA37
:105A4000002002F0C7FA002002F0C4FA002002F0A1
:105A5000C1FA002002F0BEFA002002F0BBFA0020DA
:105A600002F0B8FA002002F0B5FABA2002F0BEFA4D
:105A7000242002F0AFFA002002F0ACFA002002F07D
:105A8000A9FA002002F0A6FAC12002F0AFFA202005
:105A900002F0A0FA002002F09DFA542002F09AFAD7
:105AA000002002F097FAFF2002F094FA002002F0A2
:105AB00091FAC22002F09AFA0A2002F08BFA002032
:105AC00002F088FA042002F085FA002002F082FA3F
:105AD000C32002F08BFA3C2002F07CFA002002F096
