:020000040800F2
:10000000C05A01205D020008EF350008252B0008CA
:10001000ED35000877090008973A00080000000055
:100020000000000000000000000000009D0100082A
:100030007909000800000000F901000801370008F4
:1000400077020008770200087702000877020008AC
:10005000770200087702000877020008770200089C
:10006000FD0A0008030B0008090B000877020008CE
:10007000770200087702000877020008770200087C
:10008000770200087702000877020008770200086C
:10009000770200087702000877020008770200085C
:1000A00077020008C53700087702000877020008C9
:1000B000770200087702000877020008770200083C
:1000C000770200087702000877020008770200082C
:1000D000770200087702000877020008770200081C
:1000E000770200087702000877020008770200080C
:1000F00077020008770200087702000877020008FC
:1001000077020008770200087702000877020008EB
:1001100077020008770200087702000877020008DB
:1001200077020008770200087702000877020008CB
:1001300077020008CD09000877020008770200085E
:1001400077020008770200087702000877020008AB
:10015000770200087702000877020008770200089B
:10016000770200087702000877020008770200088B
:1001700077020008770200087702000800000000FC
:100180007702000877020008DFF80CD000F0A4FB2B
:100190000048004757C00008C05A01202C4B19687E
:1001A0000868B0E8F04F80F30988BFF36F8F4FF015
:1001B000000080F3118870470000000008480068C4
:1001C000006880F308884FF0000080F3148862B65E
:1001D00061B6BFF34F8FBFF36F8F00DF00BF00BF6B
:1001E00008ED00E0DFF80C00016841F470010160E7
:1001F000704700BF88ED00E0EFF30980BFF36F8F19
:10020000134B1A681EF0100F08BF20ED108A20E96A
:10021000F04F106009B44FF0500080F31188BFF325
:100220004F8FBFF36F8F15F003F94FF0000080F38D
:10023000118809BC19680868B0E8F04F1EF0100F6B
:1002400008BFB0EC108A80F30988BFF36F8F704746
:10025000AC010020EFF3058070470000064880479E
:1002600006480047FEE7FEE7FEE7FEE7FEE7FEE79B
:10027000FEE7FEE7FEE7FEE7B53700088901000864
:100280002DE9F05F0546002092469B4688460646CB
:10029000814640241BE0284641464746224600F05E
:1002A000EEF953465A46C01A914110D311461846EA
:1002B000224600F0D5F92D1A67EB01084F46224679
:1002C0000120002100F0CCF917EB00094E41201E5F
:1002D000A4F10104DFDC484631462A464346BDE826
:1002E000F09F00000649074A0868504343F239026C
:1002F00010440860400870470149086070470000DA
:100300001C0200206D4EC64110B5431A934209D21B
:100310008318881803E010F8011D03F8011D521E10
:10032000F9D210BD40EA01039B0703D009E008C9D8
:10033000121F08C0042AFAD203E011F8013B00F8AA
:10034000013B521EF9D210BDD2B201E000F8012BE0
:10035000491EFBD270470022F6E710B513460A4645
:1003600004461946FFF7F0FF204610BD10B50022E5
:1003700000E0521C835C8C5CA34201D1002BF8D1BD
:10038000D8B2E1B2401A10BD30B504460020034691
:1003900000E05B1C934203D2E05CCD5C401BF8D0D4
:1003A00030BD2DE9FE4F81EA030404F0004421F042
:1003B000004100944FF0000B23F0004350EA010489
:1003C0005ED052EA03045BD0C3F30A54C1F30A556A
:1003D0002C44A4F2F3340194A0FB0254C1F31301A2
:1003E00041F48011C3F3130343F4801301FB02446F
:1003F00000FB034E840A970A44EA815447EA835774
:10040000A4FB076802958D0A05FB07854FEA932C2C
:1004100004FB0C542705029D4FEA065847EA16379D
:10042000B5EB08056EEB070C870E920E47EA8117B5
:1004300042EA8312A7FB0201B6EB0B0164EB000456
:100440002B0D43EA0C335E1844EB1C50DA46514640
:10045000E7FB0201C5F313044FEA0B3343EA1453DD
:100460004FEA0432019C43EA0603A4F10C0402940F
:10047000009CCDE900B400F021F903B0BDE8F08F95
:1004800000200146F9E72DE9F04D81EA030404F06C
:10049000004B21F0004514464FF0000A23F00041C4
:1004A00050EA050220D054EA01021DD0C5F30A57D4
:1004B0000246C5F31303C1F31300C1F30A5640F417
:1004C000801543F48013A7EB0608101BD64608F2EC
:1004D000FD3873EB050002D308F1010801E0921822
:1004E0005B41B8F1000F03DA00200146BDE8F08D52
:1004F00000204FF48011064684460EE0171B73EB74
:10050000050705D3121B63EB050306434CEA010CF8
:1005100049084FEA300092185B4150EA0107EDD1DB
:1005200052EA030012D082EA040083EA050108437C
:1005300005D0101BAB4106D20122002306E00022A9
:100540004FF0004302E06FF0010253101AEB060077
:100550004CEB085110EB0A0041EB0B01BDE8F04DEC
:1005600000F09DB80EB5C10F80EAE0700844CA07DC
:10057000002140F233438DE80E000A460B4600F09E
:100580009DF803B000BD0EB540F233410291002149
:10059000CDE900110A460B4600F090F803B000BD0B
:1005A000C1F30A5210B5C1F3130140F2FF3341F415
:1005B00080119A4201DA002010BD40F233439A4282
:1005C000A2F2334203DC524200F059F810BD9040D1
:1005D00010BD000030B5041E71F1000404DB4FF0C3
:1005E0000044404264EB0101141E73F1000405DB7A
:1005F0001C464FF00043524263EB04038B4208BF9A
:10060000824230BD30B5041E71F1000404DB4FF0AE
:100610000044404264EB0101141E73F1000405DB49
:100620001C464FF00043524263EB0403994208BF5B
:10063000904230BD30B50B460146002020220124F7
:1006400009E021FA02F59D4205D303FA02F5491BA0
:1006500004FA02F52844151EA2F10102F1DC30BDB6
:10066000202A04DB203A00FA02F100207047914072
:10067000C2F1200320FA03F3194390407047202A67
:1006800004DB203A21FA02F00021704721FA02F33C
:10069000D040C2F12002914008431946704710B57E
:1006A000141E73F1000408DA401C41F10001921895
:1006B0005B411A4301D120F0010010BD2DE9F04D3E
:1006C00092469B4611B1B1FA81F202E0B0FA80F293
:1006D00020329046FFF7C4FF04460F4640EA0A0066
:1006E00041EA0B0153465A46084313D0114653EAD8
:1006F000010019D0C8F140025046FFF7C0FF05467F
:100700000E46504659464246FFF7AAFF084305D019
:10071000012004E020463946BDE8F08D0020054365
:1007200046EAE0762C4337430A986305E40AA0EBD7
:1007300008000022FD0A44EA47540A3002D500208E
:100740000146E9E7010510196941DDE9084500198D
:100750006941BDE8F04DA2E72DE9FE4F804681EAF0
:100760000300C00F0C46009021F0004123F000452B
:10077000B8EB0200A94105D24046214690461C46EE
:100780000B46024623F00040104347D0270DC7F325
:100790000A00C3F30A510290401A019040286BDA14
:1007A000C3F3130040F4801B0098924620B100234D
:1007B000D2EB030A63EB0B0B01985946C0F14002E0
:1007C0005046FFF74DFF06460D4650465946019AE2
:1007D00000F094F810EB08006141002487EA115200
:1007E00084EAE7731A4340D0009A62B3019A012A5F
:1007F0004FEA075215DC001B61EB02014FF000428B
:1008000002EA0752CDE90042001C41F58011324650
:100810002B46FFF753FF03B0BDE8F08F404621465B
:10082000F9E7001B61EB0201001C41F58013001881
:100830005B412018A2F5001747EB030140EAD57091
:10084000B6196D4111E06D084FEA360645EAC075EC
:100850004FEA0752001B61EB0201001C41F58011B9
:1008600049084FEA30000019514132462B4603B087
:10087000BDE8F04FFFF713BF0098012240000023AE
:10088000D0EB020263EBE073009821464FEAE0747C
:10089000B8EB000061EB0401E9E783F000435BE79C
:1008A00081F0004158E7C1F30A52C1F3130140F24D
:1008B000FF3341F480119A4202DA0020014670476A
:1008C00040F233439A42A2F2334202DC5242FFF733
:1008D000D6BEFFF7C5BE0000064C074D06E0E06837
:1008E00040F0010394E8070098471034AC42F6D377
:1008F000FFF74EFC2841040848410408202A06DB83
:10090000CB17203A41FA02F043EAE07306E041FADD
:1009100002F3D040C2F120029140084319467047CB
:1009200070B58C1810F8015B15F0070301D110F8B1
:10093000013B2A1106D110F8012B03E010F8016BDE
:1009400001F8016B5B1EF9D12B0705D40023521E61
:100950000DD401F8013BFAE710F8013BCB1A921CC9
:1009600003E013F8015B01F8015B521EF9D5A142C7
:10097000D8D3002070BDFEE770470000064908B5D7
:1009800009684FF4FA52B1FBF2F14143009100BF04
:10099000491E0091FBD208BDDC00002038B504469A
:1009A000006800F58050816941F480118161206800
:1009B00000F58050806900900120FFF7DFFF20687C
:1009C000009900F58050816138BD0000014800F0B9
:1009D000BEBA00007C4A00202DE9F041044621B156
:1009E0004FF40060E060C000A060E06900250028CE
:1009F00061D028462368402619683A4A1140D4E954
:100A000002273A43024342F400700843186020680A
:100A10000768012000F044F92068076020684660FC
:100A200020684668012000F03BF920684660206895
:100A300085602068C560216888694FF64172104062
:100A400040F08000886120688669012000F028F964
:100A5000206886612068C5612068C569012000F0B2
:100A60001FF92068C561226802F5805290691E490D
:100A700008401E4901439161206800F58050856956
:100A8000012000F00DF9206800F580508561206894
:100A9000174900F580500160206800F58050056816
:100AA000012000F0FDF8206800F580500560A06985
:100AB000012803D009E04FF480609BE7206800F52F
:100AC0008050C1690B4A1143C16160690A4982883B
:100AD0000A640278D0F8010042EA00204864BDE8C8
:100AE000F08100000F8120FF233FDEF80400200288
:100AF0008020C1024000010000800240042000F07C
:100B0000AFBD082000F0ACBD102000F0A9BD000072
:100B1000FEB514460D4607466426CDE90054012370
:100B20003A46A1210348029600F070FF0028F4D154
:100B3000FEBD0000541900202DE9FE436426144632
:100B40000D46804601270FE0CDE9005701234246BC
:100B5000A0210848029601F055F80028F4D108F1C8
:100B600001001FFA80F86D1C641EA4B2ECD2BDE82F
:100B7000FE8300005419002070470022AFF300806C
:100B800030B50E4B054601205C7A002C14D1587A02
:100B90001C54587A03EB800045605D7A03F108002D
:100BA0002A54587A421C5A72303008703A204870E1
:100BB0002F208870CC70002030BD0000B04601208E
:100BC00070B5B3F5804F05D06FF0704140F822103A
:100BD000002070BD50F82240084B8E891C40D1E99E
:100BE000003543EA05138D6889692D0245EA0645FB
:100BF0002B430B43234340F82230E9E70000F0CFBA
:100C0000F0B50C6850F82430114A1340D1E90125A1
:100C1000D1E903672A433E4332434E6932438E692A
:100C20003243CE6932430E6A32434E6A32438E6A91
:100C30003243CE6A3243CE6B096B32430A431A43C6
:100C4000082D01D142F0400240F824200020F0BDE0
:100C50008000F0FF30B500EB820250688D8900F013
:100C60004043D1E9000440EA04108C68240244EABD
:100C7000054420430C8A074D05EB045420430C7DAA
:100C80006D0105EB046489692043084318435060F3
:100C9000002030BD0000F0FF01200CF0A3FBFBE7BB
:100CA00080B203F0A3BF00002DE9F041054690F8A3
:100CB00045000C46012875D0012685F845600220C4
:100CC00085F84400002C70D02A6811684148014022
:100CD000D4E900031843D4E902373B431843AB6817
:100CE00018432369184363691843EB681843A369E1
:100CF0001843E3691843236A1843636A1843A36AD5
:100D0000184308431060286807680120FFF7C8FFF0
:100D100028680760D4E90B010843D4E90D12114398
:100D20000843E16B0843216C0843616C0843A16CE4
:100D3000084329684860286847680120FFF7B0FF2A
:100D4000286847602968E06C88602968206DC86061
:100D50002A6891694FF641700140D4E9160318439F
:100D6000B4F85470236E43EA07431843636E184384
:100D7000A36E184308439061286887690120FFF734
:100D80008FFF28688761D4E91B0108432968C8617F
:100D90002868C4690120FFF783FF2868C46114E054
:100DA00000E002E00220BDE8F0812968086820F434
:100DB0009042D5E90203184310430860286804688C
:100DC0000120FFF76DFF2868046005F8446F0020DC
:100DD0006870E8E70F8120FF2DE9F04390F8454067
:100DE0000025012C0DD04FF0010C80F845C00224E5
:100DF00080F8444044F2F4574FF000495E1E81628F
:100E000017E00220BDE8F08301EB4514C4F8009020
:100E1000C5EBC51808EB480802EB8808C4E901785F
:100E2000B54204D204F12008C4F80C8000E0E1606F
:100E30006D1C9D42E8D3026802F58052D16080F8B3
:100E400044C0002180F845100846DBE72DE9F04357
:100E5000914690F845200024012A0AD0012680F806
:100E60004560022280F844204FF4801C5D1EC16260
:100E70001BE00220BDE8F08301EB4412C2F800C081
:100E8000C4EBC41707EB470809EB88079760C769ED
:100E90001FB9176847F440071760AC4203D202F14C
:100EA0002007D76000E0D160641C9C42E4D3026854
:100EB00002F58052116180F84460002180F84510ED
:100EC0000846D7E7704730B590F845100023012950
:100ED00008D0012280F84520022180F84410002427
:100EE000816A1AE0022030BD0D685B1CC5F3012544
:100EF000022D0AD00D6815F4407F09D04163836B41
:100F00005B1C8363012B12D012E08263016302E059
:100F1000856B6D1C8563C96881620D68002D01DBDE
:100F2000042BE1D300F8442F4470012030BD01634D
:100F30000B68C3F30D431B1FC363036B9B68036400
:100F4000C96840F8281F02774477002030BD70B58B
:100F50000446006800F5805041694FF000054906DD
:100F60004FF0010608D5204600F0DCF9206840214A
:100F700000F58050416109E04069C0070AD0204671
:100F800000F0DEFA206800F58050466184F8446085
:100F900084F8455020684FF4803100F5805041615D
:100FA000206800F58050406900040CD52046FFF70A
:100FB00089FF20684FF4004100F58050416184F8BA
:100FC000446084F8455070BD2DE9FC474FF00006A1
:100FD0000400B146009603D094F8440018B107E02D
:100FE0000120BDE8FC8784F84560204600F0E4F865
:100FF0006748016841F480410160006800F4804066
:1010000001906448016821F4000101600168226ACE
:1010100011430160206800F58050016841F0010132
:10102000016000F029FC05464FF4FA7709E000BFA3
:1010300000F022FC401BB84203D9032004F8440FFF
:1010400067E0206800F580500068C007F0D1206894
:10105000006920F01C0501F013F84F494F4A014484
:10106000914202D245F0080516E04D494D4A01442F
:10107000914202D245F00C050EE04B494B4A014427
:10108000914209D34A4908444A49884202D245F06C
:10109000040501E045F01005206805614FF40042A9
:1010A0000021204600F04EFA0125A8BBFF20FFF7E3
:1010B000F7FD606888B300F0DFFB804641F28837B7
:1010C0006A460121204600F0EBF800F0D5FBA0EBCA
:1010D0000800B84217D800984007F1D54FF4805265
:1010E0000021204600F02EFAB0B900F0C5FB804682
:1010F0006A460121204600F0D3F800F0BDFBA0EBCA
:101100000800B8420AD901212046FFF765FC04F81F
:10111000445F0320667064E726E01AE000988006CA
:10112000E6D56A461121204600F0BAF8E0B90098E9
:10113000810403D54FF40061E16000E0E66044F211
:101140001001814303D04FF48040A06017E0A660F7
:1011500015E0E068A168C00840EA510082B20021B1
:10116000204600F0EFF930B101212046FFF734FCB2
:1011700084F8445034E740F6FF70FFF791FD49468C
:101180002046FFF729FC84F84450002029E700009E
:10119000443802400438014000D3CEFEC0E1E400F0
:1011A00040F1E9FD40787D0100796CFC005A620253
:1011B000001F0AFA80F0FA02F0B587B00446142145
:1011C0006846FFF7C8F83149206888425BD130484B
:1011D0000024016841F000710160016801F00071B4
:1011E0000591016841F080610160016801F0806152
:1011F0000591016841F000610160016801F0006142
:101200000591016841F004010160016801F00401E9
:101210000591016841F001010160016801F00101DF
:101220000591016841F0400101600068022500F06D
:10123000400005903220CDE9000502AA03260B27C5
:1012400082E8D0006946134800F016FA8620CDE9FE
:10125000000502AA694682E8D0000F4800F00CFAA7
:101260004FF4D040CDE9000502AA694682E8D000DB
:101270000A4800F001FA002206213D2000F014FE89
:101280003D2000F003FE07B0F0BD000000800240EA
:1012900030380240000802400000024000180240BE
:1012A0002DE9F047044690F84400914682281DD06D
:1012B000822084F84400226810694FF6FF7500F020
:1012C0001C03208A05EAC02018434FF4F86303EAA0
:1012D0008111014321F0020040F00105156100F089
:1012E000CBFA064601274FF4803810E00220BDE813
:1012F000F08700BF00F0C0FA801B404505D304F81A
:10130000447F002060700320F1E720680569E8074A
:10131000F0D12068406981B2C9F8001084F84470A7
:101320000020E4E7014800680CF08EB9CC000020F2
:10133000F8B5044690F84500012839D0012584F815
:101340004550022084F8440020680026016841F0DE
:10135000080101602068006800902846FFF70EFB36
:101360002168009808602068016841F0040101606C
:101370002068006800900120FFF700FB21680098BA
:1013800008602046FFF70AFB206800F5805081695D
:1013900041F400518161206800F58050816941F07D
:1013A0000201816184F8445084F845600020F8BD52
:1013B0000220F8BDF8B5044690F84500012839D060
:1013C000012584F84550022084F84400206800F587
:1013D0008050816921F400518161206800F58050BE
:1013E000816921F00201816120680026016821F0F5
:1013F000040101602068006800900120FFF7BEFA38
:101400002168009808602046FFF7C8FA2068016844
:1014100021F0080101602068006800900120FFF7BA
:10142000ADFA21680098086084F8445084F845605B
:101430000020F8BD0220F8BDF0B590F8452000234B
:10144000012A11D0012780F84570022280F844203B
:10145000002459B1C66A3268002A0ADA122100F85B
:10146000441F44700120F0BD0220F0BD00F8447F0D
:10147000F7E740F2F455A9420BD9B1FBF5FCB1FBFB
:10148000F5F205FB1C1CBCF1000F00D0521C012A18
:1014900043D1326842F040523260C26AC1F30C015B
:1014A0005160C16A0A6842F000420A60C16AC968B4
:1014B000C16234E0D6F800C02CF0405CC6F800C031
:1014C00033B9C66AD6F800C04CF0805CC6F800C0DC
:1014D000C66A7560561EB34214D1C66AD6F800C0FB
:1014E0004CF0005CC6F800C0C2F10106C6EBC6169F
:1014F00006EB4606D0F82CC001EB8606C6F30C06B8
:10150000CCF80460C66AD6F800C04CF0004CC6F8AF
:1015100000C0C66A5B1CF668C6629342CAD3016803
:1015200001F580514A69520705D504224A610168D4
:1015300001F580514C6000F8447F44700020F0BDFC
:10154000704700002DE9F041044690F8440042281D
:101550001ED0422084F84400236818694FF6FF76B5
:1015600000F01C05208A06EAC02028434FF4F865E5
:1015700005EA8111014390B241F0030558612068EA
:10158000056100F079F9064601274FF4803810E034
:101590000220BDE8F08100BF00F06EF9801B4045DD
:1015A00005D304F8447F002060700320F1E7206831
:1015B0000569E807F0D184F84470EAE72DE9F041C5
:1015C00086B014216846FEF7C6FE1F480168002950
:1015D00037D1012707601D488846016841F00101A5
:1015E00001600068022400F00100059041F2010052
:1015F0008DE8910003250C26CDE903566946144871
:1016000000F03AF84FF680708DE81101CDE90356ED
:101610006946104800F030F84CF203708DE8110173
:10162000DFF83480CDE903566946404600F024F8DF
:1016300030208DE89100CDE903566946404600F020
:101640001BF806B0BDE8F081A00000203838024049
:101650000018024000100240000C024070470000D9
:10166000044910B50A68024202D00860FFF7F6FF8D
:1016700010BD0000143C01402DE9F84FDFF8B8A17F
:10168000002201250AF1040B03264FF00F090BF18C
:10169000040E00BF0B6805FA02F42340A3426FD189
:1016A0000F7907F00307012F01D0022F16D18768A9
:1016B0004FEA420806FA08FC27EA0C07D1F80CC0EA
:1016C0000CFA08FC4CEA070CC0F808C04768A743AE
:1016D0000C79C4F3001494403C4344600C79E44317
:1016E000A4070AD0C4684FEA420C06FA0CF7BC43C0
:1016F0008F6807FA0CF72743C7600C7904F00304DE
:10170000022C12D1D40800EB840CDCF820405707DF
:10171000FF0E09FA07F824EA0804D1F8108008FA45
:1017200007F848EA0408CCF8208004684FEA420C25
:1017300006FA0CF7BC430F7907F0030707FA0CF71A
:10174000274307604C68E40070D53C4C276847F499
:1017500080472760246822F0030704F48044009443
:10176000374C07EB040CDCF8084897074FEA17786A
:1017700009FA08F7BC43334FB84202D1002724E0EE
:1017800054E0314FB84201D101271EE02F4FB8423B
:1017900001D1022719E02E4FB84201D1032714E0EE
:1017A0002C4FB84201D104270FE02B4FB84201D192
:1017B00005270AE0294FB84201D1062705E0284F46
:1017C000B84201D1072700E0082707FA08F72743A6
:1017D000CCF80878DAF800405746D1F804C09C43AA
:1017E0005FEACC3C00D51C433C60DBF800405F4620
:1017F000D1F804C09C435FEA8C3C00D51C433C609C
:10180000DEF800407746D1F804C09C435FEACC2C58
:1018100000D51C433C60084F0C373C68D1F804C02D
:101820009C435FEA8C2C00D51C433C60521C102A60
:10183000FFF430AFBDE8F88F003C0140443802406F
:101840000030014000000240000402400008024055
:10185000000C024000100240001402400018024038
:10186000001C02400069084000D0012070470AB106
:10187000816170470904FBE70148806870470000F8
:10188000D000002070B5040025D094F83D0000255C
:1018900020B984F83C50204600F04CFA242084F80B
:1018A0003D002068016821F00101016020680168A5
:1018B00041F4004101602068016821F400410160A9
:1018C00000F0E4FB4D4A6168914201D84C4900E0C8
:1018D0004C49884201D2012070BD4B492368B0FBBE
:1018E000F1F15E6826F03F060E435E606368934246
:1018F00006D94FF4967359434FF47A73B1FBF3F161
:101900002368491C1E6A26F03F063143196261684C
:10191000914210D84900401EB0FBF1F2521CC2F3B4
:101920000B02042A01D2042022E0B0FBF1F0401C9B
:10193000C0F30B001CE0A268F2B301EBC10303EBA0
:101940000116431EB3FBF6F35B1C43F480431B05F7
:1019500049D092B301EBC10202EB0111401EB0FB72
:10196000F1F0401CC0F30B0040F4804040F4004014
:101970002168CA694CF6FF739A431043C861D4E9E1
:10198000071001432068026822F0C0021143016081
:10199000D4E9030101432068826848F2FF339A4387
:1019A00011438160D4E9050108432168CA6822F027
:1019B000FF021043C86001E00EE016E020680168F5
:1019C00041F0010101602564202084F83D00256379
:1019D00084F83E50002070BD01EB4106431EB3FB6E
:1019E000F6F35B1CB3E70120C2E701EB4101401EA7
:1019F000B0FBF1F0401CC0F30B00B7E7A08601007C
:101A000080841E0000093D0040420F002DE9FF4F79
:101A100083B09A46DDE9119793460446DDF840808D
:101A2000FFF72AFF054694F83D00202870D11923BE
:101A3000012271492046009501F084F90028F5D172
:101A400094F83C00012863D0012084F83C00206811
:101A50000168C90703D1016841F0010101602068F4
:101A6000016821F400610160222084F83D004020DB
:101A700084F83E0000262664C4F82480A4F82A9046
:101A8000608D20855D48E062CDE9007553465A4679
:101A90002046049901F05EF800287CD1208DD0B159
:101AA000012821D00228206824D041698069009053
:101AB000208D032869D801282BD0514902283B46A4
:101AC0004FF00002009559D08846204601F03AF9BF
:101AD000002860D13CE0206841698169009101687B
:101AE00041F40071016077E02068016821F48061B1
:101AF0000160F0E7016821F48061016020680168FD
:101B000041F400610160206841698069009063E0F0
:101B10006FE02A463946204601F093F998BB2068C9
:101B20000069616A08704EE02068016841F4007144
:101B3000016020680069616A0870606A401C606228
:101B4000218D491E2185618D491E6185216838E0FE
:101B50002068016821F48061016020680069616A81
:101B60000870606A401C6062208D401E2085608D78
:101B7000401E60853B46002241460095204601F00C
:101B8000E1F800B9D0E706E0FFE72A4639462046EB
:101B900001F057F918B1012007B0BDE8F08F2068B7
:101BA0000069616A0870606A401C6062218D491E8C
:101BB0002185618D491E618521684A69D24352079A
:101BC0000AD409690170606A401C6062208D401E61
:101BD0002085608D401E6085208D00287FF468AFD1
:101BE000202084F83D0084F83E6084F83C600020AA
:101BF000D2E70220D0E70000020010000000FFFF43
:101C0000040001002DE9FF4F83B09A46DDE91197EA
:101C100093460446DDF84080FFF72EFE054694F813
:101C20003D0020287FD119230122404920460095FC
:101C300001F088F8002876D194F83C00012872D091
:101C4000012084F83C0020680168C90703D10168BD
:101C500041F0010101602068016821F40061016028
:101C6000212084F83D00402084F83E0000262664B0
:101C7000C4F82480A4F82A90608D20852C48E06266
:101C8000CDE9007553465A462046049900F0E0FF1E
:101C900070B930E02A463946204601F005F958B1BE
:101CA000206C042804D12068016841F400710160AF
:101CB000012007B0BDE8F08F606A216800780861F4
:101CC000606A401C6062218D491E89B22185628D47
:101CD000521E628522685369DB435B070BD469B1EE
:101CE00000781061606A401C6062208D401E208573
:101CF000608D401E6085208D0028CBD12A46394654
:101D0000204600F0F9FF0028CAD154F83D0B0168C5
:101D100041F400710160202004F81E09E67766771F
:101D20000020C6E7FFE70220C3E700000200100022
:101D30000000FFFF10B586B0044614216846FEF788
:101D40000AFB13492068884220D11248016841F0FB
:101D5000800101600068694600F080000590302035
:101D60000090122001900120029003200390042093
:101D700004900948FFF780FC06481030016841F4E0
:101D800080010160006800F48000059006B010BD7D
:101D90000058004030380240001C02400248816870
:101DA0000278114481607047D00000200B4810B5C4
:101DB000016841F400710160016841F480610160D3
:101DC000016841F480710160032000F08DF800206B
:101DD00000F006F800F03EF8002010BD003C024084
:101DE00010B5014688B00022192000F05DF81920D6
:101DF00000F04CF813480024016841F00101016033
:101E0000006805A900F001000690684600F018F986
:101E100000F04CF90C494000B0FBF1F10C480B4AC2
:101E2000491E026040F2E732C0E90324C0E9011410
:101E300000F0E4FC10B1012008B010BD044800F02F
:101E40000BFDF9E74438024040420F00000001401A
:101E5000604B00200C4882B0016841F48041016071
:101E6000006800F4804000900748001F016841F0BE
:101E7000805101600068002200F0805000900F2126
:101E8000901E02B000F010B844380240002809DB70
:101E900000F01F02012191404009800000F1E02084
:101EA000C0F8001170470000F0B40E4B1B680C46E0
:101EB000C3F30223C3F10705042D00D90425191D1E
:101EC000072901D2002300E0DB1E012606FA05F1F6
:101ED000491E214099409E40761E16403143F0BC79
:101EE00001F078BE0CED00E0064900F0070208683A
:101EF0004FF6FF03184040EA0220034A10430860EF
:101F0000704700000CED00E00000FA052DE9F047F5
:101F10000E46050065D0DFF81481D8F80000F7B24E
:101F200000F00700B04207D288F80070D8F800002F
:101F300000F00700B04254D128683D4C810712D50B
:101F4000400703D5206840F4E0502060287800075F
:101F500003D5206840F4604020602068A96820F024
:101F6000F000084320602878C0072DD03049686809
:101F70000839012812D0022813D0032811D009688B
:101F8000890700292DDA216821F00301014321602E
:101F9000FFF772FC814641F2883A0EE00968890336
:101FA000EFE709688901ECE7FFF766FCA0EB0901A0
:101FB000514502D90320BDE8F0872068696800F028
:101FC0000C00B0EB810FEFD1D8F80010404601F0C3
:101FD0000701B14207D90770006800F00700B0425E
:101FE00001D00120E7E72878400705D52068E96897
:101FF00020F4E050084320602878000706D52068C8
:10200000296920F4604040EAC100206000F05EF8D9
:102010002168084AC1F30311515CC84006490860B1
:1020200006480068FFF7DCFE0020C4E7003C0240E1
:102030000838024000920108DC000020D400002093
:102040000F2202600C4A136803F003034360136815
:1020500003F0F0038360136803F4E053C360126875
:102060004FF4E05303EAD20202610448006800F032
:10207000070008607047000008380240003C02403A
:102080000148006870470000DC0000200448054952
:1020900000680968044AC1F38221515CC840704756
:1020A000DC0000200838024010920108044805496D
:1020B00000680968044AC1F34231515CC840704766
:1020C000DC0000200838024010920108154810B5C5
:1020D000006810F00C02144813D04110042A0FD0ED
:1020E000082A0ED10F4C241F2268236802F03F02F9
:1020F0005B0207D52068C0F38810A0FB010106E051
:10210000084610BD2168C1F38811A1FB000100231E
:10211000FEF7B6F82168C1F30141491C4900B0FB44
:10212000F1F010BD083802400024F4002DE9F84F0A
:1021300004006ED02078DFF84C93C007A9F10405A5
:102140004AD009F104000168C1F38101012908D0D6
:102150000068C0F3810002280AD1D9F800004002CB
:1021600006D52868800337D560680028E1D033E0C1
:102170006068B0F5803F10D0B0F5A02F286810D06F
:1021800020F480302860286820F48020286060686F
:10219000A8B1FFF771FB06460DE0286840F48030D7
:1021A000F4E740F480202860F7E700BFFFF764FB06
:1021B000801B642873D828688003F7D50CE0FFF7EC
:1021C0005BFB064605E000BFFFF756FB801B64285B
:1021D000F0D828688003F7D42078DFF8AC82800735
:1021E0004FF0000A3ED5A748001D016811F00C0F02
:1021F00008D00068C0F3810002280BD1D9F8000094
:10220000400207D42868800716D5E068012800D16D
:1022100012E033E1E068B8B10120C8F80000FFF730
:102220002BFB064605E000BFFFF726FB801B0228BC
:10223000C0D828688007F7D52868216920F0F80001
:1022400040EAC10028600DE0C8F800A0FFF714FBC9
:10225000064604E0FFF710FB801B02281FD8286801
:102260008007F7D42078000722D5864F8748616918
:10227000703771B101210160FFF7FEFA064604E0F4
:10228000FFF7FAFA801B022809D838688007F7D5CB
:102290000EE0C0F800A0FFF7EFFA064605E082E086
:1022A000FFF7EAFA801B02287DD838688007F7D448
:1022B0002078400768D5DFF8CCB100270BF13C0B44
:1022C000DBF80000C0000BD4DBF8001041F08051B7
:1022D000CBF80010DBF80000012700F080500090E0
:1022E0006B4E3068C00510D4306840F480703060A8
:1022F000FFF7C2FA009005E0FFF7BEFA0099401A16
:10230000022850D83068C005F6D55E4EA0686C36FD
:1023100001280FD00528306810D020F0010030606F
:10232000306820F004003060A068B8B1FFF7A4FA6C
:1023300000900FE0306840F00100F4E740F0040046
:102340003060F7E7FFF798FA0099411A41F28830B8
:10235000814266D830688007F4D50EE0FFF78CFA2A
:10236000009007E0FFF788FA0099411A41F288309F
:10237000814256D830688007F4D42FB1DBF80010C2
:1023800021F08051CBF80010A069C8B33D49091D68
:102390000968C1F3810102294AD00228504607D0BA
:1023A000C8F8600000E03CE0FFF766FA04463BE056
:1023B0004746C8F86000FFF75FFA064605E000BF31
:1023C000FFF75AFA801B02282BD828688001F7D41F
:1023D000D4E907010843A16A2E4A490802EB0141EA
:1023E000626A41EA8211084394F82C1040EA0161C4
:1023F000C9F8001001203866FFF73EFA044606E0EF
:102400003EE000BFFFF738FA001B022809D8286811
:102410008001F7D534E000BFFFF72EFA001B022839
:1024200002D90320BDE8F88F28688001F4D427E0A2
:102430000128F7D0D9F80000E26900F48001914248
:102440001CD1226A00F03F01914217D147F6C071BA
:10245000626A0140B1EB821F10D1A26A4FF0FF33D4
:1024600000F4403103EB5202B1EB024F06D194F875
:102470002C1000F07060B0EB016F01D00120D1E7AB
:102480000020CFE70438024000004742800E474258
:10249000007000400000FFFF70B5040009D0606AC2
:1024A000002540B125616561A56294F8510040B1F5
:1024B0000CE0012070BD6068B0F5827FF4D0E5616A
:1024C000F2E784F85050204600F044F8022084F8E7
:1024D00051002068016821F040010160A088218935
:1024E00000F4827001F404410843A18901F4006101
:1024F0000843217C01F002010843217D01F0010124
:102500000843218B01F400710843217F01F0380159
:10251000084394F8201001F080010843218D01F454
:102520000051084321680860A069042101EA1040B5
:1025300094F8241001F010010843216848602068D5
:10254000C16921F40061C1616565012084F8510011
:10255000002070BD10B586B0044614216846FDF712
:10256000FAFE13492068884220D11248016841F4DC
:1025700080410160006800F4804005900D481038EB
:10258000016841F4807101600068694600F4807060
:1025900005900E200090022001900120029003205F
:1025A0000390052004900448FFF766F806B010BDBC
:1025B0000038004040380240002002402DE9F84F2A
:1025C000044690F8500000270A9E1D4692468B460E
:1025D0004FF0010901280ED0012084F85000FFF7C8
:1025E0004BF9804694F85100616801280CD0B1F590
:1025F000827F07D102E00220BDE8F88FA16809B907
:10260000042801D00227C2E0BBF1000F27D0BAF1A5
:10261000000F24D01DB394F85100042802D00520E7
:1026200084F8510000206065C4F838A0E587A587CC
:10263000C4F830B0E586A58620646064206801682F
:10264000490603D4016841F040010160E068B0F53B
:10265000006F606805D0E8B3012D46D07FE0012708
:1026600095E008B1012D39D1206B21680088C86040
:10267000206B801C2063E08E401EE0862EE02068E8
:10268000816889070FD5E18E69B1B9F1010F0AD1CF
:10269000216B0988C160206B801C2063E08E401E86
:1026A000E0864FF0000920688168C9070CD0E18FEF
:1026B00051B1C068A16B0880A06B801CA063E08F43
:1026C000401EE0874FF00109FFF7D6F8A0EB0800A5
:1026D000B04200E009E001D3701C50D1E08E002828
:1026E000CDD1E08F0028CAD13FE0206B216800786F
:1026F0000873206B401C2063E08E401EE0862EE0B5
:102700002068816889070FD5E18E69B1B9F1010FA1
:102710000AD1216B09780173206B401C2063E08E85
:10272000401EE0864FF0000920688168C9070CD080
:10273000E18F51B1C068A16B0870A06B401CA06311
:10274000E08F401EE0874FF00109FFF795F8A0EBFE
:102750000800B04202D3701C01D010E07EB1E08EC0
:102760000028CDD1E08F0028CAD14246314620460C
:1027700000F03EFF28B101272020606507E0032715
:1027800005E0A06818B92068C16880680090012041
:1027900084F85100002084F8500038462CE770B5CA
:1027A00015460E46040003D094F8490010B107E026
:1027B000012070BD002084F84800204600F01AF87F
:1027C00004F108012068FEF71BFA3146A268206870
:1027D000FEF740FAD4E901022946236BFEF7F0F92F
:1027E000A168206850F8212042F0010240F8212021
:1027F000002070BDFEF7E2BE7047704710B50400C0
:1028000003D094F83D0010B107E0012010BD002076
:1028100084F83C00204600F01EF8022084F83D00B9
:10282000211D206800F0D4FF012084F8460084F8C0
:102830003E0084F83F0084F8400084F8410084F8AA
:10284000420084F8430084F8440084F8450084F88A
:102850003D00002010BD704790F83D10012901D0C7
:1028600001207047022180F83D100168CA6842F0DB
:102870000102CA6000681149884214D0B0F1804F4B
:1028800011D00F4988420ED00E4988420BD00E4914
:10289000884208D00D49884205D00D49884202D0AF
:1028A0000C49884204D1816801F00701062903D050
:1028B000016841F001010160002070470000014003
:1028C0000004004000080040000C004000040140EB
:1028D0000040014000180040704770B50446006891
:1028E00001694FF00005C943890715D4C168C94380
:1028F000890711D4E91E01610120207720688069D1
:102900008007204602D0FFF7E7FF04E000F098F8C8
:10291000204600F096F8257720680169C9434907E9
:1029200017D4C168C943490713D46FF0040101618A
:10293000022020772068806910F4407F204602D072
:10294000FFF7CAFF04E000F07BF8204600F079F8BA
:10295000257720680169C943090716D4C168C943AE
:10296000090712D46FF00801016104202077206864
:10297000C0698007204602D0FFF7AEFF04E000F0F8
:102980005FF8204600F05DF8257720680169C943AB
:10299000C90617D4C168C943C90613D46FF0100122
:1029A0000161082020772068C06910F4407F20462C
:1029B00002D0FFF791FF04E000F042F8204600F05B
:1029C00040F8257720680169C943C90708D1C16863
:1029D000C943C90704D1891E0161204600F032F8BD
:1029E00020680169C943090609D4C168C9430906B9
:1029F00005D46FF0800101612046FFF7FDFE2068DD
:102A00000169C943490609D4C168C943490605D4C7
:102A10006FF040010161204600F01EF82068016956
:102A2000C94389060BD4C168C943890607D46FF02E
:102A3000200101612046BDE87040FFF7DEBE70BD99
:102A40007047704700680349884201D1FFF7A6B973
:102A50007047000000000140704770B5040004D0CA
:102A600094F83D00002510B106E0012070BD84F807
:102A70003C50204600F022F8242084F83D002068D5
:102A8000C16821F40051C160204600F023FF206896
:102A9000016921F4904101612068416921F02A0116
:102AA00041612068C16841F40051C1602564202063
:102AB00084F83D0084F83E00002070BD10B586B05B
:102AC000044614216846FDF746FC134920688842F5
:102AD00020D11248016841F010010160006800F047
:102AE000100005900D481438016841F002010160A2
:102AF0000068694600F002000590C02000900220A6
:102B000001900120029003200390072004900448C4
:102B1000FEF7B2FD06B010BD00100140443802407F
:102B200000040240FEE701684A69D24352050FD40F
:102B30006FF480624A61002140F8301F2022427306
:102B40008173026942F0040202610173012070473F
:102B5000002070472DE9F84F0446006889460B9D18
:102B600001689846174641F4806101602068016859
:102B700041F48071016000954FF0011B002259461D
:102B800020460A9B00F0DEF84FF4007A40B120683E
:102B90000068C00501D5C4F840A00320BDE8F88F47
:102BA000216809F0FE0008612B46284920460A9A50
:102BB00000F0FCF8F0BB20684169806900902A466B
:102BC00020460A9900F070F940B1206C04283AD1EF
:102BD0002068016841F40071016034E0FEB2B8F190
:102BE000010F09D02168380A08612A4620460A994F
:102BF00000F05AF90028E8D1206806612A462046EC
:102C00000A9900F051F90028DFD12068016841F4E9
:102C10008071016000950022594620460A9B00F011
:102C200091F80028B3D1216809F0FF0040F00100BD
:102C3000086100E007E02B46044920460A9A00F0AC
:102C4000B5F80028AAD00120A8E700000200010082
:102C50002DE9F843044600680D46DDE90897016850
:102C60009846164641F4807101604B4600224FF0B1
:102C700001112046009700F065F848B1206800680F
:102C8000C00502D54FF4007020640320BDE8F8832E
:102C9000216805F0FE0008613B464A46154920467A
:102CA00000F084F888B920684169806900903A464C
:102CB0004946204600F0F8F848B1206C042804D1B9
:102CC0002068016841F4007101600120DEE7F5B27F
:102CD000B8F1010F09D02168300A08613A46494627
:102CE000204600F0E1F80028E7D1206805610020C7
:102CF000CCE700000200010070B516460D46044600
:102D00000DE02046FFF70FFF08B1012070BD681CE1
:102D100005D0FEF7B1FD801BA84207D835B1206869
:102D20004069C0434007ECD4002070BD002044F847
:102D3000300F20216173A073216941F020012161CE
:102D40002073E2E72DE9F0471E4690460D46044603
:102D5000C1F30747DDF8209008E0701C06D0FEF7AD
:102D60008BFDA0EB0900B0420FD876B12068012F8F
:102D700018D0806925EA00000004000C14D000215E
:102D80004145EAD00020BDE8F087002044F8300F2C
:102D900020216173A073216941F02001216120731A
:102DA0000120F0E74069E5E70121E9E72DE9F04777
:102DB0009A4691460E46044600254FF02008C1F37E
:102DC000074725E020684069C043400514D42068C7
:102DD000016841F40071016021686FF4806048610E
:102DE000256384F83D8084F83E50206C40F0040058
:102DF000206484F83C501FE0B9F1FF3F08D0FEF793
:102E00003BFDA0EB0A0149450CD8B9F1000F09D0F0
:102E10002068012F13D0806926EA00000004000C0E
:102E20000BD0CFE744F8305F84F80D80A57320699C
:102E300040F02000206125730120BDE8F087406943
:102E4000EAE72DE9F041002590460E46044620278A
:102E500017E04069C043C0060CD454F8301B6FF033
:102E60001000486144F810596777A577206A2062FE
:102E7000257717E0FEF700FDA0EB0800B04208D868
:102E80003EB120684169C9434906E2D40020BDE84B
:102E9000F08144F8305F6773A573206940F020002B
:102EA000206125730120F2E770B516460D460446F1
:102EB0000DE02046FFF737FE08B1012070BD681C09
:102EC00005D0FEF7D9FC801BA84207D835B1206891
:102ED0004069C0430006ECD4002070BD002044F8D7
:102EE000300F20216173A073216941F0200121611D
:102EF0002073E2E701200AF075FAFBE710B53949C3
:102F00003948FDF73AFE3749491E0870014637A097
:102F100000F03CFE33493DA000F038FE012231496B
:102F20003E4803F091FA044601463DA000F02EFE13
:102F30000D2C0DD0002C53D13EA000F027FE04F044
:102F400031FA0A223FA1424803F0BCFA28B11EE040
:102F500040A000F01BFE47A03EE04AA000F016FE95
:102F6000204B0622DB1D191D394803F0E4FC70B923
:102F70004BA000F00BFE364803F08CFC0A20FDF756
:102F80008FFE334803F0DAF94CA000F0FFFD012278
:102F90002CA12F4803F096FA044601464EA000F0FB
:102FA000F5FD002C1CD137A000F0F0FD0D4B0622E2
:102FB000DB1D03F10A01264803F0AEFB00280FD108
:102FC0004AA000F0E3FD07494FA0113100F0DEFDFB
:102FD0001F4803F0B3F939A0BDE8104000F0D6BD9A
:102FE00010BD00006D0000205800002046415446EE
:102FF000535F4C696E6B44726976657220726574BA
:1030000075726E3A2025640A00000000555345523F
:10301000506174683A25730A0000000048120020CD
:10302000665F6D6F756E742072657475726E2025A3
:10303000640A0000665F6D6F756E74207269676860
:1030400074210A0066617466732E7478740000003F
:10305000801400205468657265206973206E6F20AB
:1030600076616C69642046415420766F6C756D659D
:103070000A000000666F726D6174696E672E2E2EF5
:10308000210A0000665F6F70656E2066617466736A
:103090002E747874207269676874210A0000000039
:1030A000665F77726974652066617466732E7478E2
:1030B00074207269676874210A000000665F636C9F
:1030C0006F73652066617466732E747874207269FC
:1030D000676874210A000000665F6F70656E207279
:1030E000657475726E3A25640A000000665F726549
:1030F00061642066617466732E74787420726967E7
:103100006874210A000000007265616420753863EC
:1031100068725F726561643A25730A0010B59EB0EB
:1031200000201C901D9001211CA80AF061FA174C88
:103130001C221749A0606846FDF7E6F800216846A2
:103140000AF0DCFA1249E0601C221C3107A8FDF7E6
:10315000DBF8002107A80AF0D1FA0D4920611C22F2
:1031600038310EA8FDF7D0F800210EA80AF0C6FAF3
:10317000074960611C22543115A8FDF7C5F80021EC
:1031800015A80AF0BBFAA0611EB010BD8400002093
:103190005891010810B58EB01C216846FDF7DBF888
:1031A0001C2107A8FDF7D7F81B484FF0204110223B
:1031B00001601A494160062181600021C160C0E9B7
:1031C00004128161C16113020162C0E90913930213
:1031D000C0E90B134163816341640F203C230090DD
:1031E000CDE901030DF10C0C112306918CE80D00C3
:1031F0000924CDE907400DF1280C0D9109948CE8C4
:103200000D0007AA69460448FFF7C9FA002801D053
:10321000FDF7B2FC0EB010BD04190020040100A09F
:103220002DE9F04F87B014216846FDF794F86D48FA
:103230000025016841F010010160016801F01001F2
:103240000591016841F480710160016801F48071A9
:103250000591016841F080010160016801F0800181
:103260000591016841F004010160016801F0040169
:103270000591016841F001010160016801F001015F
:103280000591016841F040010160016801F04001D1
:103290000591016841F008010160016801F0080131
:1032A0000591016841F0020101600068DFF838B162
:1032B00000F002000590012240F201115846FEF78D
:1032C000D6FA002248F202014848FEF7D0FADFF8A9
:1032D00020A100224FF4A0715046FEF7C8FA4FF427
:1032E0000079012249465046FEF7C1FA0122032126
:1032F0004048FEF7BCFA1C2000903F480124CDE96D
:10330000010469463B48FEF7B7F94FF4807801AAFB
:103310000326CDF8008082E8700069465846FEF723
:10332000ABF90227CDE90074CDE9024669462F4882
:10333000FEF7A2F94020CDE90004CDE90246694636
:103340005046FEF799F98020CDE9000569465046C0
:103350000295FEF791F901AA1120CDF8008082E8CC
:10336000510069465046FEF787F901AACDF8009052
:1033700082E8B00069465046FEF77EF9CDE9024783
:103380000094694658460194FEF776F9E0038DE80B
:103390003100694615480395FEF76EF901AA0096BB
:1033A00082E8B00069461348FEF766F9002206215C
:1033B0000820FEF779FD0820FEF768FD00220621AF
:1033C0000920FEF771FD0920FEF760FD00220621AD
:1033D0000A20FEF769FD0A20FEF758FD07B0BDE898
:1033E000F08F0000303802400020024000180240F8
:1033F000001C024000100240000021100D4810B5D2
:103400000B4901600C49416000214FF4804281600A
:10341000C0E9031241618161C1610162FEF732FAC4
:10342000002803D0BDE81040FDF7A6BB10BD00008A
:103430000058004054190020A0860100F0B5454C0A
:103440008DB00A20207060700121A1701622E270F8
:10345000251DFF222A706A70AA7000272E1DEF70AA
:103460000B2232707070B170F1703946384610F02E
:1034700079FC2068E17803BA0A0603F47F4342EA44
:10348000032203BA00BA03F47F03084342EA13227B
:10349000A4F10C0142EA106008602868E97803BAD8
:1034A0000A0603F47F4342EA032203BA00BA03F494
:1034B0007F03084342EA1322A4F1080142EA1060A4
:1034C00008603068F17803BA0A0603F47F4342EAE1
:1034D000032203BA03F47F0300BA42EA132208432B
:1034E00042EA1060211F231F08601B481B490097F8
:1034F000CDE901101A1F111F194809F055FA184893
:1035000009F06CFC164C94F82D004007204602D5BB
:1035100009F078FD01E009F067FC1249104809F054
:10352000B7FC0A9701210AA80B970AF061F809492C
:103530001C22103908601C31C1E900400A4903A867
:10354000FCF7E2FE034903A80C310AF0D7F80DB0EE
:10355000F0BD0000B8000020353F010821610008DF
:10356000A819002089620008C8910108104810B508
:103570000E4901604FF48271416000210222816096
:10358000C0E9031201224261520282613822C0E97D
:103590000721416281620A21C162FEF77DFF002896
:1035A00003D0BDE81040FDF7E7BA10BD0038004079
:1035B000C44A00200C4810B50A4901604FF4E131BB
:1035C0004160002181600C22C160C0E90412816168
:1035D000C161FFF742FA002803D0BDE81040FDF7B3
:1035E000CBBA10BD001001401C4B0020FEE7704715
:1035F00038B504461248134B0068B0FBF3F04FF4A3
:103600007A73584300906068B0F5827F0DD10B4605
:10361000009200228021204600F016F870B1606D03
:1036200040F020006065032038BD009830B1401E96
:10363000009020688068C0430006F6D5002038BDA1
:10364000DC00002000366E012DE9F8431E4691464D
:1036500088460446089DFEF70FF9401B351AFEF711
:103660000BF9074625480068C0F3CB30684338E0C3
:10367000701C37D0FEF700F9C01BA84203D215B169
:10368000009860B32CE02068416821F0E0014160BF
:103690006068B0F5827F0BD1A068B0F5004F02D012
:1036A000B0F5806F04D12068016821F0400101600D
:1036B000A06AB0F5005F09D12068016821F40051CB
:1036C00001602068016841F400510160012084F824
:1036D0005100002084F850000320BDE8F883002545
:1036E000401E00902068816838EA010004D0002163
:1036F0004945BDD10020F0E70121F9E7DC000020B9
:1037000010B5502080F31188BFF34F8FBFF36F8F38
:1037100012F0BCFB18B104494FF080500860002043
:1037200080F3118810BD000004ED00E030B593B0C7
:1037300030216846FCF70FFE14210CA8FCF70BFEA5
:103740001A480025016841F080510160006800F0CE
:10375000805011901648016841F480410160006872
:10376000022400F480401190012000900004019098
:103770008001CDE90640082008904FF4A870CDE9FB
:10378000090404200B906846FEF7D0FC0CA90F201A
:1037900081E831004FF4A0500F90E0021090052115
:1037A0000CA8FEF7B3FB13B030BD00004038024058
:1037B000007000400248016841F4700101607047E8
:1037C00088ED00E00148FFF788B80000604B00205A
:1037D000F0B50268254C264D264E274F274B4FF05B
:1037E000804CA04209D0604507D0A84205D0B04225
:1037F00003D0B84201D0984204D122F0700E4A683A
:1038000042EA0E02A0421BD0604519D0A84217D050
:10381000B04215D0B84213D0984211D0184DA842EA
:103820000ED0184DA8420BD0174DA84208D0174D06
:10383000A84205D0164DA84202D0164DA84203D189
:1038400022F44075CA682A434D6922F080022A4357
:1038500002608A68C2620A688262A04201D098420D
:1038600001D10969016301214161F0BD00000140FE
:103870000004004000080040000C0040000401402B
:103880000040014000440140004801400018004051
:10389000001C004000200040A82001F0A1F907F022
:1038A000A9FE064806A18288084800F07FF908486A
:1038B00000688047012009F095FDFBE72C020020FD
:1038C0004C43442049443A25303458003A120020F1
:1038D0000C00002070B5044600680169E26821F41C
:1038E0004051114301612169A068E269084361699F
:1038F000114308432168CA6849F20C639A430243A2
:10390000CA6020684169A26921F440711143416194
:1039100031492068884202D03049884202D1FEF7FE
:10392000C5FB01E0FEF7B2FBE26900231921642523
:103930003226B2F5004F626828D0A0FB0101930F38
:103940009200FCF79DFC0146B0FBF5F06FF0180209
:10395000504301EB800006EB0010B0FBF5F000F0E7
:10396000F002B1FBF5F002EB0012B1FBF5F06FF0E5
:103970001803584301EB800006EB0010B0FBF5F094
:1039800000F00F0021681044886070BDA0FB0101A9
:1039900092185B41FCF774FC0146B0FBF5F00201A4
:1039A000B1FBF5F06FF01803584301EB800006EB14
:1039B000C000B0FBF5F000F0F80002EB4002B1FBF4
:1039C000F5F0584301EB800006EBC000B0FBF5F0CA
:1039D00000F00700D6E7000000100140001401408D
:1039E00010B503A000F0D2F809F07AFB002010BD5A
:1039F000555345525F696E697469616C697A652DCA
:103A00003E6E6F72666C6173685F696E69740A00FE
:103A100089B1012905D0022906D0032908D0042044
:103A200070474FF4004005E04FF40070108002E052
:103A30004FF480501060002070472DE9F0411D4682
:103A400016460F4600244FF4007807E03019410273
:103A500007EB4420424609F077FB641CAC42F5D3E7
:103A60000020BDE8F081002070472DE9F0411D469F
:103A700016460F4600244FF4007807E03019410243
:103A800007EB4420424609F0EBFB641CAC42F5D343
:103A90000020BDE8F081FEE7FFF7D0FCFFF72EFA2B
:103AA00009F01EFB09F074FB1C4C014660801CA051
:103AB00000F06CF80A2009F095FC01F0E5F868B117
:103AC0001CA000BF00F062F80A254FF47A76207837
:103AD000B0FBF5F105FB110010B118E01BA0F1E7F8
:103AE0000E49091D881C01F01FF90021A06812F081
:103AF00063F801280BD1E088C2B2010A18A000F0D7
:103B000045F8A088C2B2010A1BA000F03FF8207857
:103B1000401C2070304609F065FCD8E78400002086
:103B20006E6F72666C61736820696420697320250A
:103B3000640A00002043616E206E6F742064657417
:103B4000656374204448543131210A0020444854AC
:103B500031312020697320616C72656164790A00DB
:103B600074656D70657261747572653A2025642E96
:103B70002564430A0000000068756D696469747902
:103B80003A2025642E25642025250A000FB4054B14
:103B900010B503A9044A029800F0FEF810BC5DF8C5
:103BA00014FB0000D56E0008200200200FB4084B63
:103BB00010B504A902AA039800F0EEF8044602A981
:103BC000002000F080FC204610BC5DF814FB0000D3
:103BD000C74400080907090E002804DB00F1E020B3
:103BE00080F80014704700F00F0000F1E02080F82A
:103BF000141D704702E008C8121F08C1002AFAD13C
:103C000070477047002001E001C1121F002AFBD15C
:103C1000704700002DE9FF5F82B00021DDE904302C
:103C2000020DDDF840B0034318D044F61050A2F264
:103C3000FF3242431514119801281FD0A5EB0B0049
:103C4000401C5FEA000A4FF000064E4FDFF8389143
:103C5000B046504615D5CAF1000413E0119801246E
:103C60004AA3012801D16FEA0B010298119AC0E919
:103C70000031C0E9024206B0BDE8F09FCBF1000080
:103C8000DFE704460021404A491842EB0450CDE9E1
:103C9000001012E0E00707D032463B464046494656
:103CA000FCF77FFB8046894632463B461046194664
:103CB000FCF777FB06460F466410002CEAD1DDE9DD
:103CC0000401DDE90023BAF1000F06DAFCF769FB15
:103CD00042464B46FCF765FB05E0FCF7D4FB424649
:103CE0004B46FCF7D0FB04460E460022284BFCF75F
:103CF00089FC03D84FF0FF30014607E00022254B36
:103D000020463146FCF728FDFCF7CDFD102409E0E4
:103D1000002C0ADB0A220023FCF7B2FA039B3032A4
:103D20001A55641E50EA0102F2D1641C039AC4F1D0
:103D300011031444119A012A03D0012208430DD122
:103D40000AE0084304D000204FF0110B119072E7F5
:103D5000A3EB0B056D1E0DE05B4504DD4FF000028B
:103D600005F1010504E003DA4FF00002A5F10105B9
:103D7000002AECD002981199C0E90231C0E900454F
:103D800079E70000000014400000F03F3000000020
:103D90000000F0430000E03F2DE9FF4F95B09B4647
:103DA0008946064600250FE2252877D100242746BC
:103DB000F84A0121059400E0044316F8013F203B36
:103DC00001FA03F01042F7D130782A2811D06FF0B1
:103DD0002F033078A0F13002092A16D8059A44F052
:103DE000020402EB820203EB42021044761C0590AF
:103DF000EFE759F8042B0592002A03DA504244F405
:103E00000054059044F00204761C30782E2816D118
:103E100016F8010F44F004042A280DD06FF02F0289
:103E20003078A0F13003092B09D807EB870302EBA8
:103E30004303C718761CF3E759F8047B761C3078E7
:103E40006C280FD006DC4C2817D068280DD06A28C3
:103E500014D104E0742810D07A280FD10DE044F476
:103E600000140AE044F4801401E044F44014727831
:103E7000824202D104F58014761C761C30786628C4
:103E80000BD013DC582877D009DC002875D04528E2
:103E9000F6D04628F4D047281AD19DE118E06328CF
:103EA00035D0642879D0652812D195E1702873D077
:103EB00008DC6728F1D069286FD06E280DD06F28F4
:103EC00006D1B5E073282CD0752875D0782874D029
:103ED0005A46179990476D1C75E1C4F302500228A9
:103EE00009D003280DD0D9F8001004280DD00D609A
:103EF00009F1040967E1D9F80010EA17C1E9005295
:103F0000F6E7D9F800100D80F2E70D70F0E719F828
:103F1000041B8DF8001000208DF80100EA460120F6
:103F200003E059F804AB4FF0FF3061074FF0000198
:103F300002D40DE008F101018846B9420FDA80454C
:103F4000F8DB1AF808100029F4D108E008F10101A3
:103F500088468142FADB1AF808100029F6D1059844
:103F60005B46A0EB080721463846179A00F094FA02
:103F7000284400EB080507E04DE029E10DE01AF8C0
:103F8000010B5A4617999047B8F10108F7D25B46E2
:103F900021463846179A13E142E00A220092C4F300
:103FA00002524FF0000A022A08D059F804CB032A23
:103FB0004FEAEC710AD00DE029E02AE009F107018F
:103FC00021F00702F2E802C1914609E00FFA8CFCE9
:103FD0004FEAEC71042A03D14FFA8CFC4FEAEC71E2
:103FE000002907DA0A460021DCF1000C61EB02012E
:103FF0002D2202E0220504D52B228DF80420012277
:1040000003E0E20701D02022F7E7904659E00A21B9
:1040100002E010220DE010214FF0000A00910BE0A9
:1040200010224FF0000A44F004040827009203E035
:1040300008224FF0000A0092C4F30252022A05D06F
:1040400059F804CB0021032A08D009E009F107013F
:1040500021F00702F2E802C1914605E01FFA8CFC4C
:10406000042A01D10CF0FF0C4FF00008220728D5DC
:10407000702806D0009B83F0100353EA0A0305D092
:104080000EE040228DF80420012208E05CEA0102E3
:1040900006D030228DF804208DF8050002229046CB
:1040A000009B83F0080353EA0A030AD15CEA010289
:1040B00001D1620705D530228DF804204FF00108A8
:1040C0007F1E582804D034A003900EA802900DE063
:1040D00036A0F9E753466046009AFCF7D1F88446CB
:1040E0000398825C0298401E029002705CEA010014
:1040F000F0D1029806A9081A00F1200A600702D53B
:1041000024F4803400E00127574502DDA7EB0A00C4
:1041100000E0002000EB0A01009005984144401A9D
:104120000590E00306D45B462146179A059800F0F7
:10413000B3F90544002706E001A85A46C05D179967
:1041400090476D1C7F1C4745F6DBE0030CD55B46B2
:104150002146179A059800F09FF9054404E03020A5
:104160005A46179990476D1C0099481E00900029E7
:10417000F5DC08E0029802995A460078491C029141
:10418000179990476D1CBAF10001AAF1010AF1DC00
:1041900065E100000928010030313233343536370B
:1041A0003839616263646566000000003031323383
:1041B0003435363738394142434445460000000023
:1041C00000F058F90544761C307800287FF4ECADF7
:1041D00019B02846BDE8F08F620700D4062709F120
:1041E000070222F0070CFCE80223E14603F0004836
:1041F0005FEA080C02D00FF2702C0DE05FEA045C5D
:1042000002D50FF2682C07E05FEAC47C02D00FF2FF
:10421000602C01E0AFF2700C4FF0FF3823F0004348
:10422000CDF850C065280CD006DC452809D04628BA
:104230001DD047283DD13DE0662818D067287ED1A3
:1042400038E00021112F01DB112000E0781CCDE9BE
:10425000000106A90EA8FFF7DDFCDDE90F010E9AAB
:1042600003910021009207F1010A04914DE04FF003
:1042700000400097CDE9011006A90EA8FFF7CAFC7F
:10428000DDE90F0203920E9B11990022DDF80CA0CC
:104290000093049211B9791C00EB010AB7EB0A00F4
:1042A00004D4C0F1FF3007F1010A0490AAEB070023
:1042B000019044E0012F00DA01270021112F01DDD8
:1042C000112000E03846CDE9000106A90EA8FFF74D
:1042D000A1FCDDE90F010E9A0391002104910092E7
:1042E000BA4621070CD40399514500DA8A46BAF13F
:1042F000010F05DD009AAAF10101515C302908D0B7
:10430000B84202DA10F1040F06DA0121CDE90110FA
:1043100015E0AAF10101E9E7002805DC0499014450
:104320000491AAEB000102E0411C514500DD8A46E0
:104330000499401A401C01904FF000400290200761
:1043400004D40198504501DBCDF8048000208DF89D
:104350004F0002980DF14F07B0F1004F25D02B20F0
:104360000E9002984FF0020800280CDA40420290AA
:104370002D200E9007E00A210298FCF75BF93031FE
:10438000029007F8011DB8F10001A8F10108F2DC64
:1043900002980028EFD1791E0E980870307800F04E
:1043A000200040F0450007F8020D12A8C01B00F1E4
:1043B00007081498007800B1012000EB0A01019869
:1043C00001EBE07105984144401A401E0590E0035E
:1043D00006D45B462146179A059800F05DF805441F
:1043E0001498007818B15A46179990476D1CE0034D
:1043F00024D55B462146179A059800F04DF80544F0
:104400001CE00498002807DBDDE90301884203DD96
:104410000098405C179901E0179930205A46904760
:10442000049805F10105401C04900198401E01907C
:1044300004D12E205A46179990476D1CBAF10001FD
:10444000AAF1010ADDDC05E017F8010B5A461799BD
:1044500090476D1CB8F10001A8F10108F4DC5B463F
:104460002146179A0598ABE62D0000002B000000AE
:10447000200000002DE9F041044600251E461746A5
:10448000880404D405E039462020B0476D1C641E22
:10449000F9D52846BDE8F0812DE9F0410446002514
:1044A0001E469046C80301D5302700E02027880427
:1044B00004D505E041463846B0476D1C641EF9D569
:1044C0002846BDE8F0810A68531C0B6010707047E5
:1044D00010B504460020E070401E6063204608F0DE
:1044E00049FA08B1042010BD04F2362007F02CFC74
:1044F000A0F52A41553901D0032010BD94F83800A9
:10450000E92805D0EB2814D194F83A00902810D16E
:1045100004F16E0007F00DFC0749B1EB002F06D047
:1045200004F18A0007F005FC0449884201D100200B
:1045300010BD022010BD00000046415446415433D6
:1045400000E0401C02780AB18A42FAD1D0B270472A
:10455000F0B50022144D134605EB021426685EB137
:104560000768BE4209D166688768BE4205D1A46863
:104570004669B44204D000E00123521C022AEBD366
:10458000022A01D069B904E04BB9022907D01220F0
:10459000F0BD05EB02108089B0F5807F01D00020CE
:1045A000F0BD1020F0BD00009046012030B5002184
:1045B000054B0C4603EB01121568854200D11460CF
:1045C000491C0229F6D330BD904601200268490AF1
:1045D000C06A5289B1FBF2F1001D04C81AB19142C0
:1045E00003D3891AF8E70020704700680844704731
:1045F000C269891E921E8A4201D800207047026B50
:10460000408901FB002070472DE9F05F82460C468F
:1046100001F11A0007F098FB78BB2078012700F021
:104620003F00401E00EB8001DFF8589001EBC00511
:1046300000264FF6FF7B00BF19F80600204407F064
:1046400083FB80466FB1FF2D17D202F099FA07461F
:104650003AF815006D1C02F093FA87420DD14746D7
:1046600001E0D84509D1761C0D2EE5D3207840060F
:1046700006D52FB13AF8150010B10020BDE8F09F23
:104680000120FBE77C9301082DE9F04105680F004C
:10469000804606D002F026FE022809D20120BDE89D
:1046A000F0816E6916B1E869B04207D8012605E0CD
:1046B000411CF4D0E9698142F1D83E463446E869AC
:1046C000641CA04202D80224022E0AD3214640468E
:1046D00002F008FE38B10128E1D0411CDFD0B4421D
:1046E000EDD10020DBE74FF0FF3632462146284669
:1046F0000AF0F4F930B957B12246394628460AF093
:10470000EDF920B101280FD001242046C7E76C61E4
:10471000D5E90601891E884201D8401EA861287982
:1047200040F001002871F0E73446EEE72DE9F84F3C
:10473000824600680F680024C66888462546785D72
:104740006D1C20282AD32F2823D05C2821D0FF2CB1
:1047500049D2A0F181017D290BD8795D6D1C01EB57
:104760000020A1F1400280B23F2A02D380397F2984
:1047700039D2012102F0BAF95FEA000933D0B9F168
:10478000800F12D2014675A0FFF7DAFE58BB0CE08D
:104790006D1C795D2F29FBD05C29F9D07A19C8F8F6
:1047A0000020202805D204250FE026F81490641C70
:1047B000C5E7002509E000BF06EB440030F8020C15
:1047C000202801D02E2802D1641E002CF4D1002014
:1047D00026F814003CB10B2220210AF1240007F036
:1047E00001FF002703E00620BDE8F88F7F1C36F8A4
:1047F00017002028FAD02E28F8D01FB145F0030565
:1048000000E0641E2CB106EB440030F8020C2E28A8
:10481000F7D14FF000094FF0080BCDF8009000BF22
:1048200036F8170007F101075FEA000824D0B8F155
:10483000200F04D0B8F12E0F04D1A74202D045F0CA
:104840000305EDE70098584501D2A74219D1BBF105
:104850000B0F0FD0A74201D045F003050CD84FF045
:10486000080000904FEA896027464FF00B0B4FEA93
:104870001069D5E745F003059AF82400E52849D0EA
:104880004BE04046B8F1800F07D302F079F90021E0
:1048900002F02CF9804645F00205B8F1FF0F13D95C
:1048A0000099ABF10100814204D345F00305CDF836
:1048B00000B0B5E70AEB01004FEA182280F8242087
:1048C0000098401C00901CE0B8F1000F04D0014695
:1048D00025A0FFF735FE20B14FF05F0845F0030536
:1048E0000FE0A8F14100192802D849F0020908E0B8
:1048F000A8F16100192804D8413049F001091FFAD4
:1049000080F8009A0AEB020181F824800098401C8C
:10491000009085E705218AF82410BBF1080F03D128
:104920004FEA89604FEA1069C9F38100032803D078
:104930006FEA0901890701D145F00205A90709D4E9
:1049400009F00301012901D145F01005012801D129
:1049500045F008058AF82F50002045E7222A3A3C06
:104960003E3F7C7F000000002B2C3B3D5B5D000048
:1049700070B5124D4FF48074002221462846FCF792
:1049800076FF022000F038F9012240212846FCF78A
:104990006EFF022000F030F9002240212846FCF78B
:1049A00066FF022000F028F9012221462846FCF784
:1049B0005EFFBDE87040022000F01EB9001C0240FE
:1049C00000F0A2B810B50D4C012211022046FCF7F0
:1049D0004EFF022000F010F9012240212046FCF792
:1049E00046FF022000F008F9002240212046FCF793
:1049F0003EFFBDE81040022000F0FEB8001C02405F
:104A00002DE9F0410024154E074625464FF48078E5
:104A10006006040E012240213046FCF728FF0220E8
:104A200000F0EAF841463046FCF71CFF08B1641C70
:104A3000E4B2002240213046FCF719FF022000F0CA
:104A4000DBF86D1CEDB2082DE2D327B1FFF790FF24
:104A50002046BDE8F081FFF7B5FFF9E7001C0240F2
:104A60002DE9F041154E054600244FF480772806C5
:104A700001D5012200E0002239463046FCF7F7FE5E
:104A8000022000F0B9F8012240213046FCF7EFFE89
:104A9000022000F0B1F8002240213046FCF7E7FE8A
:104AA0006806641C050EE4B2082CE0D33946304693
:104AB000BDE8F0410122FCF7DABE0000001C024014
:104AC00070B501220F4D140221462846FCF7CFFE97
:104AD000012240212846FCF7CAFE022000F08CF893
:104AE000002221462846FCF7C2FE022000F084F88E
:104AF000002240212846FCF7BAFEBDE870400220A3
:104B000000F07AB8001C024070B50E4D4FF480746E
:104B1000002221462846FCF7AAFE022000F06CF88D
:104B2000012240212846FCF7A2FE022000F064F892
:104B3000012221462846FCF79AFEBDE8704002207B
:104B400000F05AB8001C02402DE9F0410122164E37
:104B500000241702254639463046FCF788FE02201D
:104B600000F04AF8012240213046FCF780FE07E0C1
:104B7000641CE4B2FA2C03D9FFF7C6FF012508E054
:104B8000022000F039F839463046FCF76BFE002869
:104B9000EED1002240213046FCF769FE022000F0F1
:104BA0002BF82846BDE8F081001C0240401E022878
:104BB00012D20A4901EB00118889B0F5807F05D037
:104BC00008B1401E80B2888110B103E00020FAE7EE
:104BD00000200860002070470220704790460120A6
:104BE0000149086070470000040000204FF47A710A
:104BF000484300F001B8000070B54FF0E0240022F7
:104C000065690949A36909684843A1699942FCD0CB
:104C100002D2A3EB010302E0A5EB010633441A44E0
:104C20000B468242F1D370BD040000202DE9F04113
:104C3000002425464FF40046124F04E0641CE4B201
:104C40000120FFF7D9FF31463846FCF70BFE10B1C3
:104C5000642CF3D30FE0642C0DD2002404E0641C18
:104C6000E4B20120FFF7C8FF31463846FCF7FAFDF1
:104C700028B1642C00D301252846BDE8F081642CBE
:104C8000EDD3F8E7001802400E4800B5016887B080
:104C900041F0400101600068694600F04000059065
:104CA0004FF4004000901120019001200290032059
:104CB00003900548FCF7E0FC00F07CF8FFF7B6FF36
:104CC00007B000BD303802400018024070B5002423
:104CD0004FF40045134E04E0641CE4B20120FFF7DA
:104CE0008BFF29463046FCF7BDFD08B1642CF3D399
:104CF000002404E0641CE4B20120FFF77DFF294694
:104D00003046FCF7AFFD08B9642CF3D32820FFF739
:104D100073FF29463046FCF7A5FD002800D001208E
:104D200070BD0000001802402DE9FC47204F894665
:104D300082460021386810F03FFF00F03BF8FFF793
:104D400075FF10B10120BDE8FC870024E846002073
:104D500005464006060EFFF7B9FF6D1C3043EDB265
:104D6000082DF6D308F80400641CE4B2052CEED339
:104D70009DF800109DF801309DF802009DF8032079
:104D8000CC1885182C449DF80450AC4207D103EB95
:104D90000121A9F8001002EB0020AAF8000000236E
:104DA0001A461946386810F0BFFC0020CBE7000017
:104DB0008C00002070B50B4D4FF4004400222146BA
:104DC0002846FCF754FD44F62060FFF715FF01224A
:104DD00021462846FCF74BFDBDE870401E20FFF73A
:104DE0000BBF0000001802402DE9F0410F460446B9
:104DF0000021066800F0CEF988B900253046E16947
:104E000007F0B8FD58B9216A0978E5290CD059B1E5
:104E100000250121204600F073F80028EED0042878
:104E200000D10720BDE8F0816D1CBD42F1D1F9E74A
:104E30002DE9F04704460021D0F8009000F0AAF9CF
:104E400000285BD1FF25471EA84627634846E16935
:104E500007F090FD060050D1216A087850B1CA7A57
:104E6000E52802F03F02A2713FD0130704D50F2AB4
:104E70003BD105E0042640E00F2A01D0E5B120E057
:104E800094F82F20520632D4420606D591F80D80B0
:104E900000F0BF00626905462263A84209D14A7B3F
:104EA000424506D1D9F80C00FFF7AEFB08B16D1EE4
:104EB00000E0FF25EDB21AE0084609F099FF4045F1
:104EC0001BD094F82F00C0070FD1D4F8201004F1A4
:104ED00024000B2211F8013B10F8015B5B1B521EF2
:104EE00002D0002BF6D000E03BB1FF252763002164
:104EF000204600F005F80600A8D03046BDE8F0874F
:104F00002DE9F047054647690468C069894620379E
:104F100010B1B7F5001F02D30420BDE8F087F905F2
:104F200060D1401CE861A9694FF0000829B160898F
:104F3000401E10EA572F05D054E02089B0EB571FD0
:104F40001DD94FE0284602F0CDF9064601281BD9AD
:104F5000701C33D0E069B0423ED8B9F1000F0ED0DA
:104F60002846A969FFF790FB06000BD0012E0BD055
:104F7000701C23D0204609F08DFFF8B906E0C5F873
:104F80001C80C9E70720C8E70220C6E74FF400727B
:104F9000002104F1380007F025FB4FF000083146EE
:104FA0002046FFF725FB4FF0010960630DE000BFCD
:104FB00084F80390204609F06DFF08B10120ACE7AA
:104FC000606B08F10108401C606361894145EFD8BE
:104FD000616BA1EB0800606331462046AE61FFF7CC
:104FE00007FBE861C7F30800204438306F6128628E
:104FF000002092E72DE9F04F0446D0F8009090F899
:105000002F0089B010F0A00F03D0062009B0BDE832
:10501000F08F0025D9F80C0000E06D1C30F8151059
:105020000029FAD104F124010C226846039107F00B
:1050300061F89DF80B00C00719D0402084F82F00BC
:10504000012633466946D9F80C20039802F004F98A
:105050002046FFF7EDFE10B9761C642EF1D3642EC6
:105060000FD00428D2D19DF80B0084F82F009DF8B2
:105070000B00800707D50D200C35B5FBF0F6761C2C
:1050800002E00720C2E7012631462046FFF7ACFECA
:1050900005007BD1761E05965FD06169704201EBF9
:1050A0004011204600F076F805006FD1039809F012
:1050B0009FFE4FF6FF7B07904846E16907F05AFCD8
:1050C000050063D1D9F80C0006900598D4F820802B
:1050D000C0B20490079988F80D100F2188F80B10C2
:1050E000002188F80C1008F11A0009F07DFE0498E0
:1050F000DFF89CA0401E00EB800101EBC0060027FA
:1051000001E05D4503D0069830F81650761C1AF879
:1051100007002946404409F067FE05B95D467F1C3B
:105120000D2FEED35D4505D0069830F8160008B176
:10513000049803E0049840F04000049088F80000D0
:10514000012089F8030000212046FFF7D9FE050061
:105150001CD10598401E0590AED14846E16907F084
:1051600009FC050012D120220021206A07F03AFA3A
:105170000B22206A039906F0BDFF94F82F00216AE4
:1051800000F018000873012089F8030028463DE765
:105190007C9301082DE9F04107680E460546B1F5FC
:1051A000001F36D2F00634D16E61AC6824B938786D
:1051B000032805D3FC6A1CB178894FEA402812E025
:1051C0003889B0EB561F24D9F86A12E0284602F05D
:1051D00089F80446401C1AD0022C1AD3F869A04260
:1051E00017D9A6EB080646452146EFD23846FFF709
:1051F000FFF9C5E9064060B100EB5620E861C6F34F
:1052000008003844383028620020BDE8F0810120D1
:10521000FBE70220F9E70000084910B50B5C00220B
:1052200053B901220A540A1801EB8000127A40682F
:105230000168104688470246104610BDB04601205E
:1052400030B4054C231804EB80001B7A40680469D5
:105250001846A44630BC6047B046012030B4054D26
:105260002C1805EB8000247A406885682046AC46FF
:1052700030BC6047B0460120044A111802EB8000A0
:10528000097A40684268084610470000B04601208D
:1052900030B4054D2C1805EB8000247A4068C568B1
:1052A0002046AC4630BC6047B046012070B505468C
:1052B0000C46880706D009A34FF4B67213A11BA0B1
:1052C000FEF764FC09F032FEA96809682160A9684C
:1052D0000C60BDE8704009F035BE00002E2E2F4D49
:1052E0006964646C6577617265732F546869726470
:1052F0005F50617274792F4C7749502F7372632F0E
:10530000636F72652F6D656D702E63006D656D70D6
:105310005F667265653A206D656D2070726F7065AD
:10532000726C7920616C69676E65640041737365A6
:105330007274696F6E2022257322206661696C6524
:1053400064206174206C696E6520256420696E207C
:1053500025730A0070B5044609F0E8FD0546A0680B
:105360000468002C0FD021680160A00706D008A3B4
:105370004FF48C7212A11BA0FEF708FC284609F01E
:10538000E1FD204670BD284609F0DCFD002070BD1F
:105390002E2E2F4D6964646C6577617265732F548E
:1053A000686972645F50617274792F4C7749502F2D
:1053B0007372632F636F72652F6D656D702E63005E
:1053C0006D656D705F6D616C6C6F633A206D656DBE
:1053D000702070726F7065726C7920616C69676E95
:1053E00065640000417373657274696F6E202225D5
:1053F0007322206661696C6564206174206C696E3B
:105400006520256420696E2025730A0070B5094D5A
:105410000646002404EB440005EBC000017D29B1E1
:105420008068B04202D1204600F036F9641C0A2C94
:10543000F0DB70BD70A400202DE9F74F84B04FF071
:105440000A0B00240646DA465F46D94602940194C8
:10545000CDF80040514904EB440001EBC008039033
:1054600098F814500A2F1DD0002D2AD0012D08D0F5
:10547000022D06D24AA340F2231257A166A0FEF7DE
:1054800085FB9EB13168D8F8040081420ED10698A0
:1054900020B1D8F808100698814207D1204607B0FD
:1054A000BDE8F08F002DE1D127460AE0012D16D08E
:1054B000022D06D3B8F812000099884201D3A24603
:1054C0000090641C24B20A2CC4DB059881074FF0BD
:1054D000FF30E4D40A2F16D018DA3C463EE02F49BC
:1054E000039851F830000028B8F8120005D002994E
:1054F0008842E6D3A1460290E3E701998842E0D3CF
:10550000A3460190DDE70599C907C8D05146BAF115
:105510000A0F0EDA0C46214801EB440150F8310025
:1055200080B11FA340F26D1245A13BA0FEF72EFBF8
:1055300008E05946BBF10A0F03DB4946B9F10A0FEF
:10554000ADDA0C460A2C06DB15A340F27F1242A10D
:1055500031A0FEF71BFB204600F09EF80A2C06DB6C
:105560000FA340F283123CA12BA0FEF70FFB0B48C8
:1055700004EB440100EBC105287D30B108A34FF4D2
:10558000C2723AA124A0FEF701FB0EB13068686038
:10559000002068820698A86080E7000070A40020C0
:1055A0002E2E2F4D6964646C6577617265732F547C
:1055B000686972645F50617274792F4C7749502F1B
:1055C0007372632F636F72652F697076342F657401
:1055D000686172702E6300007374617465203D3DD4
:1055E000204554484152505F53544154455F504503
:1055F0004E44494E47207C7C207374617465203E84
:105600003D204554484152505F53544154455F53E7
:105610005441424C45000000417373657274696FD8
:105620006E2022257322206661696C656420617496
:10563000206C696E6520256420696E2025730A0040
:105640006172705F7461626C655B695D2E71203D93
:105650003D204E554C4C000069203C204152505F8B
:105660005441424C455F53495A4500006172705F96
:105670007461626C655B695D2E7374617465203D55
:105680003D204554484152505F53544154455F4575
:105690004D5054590000000070B5074C00EB400518
:1056A000002654F8350018B108F0C4FC44F8356001
:1056B00004EBC500067570BD70A400202DE9F04311
:1056C00085B00D00074609D07C684FF480782088AB
:1056D000404539D12079062836D109E01CA340F293
:1056E0008A2229A12CA0FEF751FA05B0BDE8F0836B
:1056F0006079042828D16088082825D1D4F80E00C4
:105700000490A169686820B1814202D10126334624
:1057100001E00026022304F10802914604A928466C
:1057200000F0A2FBE08840450ED16EB1022204AB2E
:10573000CDE90232291DCDE9001905F126031946EC
:105740004A46284600F090FA384608F073FCCCE749
:105750002E2E2F4D6964646C6577617265732F54CA
:10576000686972645F50617274792F4C7749502F69
:105770007372632F636F72652F697076342F65744F
:10578000686172702E6300006E6574696620213D49
:10579000204E554C4C000000417373657274696F64
:1057A0006E2022257322206661696C656420617415
:1057B000206C696E6520256420696E2025730A00BF
:1057C000FEB515460E46040006D143A340F21E3234
:1057D0004FA153A0FEF7DAF936B93FA340F21F32CA
:1057E00059A14FA0FEF7D2F935B93BA34FF4487247
:1057F00058A14BA0FEF7CAF92146286802F0DCF94F
:1058000008B1584B3FE02868C0F303110E2925D09A
:10581000A168636800EA01020B409A4208D080B296
:10582000A0F57E41A93903D0E068B0B304F10C05BE
:105830004D4B4E481A7802EB420100EBC1010F7D3F
:10584000022F2ED38F68A7422BD12F6849688F4231
:1058500027D13146204600F08BF8FEBD01208DF89F
:10586000040000208DF805005E208DF806006878A1
:1058700001AB00F07F008DF80700A8788DF80800D4
:10588000E8788DF809004FF40060009004F12602DA
:105890003146204600F0C8FBFEBDFFE76FF0030075
:1058A000FAE7002202EB420100EBC1010F7D022F5B
:1058B00008D38F68A74205D12F6849688F4201D16C
:1058C0001A70C6E7521CD2B20A2AEBD332462946D6
:1058D000204600F0D5F8DFE72E2E2F4D6964646C6A
:1058E0006577617265732F54686972645F50617285
:1058F00074792F4C7749502F7372632F636F7265E1
:105900002F697076342F6574686172702E630000A1
:105910006E6574696620213D204E554C4C00000098
:10592000417373657274696F6E202225732220663D
:1059300061696C6564206174206C696E6520256402
:1059400020696E2025730A007120213D204E554CA0
:105950004C00000069706164647220213D204E5546
:105960004C4C0000189201089C01002070A40020FB
:105970002DE9F8430646154688461C4802EB4501CA
:1059800000EBC104207D022806D219A340F2EE22CA
:1059900025A131A0FEF7FAF8144A05EB4501207D58
:1059A00002EBC1050C35022813D1608A0327B0F53C
:1059B0008E7F04D9211D304600F010FA07E0B0F5C3
:1059C000877F06D32A46211D304600F00DFA00B924
:1059D00027754FF4006000902B4606F126024146E1
:1059E000304600F021FBBDE8F883000070A40020E1
:1059F0002E2E2F4D6964646C6577617265732F5428
:105A0000686972645F50617274792F4C7749502FC6
:105A10007372632F636F72652F697076342F6574AC
:105A2000686172702E6300006172705F7461626CF5
:105A3000655B6172705F6964785D2E737461746513
:105A4000203E3D204554484152505F5354415445F7
:105A50005F535441424C4500417373657274696FE2
:105A60006E2022257322206661696C656420617452
:105A7000206C696E6520256420696E2025730A00FC
:105A80002DE9FC5F8246263001900E4608681446D8
:105A90004FF0FF374FF0000B514602F08DF880B900
:105AA0003068C0F303110E290BD056B148B15246ED
:105AB00001213046FFF7C0FC050005D540B2BDE826
:105AC000FC9F6FF00F00FAE77F2D06D337A340F25B
:105AD000C13244A147A0FEF759F805F0FF094F492C
