:020000040800F2
:10000000B0C601209D01000897320008492F000862
:100010009532000867050008953F000800000000C1
:10002000000000000000000000000000E93D0008A2
:10003000250600080000000099320008EB3D00088A
:10004000B7010008B7010008B7010008B7010008B0
:10005000B7010008B701000827060008B70100082B
:100060002D0600083306000839060008B70100080D
:10007000B7010008B7010008B7010008B701000880
:10008000B7010008B7010008B7010008B701000870
:10009000B7010008B7010008B7010008B701000860
:1000A000B7010008B7010008B7010008B701000850
:1000B000B7010008B7010008B7010008B701000840
:1000C000B7010008B7010008B7010008B701000830
:1000D000B7010008B7010008B7010008B701000820
:1000E000B7010008B7010008B7010008B701000810
:1000F000B7010008B7010008B7010008B701000800
:10010000B7010008CD320008B7010008B7010008A8
:10011000B7010008B7010008B7010008B7010008DF
:10012000B7010008B7010008B70100086905000819
:10013000B7010008B7010008B7010008B7010008BF
:10014000B7010008B7010008B7010008B7010008AF
:10015000B701000875050008B7010008B7010008DD
:10016000B7010008B7010008B7010008B70100088F
:10017000B7010008B7010008B7010008000000003F
:10018000B7010008B7010008DFF80CD000F0AEF9A5
:100190000048004791AA0008B0C6012006488047E1
:1001A00006480047FEE7FEE7FEE7FEE7FEE7FEE75C
:1001B000FEE7FEE7FEE7FEE7793E0008890100085A
:1001C0002DE9F05F0546002092469B46884606468C
:1001D000814640241BE0284641464746224600F01F
:1001E00017F953465A46C01A914110D31146184682
:1001F000224600F0FEF82D1A67EB01084F46224612
:100200000120002100F0F5F817EB00094E41201EF7
:10021000A4F10104DFDC484631462A464346BDE8E6
:10022000F09F40EA01039B0703D009E008C9121FB1
:1002300008C0042AFAD203E011F8013B00F8013BA0
:10024000521EF9D27047D2B201E000F8012B491ECC
:10025000FBD270470022F6E710B513460A46044663
:100260001946FFF7F0FF204610BD421E12F8013F6D
:10027000002BFBD111F8013B02F8013B002BF9D117
:100280007047CAB2401E10F8011F8A4202D00029EE
:10029000F9D10020704730B504460020034600E045
:1002A0005B1C934203D2E05CCD5C401BF8D030BDB8
:1002B000034611F8012B00F8012B002AF9D118464A
:1002C00070472DE9FE4F81EA030404F0004421F059
:1002D000004100944FF0000B23F0004350EA01046A
:1002E0005ED052EA03045BD0C3F30A54C1F30A554B
:1002F0002C44A4F2F3340194A0FB0254C1F3130183
:1003000041F48011C3F3130343F4801301FB02444F
:1003100000FB034E840A970A44EA815447EA835754
:10032000A4FB076802958D0A05FB07854FEA932C0D
:1003300004FB0C542705029D4FEA065847EA16377E
:10034000B5EB08056EEB070C870E920E47EA811796
:1003500042EA8312A7FB0201B6EB0B0164EB000437
:100360002B0D43EA0C335E1844EB1C50DA46514621
:10037000E7FB0201C5F313044FEA0B3343EA1453BE
:100380004FEA0432019C43EA0603A4F10C040294F0
:10039000009CCDE900B400F05AF803B0BDE8F08F3E
:1003A00000200146F9E70EB540F2334102910021E9
:1003B000CDE900110A460B4600F049F803B000BD34
:1003C000C1F30A5210B5C1F3130140F2FF3341F4F7
:1003D00080119A4201DA002010BD40F233439A4264
:1003E000A2F2334203DC524200F012F810BD9040FA
:1003F00010BD202A04DB203A00FA02F100207047E9
:100400009140C2F1200320FA03F319439040704752
:10041000202A04DB203A21FA02F00021704721FA59
:1004200002F3D040C2F120029140084319467047C0
:1004300010B5141E73F1000408DA401C41F10001EC
:1004400092185B411A4301D120F0010010BD2DE943
:10045000F04D92469B4611B1B1FA81F202E0B0FA3A
:1004600080F220329046FFF7C4FF04460F4640EA70
:100470000A0041EA0B0153465A46084313D011467D
:1004800053EA010019D0C8F140025046FFF7C0FFFF
:1004900005460E46504659464246FFF7AAFF084316
:1004A00005D0012004E020463946BDE8F08D00204B
:1004B000054346EAE0762C4337430A986305E40A8D
:1004C000A0EB08000022FD0A44EA47540A3002D596
:1004D00000200146E9E7010510196941DDE90845F9
:1004E00000196941BDE8F04DA2E70000064C074D38
:1004F00006E0E06840F0010394E8070098471034F4
:10050000AC42F6D3FFF744FE3C0001085C00010852
:1005100070B58C1810F8015B15F0070301D110F8C5
:10052000013B2A1106D110F8012B03E010F8016BF2
:1005300001F8016B5B1EF9D12B0705D40023521E75
:100540000DD401F8013BFAE710F8013BCB1A921CDD
:1005500003E013F8015B01F8015B521EF9D5A142DB
:10056000D8D3002070BDFEE7014800F0E9B80000D4
:10057000D0BF0120014800F0E3B8000030C00120E6
:1005800001681823CAB2103AB2FBF3F2054B6FF3BD
:100590000901032A9B5CC36500D9091D81650846D2
:1005A0007047000098F8000810B5014600208B69DC
:1005B0008A6A4FF0C07453B1B3F5005F15D072B1C1
:1005C000012A0CD0022A0AD0032A09D104E01AB168
:1005D000012A06D0022A03D1C96AC90100D5012027
:1005E00010BDC96AA142FAD010BD002AF7D0012A75
:1005F000F2D0022AF3D0032AF3D010BD30B504683C
:10060000256825F480252560046863608368402B95
:10061000036803D099600068C26030BD9A600068CA
:10062000C16030BD7047012000F0A0BF042000F081
:100630009DBF082000F09ABF102000F097BF7047C0
:1006400070B5B3F5804F05D06FF0704140F82210BF
:10065000002070BD50F82240084B8E891C40D1E923
:10066000003543EA05138D6889692D0245EA064580
:100670002B430B43234340F82230E9E70000F0CF3F
:10068000F0B50C6850F82430114A1340D1E9012527
:10069000D1E903672A433E4332434E6932438E69B0
:1006A0003243CE6932430E6A32434E6A32438E6A17
:1006B0003243CE6A3243CE6B096B32430A431A434C
:1006C000082D01D142F0400240F824200020F0BD66
:1006D0008000F0FF30B500EB820250688D8900F099
:1006E0004043D1E9000440EA04108C68240244EA43
:1006F000054420430C8A074D05EB045420430C7D30
:100700006D0105EB04648969204308431843506078
:10071000002030BD0000F0FF90F83510022903D012
:100720008021416501207047052180F8351000685F
:10073000016821F00101016000207047406D7047A1
:100740002DE9F84304464FF00009CDF800906348C6
:100750004FF41651A56D0068B0FBF1F72E6894F8C0
:100760005C10082000FA01F131420FD021680A68BC
:1007700052070BD50A6822F004020A6094F85C1054
:100780008840A860606D40F00100606594F85C10DE
:100790004FF0010808FA01F0304208D02168496999
:1007A000090604D5A860606D40F00200606594F809
:1007B0005C1004208840304208D02168096889070D
:1007C00004D5A860606D40F00400606594F85C108A
:1007D00010208840304218D021680968090714D5D4
:1007E000A86020680168490304D50068000308D5A3
:1007F000A16C07E00168C90503D4016821F0080174
:100800000160216C09B12046884794F85C102020D3
:100810008840304231D021680968C9062DD5A860CA
:1008200094F8350005282068016806D0490347D5AB
:10083000006800031DD4616C1CE021F0160101600A
:100840002068416921F080014161206C08B9A06CE9
:1008500020B12068016821F00801016094F85C1063
:100860003F208840A86084F8349084F83580216D5A
:100870001FE0E16B09B120468847606D00282BD04E
:10088000606DC00714D0052084F835002068016829
:1008900021F0010101600098401C0090B84203D88B
:1008A00020680068C007F6D184F8349084F8358059
:1008B000E16C002910D001B02046BDE8F0430847A4
:1008C0000168C905D5D4016821F01001016084F8E0
:1008D000349084F83580CCE7BDE8F883AC02002082
:1008E0002DE9F041044600F051FF06465CB10025B9
:1008F00084F83450022084F835002068016821F023
:10090000010101600DE00120BDE8F08100F03EFF33
:10091000801B052805D920206065032084F8350058
:10092000F2E720680068C007F0D12268116820480B
:100930000140D4E901031843D4E903363343184393
:1009400063691843A3691843E3691843236A18438A
:100950000843616A042903D1D4E90B1319430843FE
:10096000106020684069666A20F0070130460E4337
:10097000012704280CD1A06A0643E06A40B1204652
:10098000FFF712FE20B14020606584F83570BAE7A9
:10099000206846612046FFF7F3FD94F85C203F2174
:1009A00091408160656584F835700020ACE70000F7
:1009B0003F8010F02DE9F0410446866D90F8340038
:1009C000002501280DD0012084F8340094F83570FA
:1009D0000020012F07D084F8340002252846BDE806
:1009E000F0810220FBE7022784F83570606520461D
:1009F000FFF704FE94F85C103F208840B060206848
:100A0000016841F016010160206C20B12068016886
:100A100041F0080101602068016841F001010160B6
:100A2000DCE780B204F008B9F0B587B0142168465D
:100A3000FFF710FC1F480168002939D10124046028
:100A40001D48016841F0010101600068022500F0C5
:100A5000010005904FF23F00CDE9000502AA0326F0
:100A60000C2782E8D0006946144800F08BFD41F263
:100A70003F40CDE9000502AA694682E8D00010484F
:100A800000F080FD4FF68370CDE9000502AA6946AB
:100A900082E8D0000B4800F075FD4FF63370CDE9C9
:100AA000000502AA694682E8D000074800F06AFD06
:100AB00007B0F0BD7C02002038380240001402402C
:100AC0000018024000100240000C02402DE9FE4FC9
:100AD00007460A20FFF7A5FFF04C1025012F7DD017
:100AE0001F26042F7BD04FF47A79082F78D0102F4F
:100AF00077D1EBA003F050FAEFA003F04DFA0027F6
:100B0000012327721A4604F12C01F04801F060FF1E
:100B1000002818D0EEA003F03FFA484604F08CF805
:100B2000F5A003F039FA012367721A46F749E7483E
:100B300001F0DAFDDFF8D493002828D0F4A047E0D4
:100B40000120FFF76EFF207A0028F9D0DF4801F07E
:100B5000CDFA0428F4D1F8A003F01EFAFCA0CDE9E8
:100B600000501023C822FA2102961E2009F041FEEF
:100B7000CA4810232C30CDE90050D122FA21029628
:100B8000E12009F036FEC8E70120FFF74AFF607A4E
:100B90000028F9D0F5A003F0FFF9E77199F80000FB
:100BA000C84628B118F80710781CE071F5A006E0D7
:100BB000FAA003F0F1F904E0401CE071FCA003F09E
:100BC000EBF994F9070018F800100029F4D1B9A046
:100BD00003F0E2F9B846E7714F4603E0CFE079E071
:100BE00031E0CAE094F90700395CF2A003F0D4F9CF
:100BF000E079401C40B2E0711028EEDBADA003F0BC
:100C0000CBF984F8078000BF94F90700395CEAA0AB
:100C100003F0C2F9E079401C40B2E0711028F3DB28
:100C2000A4A003F0B9F9E5A0CDE900501023C82233
:100C3000FA2102961E2009F0DCFD1023D122FA21B0
:100C4000E120029695E0E4A003F0A6F9E9A003F004
:100C5000A3F9AE4821691022103864390AF0D2FE97
:100C6000EAA003F099F9F0A0CDE900504FF487789D
:100C70001023E622414602961E2009F0BAFDA34F3A
:100C80004146103FCDE900571023D1220846029675
:100C900009F0AFFDECA003F07FF9484603F0CCFF6C
:100CA00021691022384664390AF018FE3946ECA052
:100CB00003F072F9F1A0CDE900501023E62241467D
:100CC00002961E2009F095FD10234146D1220846C8
:100CD00002964EE0F1A003F05FF9F6A003F05CF994
:100CE0004FF4006120780AF095FD606188B194F9B5
:100CF0000120511C6170F5A103F05EF960691023B9
:100D0000CDE90050D1224FF4917102961E2009F0D6
:100D100070FDF4A1F748626903F04EF9F54F102316
:100D2000CDE90057D1224FF49B711E20029609F0A5
:100D300060FDF1A0CDE900504FF4A5781023C82242
:100D4000414602961E2009F054FD00200AF00EFDD7
:100D50000A21B0FBF1F201FB1203B0FBF1F2A0811A
:100D6000E9A1384603F028F91023C82241468E2015
:100D70000296CDE9005709F03CFDBDE8FE8FE5A0E5
:100D800003F00AF9EAA0CDE900504FF478484FF497
:100D9000FF7A474610234FF48C725146CDF80880F5
:100DA0001E2009F026FDEBA003F0F6F84FF6FF76C3
:100DB0006A23DC2251461420009609F07DF9EDA04B
:100DC000CDE900501023C822514602971E2009F099
:100DD00010FD40F2122B6A23DC22594614200096A3
:100DE00009F06AF9EB4FA94609E2EBA003F0D4F849
:100DF000454613E0ECA1CDF80090CDE90115102394
:100E0000C82259461E2009F0F4FC0122EBA13868E3
:100E100005F0CEF9E070142003F00EFFE078002812
:100E2000E8D16A23DC2259461420009609F044F9DF
:100E3000E3A1CDF80090CDE90115A8461023C82202
:100E400059461E2009F0D5FCDCA3102240F22621D1
:100E50001420009505F04CFF607140F23A250FE038
:100E600009F02AF9C82003F0E7FEDAA2CDF80090D5
:100E7000CDE9012810235A4629461E2009F0B9FC65
:100E800060794FF06A0300284FF0DC0229464FF0EA
:100E900014000096E4D109F00FF9A5E13800002014
:100EA0004B6579302070726573732C2054657374B0
:100EB000205344210A000000737461727420777219
:100EC00069746520534421200A0000004CBF0120B2
:100ED0005772697465206661696C65642C20736F54
:100EE0006D657468696E67206572726F72206F63DA
:100EF0006375726564210A0073746172742072658F
:100F0000616420534421200A0000000010BC01202D
:100F100052656164206661696C65642C20736F6D35
:100F2000657468696E67206572726F72206F6363A3
:100F300075726564210A0000577269746520534414
:100F40002073756363657373656421200A00000074
:100F5000534420777269746520736F6D6574686996
:100F60006E67206C696B653A200000005265616411
:100F70002053442073756363657373656421200A8D
:100F8000000000007265616420736F6D65746869AC
:100F90006E67206C696B653A202563007265616439
:100FA00020736F6D65207A65726F730A0000000010
:100FB000256300002564200025632000534420722F
:100FC00065616420736F6D657468696E67206C6914
:100FD0006B653A20000000004B6579312070726526
:100FE00073732C2054657374206E6F72666C61731A
:100FF00068210A00537461727420777269746520E5
:101000005732355131323821200A00007772697425
:101010006520573235513132382066696E69736800
:10102000656421200A0000004E6F72666C6173686F
:1010300020777269746520736F6D657468696E6777
:10104000206C696B653A200053746172742072657C
:1010500061642057323551313238210A00000000D6
:101060007265616420736F6D657468696E67206C6A
:10107000696B653A2025730A000000004E6F7266A6
:101080006C617368207265616420736F6D6574684C
:10109000696E67206C696B653A2000004B65793298
:1010A0002070726573732C20546573742053524101
:1010B0004D210A005352414D207374617274206DAA
:1010C000616C6C6F6321200A000000004D656D6F3C
:1010D0007279204D616C6C6F632054657374253098
:1010E000336400005020416464723A30582530382F
:1010F0005800000010BE01205352414D494E20209F
:1011000020555345443A000025642E25303164258E
:10111000250000004B65795F7570207072657373F0
:101120002C2075706461746520666F6E74210A00EE
:101130005374617274206572617365206E6F72669C
:101140006C61736820636861726163746F72206C94
:1011500069622100457261736564206E6F72666C0E
:1011600061736820636861726163746F72206C6977
:1011700062210A00457261736564206E6F72666C4D
:1011800061736820636861726163746F72206C6957
:1011900062210000BC0200207570646174652066E5
:1011A0006F6E740D0A000000534420436F6E6E652D
:1011B0006374696E672E2E2E00000000303A000026
:1011C000466F6E74205570646174696E672E2E2EA2
:1011D00000000000466F6E742055706461746520D5
:1011E0004661696C6564210090A2CDF80090CDE95C
:1011F00001281023C82229461E2009F0FAFA05F01A
:1012000013FD00287FF4F1AD8EA002F0C5FE6A2325
:10121000DC2251461420009608F04EFF90A1CDE943
:1012200000914D461023C822CDF8088051461E205B
:1012300009F0DFFAA94669E090A002F0ADFE45464C
:1012400016E0AFF29C01CDF80090CDE90115102316
:10125000C82240F24E211E2009F0CBFA0122AFF243
:10126000A401386804F0A4FFE070142003F0E4FC4B
:10127000E0780028E5D16A23DC2240F24E211420D8
:10128000009608F019FF81A1CDF80090CDE9011575
:10129000A8461023C82240F24E211E2009F0A9FAC8
:1012A000AFF2E803102240F262211420009506F00C
:1012B00069F8A07140F2762510E000BF08F0FCFE4E
:1012C000C82003F0B9FC76A2CDF80090CDE9012842
:1012D00010235A4629461E2009F08BFAA0794FF0B8
:1012E0006A0300284FF0DC0229464FF014000096F4
:1012F000E4D108F0E1FE6FA2CDF80090CDE901281D
:101300001023C82229461E2009F073FA06F01AF8A5
:10131000002891D104F0AAF86CA002F03DFE4FF62F
:10132000FF7000906A23DC2256465146142008F0D4
:10133000C3FE45466CA1CDF80090CDE90115C84625
:101340001023C82231461E2009F053FA40F28A29A0
:1013500067E06CA002F020FE464614E0AFF2B81041
:101360000096CDE901051023C82249461E2009F048
:1013700040FA0122AFF2BC11386804F019FFE070A6
:10138000142003F059FCE0780028E7D14FF6FF7AEB
:101390006A23DC2249461420CDF800A008F08CFE18
:1013A0005DA00096CDE901051023C82249461E2004
:1013B00009F01FFAAFF2FC13102240F29E21142014
:1013C00000950AF0BFFFB046A07140F2B2260FE0D0
:1013D00008F072FEC82003F02FFC55A1CDF8008064
:1013E000CDE9011510235A4631461E2009F001FAB5
:1013F000A0794FF06A0300284FF0DC0231464FF02D
:101400001400CDF800A0E3D108F056FE4FA1CDF8AE
:101410000080CDE901151023C82231461E2009F0B5
:10142000E8F90AF06FFF002893D1A6E4466F6E74C6
:10143000205570646174652053756363657373210F
:1014400020202000457261736564206E6F72666CA7
:101450006173682069636F6E73206C6962210A0092
:10146000457261736564206E6F72666C617368208B
:1014700069636F6E73206C6962210000757064612E
:1014800074652069636F6E0D0A00000049636F6E1A
:10149000205570646174696E672E2E2E0000000066
:1014A00049636F6E20557064617465204661696C94
:1014B0006564210049636F6E205570646174652016
:1014C0005375636365737321202020004572617337
:1014D0006564206E6F72666C617368207765622048
:1014E00066696C6573210A00457261736564206EDC
:1014F0006F72666C617368207765622066696C65DF
:1015000073210000757064617465207765622066E0
:10151000696C65730D0A00005765622066696C6529
:1015200073205570646174696E672E2E2E00000062
:101530005765622066696C657320557064617465D7
:10154000204661696C6564210000000057656220D7
:1015500066696C65732055706461746520537563AA
:10156000636573732120202000000000044910B53A
:101570000A68024202D00860FFF7A8FA10BD000016
:10158000143C01402DE9F84FDFF8B8A100220125F5
:101590000AF1040B03264FF00F090BF1040E00BFF4
:1015A0000B6805FA02F42340A3426FD10F7907F0CC
:1015B0000307012F01D0022F16D187684FEA420896
:1015C00006FA08FC27EA0C07D1F80CC00CFA08FC54
:1015D0004CEA070CC0F808C04768A7430C79C4F36D
:1015E000001494403C4344600C79E443A4070AD0BF
:1015F000C4684FEA420C06FA0CF7BC438F6807FA3E
:101600000CF72743C7600C7904F00304022C12D1B5
:10161000D40800EB840CDCF820405707FF0E09FAD1
:1016200007F824EA0804D1F8108008FA07F848EA15
:101630000408CCF8208004684FEA420C06FA0CF744
:10164000BC430F7907F0030707FA0CF7274307603D
:101650004C68E40070D53C4C276847F4804727600D
:10166000246822F0030704F480440094374C07EB0D
:10167000040CDCF8084897074FEA177809FA08F7CE
:10168000BC43334FB84202D1002724E054E0314F2D
:10169000B84201D101271EE02F4FB84201D10227E5
:1016A00019E02E4FB84201D1032714E02C4FB84265
:1016B00001D104270FE02B4FB84201D105270AE0E2
:1016C000294FB84201D1062705E0284FB84201D181
:1016D000072700E0082707FA08F72743CCF808781F
:1016E000DAF800405746D1F804C09C435FEACC3C8E
:1016F00000D51C433C60DBF800405F46D1F804C0D5
:101700009C435FEA8C3C00D51C433C60DEF8004003
:101710007746D1F804C09C435FEACC2C00D51C432B
:101720003C60084F0C373C68D1F804C09C435FEA2A
:101730008C2C00D51C433C60521C102AFFF430AFA7
:10174000BDE8F88F003C01404438024000300140C1
:10175000000002400004024000080240000C024069
:10176000001002400014024000180240001C024019
:10177000426921EA02030A4043EA0241816170475B
:101780000AB1816170470904FBE7000001488068E5
:1017900070470000A00200200248816802781144CE
:1017A00081607047A00200200B4810B5016841F429
:1017B00000710160016841F480610160016841F4D9
:1017C00080710160032000F071F8002000F006F83D
:1017D00000F024F8002010BD003C024070B50D4D13
:1017E00004464FF47A712878B1FBF0F00A49096891
:1017F000B1FBF0F001F02CFB48B9102C07D200220D
:101800002146501E00F032F800206C6070BD0120AF
:1018100070BD0000A0020020AC0200200B4882B086
:10182000016841F480410160006800F4804000904C
:101830000648001F016841F080510160006800F017
:1018400080500090052002B000F030B844380240CB
:10185000002809DB00F01F020121914040098000AF
:1018600000F1E020C0F8001170470000F0B40E4B0A
:101870001B680C46C3F30223C3F10705042D00D9EE
:101880000425191D072901D2002300E0DB1E0126D3
:1018900006FA05F1491E214099409E40761E1640E9
:1018A0003143F0BC02F09CBB0CED00E0064900F0B7
:1018B000070208684FF6FF03184040EA0220034A77
:1018C00010430860704700000CED00E00000FA05CE
:1018D0002DE9F0470E46050065D0DFF81481D8F8F1
:1018E0000000F7B200F00700B04207D288F800709D
:1018F000D8F8000000F00700B04254D128683D4CF1
:10190000810712D5400703D5206840F4E0502060DD
:101910002878000703D5206840F4604020602068E4
:10192000A96820F0F000084320602878C0072DD077
:10193000304968680839012812D0022813D00328DA
:1019400011D00968890700292DDA216821F00301E7
:1019500001432160FFF71AFF814641F2883A0EE009
:1019600009688903EFE709688901ECE7FFF70EFFD3
:10197000A0EB0901514502D90320BDE8F08720689A
:10198000696800F00C00B0EB810FEFD1D8F80010BF
:10199000404601F00701B14207D90770006800F026
:1019A0000700B04201D00120E7E72878400705D5BD
:1019B0002068E96820F4E050084320602878000798
:1019C00006D52068296920F4604040EAC100206003
:1019D00000F038F82168084AC1F30311515CC8408F
:1019E0000649086006480068FFF7F8FE0020C4E7D3
:1019F000003C024008380240A0F80008AC02002079
:101A0000A40200200448054900680968044AC1F39B
:101A10008221515CC8407047AC0200200838024067
:101A2000B0F800080448054900680968044AC1F391
:101A30004231515CC8407047AC0200200838024077
:101A4000B0F80008154810B5006810F00C021448F2
:101A500013D04110042A0FD0082A0ED10F4C241F96
:101A60002268236802F03F025B0207D52068C0F3BA
:101A70008810A0FB010106E0084610BD2168C1F3F3
:101A80008811A1FB00010023FEF79AFB2168C1F336
:101A90000141491C4900B0FBF1F010BD083802407B
:101AA0000024F4002DE9F84F04006ED02078DFF810
:101AB0004C93C007A9F104054AD009F1040001685C
:101AC000C1F38101012908D00068C0F38100022818
:101AD0000AD1D9F80000400206D52868800337D51E
:101AE00060680028E1D033E06068B0F5803F10D036
:101AF000B0F5A02F286810D020F480302860286826
:101B000020F4802028606068A8B1FFF73FFE0646F9
:101B10000DE0286840F48030F4E740F4802028602D
:101B2000F7E700BFFFF732FE801B642873D82868F0
:101B30008003F7D50CE0FFF729FE064605E000BF5D
:101B4000FFF724FE801B6428F0D828688003F7D4B0
:101B50002078DFF8AC8280074FF0000A3ED5A74816
:101B6000001D016811F00C0F08D00068C0F381005F
:101B700002280BD1D9F80000400207D4286880075A
:101B800016D5E068012800D112E033E1E068B8B171
:101B90000120C8F80000FFF7F9FD064605E000BF88
:101BA000FFF7F4FD801B0228C0D828688007F7D50E
:101BB0002868216920F0F80040EAC10028600DE0A3
:101BC000C8F800A0FFF7E2FD064604E0FFF7DEFDDF
:101BD000801B02281FD828688007F7D420780007C8
:101BE00022D5864F87486169703771B10121016044
:101BF000FFF7CCFD064604E0FFF7C8FD801B022876
:101C000009D838688007F7D50EE0C0F800A0FFF7C4
:101C1000BDFD064605E082E0FFF7B8FD801B022807
:101C20007DD838688007F7D42078400768D5DFF87A
:101C3000CCB100270BF13C0BDBF80000C0000BD44B
:101C4000DBF8001041F08051CBF80010DBF8000009
:101C5000012700F0805000906B4E3068C00510D412
:101C6000306840F480703060FFF790FD009005E030
:101C7000FFF78CFD0099401A022850D83068C00543
:101C8000F6D55E4EA0686C3601280FD00528306866
:101C900010D020F001003060306820F00400306087
:101CA000A068B8B1FFF772FD00900FE0306840F017
:101CB0000100F4E740F004003060F7E7FFF766FD4D
:101CC0000099411A41F28830814266D83068800715
:101CD000F4D50EE0FFF75AFD009007E0FFF756FD40
:101CE0000099411A41F28830814256D83068800705
:101CF000F4D42FB1DBF8001021F08051CBF80010A4
:101D0000A069C8B33D49091D0968C1F381010229D1
:101D10004AD00228504607D0C8F8600000E03CE0F6
:101D2000FFF734FD04463BE04746C8F86000FFF784
:101D30002DFD064605E000BFFFF728FD801B0228A9
:101D40002BD828688001F7D4D4E907010843A16A99
:101D50002E4A490802EB0141626A41EA82110843B6
:101D600094F82C1040EA0161C9F80010012038668F
:101D7000FFF70CFD044606E03EE000BFFFF706FD5E
:101D8000001B022809D828688001F7D534E000BF7D
:101D9000FFF7FCFC001B022802D90320BDE8F88FE6
:101DA00028688001F4D427E00128F7D0D9F8000092
:101DB000E26900F4800191421CD1226A00F03F01E7
:101DC000914217D147F6C071626A0140B1EB821FA0
:101DD00010D1A26A4FF0FF3300F4403103EB5202FE
:101DE000B1EB024F06D194F82C1000F07060B0EB0C
:101DF000016F01D00120D1E70020CFE70438024075
:101E000000004742800E4742007000400000FFFF84
:101E1000704700002DE9FE430446002603200D46CE
:101E200084F83400606C03285ED0B5F5805F5BD029
:101E30004FF4006700204FF08068BD421FD18146FB
:101E4000009001900021206801F03DFA800113D438
:101E50006946204601F002FE07000DD101984003BB
:101E600034D5B4F850000104206801F067FA070087
:101E700002D10221206823E0A06B384328E01DB185
:101E8000A06B40F0006023E08146009001900021AB
:101E9000206801F018FA8001EED46946204601F06E
:101EA000DDFD0700E8D10198C0030FD5B4F850005C
:101EB0000104206801F042FA0700DDD1002120680A
:101EC00001F089FA0700D7D14F46D5E74746D3E757
:101ED000A063A06B144F4FF0010848B120688763DE
:101EE00084F8348001260EE0A06B40F08050EFE7CC
:101EF000211DD4E9050C0EC9CDE90050CDF808C06C
:101F0000206801F0E9F94FF40071206801F04AFA05
:101F100028B121688F63A16B0143A163012684F876
:101F200034803046BDE8FE83FF0540007047000066
:101F3000F0B5426E920F0A70426EC2F383624A702D
:101F4000426EC2F301628A70426E120CCA70B0F81F
:101F50006420120A0A7190F864204A71826E120D90
:101F6000CA80826EC2F303420A72B0F86820C2F3DC
:101F7000C0324A72B0F86820C2F380328A72B0F878
:101F80006820C2F34032CA72B0F86820C2F300324F
:101F90000A7300264E73426C4FF40075012462B13F
:101FA000012A3AD0026847499163816B41F0805120
:101FB000816380F834400120F0BDB0F86820C36E22
:101FC0009205120D42EA93720A61C26EC2F3C262B6
:101FD0000A75C26EC2F302624A75C26EC2F3425201
:101FE0008A75C26EC2F38242CA75C26EC2F3C23231
:101FF0000A760A69521C42650B7E03F007039B1C9C
:102000009A4042650B7A03F00F0704FA07F38365E1
:102010005B0A5A43C0E917250EE090F86820C36EAA
:102020009206920A42EA13420A610A69521C92021B
:102030004265C0E91652056630F86C2FC2F3803253
:1020400001F8192F0288C2F3C6124A70027802F012
:102050007F028A704268D20FCA704268C2F341722E
:102060000A714268C2F382624A714268C2F38352C3
:102070008A714268C2F34052CA710E724268C2F35A
:1020800000424A728288C2F3C0328A728288C2F3E6
:102090008032CA728288C2F340320A738288C2F3E5
:1020A00000324A738288C2F381228A738288C2F323
:1020B0000122CA730079C0F3460008744C740020F2
:1020C000F0BD0000FF054000426C0A60826C4A606F
:1020D000C26C8A60026DCA60426D0A61826D4A619B
:1020E000C26D8A61006EC8610020704770B50446F9
:1020F000B0F8500000250104206801F076FA18B10C
:10210000A16B0143A16304E00021206801F0DBF82A
:102110000546C5F3432070BDF8B5056B044600685D
:10212000416B09041BD5290719D5D4E90A56002E9D
:1021300014D00027206801F0E9F805F8010B010A26
:1021400005F8011B010C05F8021B000E361F7F1C51
:1021500005F8010C082FEDD3C4E90A56F8BD416B10
:102160004FF00006C9054FF0010744D539028163DD
:102170002068C16B4CF23A329143C1632068C16A56
:1021800021F00101C16228071DD515F0220F09D0E9
:10219000206801F05BFA28B1A16B0143A1632046DE
:1021A000FFF7C4FE216840F23A50886384F8347027
:1021B0002663A80703D0204600F028FBF8BD204680
:1021C00000F02AFBF8BD2806FCD5A80609D5206832
:1021D00001F03CFA28B1A16B0143A1632046FFF74F
:1021E000A5FEA807EED12068C16A21F00801C162EE
:1021F00084F83470E3E7416B490424D5290722D5DC
:10220000D4E90856002EDDD05FF0000715F8010B69
:10221000009015F8011B361F40EA0120009015F8C8
:10222000021B40EA0140009015F8011C40EA0160E1
:1022300000906946206801F07CF87F1C082FE5D3E8
:10224000C4E90856F8BD416B40F23A221142F9D078
:10225000416B890703D5A16B41F00201A163416B7A
:10226000090703D5A16B41F00801A163416B890601
:1022700003D5A16B41F02001A163416BC90603D5D1
:10228000A16B41F01001A163416B890503D5A16BDE
:1022900041F00801A16340F23A7181632068C16B8B
:1022A00040F23A329143C163206801F0CFF9A16B4B
:1022B0000843A063280706D584F8347026632046B7
:1022C000FFF734FEF8BD2806FCD515F0300F0CD012
:1022D000E16B11480865E06BFEF71EFA0028F1D0AB
:1022E000E06BBDE8F84001F097BBA8070CD0216C6B
:1022F0000A480865206CFEF70FFA0028E2D0206C2F
:10230000BDE8F84001F05FBBA66384F83470266333
:102310002046FFF77DFDF8BD193A0008C7390008CF
:1023200070B504000ED094F83400002518B9257754
:10233000204600F04BF8032084F83400204600F0DB
:102340000BF808B1012070BDA5632563012084F856
:102350003400002070BD0000FEB500250446762044
:102360000095CDE9015029460B460A46206800F049
:10237000B3FF28BB134E46F8A05F206800F0BEFFF5
:1023800001253560204601F04DFC28B184F8345019
:10239000A16B0143A16313E0204601F0CCFB0028B0
:1023A000F4D14FF40071206800F0FCFF002808D041
:1023B000226805499163A16B0143A16384F83450FD
:1023C0000120FEBD00802542FF0540002DE9F04FB1
:1023D00087B0054614216846FDF73CFF464928684A
:1023E00088427DD145480068444940F40060086057
:1023F000086800F4006005904048143800683F49C0
:1024000040F0040014390860086800F004000590EA
:10241000086840F0080008600868022400F008001E
:1024200005904FF4F8504FF001088DE81101032694
:102430004FF00C09CDE9036969463148FFF7A2F86E
:102440000427CDE90074CDE9028669462D48CDF810
:102450001090FFF797F82D4C2B484FF00068C4E917
:102460000008002004F10C014FF4806A4FF4805BF7
:10247000A06081E8010CA06120204FF40039676260
:10248000C4E907090020C4E90A60FE042046266367
:10249000FEF726FA08B1FEF7D2F82C64A5631B4CB0
:1024A000194860344830C4E900084020A06004F1B5
:1024B0000C01002081E8010C04F118022021676260
:1024C00082E8030203212663C4E90A102046FEF7CE
:1024D00007FA08B1FEF7B3F80022EC63012100E02F
:1024E00006E03120A563FFF7C1F93120FFF7B0F90D
:1024F00007B0BDE8F08F0000002C014044380240D6
:1025000000080240000C024058640240D0BF012085
:102510002DE9F04F87B09B4616460D460446FFF75F
:1025200035F900903DB194F83400012807D0A06B34
:1025300040F000500DE0A06B40F0006009E000208A
:10254000A063E26D06EB0B01914204D9A06B40F051
:102550000070A06386E0032184F834102168C8620B
:10256000616C012900D076024FF0FF3101914FEAF2
:102570004B2102914FF0010803AA902102278146C6
:10258000CDF8188082E8820201A9206800F085FE5B
:10259000BBF1010F05D927633146206800F096FF93
:1025A00005E0C4F830803146206800F0A8FFDFF86D
:1025B00034A130B12268C2F838A0A16B0143A163F5
:1025C0004CE0029E1EE0406B000413D596B100273C
:1025D000206800F09BFE05F8010B010A05F8011BBD
:1025E000010C05F8021B000E361F7F1C05F8010CBC
:1025F000082FEDD3FFF7CAF80099411A10988142CD
:102600001DD2E0B12068426B40F22A310A42DAD092
:10261000416BC90509D5BBF1010F06D9616C0329CE
:1026200003D001F013F80028C4D12068416B0907DA
:102630001AD5C0F838A0A06B40F0080050E021681F
:10264000C1F838A0A06B40F00040A06384F834804B
:10265000C4F83090032007B0BDE8F08F84F83480D0
:10266000C4F830900120F6E7416B890705D5C0F822
:1026700038A0A06B40F0020032E0416B89061BD508
:10268000C0F838A0A06B40F0200029E000F03EFE2A
:1026900005F8010B010A05F8011B010C05F8021BE6
:1026A000000E05F8010C361FFFF770F80099411A6B
:1026B000109881420ED268B12068416B890201D521
:1026C000002EE3D1216840F23A50886384F83480C8
:1026D0000020C0E72168C1F838A0A06B40F000409E
:1026E000A063BBE7FF0540002DE9F04786B01F4619
:1026F0000446154639B194F83400012807D0022069
:1027000006B0BDE8F087A06B40F0006008E0002054
:10271000A063E36DEA199A4204D9A06B40F00070FF
:10272000A06369E0032284F8342022688146D062E5
:102730002268D36B40F22A363343D363236C2F4A8B
:10274000DA63236C2E4ADA64226C1065226C906086
:10275000206C0068026822F0C002026020680A460D
:10276000266C4FEA472800F180014FEA9803304673
:10277000FEF720F9DFF88CA0012670B12068C16B4C
:1027800021F49571C1632168C1F838A0A06B40F0B5
:102790008040A06384F834602EE01B480660606CC3
:1027A000012800D06D024FF0FF30CDE900089020E5
:1027B000029002200596CDE903096946206800F0E1
:1027C0006CFD012F06D9822020632946206800F085
:1027D0007DFE05E0812020632946206800F08FFE01
:1027E00000288DD02268C2F838A0A16B0143A163F4
:1027F00084F83460C4F83090012081E785390008FE
:1028000021390008FF0540008C852542014901203F
:10281000087070474100002001490120087070478E
:10282000400000202DE9F04F8DB09B4616460D4626
:102830000446FEF7ABFF0A903DB194F8340001283E
:1028400007D0A06B40F000500DE0A06B40F000609E
:1028500009E00020A063E26D06EB0B01914204D970
:10286000A06B40F00070A0637AE0032184F834107C
:102870002168C862616C012900D076024FF0FF31F7
:1028800003914FEA4B2104919021CDE905104FF0BF
:102890000109CDE90709824603A9206800F0FDFC83
:1028A000BBF1010F06D9202020633146206800F0DB
:1028B000E7FE05E0102020633146206800F0F9FEB5
:1028C0005FEA000806D0216840488863A06B40EAB0
:1028D000080071E0049E27E0406B40041CD5DEB187
:1028E0005FF0000715F8010B009015F8011B361F6B
:1028F00040EA0120009015F8021B40EA01400090D8
:1029000015F8011C40EA016000906946206800F05B
:1029100010FD7F1C082FE5D3FEF738FF0A99411AF6
:102920001698814220D2F8B12068416B40F21A32E9
:102930001142D1D0416BC90523D5BBF1010F20D97C
:10294000616C03291DD000F081FED0B122681F49BF
:102950009163A16B0143A16384F83490C4F830A063
:1029600001200DB0BDE8F08F216818488863A06B86
:1029700040EA0800A06384F83490C4F830A0032033
:10298000EFE72068416B090705D510498163A06B0B
:1029900040F0080010E0416B890705D50B498163C1
:1029A000A06B40F0020007E0416BC90606D507495D
:1029B0008163A06B40F01000A063CDE740F23A5174
:1029C000816384F834900020CBE70000FF054000CD
:1029D0002DE9F04F5FEA010B87B01E460446114611
:1029E00007D094F83400012807D0022007B0BDE8D2
:1029F000F08FA06B40F0006008E00025A563E26D59
:102A00008819904204D9A06B40F00070A06356E092
:102A1000032084F834002068C5622068C26B40F24D
:102A20001A2942EA0902C263E26B2D48D063E26BC5
:102A30002C48D064E06B0565606C012800D0490229
:102A40004FF09008012E05D9A0202063206800F0E7
:102A500017FE04E0C4F83080206800F02AFEDFF89A
:102A600088A0012730B12268C2F838A0A16B0143C9
:102A7000A16321E01D480760E16B40208860E06BA6
:102A80000068016821F0C00141F040010160226846
:102A90007602B30859468032E06BFDF78BFF80B1B8
:102AA0002068C16B21EA0901C1632168C1F838A01F
:102AB000A06B40F08040A06384F83470256301204F
:102AC00094E74FF0FF30CDE90006CDE90285CDE96E
:102AD00004576946206800F0E0FB002086E700000C
:102AE0000B3A000821390008FF0540008C8525427B
:102AF00070B5040009D0606A002540B125616561A8
:102B0000A56294F8510040B10CE0012070BD6068EE
:102B1000B0F5827FF4D0E561F2E784F850502046AA
:102B200000F044F8022084F851002068016821F088
:102B300040010160A088218900F4827001F4044101
:102B40000843A18901F400610843217C01F00201DE
:102B50000843217D01F001010843218B01F400713C
:102B60000843217F01F03801084394F8201001F058
:102B700080010843218D01F4005108432168086059
:102B8000A069042101EA104094F8241001F010011A
:102B90000843216848602068C16921F40061C1616F
:102BA0006565012084F85100002070BD10B586B025
:102BB000044614216846FDF74DFB134920688842FE
:102BC00020D11248016841F480510160006800F48E
:102BD000805005900D481438016841F002010160F1
:102BE0000068694600F0020005903820009002203D
:102BF00001900120029003200390052004900448D6
:102C0000FEF7C0FC06B010BD003001404438024061
:102C1000000402402DE9F84F044690F850000027C8
:102C20000A9E1D4692468B464FF0010901280ED0A0
:102C3000012084F85000FEF7A9FD804694F8510069
:102C4000616801280CD0B1F5827F07D102E0022033
:102C5000BDE8F88FA16809B9042801D00227C2E0B5
:102C6000BBF1000F27D0BAF1000F24D01DB394F8A8
:102C70005100042802D0052084F85100002060652E
:102C8000C4F838A0E587A587C4F830B0E586A586E6
:102C90002064606420680168490603D4016841F03B
:102CA00040010160E068B0F5006F606805D0E8B3EE
:102CB000012D46D07FE0012795E008B1012D39D1E3
:102CC000206B21680088C860206B801C2063E08E28
:102CD000401EE0862EE02068816889070FD5E18ECE
:102CE00069B1B9F1010F0AD1216B0988C160206B6C
:102CF000801C2063E08E401EE0864FF000092068B3
:102D00008168C9070CD0E18F51B1C068A16B088000
:102D1000A06B801CA063E08F401EE0874FF001098C
:102D2000FEF734FDA0EB0800B04200E009E001D35B
:102D3000701C50D1E08E0028CDD1E08F0028CAD180
:102D40003FE0206B216800780873206B401C2063F3
:102D5000E08E401EE0862EE02068816889070FD54E
:102D6000E18E69B1B9F1010F0AD1216B09780173C4
:102D7000206B401C2063E08E401EE0864FF000096F
:102D800020688168C9070CD0E18F51B1C068A16B80
:102D90000870A06B401CA063E08F401EE0874FF0DE
:102DA0000109FEF7F3FCA0EB0800B04202D3701C4F
:102DB00001D010E07EB1E08E0028CDD1E08F002858
:102DC000CAD142463146204600F086FF28B101278D
:102DD0002020606507E0032705E0A06818B9206897
:102DE000C16880680090012084F85100002084F8B8
:102DF000500038462CE770B515460E46040003D047
:102E000094F8490010B107E0012070BD002084F85B
:102E10004800204600F01AF804F108012068FDF788
:102E20002FFC3146A2682068FDF754FCD4E901026A
:102E30002946236BFDF704FCA168206850F8212087
:102E400042F0010240F82120002070BDFDF7ECBDEA
:102E500010B5401EB0F1807F01D3012010BD4FF0AE
:102E6000E02460610F21601701F0BAF80020A06132
:102E700007202061002010BD70B5040004D094F834
:102E80003D00002510B106E0012070BD84F83C50E3
:102E9000204600F023F8242084F83D002068C16813
:102EA00021F40051C160204600F0EEFF2068016966
:102EB00021F4904101612068416921F02A014161BA
:102EC0002068C16841F40051C1602564202084F865
:102ED0003D0084F83E00002070BD000010B586B0B3
:102EE000044614216846FDF7B5F914492068884264
:102EF00021D11348016841F010010160006800F021
:102F0000100005900E481438016841F0010101607D
:102F10000068694600F0010005904FF4C060009021
:102F200002200190012002900320039007200490CA
:102F30000448FEF727FB06B010BD0000001001405A
:102F40004438024000000240FEE700000D4808B58A
:102F5000016841F4800101600068002200F48000F3
:102F6000009002213B20FEF781FC3B20FEF770FC25
:102F7000002202214520FEF779FCBDE808404520EB
:102F8000FEF766BC303802402DE9F0478EB01C21B8
:102F90006846FDF75FF91C2107A8FDF75BF930488B
:102FA00004210024C0E902141025C0E9044584610D
:102FB000C4614FF4805A0462C0E9094AC4620463E0
:102FC0004463DFF8A08084634FF020464464C0E986
:102FD000006802200F27CDE9000702A908204FF062
:102FE000110981E83102002269461D480694FFF765
:102FF00002FF08B1FDF723FB19480621503007AA4C
:10300000C0E90214C0E904458461C4610462C0E9F6
:10301000094A4FF48041C0E90B414463846344642E
:10302000C0E900683C200097CDE90170CDF814900C
:10303000CDE903750921CDE90641CDE90871CDE956
:103040000C940748CDE90A7569465030FFF7D3FE66
:10305000002801D0FDF7F3FA0EB0BDE8F0870000BC
:10306000ACBE0120040100A02DE9F04186B014217E
:103070006846FDF7EFF850484FF00008016841F04E
:1030800010010160016801F010010591016841F033
:1030900020010160016801F020010591016841F003
:1030A00080010160016801F080010591016841F033
:1030B00001010160016801F001010591016841F021
:1030C00040010160016801F040010591016841F093
:1030D00002010160016801F002010591016841F0FF
:1030E00008010160016801F008010591016841F0E3
:1030F000040101600068314E00F004004FF4C06527
:103100000590012229463046FEF73AFB2C4F01225A
:1031100069013846FEF734FB1C2000902948012441
:10312000CDE9010469462848FEF72CFACDE90054A0
:10313000022569463046CDE90245FEF723FA2348C9
:103140006946CDE9004002952148FEF71BFAA0032D
:10315000CDE90004CDE9024869463846FEF712FA87
:10316000E0038DE83100694638460395FEF70AFA18
:10317000012203210620FEF779FB0620FEF768FBFB
:10318000012203210820FEF771FB0820FEF760FBF7
:10319000012203210920FEF769FB0920FEF758FBF5
:1031A000012203210A20FEF761FB0A20FEF750FBF3
:1031B00006B0BDE8F0810000303802400014024043
:1031C0000004024000002110001002400000111015
:1031D000000002400E4810B50C490160002141601A
:1031E0008160C160016141618161FFF799F808B1B7
:1031F000FDF725FA4FF400610548FEF70BFE0028A5
:1032000003D0BDE81040FDF71ABA10BD002C0140F4
:103210004CBF0120104810B50E4901604FF4827177
:103220004160002102228160C0E903120122426153
:10323000520282613822C0E90721416281620A217B
:10324000C162FFF755FC002803D0BDE81040FDF730
:10325000F6B910BD0030014090C001200C4810B5F7
:103260000A4901604FF4E1314160002181600C2284
:10327000C160C0E904128161C161FFF7FDFD002852
:1032800003D0BDE81040FDF7DAB910BD00100140D1
:10329000E8C00120FEE7704770470A6842624A684A
:1032A0008262D1E902231A43D1E904310B43C16A96
:1032B0001A4321F0F7011143C162002070470068F2
:1032C00000F0030070470844406970470148FEF76A
:1032D00023BF00004CBF012070B50DF1100C11434D
:1032E0009CE870002343194329434268314347F661
:1032F000FF639A430A434260002070BD10B503216A
:1033000001600220FDF78DFB002010BDD0F8800089
:1033100070470A688260D1E901231A43D1E9033179
:103320000B43C1681A436FF30B011143C1600020C6
:1033300070470968C0F880100020704710B586B04B
:1033400004463720CDE90010402002900020039071
:103350004FF48060049069462046FFF7DAFF41F29F
:1033600088323721204600F0BDF906B010BD0000BC
:1033700010B504460A4886B001432920CDE9001063
:1033800040200290002003904FF480600490694632
:103390002046FFF7BEFF204600F05CFA06B010BDE5
:1033A0000000108010B586B004461020CDE9001052
:1033B00040200290002003904FF480600490694602
:1033C0002046FFF7A6FF41F288321021204600F088
:1033D00089F906B010BD10B586B004460620CDE9C7
:1033E000001040200290002003904FF48060049071
:1033F00069462046FFF78DFF41F2883206212046BC
:1034000000F070F906B010BD30B585B00024054657
:10341000009401944FF480600294CDE90340694622
:103420002846FFF776FF0B484FF4FA510068B0FBCF
:10343000F1F041F288314843401E03D24FF0004082
:1034400005B030BD696B0906F6D5C520A8632046D6
:10345000F6E70000AC02002070B585B004464FF4DA
:10346000D570009001A908204025002681E8610060
:10347000C001049069462046FFF74BFF12484FF405
:10348000FA510068B0FBF1F041F288314843401E28
:1034900003D24FF0004005B070BD616B11F0450FD5
:1034A000F5D00905F3D4606B400701D5042003E093
:1034B000606BC00702D00120A063ECE7606B4006A0
:1034C00000D5A5633046E6E7AC02002010B586B013
:1034D00004461220CDE90010402002900020039005
:1034E0004FF48060049069462046FFF712FF41F2D6
:1034F00088321221204600F0F5F806B010BD10B554
:1035000086B004461120CDE9001040200290002032
:1035100003904FF48060049069462046FFF7F9FE5F
:1035200041F288321121204600F0DCF806B010BDCF
:1035300010B586B004460720CDE900204020029057
:10354000002003904FF48060049069462046FFF706
:10355000E0FE41F288320721204600F0C3F806B0B1
:1035600010BD10B586B0044600210220CDE9001040
:10357000C020CDE902014FF48060049069462046E6
:10358000FFF7C7FE204600F03DF906B010BD10B5AC
:1035900086B004460920CDE90010C020029000202A
:1035A00003904FF48060049069462046FFF7B1FE17
:1035B000204600F027F906B010BD10B586B00446CD
:1035C00000213320CDE900104020CDE902010001A7
:1035D000049069462046FFF79CFE41F28832332171
:1035E000204600F07FF806B010BD10B586B0044646
:1035F0000D20CDE9001040200290002003904FF4F0
:103600008060049069462046FFF783FE41F28832CD
:103610000D21204600F066F806B010BD30B585B02B
:103620000C46054600210320CDE900104020CDE9DD
:1036300002010001049069462846FFF76AFE22460F
:103640000321284600F028F905B030BD10B586B03A
:10365000044600210C20CDE900104020CDE90201F4
:103660000001049069462046FFF753FE034A0C21EF
:10367000204600F037F806B010BD000000E1F50567
:1036800010B586B004461920CDE900104020029004
:10369000002003904FF48060049069462046FFF7B5
:1036A00038FE41F288321921204600F01BF806B09E
:1036B00010BD10B586B004461820CDE9001040209A
:1036C0000290002003904FF48060049069462046E9
:1036D000FFF71FFE41F288321821204600F002F861
:1036E00006B010BD454B10B51B684FF4FA54B3FB40
:1036F000F4F353435B1E02D24FF0004010BD426B07
:1037000012F0450FF6D01205F4D4426B520703D5E0
:1037100004218163084610BD426BD20702D001210B
:10372000816305E0C52282630269D2B28A4201D078
:10373000012010BD0021FFF7C6FD3149084201D12B
:10374000002010BD002802DA4FF0007010BD4100CB
:1037500001D5402010BD810001D5802010BDC100E1
:1037600002D54FF4807010BD010102D54FF40070F6
:1037700010BD410102D54FF4806010BDC10102D5DA
:103780004FF4006010BD010202D54FF4805010BD0F
:10379000410202D54FF4005010BD810202D54FF412
:1037A000804010BDC10202D54FF4004010BD41035E
:1037B00002D54FF4003010BD810302D54FF48020B4
:1037C00010BDC10302D54FF4002010BD010402D585
:1037D0004FF4801010BD410402D54FF4001010BD0D
:1037E000810402D54FF4800010BD000702D54FF4CC
:1037F000000010BD4FF4803010BD0000AC0200206E
:1038000008E0FFFD12494FF4FA520968B1FBF2F1EA
:1038100041F288325143491E02D24FF000407047B6
:10382000426B12F0450FF6D01205F4D4416B4907F4
:1038300003D50421816308467047416BC90703D053
:103840000121816308467047C521816300207047CC
:10385000AC0200200F494FF4FA520968B1FBF2F1B3
:1038600041F288325143491E02D24FF00040704766
:10387000426B12F0450FF6D01205F4D4416B4907A4
:1038800003D50421816308467047C5218163002068
:1038900070470000AC02002030B5204B4FF4FA54C2
:1038A0001B68B3FBF4F341F2883463435B1E02D21E
:1038B0004FF0004030BD446B14F0450FF6D02405A6
:1038C000F4D4436B5B0703D504218163084630BD04
:1038D000436BDB0702D00121816303E00369DBB2A4
:1038E0008B4201D0012030BDC52181630021FFF74B
:1038F000EAFC10F4604F04D0410406D54FF40050A8
:1039000030BD000C1080002030BD000402D54FF403
:10391000805030BD4FF4803030BD0000AC0200203C
:1039200010B5846BFCF70AFF022828D0206C416D8B
:10393000E06B406D012901D001281DD1216810489C
:1039400088632068C16B21F49D71C163A06B40F056
:103950008040A0632046FEF7C9FB062801D0052859
:1039600005D12068FFF772FEA16B0843A063012018
:1039700084F83400002020632046FEF7D7FA10BDFB
:10398000FF05400010B5846B206B822809D12068A8
:10399000FFF75CFE28B1A16B0143A1632046FEF74F
:1039A000C5FA2068C16A21F00801C162216840F2AD
:1039B0003A508863012084F83400002020632046B8
:1039C000FEF724FF10BD10B5846B40F23A50216819
:1039D00088632046FEF78AFB012184F83410002119
:1039E0002163062801D0052805D12068FFF72EFEA7
:1039F000A16B0843A063A06B0028204602D0FEF70D
:103A000095FA10BDFEF704FA10BD806B0068C16B1B
:103A100041F48071C163704710B5846B40F23A5035
:103A2000216888632046FEF761FB012184F8341089
:103A300000212163062801D0052805D12068FFF761
:103A400005FEA16B0843A063A06B0028204602D0AE
:103A5000FEF76CFA10BDFEF7DBF910BD2DE9F0475B
:103A600088B00D460446FDF791FE0026824600967A
:103A70000196374608212068FFF794FC002829D1D9
:103A8000B4F8500001042068FFF758FC002821D149
:103A9000401E4FF00808CDE9020830204FF002091F
:103AA000CDE904090120CDE9067002A92068FFF7DD
:103AB000F4FB2068FFF781FD00280BD16F462068DA
:103AC000416B11F02A0F08D0416B09071AD5C0F8D5
:103AD0003880082008B0BDE8F087416B890205D521
:103AE000FFF714FC47F82600761C02E0416B8904BE
:103AF000EAD5FDF74BFEA0EB0A00401CDFD14FF0EA
:103B00000040E7E7416B890703D5C0F838900220F1
:103B1000E0E7416B890603D5202181630846D9E798
:103B200040F23A518163019800BA2860009800BAC7
:103B300068600020CEE710B590B004460120ADF8D3
:103B400038002068FFF7BBFB002854D0606C0328C6
:103B500042D02068FFF705FD00284AD100212068E7
:103B6000FFF7B1FB606704212068FFF7ACFBA0679B
:103B700008212068FFF7A7FBE0670C212068FFF70A
:103B8000A2FBC4F88000606C032825D00EA9206831
:103B9000FFF744FD00282CD1606C03281CD0BDF831
:103BA0003800206501042068FFF7F1FC002820D1CF
:103BB00000212068FFF787FB606604212068FFF77B
:103BC00082FBA06608212068FFF77DFBE0660C21E0
:103BD0002068FFF778FB206704212068FFF773FB5C
:103BE000000DE06403A92046FEF7A2F930B14FF0C2
:103BF000805010B010BD4FF08060FAE7B4F850006C
:103C0000002302042068FFF793FC0028F1D104F19F
:103C1000100007C88DE8070094E80F00FFF75CFB71
:103C20000020E6E72DE9F84F0026044600963546C9
:103C3000B0460068FFF7E8FB002827D12068FFF7AF
:103C40000BFC4FF0805B4FF001094FF6FF7748B156
:103C5000A6642068FFF7D8FB002817D1A06C0128C4
:103C600002D020E0C4F8489000212068FFF766FBEE
:103C700058B918E000212068FFF760FB002805D143
:103C800051462068FFF774FB10B15846BDE8F88F25
:103C900000212068FFF717FB05464FEAD07800980F
:103CA000401C009002E0DFF82CA00098B84202D23D
:103CB000B8F1000FDED00098B84202D34FF0807008
:103CC000E4E7680002D5C4F8449000E06664002090
:103CD000DCE70000000010C138B504461248134B61
:103CE0000068B0FBF3F04FF47A73584300906068BB
:103CF000B0F5827F0DD10B46009200228021204634
:103D000000F016F870B1606D40F02000606503208F
:103D100038BD009830B1401E009020688068C043D4
:103D20000006F6D5002038BDAC02002000366E013A
:103D30002DE9F8431E46914688460446089DFDF746
:103D400025FD401B351AFDF721FD07462548006873
:103D5000C0F3CB30684338E0701C37D0FDF716FD58
:103D6000C01BA84203D215B1009860B32CE02068B4
:103D7000416821F0E00141606068B0F5827F0BD1BD
:103D8000A068B0F5004F02D0B0F5806F04D1206874
:103D9000016821F040010160A06AB0F5005F09D11F
:103DA0002068016821F4005101602068016841F435
:103DB00000510160012084F85100002084F8500077
:103DC0000320BDE8F8830025401E0090206881682C
:103DD00038EA010004D000214945BDD10020F0E7B8
:103DE0000121F9E7AC0200207047FDF7D5BC0000C7
:103DF00030B593B030216846FCF72CFA14210CA89A
:103E0000FCF728FA1A480025016841F0805101604A
:103E1000006800F0805011901648016841F480411C
:103E200001600068022400F480401190012000909D
:103E3000000401908001CDE90640082008904FF46D
:103E4000A870CDE9090407200B906846FDF72AFE0B
:103E50000CA90F2081E831004FF4A0500F90E00230
:103E6000109005210CA8FDF733FD13B030BD000004
:103E700040380240007000400248016841F470017F
:103E80000160704788ED00E070B504460068016984
:103E9000E26821F44051114301612169A068E2699F
:103EA00008436169114308432168CA6849F20C63F9
:103EB0009A430243CA6020684169A26921F44071B3
:103EC0001143416131492068884202D0304988421B
:103ED00002D1FDF7A7FD01E0FDF794FDE2690023A3
:103EE000192164253226B2F5004F626828D0A0FB64
:103EF0000101930F9200FCF763F90146B0FBF5F066
:103F00006FF01802504301EB800006EB0010B0FB8D
:103F1000F5F000F0F002B1FBF5F002EB0012B1FB9E
:103F2000F5F06FF01803584301EB800006EB00102A
:103F3000B0FBF5F000F00F0021681044886070BD00
:103F4000A0FB010192185B41FCF73AF90146B0FB76
:103F5000F5F00201B1FBF5F06FF01803584301EBE7
:103F6000800006EBC000B0FBF5F000F0F80002EBBB
:103F70004002B1FBF5F0584301EB800006EBC000B6
:103F8000B0FBF5F000F00700D6E70000001001409C
:103F900000140140FEE700000FB4054B10B503A963
:103FA000044A029800F03CF810BC5DF814FB0000D5
:103FB00011710008C40200200FB4084B10B504A909
:103FC00002AA039800F02CF8044602A9002000F091
:103FD00058FA204610BC5DF814FB0000834400082A
:103FE0000907090E002804DB00F1E02080F8001426
:103FF000704700F00F0000F1E02080F8141D7047BA
:1040000002E008C8121F08C1002AFAD170477047A1
:10401000002001E001C1121F002AFBD170470000FF
:104020002DE9FF4F8DB00F460546002606E02528F6
:104030000BD0DDE90F1290476D1C761C2878002804
:10404000F5D111B03046BDE8F08F0024A246A1465C
:104050000122EC4900E0044315F8013F203B02FA3D
:1040600003F00842F7D128782A2810D06FF02F02E9
:104070002878A0F13001092914D80AEB8A0102EB53
:10408000410144F0020400EB010A6D1CF0E701CF8E
:104090005FEA000A03D544F40054CAF1000A44F070
:1040A00002046D1C28782E2817D115F8010F44F052
:1040B00004042A280ED06FF02F022878A0F13001D6
:1040C00009290AD809EB890102EB410100EB01093A
:1040D0006D1CF2E757F8049B6D1C28786C280FD0F4
:1040E00006DC4C2817D068280DD06A2814D104E0CB
:1040F000742810D07A280FD10DE044F400140AE09F
:1041000044F4801401E044F440146978814202D1FF
:1041100004F580146D1C6D1C2A786E2A1FD00CDCEF
:10412000632A31D004DC002A8BD0582A11D1A3E0B5
:10413000642A68D0692A0CD165E0732A2ED004DC89
:104140006F2A73D0702A04D19BE0752A6FD0782A29
:104150006ED01046DDE90F129047761C50E1C4F393
:104160000250022806D0032809D0042801CF09D024
:10417000066045E101CFF117C0E9006140E101CFE0
:1041800006803DE106703BE117F8040B8DF8000056
:1041900000208DF80100EB46012003E057F804BB36
:1041A0004FF0FF3061074FF0000102D40DE008F13D
:1041B0000101884649450FDA8045F8DB1BF80810F5
:1041C0000029F4D108E008F1010188468142FADBB8
:1041D0001BF808100029F6D1DDE90F23AAEB08002F
:1041E0008146214600F036F9304400EB080604E031
:1041F000DDE90F121BF8010B9047B8F10108F7D267
:1042000021464846F7E00A21C4F302534FF0000B61
:104210000891022B04D001CFC117032B09D00AE06B
:10422000FF1D27F00707F7E8020108E032E01FE072
:1042300020E000B2C117042B01D140B2C117031E08
:1042400071F1000307DA4FF0000CD0EB0C006CEBBF
:1042500001012D2302E0230504D52B238DF8243002
:10426000012303E0E30701D02023F7E7984658E055
:104270000A2110E010210EE010204FF0000B0890F2
:104280000CE010214FF0000B44F004044FF008093B
:10429000089103E008214FF0000B0891C4F302538A
:1042A000022B04D001CF0021032B06D006E0FF1D16
:1042B00027F00707F7E8020103E080B2042B00D1E2
:1042C000C0B24FF0000823072BD5702A07D0DDF8C5
:1042D00020C08CF0100C5CEA0B0C05D00EE04023E3
:1042E0008DF82430012308E050EA010306D0302382
:1042F0008DF824308DF8252002239846DDF820C063
:104300008CF0080C5CEA0B0C0BD150EA010301D1D4
:10431000630706D530238DF824304FF00108A9F14A
:104320000109582A04D038A20B9208AA0A920BE07D
:104330003AA2F9E75B46089AFBF742FF0B9B9B5CAE
:104340000A9A521E0A92137050EA0102F2D10A9898
:10435000ADEB000000F1200B600702D524F480349F
:1043600001E04FF00109D94502DDA9EB0B0000E0A7
:10437000002000EB0B0141440890AAEB010AE00386
:1043800006D4DDE90F232146504600F063F80644C9
:104390004FF0000908E009A911F80900DDE90F1242
:1043A000904709F10109761CC145F4DBE0030CD507
:1043B000DDE90F232146504600F04CF8064404E0A6
:1043C000DDE90F1230209047761C0899481E0890AE
:1043D0000029F5DC08E00A980A990078491C0A913E
:1043E000DDE90F129047761CBBF10001ABF1010B28
:1043F000F1DC21465046DDE90F2300F019F80644B0
:104400006D1C1BE609280100303132333435363754
:104410003839616263646566000000003031323310
:1044200034353637383941424344454600000000B0
:104430002DE9F041044600251E461746880404D4A1
:1044400005E039462020B0476D1C641EF9D528468A
:10445000BDE8F0812DE9F041044600251E46904656
:10446000C80301D5302700E02027880404D505E0E3
:1044700041463846B0476D1C641EF9D52846BDE854
:10448000F0810A68531C0B60107070472DE9F05FD3
:104490000746406B891E00EB1135C1F3C80601F0D9
:1044A00007014FF0010B0BFA01F09A469146C4B296
:1044B00029466D1C384607F0E1F810B10120BDE82F
:1044C000F09F5A464FF40073B91991F83C0020420E
:1044D00002D04FF0010801E04FF00008D04501D1B3
:1044E0000220ECE7604081F83C00B9F101003A712C
:1044F0008146E4D0600010F0FF04E5D10124761C71
:104500009E42E1D30026D3E770B504460020207117
:10451000401EA063204607F0B1F808B1042070BD2A
:1045200004F23A2006F029FA4AF655260546B0422A
:1045300006D10B222BA104F13C00FBF7ACFE40B1ED
:1045400094F83C00EB2806D0E92804D0E82802D0F3
:1045500041E0012070BDB54207D1082224A104F139
:104560008E00FBF798FE0028F4D004F1470006F017
:1045700004FA94F84910421E10422CD14FF40072F4
:10458000904228D3904226D829B3481E014222D116
:1045900004F14A0006F0F1F9E8B194F84C00401E2D
:1045A000012818D804F14D0006F0E7F998B104F19C
:1045B0004F0006F0E2F9802806D204F15C0006F014
:1045C000A6F9B0F5803F06D304F1520006F0D5F904
:1045D00008B1002070BDB54201D1022070BD03209A
:1045E00070BD0000EB7690455846415420202000D5
:1045F00046415433322020200000000070B501688D
:10460000046D500A4D8940EAC350590A2A460023D6
:10461000241DFBF7D5FD02CC21B1884204D3401AFA
:10462000241DF8E7002070BD2168084470BDC269F0
:10463000891E921E8A4201D800207047026B408971
:1046400000FB0120704700002DE9F05F82460C4618
:1046500001F11A0006F091F978BB2078012700F0EB
:104660003F00401E00EB8001DFF8589001EBC005D1
:1046700000264FF6FF7B00BF19F80600204406F025
:104680007CF980466FB1FF2D17D802F0C3F90746B9
:104690003AF815006D1C02F0BDF987420DD147466E
:1046A00001E0D84509D1761C0D2EE5D320784006CF
:1046B00006D52FB13AF8150010B10020BDE8F09FE3
:1046C0000120FBE7B8F800082DE9F04706685FEA2B
:1046D000010807462BD04146384602F071FD0228FA
:1046E00046D3411C45D0F169814242D84546B06964
:1046F00000283ED030784FF0FF3904281ED04545C1
:104700005FD1F0696C1CA04200D8022421463846D3
:1047100002F056FD01282CD0411C2AD080B37069CC
:1047200002284ED3F16981424BD9054649E07569AB
:1047300015B1F069A842DAD80125D8E70122294647
:10474000304602F0DBF9040062D0601C60D0012327
:104750001A4621463046FFF799FE022808D0012864
:1047600009D0B8F1000F08D0F979022909D010E07A
:104770000120BDE8F0874846FBE70221F97143E0DC
:104780001EE0691C8C423FD0B968691AB9610321E7
:10479000F97108F101018C4206D1F96909B1491C8E
:1047A00000E00221F9612FE0F869012500B9FD61FF
:1047B00022464146384602F088F930BBFD6129E0C7
:1047C000A4B92C46F069641CA04202D80224022D30
:1047D0000AD32146384602F0F3FC38B10128C8D08C
:1047E000411CC6D0AC42EDD10020C2E74A4621466A
:1047F000304607F00BFA40B9B8F100000AD0014684
:104800002246304607F002FA20B101280FD00124D9
:104810002046AEE77461D6E90601891E884201D8B8
:10482000401EB061707940F001007071F0E74C46B5
:10483000EEE700002DE9FC5F824608680190DAF897
:1048400000000E460025C7684FF4803801A807F025
:1048500018FD411C3BD0404503D3010C27F815102F
:104860006D1C84B2202C1CD32F2C10D05C2C0ED0AD
:10487000802C04D2214676A0FBF703FD38BBFF2D28
:1048800025D227F815406D1CE0E7401C01900198E7
:1048900001782F29F9D05C29F7D00024C8B220284C
:1048A00000D204240198306009E000BF07EB450006
:1048B00030F8020C202801D02E2802D16D1E002DC8
:1048C000F4D1002027F815000DB1002603E00620E2
:1048D000BDE8FC9F761C37F816002028FAD016B9E0
:1048E00038882E2803D144F0030400E06D1E2DB15A
:1048F00007EB450030F8020C2E28F7D120220B21BF
:104900000AF14000FBF79FFC4FF000084FF0080B46
:10491000CDF8008037F8160006F101065FEA0009BD
:1049200024D0B9F1200F04D0B9F12E0F04D1AE423A
:1049300002D044F00304EDE70098584501D2AE429E
:1049400019D1BBF10B0F0FD0AE4201D044F00304DC
:104950000CD84FF0080000904FEA88602E464FF0C8
:104960000B0B4FEA1068D5E744F003049AF84000B7
:10497000E52849D04BE04846B9F1800F08D344F010
:10498000020402F047F84FF46A7102F007F881461A
:10499000B9F1FF0F13D90099ABF10100814204D3A3
:1049A00044F00304CDF800B0B4E700984FEA1922B0
:1049B000504480F840200098401C00901BE0B9F162
:1049C000000F04D0014625A0FBF75BFC20B14FF09F
:1049D0005F0944F003040EE0A9F14100192801D851
:1049E00048F00208A9F16100192804D8413048F0C4
:1049F00001081FFA80F9009A0AEB020181F8409041
:104A00000098401C009085E705218AF84010BBF112
:104A1000080F03D14FEA88604FEA1068C8F381009D
:104A2000032803D06FEA0800800701D144F0020494
:104A3000A00709D45FEAC87001D044F010045FEA0F
:104A4000487001D544F008048AF84B4000203FE745
:104A50002A3A3C3E7C223F7F000000002B2C3B3D4D
:104A60005B5D00002DE9FF4F81B09B466A46012146
:104A7000019800F079FC00287DD108264FF03F090D
:104A8000F101009F03E0700010F0FF0606D016FB56
:104A900009F0B7FBF0F08842F5D806B9FF264FF4CD
:104AA00000715846FBF7D6FB0BF5DF754FF0000A97
:104AB0004C465DE0029951F82A80B8F1640F09D89C
:104AC00001D1384605E04FF06400B7FBF0F000FB81
:104AD00008F0804604EB0800B84201D8A04201D299
:104AE000A7EB0408B8F1000F44D0214605F10800F7
:104AF00007F0EEFA414605F10C0007F0E9FA0398D9
:104B0000287119FB06F3B4FBF9F1B1FBF6F2B4FB23
:104B1000F9FC06FB1212B4FBF3F009FB1C416A70AE
:104B2000C02202EA900C491C4CEA010C85F802C034
:104B3000E87004EB0800441EB4FBF3F1B4FBF9FC8D
:104B4000BCFBF6F3B4FBF9F806FB13CC09FB1843E6
:104B500002EA91025B1C85F805C01A43AA71E9714B
:104B60000AF1010A10350446BAF1040F02D20CB161
:104B7000BC429FD300E00DE04AF655210BF5FF70D3
:104B800007F0D3FA012300225946019800F045FCB2
:104B9000002800D0012005B0BDE8F08F2DE9F05FBE
:104BA000894605464021FBF755FB85202870C0202B
:104BB0004024002685F8200037464FF00108B24611
:104BC0004FF0C10B05F804B0641C05F804A0641C88
:104BD000B8F1000F06D039F816005FEA000801D0DE
:104BE000761CF6B22819414607F09FFAA41CE0068D
:104BF000EED17F1C39F81600FFB20028E2D185F80B
:104C000023607F1C6F70484607F0CAFD014605F11E
:104C10002400BDE8F05F07F088BA812803D3FE289E
:104C200001D801207047002070470000014908604A
:104C300070470000000000204FF47A71484300F0F4
:104C400001B8000070B54FF0E02400226569094901
:104C5000A36909684843A1699942FCD002D2A3EB39
:104C6000010302E0A5EB010633441A440B468242DD
:104C7000F1D370BD000000202DE9F0410F4604463D
:104C80000021066800F018FBE8B900253046A16B4A
:104C900006F0F4FCB8B931780429E16B097803D047
:104CA000E52905D021B107E041F3C011491C03D02B
:104CB0006D1CBD420AD000E000250121204600F015
:104CC000FFF80028E2D0042800D10720BDE8F081D9
:104CD0002DE9F0470C46054607F0B0FAA8BB21467F
:104CE0002846FFF7A4FC0646A8634FF4007705F1B9
:104CF0003C0039468046FBF7ADFA6889BC01B4EB4D
:104D0000402F04D9440200E06408BC421ED920466A
:104D100001F000FE5FEA0009F6D0BC4216D9214638
:104D2000FBF798FA670A002400E03C446889A04237
:104D300007D9321968783B46494600F06EFB0028D7
:104D4000F3D0484601F0EAFD0FE011E0012700240E
:104D500000E03C446889A04207D9321968783B4694
:104D6000414600F05AFB0028F3D06889A04202D0E7
:104D70000120BDE8F0870020FBE72DE9F05F044645
:104D80000021056800F098FA00284CD12878042802
:104D90000CD0FF264FF0FF38B146C4F84C802846AF
:104DA000A16B06F06BFC07004ED13EE0E86807F00F
:104DB000F7FC82462FE02869243005F0DEFD5045DF
:104DC00029D1286940264FF0000990F8238017E088
:104DD000F00600D1B61C2869304405F0CEFD01F084
:104DE00019FEE968074631F8190001F013FE874201
:104DF0000AD1A8F1010000F0FF0809F10109B61C71
:104E0000B8F1000FE4D102E0B8F1000F03D1E96876
:104E100031F8190030B10021204600F0B3F85FEA04
:104E2000000BC8D05846BDE8F09FE16B087850B140
:104E3000CA7AE52802F03F02A27135D0130704D5E3
:104E40000F2A31D105E0042738E00F2A01D0DEB166
:104E50001FE094F84B20520629D4420606D591F85B
:104E60000D9000F0BF00226B0646E264B04208D10C
:104E70004A7B4A4505D1E868FFF7E6FB08B1761E94
:104E800000E0FF26F6B212E0084607F087F9484531
:104E900014D094F84B00C00706D10B2204F1400156
:104EA000E06BFBF7F8F948B1FF26C4F84C8000210D
:104EB000204600F005F807003FF471AF3846B2E72E
:104EC0002DE9F04707680446066B38782036894696
:104ED00004280AD04FF400104FF00008B04238D92F
:104EE000A06B28B1F10506D044E04FF08050F3E705
:104EF0000420BDE8F087401CA063616B29B178896C
:104F0000401E10EA562F05D034E03889B0EB561F0A
:104F10001FD92FE0204602F053F9054601281DD97C
:104F2000681C14D0F869A8421ED8B9F1000F10D03F
:104F30002046616BFFF7C8FB05000DD0012D0DD099
:104F4000681C04D029463846FFF7C2FE40B1012054
:104F5000CFE7C4F83880CBE70720CAE70220C8E7CC
:104F6000E07940F00400E071294638466563FFF7B8
:104F70005EFBA063C6F3080038443C302663E06360
:104F80000020B6E72DE9F0470426FF2489460546B0
:104F9000A04607685FE0384606F070FB06005ED169
:104FA000E96B087898B13A78042A12D0CA7AE528D1
:104FB00002F03F02AA7108D02E2806D022F020036A
:104FC000082B1BD0B446CC451BD0FF2433E004266D
:104FD00045E0B9F1000F02D0832842D02BE08528AC
:104FE00029D1286BE864284605F0E9FC060036D193
:104FF0003869007900F03F00A87132E04FF0010CF1
:10500000E1E70F2A01D014BB1CE0420606D591F857
:105010000D8000F0BF002A6B0446EA64A04208D16C
:105020004A7B424505D1F86806F0B6FD08B1641E1A
:1050300000E0FF24E4B200212846FFF741FF06000C
:1050400009D00CE0084607F0A9F8404509D04FF018
:10505000FF30E86405E0A96B00299CD10EB1002067
:10506000A8633046BDE8F0872DE9F04F0446056897
:1050700090F84B0099B010F0A00F03D0062019B0A3
:10508000BDE8F08F0026E86800E0761C30F81610C6
:105090000029FAD1287804281AD004F1400016AB70
:1050A00007C883E807009DF8630004F14008C107C2
:1050B0006BD0402084F84B0001273B4616A94046A0
:1050C000EA6802F02FF82046FFF757FEF0BB51E0E8
:1050D0000F200E36B6FBF0F6B61C31462046FFF721
:1050E000CBFD0028CBD171422022206B02EB411175
:1050F0000844E064E079410736D520F00400E0710F
:10510000204601F0CBFC0028B9D1421E2046616B3D
:1051100001F0DBFC0028B2D1A06828B3214602A828
:1051200005F030FC0028AAD16889D4E904234002A4
:10513000121843F10003C4E904232869383006F04B
:10514000CFFFD4E904232869283000E015E006F0F9
:10515000C7FFE079296940F0010081F8210002A829
:1051600006F0E7FF00288AD1D5E90310FFF716FD06
:10517000002084E77F1C642F9FD3642F0FD0042866
:10518000F7D19DF8630084F84B009DF86300800719
:1051900007D50D200C36B6FBF0F77F1C02E0072088
:1051A0006DE7012739462046FFF766FD06007FD1EF
:1051B0007F1E05975FD0216B784201EB401120469E
:1051C00000F07AF8060073D1404606F0E7FF4FF68C
:1051D000FF7B08902846A16B06F050FA060067D1C5
:1051E000E86804900598D4F83C90C0B20390089900
:1051F00089F80D100F2189F80B10002189F80C1087
:1052000009F11A0006F091FF0398DFF8A8A0401EEC
:1052100000EB800101EBC008002701E05E4504D0EF
:10522000049830F8186008F101081AF8071001EB2B
:105230000900314606F079FF06B95E467F1C0D2F46
:10524000ECD35E4505D0049830F8180008B10398F7
:1052500003E0039840F04000039089F8000001202B
:10526000287100212046FFF72BFE060020D105986B
:10527000401E0590AED12846A16B06F0FFF906004E
:1052800016D154F83C0F2021FAF7E4FF206861683A
:105290000160A1684160A1890181A17B8172E07BED
:1052A000216800F018000873012000E000E0287178
:1052B0003046E4E6B8F800082DE9F04106680546F6
:1052C0000F463078042806D04FF40010B8423CD97D
:1052D000F8063AD102E04FF08050F7E72F63AC6850
:1052E00034B93078032807D30020F46AE8711CB180
:1052F00070894FEA402812E03089B0EB571F24D95B
:10530000F06A12E0284601F05BFF0446401C1AD008
:10531000022C1AD3F069A04217D9A7EB080747451A
:105320002146EFD23046FFF782F9C5E90D4060B162
:1053300000EB5720A863C7F3080030443C30E86313
:105340000020BDE8F0810120FBE70220F9E710B55D
:1053500018B1012804D0012010BD06F055FD01E070
:1053600006F088FA002010BD4FF4007318B1012830
:1053700014D00120704739B1114801290AD00229FF
:1053800004D0032908D103E0002070471360FBE735
:10539000808B0CE0806910E0042070470029F3D076
:1053A000012908D0022904D00329F5D10820108052
:1053B000EAE71380E8E74FF4C0401060E4E700003C
:1053C0008CBE01202DE9F0411C0015460E4605D08B
:1053D00030B1012810D00120BDE8F0810420FBE7A6
:1053E0001A4602E0FDF7F6FE22462946304606F050
:1053F0004BFD0028F6D10CE04FF4007769023A46E5
:10540000304606F06BFA641E05F1010506F50076DC
:10541000F4D10020E0E7002070472DE9F0411C00A6
:1054200015460E4605D030B1012810D00120BDE848
:10543000F0810420FBE71A4602E0FDF7CBFE22468E
:105440002946304606F03AFD0028F6D10CE04FF42C
:10545000007769023A46304606F0D4FA641E05F138
:10546000010506F50076F4D10020E0E72DE9F041D2
:105470004FF480563146002006F0CCF90024B046A7
:105480000546B61040F2862721034246284601F51C
:10549000E00106F023FA002055F82010491C03D142
:1054A000401C80B2B042F7D3B04203D004F5E060B4
:1054B00006F0C0F9641CA4B2BC42E5D32946BDE89D
:1054C000F041002006F078B97CB50D460021144665
:1054D000009101AA694600F038F800280AD1019924
:1054E000009ACB6949899B1E4B4351435A0849088E
:1054F0002A6021607CBD000070B50B4D00244FF484
:105500000F763146002006F085F945F8240018B1E1
:10551000641CE4B2022CF4D305F028FC022C01D167
:10552000002800D0012070BDBC02002038B5044620
:1055300001F03CF9002807D16946204606F0C8FE74
:10554000002801D10021216038BD2DE9F7438EB03C
:1055500014468946002269460EA805F0BFFE0700E2
:105560007AD1009820600098D0E90614A21E9142DA
:1055700002D8C9F800106FE001780025012905D094
:1055800004291AD00026D0F828803DE00224029099
:10559000214602A801F014FE411C03D0012803D0CB
:1055A00020B104E0012757E0022755E06D1C009868
:1055B000641CC0698442EBD346E00026A41ED0F8E8
:1055C000348000E046B9414608F10108009806F031
:1055D00055F8070040D1009A0821901990F83C0036
:1055E000C043C0B207E000F0010340081D44491E5B
:1055F000A4F1010401D0002CF5D1761CC6F30806F5
:10560000002CDFD120E03EB9414608F101080098A6
:1056100006F034F807001FD10098017830440229C1
:1056200000F13C0004D005F072F9000106D006E05C
:1056300005F0A3F900B96D1CB61C01E06D1C361D08
:10564000C6F30806641EDED1C9F8005000988561D3
:10565000417941F00101417111B03846BDE8F08354
:105660002DE9FF4FA7B0994690460C4627A801F0B8
:1056700041FE002803DA0B202BB0BDE8F08FFE4975
:10568000002751F8201001B10F70C0B20790FFF74A
:105690005EFEC10701D00320EEE7400701D50A20D6
:1056A000EAE704B9F54C4FF400456068109030B952
:1056B00010AA03210798FFF757FE109820B1A842BF
:1056C00002D8411E084201D00120109020784FF4EA
:1056D000007600F00F00179060780146401E012808
:1056E00001D8084600E001200E90A068411EA942A2
:1056F00005D21021B0FBF1F201FB120101B13046DD
:105700000B90E068B0F1807F02D8411E084200D0C3
:105710000020B0FBF6F5B9FBF6F05FEA000915D002
:105720005FEA080405D14FEA492001F0F3F80400CC
:105730000CD000208346139013AA01210798FFF78D
:1057400013FE50B1B8F1000F02D004E0112093E72E
:10575000204601F0E3F801208EE71798000706D4F1
:1057600013983F2803D93F384FF03F0B13901398FD
:10577000802807D2B8F1000F02D1204601F0CEF800
:105780000E2079E717994A07BD4911D5179A02F0FB
:1057900007034FF08062042B03D0904201D2802D8A
:1057A00009D901440F91B0F5805FE3D3FDB126E044
:1057B000802D00D98025179A4FF6F57E9207179A0B
:1057C0004FEAC27205D52AB901444FF0030A0F917E
:1057D00050E322B101444FF0020A0F9142E3B8F1C5
:1057E000000F02D1204601F099F8132044E7082564
:1057F000B0F5002F03D34025904200D3AD000BF14C
:1058000020011291B0FBF5F1890001F20721B1FBF3
:10581000F6F2129906920A4410990A44491E521E41
:105820008A43A2EB0B0108921491B1EB500FA1D265
:10583000401AB0FBF5F01C9010289BD39149884288
:1058400098D8C01DC0080E90401E05FB06006902D6
:10585000B0FBF1F01E9005FB002019900020039092
:10586000074682460B900D9016900AE00B9840B1C7
:1058700001282CD00D9880B21A900D98384487B228
:105880002CE0384601F0C6F880B21A90B84202D037
:105890007F1CBFB224E0012001E00D98401C0D9058
:1058A000384401900004000C07D0019880B201F048
:1058B000B1F8019989B28842EFD00D98802804D3BD
:1058C0004FF6FF701A90022009E001200B901A9702
:1058D0007F1C0D98BFB2401E0D9001D100200B908F
:1058E0001A98C0B204F80A00039906F078FF01463E
:1058F0001A9804EB0A02000A507006F070FF039039
:1059000016980AF1020A801C16901FB109FB06F0D6
:105910005045ABD10AEB0600401EB0FBF6F08246C4
:1059200003462146199A0798FFF777FD00287FF470
:1059300009AF1998002F50444FF0000A199095D1E3
:10594000169805FB06F1401E05FB0600B0FBF1F0C2
:105950001F9001202090089819900E9809FB06F7D7
:105960003044401EB0FBF6FADDE91E010844401C3D
:105970001B9039462046FAF76DFC00201B990DE07C
:1059800004EBD00200F0070C1178012303FA0CF3AA
:10599000194311701B99491E401C1B9111B1B7EBA3
:1059A000D00FEDD850464946CA4500D908460346AF
:1059B00001902146199A0798FFF72FFD0028B6D1CC
:1059C0000199199808441990AAEB01005FEA000AAE
:1059D000CFD11298199006980B9000201A901B9026
:1059E0000D9039462046FAF735FC1A984FF0000A18
:1059F00010BB20466FF0070106F06AFB201D4FF038
:105A0000FF3106F065FB02204FF0080A1A9013E000
:105A10001B98012802D91A99491C01E04FF0FF3167
:105A200004EB0A0006F054FB1A980AF1040A401C21
:105A30001A901B98401E1B901B9810B15745E7D831
:105A40000BE00D9803280AD20D991EA850F82100EA
:105A50001B90481C0D901B9808B15745ECD80B992A
:105A60004846494500D80846824603462146199AC9
:105A70000798FFF7D2FC07E0B4020020F4F8000812
:105A800000002154FDFFFF7F002898D11998504451
:105A900019900B98B0EB0A000B90A2D13946204622
:105AA000FAF7D8FB83202070812084F8200002219F
:105AB00004F1340006F00CFB04F138000E9906F0F6
:105AC00007FB822084F8400004F14400039906F0AB
:105AD000FFFA1E9904F15400891C0C9006F0F8FAA4
